{
	"Escrow.sol": {
		"Escrow": {
			"abi": [
				{
					"inputs": [
						{
							"internalType": "address",
							"name": "_marketplace",
							"type": "address"
						},
						{
							"internalType": "address",
							"name": "_paymentToken",
							"type": "address"
						},
						{
							"internalType": "address",
							"name": "_feeRecipient",
							"type": "address"
						}
					],
					"stateMutability": "nonpayable",
					"type": "constructor"
				},
				{
					"anonymous": false,
					"inputs": [
						{
							"indexed": true,
							"internalType": "uint256",
							"name": "listingId",
							"type": "uint256"
						}
					],
					"name": "EscrowCancelled",
					"type": "event"
				},
				{
					"anonymous": false,
					"inputs": [
						{
							"indexed": true,
							"internalType": "uint256",
							"name": "listingId",
							"type": "uint256"
						},
						{
							"indexed": true,
							"internalType": "address",
							"name": "buyer",
							"type": "address"
						},
						{
							"indexed": true,
							"internalType": "address",
							"name": "seller",
							"type": "address"
						},
						{
							"indexed": false,
							"internalType": "uint256",
							"name": "amount",
							"type": "uint256"
						}
					],
					"name": "EscrowFunded",
					"type": "event"
				},
				{
					"anonymous": false,
					"inputs": [
						{
							"indexed": true,
							"internalType": "uint256",
							"name": "listingId",
							"type": "uint256"
						},
						{
							"indexed": true,
							"internalType": "address",
							"name": "refundRecipient",
							"type": "address"
						},
						{
							"indexed": false,
							"internalType": "uint256",
							"name": "amount",
							"type": "uint256"
						}
					],
					"name": "EscrowRefunded",
					"type": "event"
				},
				{
					"anonymous": false,
					"inputs": [
						{
							"indexed": true,
							"internalType": "uint256",
							"name": "listingId",
							"type": "uint256"
						},
						{
							"indexed": true,
							"internalType": "address",
							"name": "buyer",
							"type": "address"
						},
						{
							"indexed": true,
							"internalType": "address",
							"name": "seller",
							"type": "address"
						},
						{
							"indexed": false,
							"internalType": "uint256",
							"name": "payoutAmount",
							"type": "uint256"
						},
						{
							"indexed": false,
							"internalType": "uint256",
							"name": "feeAmount",
							"type": "uint256"
						}
					],
					"name": "EscrowReleased",
					"type": "event"
				},
				{
					"anonymous": false,
					"inputs": [
						{
							"indexed": false,
							"internalType": "address",
							"name": "newFeeRecipient",
							"type": "address"
						}
					],
					"name": "FeeRecipientUpdated",
					"type": "event"
				},
				{
					"anonymous": false,
					"inputs": [
						{
							"indexed": false,
							"internalType": "address",
							"name": "newPaymentToken",
							"type": "address"
						}
					],
					"name": "PaymentTokenUpdated",
					"type": "event"
				},
				{
					"anonymous": false,
					"inputs": [
						{
							"indexed": false,
							"internalType": "uint256",
							"name": "newFeeBps",
							"type": "uint256"
						}
					],
					"name": "PlatformFeeUpdated",
					"type": "event"
				},
				{
					"anonymous": false,
					"inputs": [
						{
							"indexed": true,
							"internalType": "uint256",
							"name": "listingId",
							"type": "uint256"
						},
						{
							"indexed": true,
							"internalType": "address",
							"name": "rejectedBy",
							"type": "address"
						},
						{
							"indexed": false,
							"internalType": "string",
							"name": "reason",
							"type": "string"
						}
					],
					"name": "WorkRejected",
					"type": "event"
				},
				{
					"anonymous": false,
					"inputs": [
						{
							"indexed": true,
							"internalType": "uint256",
							"name": "listingId",
							"type": "uint256"
						},
						{
							"indexed": true,
							"internalType": "address",
							"name": "submittedBy",
							"type": "address"
						}
					],
					"name": "WorkSubmitted",
					"type": "event"
				},
				{
					"inputs": [
						{
							"internalType": "uint256",
							"name": "listingId",
							"type": "uint256"
						}
					],
					"name": "adminRefund",
					"outputs": [],
					"stateMutability": "nonpayable",
					"type": "function"
				},
				{
					"inputs": [
						{
							"internalType": "uint256",
							"name": "listingId",
							"type": "uint256"
						}
					],
					"name": "confirmCompletion",
					"outputs": [],
					"stateMutability": "nonpayable",
					"type": "function"
				},
				{
					"inputs": [
						{
							"internalType": "uint256",
							"name": "",
							"type": "uint256"
						}
					],
					"name": "escrows",
					"outputs": [
						{
							"internalType": "uint256",
							"name": "listingId",
							"type": "uint256"
						},
						{
							"internalType": "address",
							"name": "buyer",
							"type": "address"
						},
						{
							"internalType": "address",
							"name": "seller",
							"type": "address"
						},
						{
							"internalType": "uint256",
							"name": "amount",
							"type": "uint256"
						},
						{
							"internalType": "enum Escrow.EscrowStatus",
							"name": "status",
							"type": "uint8"
						},
						{
							"internalType": "uint256",
							"name": "fundedAt",
							"type": "uint256"
						},
						{
							"internalType": "bool",
							"name": "exists",
							"type": "bool"
						},
						{
							"internalType": "bool",
							"name": "rejectedOnce",
							"type": "bool"
						}
					],
					"stateMutability": "view",
					"type": "function"
				},
				{
					"inputs": [],
					"name": "feeRecipient",
					"outputs": [
						{
							"internalType": "address",
							"name": "",
							"type": "address"
						}
					],
					"stateMutability": "view",
					"type": "function"
				},
				{
					"inputs": [
						{
							"internalType": "uint256",
							"name": "listingId",
							"type": "uint256"
						}
					],
					"name": "fundEscrow",
					"outputs": [],
					"stateMutability": "nonpayable",
					"type": "function"
				},
				{
					"inputs": [
						{
							"internalType": "uint256",
							"name": "listingId",
							"type": "uint256"
						}
					],
					"name": "getEscrow",
					"outputs": [
						{
							"components": [
								{
									"internalType": "uint256",
									"name": "listingId",
									"type": "uint256"
								},
								{
									"internalType": "address",
									"name": "buyer",
									"type": "address"
								},
								{
									"internalType": "address",
									"name": "seller",
									"type": "address"
								},
								{
									"internalType": "uint256",
									"name": "amount",
									"type": "uint256"
								},
								{
									"internalType": "enum Escrow.EscrowStatus",
									"name": "status",
									"type": "uint8"
								},
								{
									"internalType": "uint256",
									"name": "fundedAt",
									"type": "uint256"
								},
								{
									"internalType": "bool",
									"name": "exists",
									"type": "bool"
								},
								{
									"internalType": "bool",
									"name": "rejectedOnce",
									"type": "bool"
								}
							],
							"internalType": "struct Escrow.EscrowDeal",
							"name": "",
							"type": "tuple"
						}
					],
					"stateMutability": "view",
					"type": "function"
				},
				{
					"inputs": [],
					"name": "marketplace",
					"outputs": [
						{
							"internalType": "address",
							"name": "",
							"type": "address"
						}
					],
					"stateMutability": "view",
					"type": "function"
				},
				{
					"inputs": [],
					"name": "owner",
					"outputs": [
						{
							"internalType": "address",
							"name": "",
							"type": "address"
						}
					],
					"stateMutability": "view",
					"type": "function"
				},
				{
					"inputs": [],
					"name": "paymentToken",
					"outputs": [
						{
							"internalType": "contract IERC20",
							"name": "",
							"type": "address"
						}
					],
					"stateMutability": "view",
					"type": "function"
				},
				{
					"inputs": [],
					"name": "platformFeeBps",
					"outputs": [
						{
							"internalType": "uint256",
							"name": "",
							"type": "uint256"
						}
					],
					"stateMutability": "view",
					"type": "function"
				},
				{
					"inputs": [
						{
							"internalType": "uint256",
							"name": "listingId",
							"type": "uint256"
						},
						{
							"internalType": "string",
							"name": "reason",
							"type": "string"
						}
					],
					"name": "rejectWork",
					"outputs": [],
					"stateMutability": "nonpayable",
					"type": "function"
				},
				{
					"inputs": [
						{
							"internalType": "uint256",
							"name": "listingId",
							"type": "uint256"
						}
					],
					"name": "sellerCancel",
					"outputs": [],
					"stateMutability": "nonpayable",
					"type": "function"
				},
				{
					"inputs": [
						{
							"internalType": "address",
							"name": "newFeeRecipient",
							"type": "address"
						}
					],
					"name": "setFeeRecipient",
					"outputs": [],
					"stateMutability": "nonpayable",
					"type": "function"
				},
				{
					"inputs": [
						{
							"internalType": "address",
							"name": "newPaymentToken",
							"type": "address"
						}
					],
					"name": "setPaymentToken",
					"outputs": [],
					"stateMutability": "nonpayable",
					"type": "function"
				},
				{
					"inputs": [
						{
							"internalType": "uint256",
							"name": "newFeeBps",
							"type": "uint256"
						}
					],
					"name": "setPlatformFeeBps",
					"outputs": [],
					"stateMutability": "nonpayable",
					"type": "function"
				},
				{
					"inputs": [
						{
							"internalType": "uint256",
							"name": "listingId",
							"type": "uint256"
						}
					],
					"name": "submitWork",
					"outputs": [],
					"stateMutability": "nonpayable",
					"type": "function"
				}
			],
			"devdoc": {
				"kind": "dev",
				"methods": {},
				"version": 1
			},
			"evm": {
				"assembly": "    /* \"Escrow.sol\":1227:11421  contract Escrow {... */\n  mstore(0x40, 0x80)\n    /* \"Escrow.sol\":1738:1741  250 */\n  0xfa\n    /* \"Escrow.sol\":1706:1741  uint256 public platformFeeBps = 250 */\n  0x03\n  sstore\n    /* \"Escrow.sol\":3096:3564  constructor(... */\n  callvalue\n  dup1\n  iszero\n  tag_1\n  jumpi\n  revert(0x00, 0x00)\ntag_1:\n  pop\n  mload(0x40)\n  sub(codesize, bytecodeSize)\n  dup1\n  bytecodeSize\n  dup4\n  codecopy\n  dup2\n  dup2\n  add\n  0x40\n  mstore\n  dup2\n  add\n  swap1\n  tag_2\n  swap2\n  swap1\n  tag_3\n  jump\t// in\ntag_2:\n    /* \"Escrow.sol\":3248:3249  0 */\n  0x00\n    /* \"Escrow.sol\":3224:3250  _marketplace != address(0) */\n  0xffffffffffffffffffffffffffffffffffffffff\n  and\n    /* \"Escrow.sol\":3224:3236  _marketplace */\n  dup4\n    /* \"Escrow.sol\":3224:3250  _marketplace != address(0) */\n  0xffffffffffffffffffffffffffffffffffffffff\n  and\n  sub\n    /* \"Escrow.sol\":3216:3274  require(_marketplace != address(0), \"Invalid marketplace\") */\n  tag_6\n  jumpi\n  mload(0x40)\n  0x08c379a000000000000000000000000000000000000000000000000000000000\n  dup2\n  mstore\n  0x04\n  add\n  tag_7\n  swap1\n  tag_8\n  jump\t// in\ntag_7:\n  mload(0x40)\n  dup1\n  swap2\n  sub\n  swap1\n  revert\ntag_6:\n    /* \"Escrow.sol\":3317:3318  0 */\n  0x00\n    /* \"Escrow.sol\":3292:3319  _paymentToken != address(0) */\n  0xffffffffffffffffffffffffffffffffffffffff\n  and\n    /* \"Escrow.sol\":3292:3305  _paymentToken */\n  dup3\n    /* \"Escrow.sol\":3292:3319  _paymentToken != address(0) */\n  0xffffffffffffffffffffffffffffffffffffffff\n  and\n  sub\n    /* \"Escrow.sol\":3284:3337  require(_paymentToken != address(0), \"Invalid token\") */\n  tag_9\n  jumpi\n  mload(0x40)\n  0x08c379a000000000000000000000000000000000000000000000000000000000\n  dup2\n  mstore\n  0x04\n  add\n  tag_10\n  swap1\n  tag_11\n  jump\t// in\ntag_10:\n  mload(0x40)\n  dup1\n  swap2\n  sub\n  swap1\n  revert\ntag_9:\n    /* \"Escrow.sol\":3380:3381  0 */\n  0x00\n    /* \"Escrow.sol\":3355:3382  _feeRecipient != address(0) */\n  0xffffffffffffffffffffffffffffffffffffffff\n  and\n    /* \"Escrow.sol\":3355:3368  _feeRecipient */\n  dup2\n    /* \"Escrow.sol\":3355:3382  _feeRecipient != address(0) */\n  0xffffffffffffffffffffffffffffffffffffffff\n  and\n  sub\n    /* \"Escrow.sol\":3347:3408  require(_feeRecipient != address(0), \"Invalid fee recipient\") */\n  tag_12\n  jumpi\n  mload(0x40)\n  0x08c379a000000000000000000000000000000000000000000000000000000000\n  dup2\n  mstore\n  0x04\n  add\n  tag_13\n  swap1\n  tag_14\n  jump\t// in\ntag_13:\n  mload(0x40)\n  dup1\n  swap2\n  sub\n  swap1\n  revert\ntag_12:\n    /* \"Escrow.sol\":3427:3437  msg.sender */\n  caller\n    /* \"Escrow.sol\":3419:3424  owner */\n  0x00\n  0x00\n    /* \"Escrow.sol\":3419:3437  owner = msg.sender */\n  0x0100\n  exp\n  dup2\n  sload\n  dup2\n  0xffffffffffffffffffffffffffffffffffffffff\n  mul\n  not\n  and\n  swap1\n  dup4\n  0xffffffffffffffffffffffffffffffffffffffff\n  and\n  mul\n  or\n  swap1\n  sstore\n  pop\n    /* \"Escrow.sol\":3461:3473  _marketplace */\n  dup3\n    /* \"Escrow.sol\":3447:3458  marketplace */\n  0x01\n  0x00\n    /* \"Escrow.sol\":3447:3473  marketplace = _marketplace */\n  0x0100\n  exp\n  dup2\n  sload\n  dup2\n  0xffffffffffffffffffffffffffffffffffffffff\n  mul\n  not\n  and\n  swap1\n  dup4\n  0xffffffffffffffffffffffffffffffffffffffff\n  and\n  mul\n  or\n  swap1\n  sstore\n  pop\n    /* \"Escrow.sol\":3505:3518  _paymentToken */\n  dup2\n    /* \"Escrow.sol\":3483:3495  paymentToken */\n  0x02\n  0x00\n    /* \"Escrow.sol\":3483:3519  paymentToken = IERC20(_paymentToken) */\n  0x0100\n  exp\n  dup2\n  sload\n  dup2\n  0xffffffffffffffffffffffffffffffffffffffff\n  mul\n  not\n  and\n  swap1\n  dup4\n  0xffffffffffffffffffffffffffffffffffffffff\n  and\n  mul\n  or\n  swap1\n  sstore\n  pop\n    /* \"Escrow.sol\":3544:3557  _feeRecipient */\n  dup1\n    /* \"Escrow.sol\":3529:3541  feeRecipient */\n  0x04\n  0x00\n    /* \"Escrow.sol\":3529:3557  feeRecipient = _feeRecipient */\n  0x0100\n  exp\n  dup2\n  sload\n  dup2\n  0xffffffffffffffffffffffffffffffffffffffff\n  mul\n  not\n  and\n  swap1\n  dup4\n  0xffffffffffffffffffffffffffffffffffffffff\n  and\n  mul\n  or\n  swap1\n  sstore\n  pop\n    /* \"Escrow.sol\":3096:3564  constructor(... */\n  pop\n  pop\n  pop\n    /* \"Escrow.sol\":1227:11421  contract Escrow {... */\n  jump(tag_15)\n    /* \"#utility.yul\":88:205   */\ntag_17:\n    /* \"#utility.yul\":197:198   */\n  0x00\n    /* \"#utility.yul\":194:195   */\n  0x00\n    /* \"#utility.yul\":187:199   */\n  revert\n    /* \"#utility.yul\":334:460   */\ntag_19:\n    /* \"#utility.yul\":371:378   */\n  0x00\n    /* \"#utility.yul\":411:453   */\n  0xffffffffffffffffffffffffffffffffffffffff\n    /* \"#utility.yul\":404:409   */\n  dup3\n    /* \"#utility.yul\":400:454   */\n  and\n    /* \"#utility.yul\":389:454   */\n  swap1\n  pop\n    /* \"#utility.yul\":334:460   */\n  swap2\n  swap1\n  pop\n  jump\t// out\n    /* \"#utility.yul\":466:562   */\ntag_20:\n    /* \"#utility.yul\":503:510   */\n  0x00\n    /* \"#utility.yul\":532:556   */\n  tag_36\n    /* \"#utility.yul\":550:555   */\n  dup3\n    /* \"#utility.yul\":532:556   */\n  tag_19\n  jump\t// in\ntag_36:\n    /* \"#utility.yul\":521:556   */\n  swap1\n  pop\n    /* \"#utility.yul\":466:562   */\n  swap2\n  swap1\n  pop\n  jump\t// out\n    /* \"#utility.yul\":568:690   */\ntag_21:\n    /* \"#utility.yul\":641:665   */\n  tag_38\n    /* \"#utility.yul\":659:664   */\n  dup2\n    /* \"#utility.yul\":641:665   */\n  tag_20\n  jump\t// in\ntag_38:\n    /* \"#utility.yul\":634:639   */\n  dup2\n    /* \"#utility.yul\":631:666   */\n  eq\n    /* \"#utility.yul\":621:684   */\n  tag_39\n  jumpi\n    /* \"#utility.yul\":680:681   */\n  0x00\n    /* \"#utility.yul\":677:678   */\n  0x00\n    /* \"#utility.yul\":670:682   */\n  revert\n    /* \"#utility.yul\":621:684   */\ntag_39:\n    /* \"#utility.yul\":568:690   */\n  pop\n  jump\t// out\n    /* \"#utility.yul\":696:839   */\ntag_22:\n    /* \"#utility.yul\":753:758   */\n  0x00\n    /* \"#utility.yul\":784:790   */\n  dup2\n    /* \"#utility.yul\":778:791   */\n  mload\n    /* \"#utility.yul\":769:791   */\n  swap1\n  pop\n    /* \"#utility.yul\":800:833   */\n  tag_41\n    /* \"#utility.yul\":827:832   */\n  dup2\n    /* \"#utility.yul\":800:833   */\n  tag_21\n  jump\t// in\ntag_41:\n    /* \"#utility.yul\":696:839   */\n  swap3\n  swap2\n  pop\n  pop\n  jump\t// out\n    /* \"#utility.yul\":845:1508   */\ntag_3:\n    /* \"#utility.yul\":933:939   */\n  0x00\n    /* \"#utility.yul\":941:947   */\n  0x00\n    /* \"#utility.yul\":949:955   */\n  0x00\n    /* \"#utility.yul\":998:1000   */\n  0x60\n    /* \"#utility.yul\":986:995   */\n  dup5\n    /* \"#utility.yul\":977:984   */\n  dup7\n    /* \"#utility.yul\":973:996   */\n  sub\n    /* \"#utility.yul\":969:1001   */\n  slt\n    /* \"#utility.yul\":966:1085   */\n  iszero\n  tag_43\n  jumpi\n    /* \"#utility.yul\":1004:1083   */\n  tag_44\n  tag_17\n  jump\t// in\ntag_44:\n    /* \"#utility.yul\":966:1085   */\ntag_43:\n    /* \"#utility.yul\":1124:1125   */\n  0x00\n    /* \"#utility.yul\":1149:1213   */\n  tag_45\n    /* \"#utility.yul\":1205:1212   */\n  dup7\n    /* \"#utility.yul\":1196:1202   */\n  dup3\n    /* \"#utility.yul\":1185:1194   */\n  dup8\n    /* \"#utility.yul\":1181:1203   */\n  add\n    /* \"#utility.yul\":1149:1213   */\n  tag_22\n  jump\t// in\ntag_45:\n    /* \"#utility.yul\":1139:1213   */\n  swap4\n  pop\n    /* \"#utility.yul\":1095:1223   */\n  pop\n    /* \"#utility.yul\":1262:1264   */\n  0x20\n    /* \"#utility.yul\":1288:1352   */\n  tag_46\n    /* \"#utility.yul\":1344:1351   */\n  dup7\n    /* \"#utility.yul\":1335:1341   */\n  dup3\n    /* \"#utility.yul\":1324:1333   */\n  dup8\n    /* \"#utility.yul\":1320:1342   */\n  add\n    /* \"#utility.yul\":1288:1352   */\n  tag_22\n  jump\t// in\ntag_46:\n    /* \"#utility.yul\":1278:1352   */\n  swap3\n  pop\n    /* \"#utility.yul\":1233:1362   */\n  pop\n    /* \"#utility.yul\":1401:1403   */\n  0x40\n    /* \"#utility.yul\":1427:1491   */\n  tag_47\n    /* \"#utility.yul\":1483:1490   */\n  dup7\n    /* \"#utility.yul\":1474:1480   */\n  dup3\n    /* \"#utility.yul\":1463:1472   */\n  dup8\n    /* \"#utility.yul\":1459:1481   */\n  add\n    /* \"#utility.yul\":1427:1491   */\n  tag_22\n  jump\t// in\ntag_47:\n    /* \"#utility.yul\":1417:1491   */\n  swap2\n  pop\n    /* \"#utility.yul\":1372:1501   */\n  pop\n    /* \"#utility.yul\":845:1508   */\n  swap3\n  pop\n  swap3\n  pop\n  swap3\n  jump\t// out\n    /* \"#utility.yul\":1514:1683   */\ntag_23:\n    /* \"#utility.yul\":1598:1609   */\n  0x00\n    /* \"#utility.yul\":1632:1638   */\n  dup3\n    /* \"#utility.yul\":1627:1630   */\n  dup3\n    /* \"#utility.yul\":1620:1639   */\n  mstore\n    /* \"#utility.yul\":1672:1676   */\n  0x20\n    /* \"#utility.yul\":1667:1670   */\n  dup3\n    /* \"#utility.yul\":1663:1677   */\n  add\n    /* \"#utility.yul\":1648:1677   */\n  swap1\n  pop\n    /* \"#utility.yul\":1514:1683   */\n  swap3\n  swap2\n  pop\n  pop\n  jump\t// out\n    /* \"#utility.yul\":1689:1858   */\ntag_24:\n    /* \"#utility.yul\":1829:1850   */\n  0x496e76616c6964206d61726b6574706c61636500000000000000000000000000\n    /* \"#utility.yul\":1825:1826   */\n  0x00\n    /* \"#utility.yul\":1817:1823   */\n  dup3\n    /* \"#utility.yul\":1813:1827   */\n  add\n    /* \"#utility.yul\":1806:1851   */\n  mstore\n    /* \"#utility.yul\":1689:1858   */\n  pop\n  jump\t// out\n    /* \"#utility.yul\":1864:2230   */\ntag_25:\n    /* \"#utility.yul\":2006:2009   */\n  0x00\n    /* \"#utility.yul\":2027:2094   */\n  tag_51\n    /* \"#utility.yul\":2091:2093   */\n  0x13\n    /* \"#utility.yul\":2086:2089   */\n  dup4\n    /* \"#utility.yul\":2027:2094   */\n  tag_23\n  jump\t// in\ntag_51:\n    /* \"#utility.yul\":2020:2094   */\n  swap2\n  pop\n    /* \"#utility.yul\":2103:2196   */\n  tag_52\n    /* \"#utility.yul\":2192:2195   */\n  dup3\n    /* \"#utility.yul\":2103:2196   */\n  tag_24\n  jump\t// in\ntag_52:\n    /* \"#utility.yul\":2221:2223   */\n  0x20\n    /* \"#utility.yul\":2216:2219   */\n  dup3\n    /* \"#utility.yul\":2212:2224   */\n  add\n    /* \"#utility.yul\":2205:2224   */\n  swap1\n  pop\n    /* \"#utility.yul\":1864:2230   */\n  swap2\n  swap1\n  pop\n  jump\t// out\n    /* \"#utility.yul\":2236:2655   */\ntag_8:\n    /* \"#utility.yul\":2402:2406   */\n  0x00\n    /* \"#utility.yul\":2440:2442   */\n  0x20\n    /* \"#utility.yul\":2429:2438   */\n  dup3\n    /* \"#utility.yul\":2425:2443   */\n  add\n    /* \"#utility.yul\":2417:2443   */\n  swap1\n  pop\n    /* \"#utility.yul\":2489:2498   */\n  dup2\n    /* \"#utility.yul\":2483:2487   */\n  dup2\n    /* \"#utility.yul\":2479:2499   */\n  sub\n    /* \"#utility.yul\":2475:2476   */\n  0x00\n    /* \"#utility.yul\":2464:2473   */\n  dup4\n    /* \"#utility.yul\":2460:2477   */\n  add\n    /* \"#utility.yul\":2453:2500   */\n  mstore\n    /* \"#utility.yul\":2517:2648   */\n  tag_54\n    /* \"#utility.yul\":2643:2647   */\n  dup2\n    /* \"#utility.yul\":2517:2648   */\n  tag_25\n  jump\t// in\ntag_54:\n    /* \"#utility.yul\":2509:2648   */\n  swap1\n  pop\n    /* \"#utility.yul\":2236:2655   */\n  swap2\n  swap1\n  pop\n  jump\t// out\n    /* \"#utility.yul\":2661:2824   */\ntag_26:\n    /* \"#utility.yul\":2801:2816   */\n  0x496e76616c696420746f6b656e00000000000000000000000000000000000000\n    /* \"#utility.yul\":2797:2798   */\n  0x00\n    /* \"#utility.yul\":2789:2795   */\n  dup3\n    /* \"#utility.yul\":2785:2799   */\n  add\n    /* \"#utility.yul\":2778:2817   */\n  mstore\n    /* \"#utility.yul\":2661:2824   */\n  pop\n  jump\t// out\n    /* \"#utility.yul\":2830:3196   */\ntag_27:\n    /* \"#utility.yul\":2972:2975   */\n  0x00\n    /* \"#utility.yul\":2993:3060   */\n  tag_57\n    /* \"#utility.yul\":3057:3059   */\n  0x0d\n    /* \"#utility.yul\":3052:3055   */\n  dup4\n    /* \"#utility.yul\":2993:3060   */\n  tag_23\n  jump\t// in\ntag_57:\n    /* \"#utility.yul\":2986:3060   */\n  swap2\n  pop\n    /* \"#utility.yul\":3069:3162   */\n  tag_58\n    /* \"#utility.yul\":3158:3161   */\n  dup3\n    /* \"#utility.yul\":3069:3162   */\n  tag_26\n  jump\t// in\ntag_58:\n    /* \"#utility.yul\":3187:3189   */\n  0x20\n    /* \"#utility.yul\":3182:3185   */\n  dup3\n    /* \"#utility.yul\":3178:3190   */\n  add\n    /* \"#utility.yul\":3171:3190   */\n  swap1\n  pop\n    /* \"#utility.yul\":2830:3196   */\n  swap2\n  swap1\n  pop\n  jump\t// out\n    /* \"#utility.yul\":3202:3621   */\ntag_11:\n    /* \"#utility.yul\":3368:3372   */\n  0x00\n    /* \"#utility.yul\":3406:3408   */\n  0x20\n    /* \"#utility.yul\":3395:3404   */\n  dup3\n    /* \"#utility.yul\":3391:3409   */\n  add\n    /* \"#utility.yul\":3383:3409   */\n  swap1\n  pop\n    /* \"#utility.yul\":3455:3464   */\n  dup2\n    /* \"#utility.yul\":3449:3453   */\n  dup2\n    /* \"#utility.yul\":3445:3465   */\n  sub\n    /* \"#utility.yul\":3441:3442   */\n  0x00\n    /* \"#utility.yul\":3430:3439   */\n  dup4\n    /* \"#utility.yul\":3426:3443   */\n  add\n    /* \"#utility.yul\":3419:3466   */\n  mstore\n    /* \"#utility.yul\":3483:3614   */\n  tag_60\n    /* \"#utility.yul\":3609:3613   */\n  dup2\n    /* \"#utility.yul\":3483:3614   */\n  tag_27\n  jump\t// in\ntag_60:\n    /* \"#utility.yul\":3475:3614   */\n  swap1\n  pop\n    /* \"#utility.yul\":3202:3621   */\n  swap2\n  swap1\n  pop\n  jump\t// out\n    /* \"#utility.yul\":3627:3798   */\ntag_28:\n    /* \"#utility.yul\":3767:3790   */\n  0x496e76616c69642066656520726563697069656e740000000000000000000000\n    /* \"#utility.yul\":3763:3764   */\n  0x00\n    /* \"#utility.yul\":3755:3761   */\n  dup3\n    /* \"#utility.yul\":3751:3765   */\n  add\n    /* \"#utility.yul\":3744:3791   */\n  mstore\n    /* \"#utility.yul\":3627:3798   */\n  pop\n  jump\t// out\n    /* \"#utility.yul\":3804:4170   */\ntag_29:\n    /* \"#utility.yul\":3946:3949   */\n  0x00\n    /* \"#utility.yul\":3967:4034   */\n  tag_63\n    /* \"#utility.yul\":4031:4033   */\n  0x15\n    /* \"#utility.yul\":4026:4029   */\n  dup4\n    /* \"#utility.yul\":3967:4034   */\n  tag_23\n  jump\t// in\ntag_63:\n    /* \"#utility.yul\":3960:4034   */\n  swap2\n  pop\n    /* \"#utility.yul\":4043:4136   */\n  tag_64\n    /* \"#utility.yul\":4132:4135   */\n  dup3\n    /* \"#utility.yul\":4043:4136   */\n  tag_28\n  jump\t// in\ntag_64:\n    /* \"#utility.yul\":4161:4163   */\n  0x20\n    /* \"#utility.yul\":4156:4159   */\n  dup3\n    /* \"#utility.yul\":4152:4164   */\n  add\n    /* \"#utility.yul\":4145:4164   */\n  swap1\n  pop\n    /* \"#utility.yul\":3804:4170   */\n  swap2\n  swap1\n  pop\n  jump\t// out\n    /* \"#utility.yul\":4176:4595   */\ntag_14:\n    /* \"#utility.yul\":4342:4346   */\n  0x00\n    /* \"#utility.yul\":4380:4382   */\n  0x20\n    /* \"#utility.yul\":4369:4378   */\n  dup3\n    /* \"#utility.yul\":4365:4383   */\n  add\n    /* \"#utility.yul\":4357:4383   */\n  swap1\n  pop\n    /* \"#utility.yul\":4429:4438   */\n  dup2\n    /* \"#utility.yul\":4423:4427   */\n  dup2\n    /* \"#utility.yul\":4419:4439   */\n  sub\n    /* \"#utility.yul\":4415:4416   */\n  0x00\n    /* \"#utility.yul\":4404:4413   */\n  dup4\n    /* \"#utility.yul\":4400:4417   */\n  add\n    /* \"#utility.yul\":4393:4440   */\n  mstore\n    /* \"#utility.yul\":4457:4588   */\n  tag_66\n    /* \"#utility.yul\":4583:4587   */\n  dup2\n    /* \"#utility.yul\":4457:4588   */\n  tag_29\n  jump\t// in\ntag_66:\n    /* \"#utility.yul\":4449:4588   */\n  swap1\n  pop\n    /* \"#utility.yul\":4176:4595   */\n  swap2\n  swap1\n  pop\n  jump\t// out\n    /* \"Escrow.sol\":1227:11421  contract Escrow {... */\ntag_15:\n  dataSize(sub_0)\n  dup1\n  dataOffset(sub_0)\n  0x00\n  codecopy\n  0x00\n  return\nstop\n\nsub_0: assembly {\n        /* \"Escrow.sol\":1227:11421  contract Escrow {... */\n      mstore(0x40, 0x80)\n      callvalue\n      dup1\n      iszero\n      tag_1\n      jumpi\n      revert(0x00, 0x00)\n    tag_1:\n      pop\n      jumpi(tag_2, lt(calldatasize, 0x04))\n      shr(0xe0, calldataload(0x00))\n      dup1\n      0x8da5cb5b\n      gt\n      tag_19\n      jumpi\n      dup1\n      0xc580c942\n      gt\n      tag_20\n      jumpi\n      dup1\n      0xc580c942\n      eq\n      tag_15\n      jumpi\n      dup1\n      0xc9c31af5\n      eq\n      tag_16\n      jumpi\n      dup1\n      0xd7ec40ee\n      eq\n      tag_17\n      jumpi\n      dup1\n      0xe74b981b\n      eq\n      tag_18\n      jumpi\n      jump(tag_2)\n    tag_20:\n      dup1\n      0x8da5cb5b\n      eq\n      tag_11\n      jumpi\n      dup1\n      0x94aeb613\n      eq\n      tag_12\n      jumpi\n      dup1\n      0xabc8c7af\n      eq\n      tag_13\n      jumpi\n      dup1\n      0xc4c11523\n      eq\n      tag_14\n      jumpi\n      jump(tag_2)\n    tag_19:\n      dup1\n      0x46904840\n      gt\n      tag_21\n      jumpi\n      dup1\n      0x46904840\n      eq\n      tag_7\n      jumpi\n      dup1\n      0x4c48ede7\n      eq\n      tag_8\n      jumpi\n      dup1\n      0x6a326ab1\n      eq\n      tag_9\n      jumpi\n      dup1\n      0x7d19e596\n      eq\n      tag_10\n      jumpi\n      jump(tag_2)\n    tag_21:\n      dup1\n      0x012f52ee\n      eq\n      tag_3\n      jumpi\n      dup1\n      0x22dcd13e\n      eq\n      tag_4\n      jumpi\n      dup1\n      0x3013ce29\n      eq\n      tag_5\n      jumpi\n      dup1\n      0x301e8a05\n      eq\n      tag_6\n      jumpi\n    tag_2:\n      revert(0x00, 0x00)\n        /* \"Escrow.sol\":1781:1826  mapping(uint256 => EscrowDeal) public escrows */\n    tag_3:\n      tag_22\n      0x04\n      dup1\n      calldatasize\n      sub\n      dup2\n      add\n      swap1\n      tag_23\n      swap2\n      swap1\n      tag_24\n      jump\t// in\n    tag_23:\n      tag_25\n      jump\t// in\n    tag_22:\n      mload(0x40)\n      tag_26\n      swap9\n      swap8\n      swap7\n      swap6\n      swap5\n      swap4\n      swap3\n      swap2\n      swap1\n      tag_27\n      jump\t// in\n    tag_26:\n      mload(0x40)\n      dup1\n      swap2\n      sub\n      swap1\n      return\n        /* \"Escrow.sol\":1706:1741  uint256 public platformFeeBps = 250 */\n    tag_4:\n      tag_28\n      tag_29\n      jump\t// in\n    tag_28:\n      mload(0x40)\n      tag_30\n      swap2\n      swap1\n      tag_31\n      jump\t// in\n    tag_30:\n      mload(0x40)\n      dup1\n      swap2\n      sub\n      swap1\n      return\n        /* \"Escrow.sol\":1673:1699  IERC20 public paymentToken */\n    tag_5:\n      tag_32\n      tag_33\n      jump\t// in\n    tag_32:\n      mload(0x40)\n      tag_34\n      swap2\n      swap1\n      tag_35\n      jump\t// in\n    tag_34:\n      mload(0x40)\n      dup1\n      swap2\n      sub\n      swap1\n      return\n        /* \"Escrow.sol\":9235:10274  function sellerCancel(uint256 listingId)... */\n    tag_6:\n      tag_36\n      0x04\n      dup1\n      calldatasize\n      sub\n      dup2\n      add\n      swap1\n      tag_37\n      swap2\n      swap1\n      tag_24\n      jump\t// in\n    tag_37:\n      tag_38\n      jump\t// in\n    tag_36:\n      stop\n        /* \"Escrow.sol\":1747:1774  address public feeRecipient */\n    tag_7:\n      tag_39\n      tag_40\n      jump\t// in\n    tag_39:\n      mload(0x40)\n      tag_41\n      swap2\n      swap1\n      tag_42\n      jump\t// in\n    tag_41:\n      mload(0x40)\n      dup1\n      swap2\n      sub\n      swap1\n      return\n        /* \"Escrow.sol\":10280:11263  function adminRefund(uint256 listingId)... */\n    tag_8:\n      tag_43\n      0x04\n      dup1\n      calldatasize\n      sub\n      dup2\n      add\n      swap1\n      tag_44\n      swap2\n      swap1\n      tag_24\n      jump\t// in\n    tag_44:\n      tag_45\n      jump\t// in\n    tag_43:\n      stop\n        /* \"Escrow.sol\":4030:4272  function setPaymentToken(address newPaymentToken) external onlyOwner {... */\n    tag_9:\n      tag_46\n      0x04\n      dup1\n      calldatasize\n      sub\n      dup2\n      add\n      swap1\n      tag_47\n      swap2\n      swap1\n      tag_48\n      jump\t// in\n    tag_47:\n      tag_49\n      jump\t// in\n    tag_46:\n      stop\n        /* \"Escrow.sol\":11269:11419  function getEscrow(uint256 listingId)... */\n    tag_10:\n      tag_50\n      0x04\n      dup1\n      calldatasize\n      sub\n      dup2\n      add\n      swap1\n      tag_51\n      swap2\n      swap1\n      tag_24\n      jump\t// in\n    tag_51:\n      tag_52\n      jump\t// in\n    tag_50:\n      mload(0x40)\n      tag_53\n      swap2\n      swap1\n      tag_54\n      jump\t// in\n    tag_53:\n      mload(0x40)\n      dup1\n      swap2\n      sub\n      swap1\n      return\n        /* \"Escrow.sol\":1615:1635  address public owner */\n    tag_11:\n      tag_55\n      tag_56\n      jump\t// in\n    tag_55:\n      mload(0x40)\n      tag_57\n      swap2\n      swap1\n      tag_42\n      jump\t// in\n    tag_57:\n      mload(0x40)\n      dup1\n      swap2\n      sub\n      swap1\n      return\n        /* \"Escrow.sol\":7662:9229  function confirmCompletion(uint256 listingId)... */\n    tag_12:\n      tag_58\n      0x04\n      dup1\n      calldatasize\n      sub\n      dup2\n      add\n      swap1\n      tag_59\n      swap2\n      swap1\n      tag_24\n      jump\t// in\n    tag_59:\n      tag_60\n      jump\t// in\n    tag_58:\n      stop\n        /* \"Escrow.sol\":1641:1667  address public marketplace */\n    tag_13:\n      tag_61\n      tag_62\n      jump\t// in\n    tag_61:\n      mload(0x40)\n      tag_63\n      swap2\n      swap1\n      tag_42\n      jump\t// in\n    tag_63:\n      mload(0x40)\n      dup1\n      swap2\n      sub\n      swap1\n      return\n        /* \"Escrow.sol\":5965:6710  function submitWork(uint256 listingId) external escrowExists(listingId) {... */\n    tag_14:\n      tag_64\n      0x04\n      dup1\n      calldatasize\n      sub\n      dup2\n      add\n      swap1\n      tag_65\n      swap2\n      swap1\n      tag_24\n      jump\t// in\n    tag_65:\n      tag_66\n      jump\t// in\n    tag_64:\n      stop\n        /* \"Escrow.sol\":3570:3776  function setPlatformFeeBps(uint256 newFeeBps) external onlyOwner {... */\n    tag_15:\n      tag_67\n      0x04\n      dup1\n      calldatasize\n      sub\n      dup2\n      add\n      swap1\n      tag_68\n      swap2\n      swap1\n      tag_24\n      jump\t// in\n    tag_68:\n      tag_69\n      jump\t// in\n    tag_67:\n      stop\n        /* \"Escrow.sol\":4278:5959  function fundEscrow(uint256 listingId) external {... */\n    tag_16:\n      tag_70\n      0x04\n      dup1\n      calldatasize\n      sub\n      dup2\n      add\n      swap1\n      tag_71\n      swap2\n      swap1\n      tag_24\n      jump\t// in\n    tag_71:\n      tag_72\n      jump\t// in\n    tag_70:\n      stop\n        /* \"Escrow.sol\":6716:7656  function rejectWork(uint256 listingId, string calldata reason)... */\n    tag_17:\n      tag_73\n      0x04\n      dup1\n      calldatasize\n      sub\n      dup2\n      add\n      swap1\n      tag_74\n      swap2\n      swap1\n      tag_75\n      jump\t// in\n    tag_74:\n      tag_76\n      jump\t// in\n    tag_73:\n      stop\n        /* \"Escrow.sol\":3782:4024  function setFeeRecipient(address newFeeRecipient) external onlyOwner {... */\n    tag_18:\n      tag_77\n      0x04\n      dup1\n      calldatasize\n      sub\n      dup2\n      add\n      swap1\n      tag_78\n      swap2\n      swap1\n      tag_48\n      jump\t// in\n    tag_78:\n      tag_79\n      jump\t// in\n    tag_77:\n      stop\n        /* \"Escrow.sol\":1781:1826  mapping(uint256 => EscrowDeal) public escrows */\n    tag_25:\n      mstore(0x20, 0x05)\n      dup1\n      0x00\n      mstore\n      keccak256(0x00, 0x40)\n      0x00\n      swap2\n      pop\n      swap1\n      pop\n      dup1\n      0x00\n      add\n      sload\n      swap1\n      dup1\n      0x01\n      add\n      0x00\n      swap1\n      sload\n      swap1\n      0x0100\n      exp\n      swap1\n      div\n      0xffffffffffffffffffffffffffffffffffffffff\n      and\n      swap1\n      dup1\n      0x02\n      add\n      0x00\n      swap1\n      sload\n      swap1\n      0x0100\n      exp\n      swap1\n      div\n      0xffffffffffffffffffffffffffffffffffffffff\n      and\n      swap1\n      dup1\n      0x03\n      add\n      sload\n      swap1\n      dup1\n      0x04\n      add\n      0x00\n      swap1\n      sload\n      swap1\n      0x0100\n      exp\n      swap1\n      div\n      0xff\n      and\n      swap1\n      dup1\n      0x05\n      add\n      sload\n      swap1\n      dup1\n      0x06\n      add\n      0x00\n      swap1\n      sload\n      swap1\n      0x0100\n      exp\n      swap1\n      div\n      0xff\n      and\n      swap1\n      dup1\n      0x06\n      add\n      0x01\n      swap1\n      sload\n      swap1\n      0x0100\n      exp\n      swap1\n      div\n      0xff\n      and\n      swap1\n      pop\n      dup9\n      jump\t// out\n        /* \"Escrow.sol\":1706:1741  uint256 public platformFeeBps = 250 */\n    tag_29:\n      sload(0x03)\n      dup2\n      jump\t// out\n        /* \"Escrow.sol\":1673:1699  IERC20 public paymentToken */\n    tag_33:\n      0x02\n      0x00\n      swap1\n      sload\n      swap1\n      0x0100\n      exp\n      swap1\n      div\n      0xffffffffffffffffffffffffffffffffffffffff\n      and\n      dup2\n      jump\t// out\n        /* \"Escrow.sol\":9235:10274  function sellerCancel(uint256 listingId)... */\n    tag_38:\n        /* \"Escrow.sol\":9314:9323  listingId */\n      dup1\n        /* \"Escrow.sol\":3021:3028  escrows */\n      0x05\n        /* \"Escrow.sol\":3021:3039  escrows[listingId] */\n      0x00\n        /* \"Escrow.sol\":3029:3038  listingId */\n      dup3\n        /* \"Escrow.sol\":3021:3039  escrows[listingId] */\n      dup2\n      mstore\n      0x20\n      add\n      swap1\n      dup2\n      mstore\n      0x20\n      add\n      0x00\n      keccak256\n        /* \"Escrow.sol\":3021:3046  escrows[listingId].exists */\n      0x06\n      add\n      0x00\n      swap1\n      sload\n      swap1\n      0x0100\n      exp\n      swap1\n      div\n      0xff\n      and\n        /* \"Escrow.sol\":3013:3072  require(escrows[listingId].exists, \"Escrow does not exist\") */\n      tag_81\n      jumpi\n      mload(0x40)\n      0x08c379a000000000000000000000000000000000000000000000000000000000\n      dup2\n      mstore\n      0x04\n      add\n      tag_82\n      swap1\n      tag_83\n      jump\t// in\n    tag_82:\n      mload(0x40)\n      dup1\n      swap2\n      sub\n      swap1\n      revert\n    tag_81:\n        /* \"Escrow.sol\":9344:9353  listingId */\n      dup2\n        /* \"Escrow.sol\":2913:2923  msg.sender */\n      caller\n        /* \"Escrow.sol\":2884:2923  escrows[listingId].seller == msg.sender */\n      0xffffffffffffffffffffffffffffffffffffffff\n      and\n        /* \"Escrow.sol\":2884:2891  escrows */\n      0x05\n        /* \"Escrow.sol\":2884:2902  escrows[listingId] */\n      0x00\n        /* \"Escrow.sol\":2892:2901  listingId */\n      dup4\n        /* \"Escrow.sol\":2884:2902  escrows[listingId] */\n      dup2\n      mstore\n      0x20\n      add\n      swap1\n      dup2\n      mstore\n      0x20\n      add\n      0x00\n      keccak256\n        /* \"Escrow.sol\":2884:2909  escrows[listingId].seller */\n      0x02\n      add\n      0x00\n      swap1\n      sload\n      swap1\n      0x0100\n      exp\n      swap1\n      div\n      0xffffffffffffffffffffffffffffffffffffffff\n      and\n        /* \"Escrow.sol\":2884:2923  escrows[listingId].seller == msg.sender */\n      0xffffffffffffffffffffffffffffffffffffffff\n      and\n      eq\n        /* \"Escrow.sol\":2876:2938  require(escrows[listingId].seller == msg.sender, \"Not seller\") */\n      tag_85\n      jumpi\n      mload(0x40)\n      0x08c379a000000000000000000000000000000000000000000000000000000000\n      dup2\n      mstore\n      0x04\n      add\n      tag_86\n      swap1\n      tag_87\n      jump\t// in\n    tag_86:\n      mload(0x40)\n      dup1\n      swap2\n      sub\n      swap1\n      revert\n    tag_85:\n        /* \"Escrow.sol\":9369:9392  EscrowDeal storage deal */\n      0x00\n        /* \"Escrow.sol\":9395:9402  escrows */\n      0x05\n        /* \"Escrow.sol\":9395:9413  escrows[listingId] */\n      0x00\n        /* \"Escrow.sol\":9403:9412  listingId */\n      dup6\n        /* \"Escrow.sol\":9395:9413  escrows[listingId] */\n      dup2\n      mstore\n      0x20\n      add\n      swap1\n      dup2\n      mstore\n      0x20\n      add\n      0x00\n      keccak256\n        /* \"Escrow.sol\":9369:9413  EscrowDeal storage deal = escrows[listingId] */\n      swap1\n      pop\n        /* \"Escrow.sol\":9460:9479  EscrowStatus.Funded */\n      0x01\n        /* \"Escrow.sol\":9445:9479  deal.status == EscrowStatus.Funded */\n      0x05\n      dup2\n      gt\n      iszero\n      tag_89\n      jumpi\n      tag_90\n      tag_91\n      jump\t// in\n    tag_90:\n    tag_89:\n        /* \"Escrow.sol\":9445:9449  deal */\n      dup2\n        /* \"Escrow.sol\":9445:9456  deal.status */\n      0x04\n      add\n      0x00\n      swap1\n      sload\n      swap1\n      0x0100\n      exp\n      swap1\n      div\n      0xff\n      and\n        /* \"Escrow.sol\":9445:9479  deal.status == EscrowStatus.Funded */\n      0x05\n      dup2\n      gt\n      iszero\n      tag_92\n      jumpi\n      tag_93\n      tag_91\n      jump\t// in\n    tag_93:\n    tag_92:\n      eq\n        /* \"Escrow.sol\":9445:9536  deal.status == EscrowStatus.Funded ||... */\n      dup1\n      tag_94\n      jumpi\n      pop\n        /* \"Escrow.sol\":9514:9536  EscrowStatus.Submitted */\n      0x02\n        /* \"Escrow.sol\":9499:9536  deal.status == EscrowStatus.Submitted */\n      0x05\n      dup2\n      gt\n      iszero\n      tag_95\n      jumpi\n      tag_96\n      tag_91\n      jump\t// in\n    tag_96:\n    tag_95:\n        /* \"Escrow.sol\":9499:9503  deal */\n      dup2\n        /* \"Escrow.sol\":9499:9510  deal.status */\n      0x04\n      add\n      0x00\n      swap1\n      sload\n      swap1\n      0x0100\n      exp\n      swap1\n      div\n      0xff\n      and\n        /* \"Escrow.sol\":9499:9536  deal.status == EscrowStatus.Submitted */\n      0x05\n      dup2\n      gt\n      iszero\n      tag_97\n      jumpi\n      tag_98\n      tag_91\n      jump\t// in\n    tag_98:\n    tag_97:\n      eq\n        /* \"Escrow.sol\":9445:9536  deal.status == EscrowStatus.Funded ||... */\n    tag_94:\n        /* \"Escrow.sol\":9424:9584  require(... */\n      tag_99\n      jumpi\n      mload(0x40)\n      0x08c379a000000000000000000000000000000000000000000000000000000000\n      dup2\n      mstore\n      0x04\n      add\n      tag_100\n      swap1\n      tag_101\n      jump\t// in\n    tag_100:\n      mload(0x40)\n      dup1\n      swap2\n      sub\n      swap1\n      revert\n    tag_99:\n        /* \"Escrow.sol\":9595:9630  IMarketplace.Listing memory listing */\n      0x00\n        /* \"Escrow.sol\":9658:9669  marketplace */\n      0x01\n      0x00\n      swap1\n      sload\n      swap1\n      0x0100\n      exp\n      swap1\n      div\n      0xffffffffffffffffffffffffffffffffffffffff\n      and\n        /* \"Escrow.sol\":9645:9681  IMarketplace(marketplace).getListing */\n      0xffffffffffffffffffffffffffffffffffffffff\n      and\n      0x107a274a\n        /* \"Escrow.sol\":9682:9691  listingId */\n      dup7\n        /* \"Escrow.sol\":9645:9692  IMarketplace(marketplace).getListing(listingId) */\n      mload(0x40)\n      dup3\n      0xffffffff\n      and\n      0xe0\n      shl\n      dup2\n      mstore\n      0x04\n      add\n      tag_102\n      swap2\n      swap1\n      tag_31\n      jump\t// in\n    tag_102:\n      0x00\n      mload(0x40)\n      dup1\n      dup4\n      sub\n      dup2\n      dup7\n      gas\n      staticcall\n      iszero\n      dup1\n      iszero\n      tag_104\n      jumpi\n      returndatacopy(0x00, 0x00, returndatasize)\n      revert(0x00, returndatasize)\n    tag_104:\n      pop\n      pop\n      pop\n      pop\n      mload(0x40)\n      returndatasize\n      0x00\n      dup3\n      returndatacopy\n      returndatasize\n      not(0x1f)\n      0x1f\n      dup3\n      add\n      and\n      dup3\n      add\n      dup1\n      0x40\n      mstore\n      pop\n      dup2\n      add\n      swap1\n      tag_105\n      swap2\n      swap1\n      tag_106\n      jump\t// in\n    tag_105:\n        /* \"Escrow.sol\":9595:9692  IMarketplace.Listing memory listing =... */\n      swap1\n      pop\n        /* \"Escrow.sol\":9703:9726  address refundRecipient */\n      0x00\n        /* \"Escrow.sol\":9764:9797  IMarketplace.ListingType.ItemSale */\n      0x00\n        /* \"Escrow.sol\":9741:9797  listing.listingType == IMarketplace.ListingType.ItemSale */\n      0x01\n      dup2\n      gt\n      iszero\n      tag_107\n      jumpi\n      tag_108\n      tag_91\n      jump\t// in\n    tag_108:\n    tag_107:\n        /* \"Escrow.sol\":9741:9748  listing */\n      dup3\n        /* \"Escrow.sol\":9741:9760  listing.listingType */\n      0xa0\n      add\n      mload\n        /* \"Escrow.sol\":9741:9797  listing.listingType == IMarketplace.ListingType.ItemSale */\n      0x01\n      dup2\n      gt\n      iszero\n      tag_109\n      jumpi\n      tag_110\n      tag_91\n      jump\t// in\n    tag_110:\n    tag_109:\n      sub\n        /* \"Escrow.sol\":9737:9912  if (listing.listingType == IMarketplace.ListingType.ItemSale) {... */\n      tag_111\n      jumpi\n        /* \"Escrow.sol\":9831:9835  deal */\n      dup3\n        /* \"Escrow.sol\":9831:9841  deal.buyer */\n      0x01\n      add\n      0x00\n      swap1\n      sload\n      swap1\n      0x0100\n      exp\n      swap1\n      div\n      0xffffffffffffffffffffffffffffffffffffffff\n      and\n        /* \"Escrow.sol\":9813:9841  refundRecipient = deal.buyer */\n      swap1\n      pop\n        /* \"Escrow.sol\":9737:9912  if (listing.listingType == IMarketplace.ListingType.ItemSale) {... */\n      jump(tag_112)\n    tag_111:\n        /* \"Escrow.sol\":9890:9894  deal */\n      dup3\n        /* \"Escrow.sol\":9890:9901  deal.seller */\n      0x02\n      add\n      0x00\n      swap1\n      sload\n      swap1\n      0x0100\n      exp\n      swap1\n      div\n      0xffffffffffffffffffffffffffffffffffffffff\n      and\n        /* \"Escrow.sol\":9872:9901  refundRecipient = deal.seller */\n      swap1\n      pop\n        /* \"Escrow.sol\":9737:9912  if (listing.listingType == IMarketplace.ListingType.ItemSale) {... */\n    tag_112:\n        /* \"Escrow.sol\":9936:9958  EscrowStatus.Cancelled */\n      0x05\n        /* \"Escrow.sol\":9922:9926  deal */\n      dup4\n        /* \"Escrow.sol\":9922:9933  deal.status */\n      0x04\n      add\n      0x00\n        /* \"Escrow.sol\":9922:9958  deal.status = EscrowStatus.Cancelled */\n      0x0100\n      exp\n      dup2\n      sload\n      dup2\n      0xff\n      mul\n      not\n      and\n      swap1\n      dup4\n      0x05\n      dup2\n      gt\n      iszero\n      tag_113\n      jumpi\n      tag_114\n      tag_91\n      jump\t// in\n    tag_114:\n    tag_113:\n      mul\n      or\n      swap1\n      sstore\n      pop\n        /* \"Escrow.sol\":9990:10002  paymentToken */\n      0x02\n      0x00\n      swap1\n      sload\n      swap1\n      0x0100\n      exp\n      swap1\n      div\n      0xffffffffffffffffffffffffffffffffffffffff\n      and\n        /* \"Escrow.sol\":9990:10011  paymentToken.transfer */\n      0xffffffffffffffffffffffffffffffffffffffff\n      and\n      0xa9059cbb\n        /* \"Escrow.sol\":10012:10027  refundRecipient */\n      dup3\n        /* \"Escrow.sol\":10029:10033  deal */\n      dup6\n        /* \"Escrow.sol\":10029:10040  deal.amount */\n      0x03\n      add\n      sload\n        /* \"Escrow.sol\":9990:10041  paymentToken.transfer(refundRecipient, deal.amount) */\n      mload(0x40)\n      dup4\n      0xffffffff\n      and\n      0xe0\n      shl\n      dup2\n      mstore\n      0x04\n      add\n      tag_115\n      swap3\n      swap2\n      swap1\n      tag_116\n      jump\t// in\n    tag_115:\n      0x20\n      mload(0x40)\n      dup1\n      dup4\n      sub\n      dup2\n      0x00\n      dup8\n      gas\n      call\n      iszero\n      dup1\n      iszero\n      tag_118\n      jumpi\n      returndatacopy(0x00, 0x00, returndatasize)\n      revert(0x00, returndatasize)\n    tag_118:\n      pop\n      pop\n      pop\n      pop\n      mload(0x40)\n      returndatasize\n      not(0x1f)\n      0x1f\n      dup3\n      add\n      and\n      dup3\n      add\n      dup1\n      0x40\n      mstore\n      pop\n      dup2\n      add\n      swap1\n      tag_119\n      swap2\n      swap1\n      tag_120\n      jump\t// in\n    tag_119:\n        /* \"Escrow.sol\":9969:10080  require(... */\n      tag_121\n      jumpi\n      mload(0x40)\n      0x08c379a000000000000000000000000000000000000000000000000000000000\n      dup2\n      mstore\n      0x04\n      add\n      tag_122\n      swap1\n      tag_123\n      jump\t// in\n    tag_122:\n      mload(0x40)\n      dup1\n      swap2\n      sub\n      swap1\n      revert\n    tag_121:\n        /* \"Escrow.sol\":10104:10115  marketplace */\n      0x01\n      0x00\n      swap1\n      sload\n      swap1\n      0x0100\n      exp\n      swap1\n      div\n      0xffffffffffffffffffffffffffffffffffffffff\n      and\n        /* \"Escrow.sol\":10091:10144  IMarketplace(marketplace).escrowCancelReservedListing */\n      0xffffffffffffffffffffffffffffffffffffffff\n      and\n      0x6b675cb4\n        /* \"Escrow.sol\":10145:10154  listingId */\n      dup8\n        /* \"Escrow.sol\":10091:10155  IMarketplace(marketplace).escrowCancelReservedListing(listingId) */\n      mload(0x40)\n      dup3\n      0xffffffff\n      and\n      0xe0\n      shl\n      dup2\n      mstore\n      0x04\n      add\n      tag_124\n      swap2\n      swap1\n      tag_31\n      jump\t// in\n    tag_124:\n      0x00\n      mload(0x40)\n      dup1\n      dup4\n      sub\n      dup2\n      0x00\n      dup8\n      dup1\n      extcodesize\n      iszero\n      dup1\n      iszero\n      tag_125\n      jumpi\n      revert(0x00, 0x00)\n    tag_125:\n      pop\n      gas\n      call\n      iszero\n      dup1\n      iszero\n      tag_127\n      jumpi\n      returndatacopy(0x00, 0x00, returndatasize)\n      revert(0x00, returndatasize)\n    tag_127:\n      pop\n      pop\n      pop\n      pop\n        /* \"Escrow.sol\":10187:10196  listingId */\n      dup6\n        /* \"Escrow.sol\":10171:10197  EscrowCancelled(listingId) */\n      0x0d977c6b1a383ac5ce532b4a668d0ef9ad38478e1a5ff28abb221f4b682b2643\n      mload(0x40)\n      mload(0x40)\n      dup1\n      swap2\n      sub\n      swap1\n      log2\n        /* \"Escrow.sol\":10238:10253  refundRecipient */\n      dup1\n        /* \"Escrow.sol\":10212:10267  EscrowRefunded(listingId, refundRecipient, deal.amount) */\n      0xffffffffffffffffffffffffffffffffffffffff\n      and\n        /* \"Escrow.sol\":10227:10236  listingId */\n      dup7\n        /* \"Escrow.sol\":10212:10267  EscrowRefunded(listingId, refundRecipient, deal.amount) */\n      0xeac97bc1917fcedc984e3d0671d4e83b359890323d5d1c2de32b28d17c356ced\n        /* \"Escrow.sol\":10255:10259  deal */\n      dup6\n        /* \"Escrow.sol\":10255:10266  deal.amount */\n      0x03\n      add\n      sload\n        /* \"Escrow.sol\":10212:10267  EscrowRefunded(listingId, refundRecipient, deal.amount) */\n      mload(0x40)\n      tag_128\n      swap2\n      swap1\n      tag_31\n      jump\t// in\n    tag_128:\n      mload(0x40)\n      dup1\n      swap2\n      sub\n      swap1\n      log3\n        /* \"Escrow.sol\":9359:10274  {... */\n      pop\n      pop\n      pop\n        /* \"Escrow.sol\":3082:3083  _ */\n      pop\n        /* \"Escrow.sol\":9235:10274  function sellerCancel(uint256 listingId)... */\n      pop\n      pop\n      jump\t// out\n        /* \"Escrow.sol\":1747:1774  address public feeRecipient */\n    tag_40:\n      0x04\n      0x00\n      swap1\n      sload\n      swap1\n      0x0100\n      exp\n      swap1\n      div\n      0xffffffffffffffffffffffffffffffffffffffff\n      and\n      dup2\n      jump\t// out\n        /* \"Escrow.sol\":10280:11263  function adminRefund(uint256 listingId)... */\n    tag_45:\n        /* \"Escrow.sol\":10358:10367  listingId */\n      dup1\n        /* \"Escrow.sol\":3021:3028  escrows */\n      0x05\n        /* \"Escrow.sol\":3021:3039  escrows[listingId] */\n      0x00\n        /* \"Escrow.sol\":3029:3038  listingId */\n      dup3\n        /* \"Escrow.sol\":3021:3039  escrows[listingId] */\n      dup2\n      mstore\n      0x20\n      add\n      swap1\n      dup2\n      mstore\n      0x20\n      add\n      0x00\n      keccak256\n        /* \"Escrow.sol\":3021:3046  escrows[listingId].exists */\n      0x06\n      add\n      0x00\n      swap1\n      sload\n      swap1\n      0x0100\n      exp\n      swap1\n      div\n      0xff\n      and\n        /* \"Escrow.sol\":3013:3072  require(escrows[listingId].exists, \"Escrow does not exist\") */\n      tag_130\n      jumpi\n      mload(0x40)\n      0x08c379a000000000000000000000000000000000000000000000000000000000\n      dup2\n      mstore\n      0x04\n      add\n      tag_131\n      swap1\n      tag_83\n      jump\t// in\n    tag_131:\n      mload(0x40)\n      dup1\n      swap2\n      sub\n      swap1\n      revert\n    tag_130:\n        /* \"Escrow.sol\":2784:2789  owner */\n      0x00\n      0x00\n      swap1\n      sload\n      swap1\n      0x0100\n      exp\n      swap1\n      div\n      0xffffffffffffffffffffffffffffffffffffffff\n      and\n        /* \"Escrow.sol\":2770:2789  msg.sender == owner */\n      0xffffffffffffffffffffffffffffffffffffffff\n      and\n        /* \"Escrow.sol\":2770:2780  msg.sender */\n      caller\n        /* \"Escrow.sol\":2770:2789  msg.sender == owner */\n      0xffffffffffffffffffffffffffffffffffffffff\n      and\n      eq\n        /* \"Escrow.sol\":2762:2803  require(msg.sender == owner, \"Not owner\") */\n      tag_133\n      jumpi\n      mload(0x40)\n      0x08c379a000000000000000000000000000000000000000000000000000000000\n      dup2\n      mstore\n      0x04\n      add\n      tag_134\n      swap1\n      tag_135\n      jump\t// in\n    tag_134:\n      mload(0x40)\n      dup1\n      swap2\n      sub\n      swap1\n      revert\n    tag_133:\n        /* \"Escrow.sol\":10401:10424  EscrowDeal storage deal */\n      0x00\n        /* \"Escrow.sol\":10427:10434  escrows */\n      0x05\n        /* \"Escrow.sol\":10427:10445  escrows[listingId] */\n      0x00\n        /* \"Escrow.sol\":10435:10444  listingId */\n      dup5\n        /* \"Escrow.sol\":10427:10445  escrows[listingId] */\n      dup2\n      mstore\n      0x20\n      add\n      swap1\n      dup2\n      mstore\n      0x20\n      add\n      0x00\n      keccak256\n        /* \"Escrow.sol\":10401:10445  EscrowDeal storage deal = escrows[listingId] */\n      swap1\n      pop\n        /* \"Escrow.sol\":10492:10511  EscrowStatus.Funded */\n      0x01\n        /* \"Escrow.sol\":10477:10511  deal.status == EscrowStatus.Funded */\n      0x05\n      dup2\n      gt\n      iszero\n      tag_137\n      jumpi\n      tag_138\n      tag_91\n      jump\t// in\n    tag_138:\n    tag_137:\n        /* \"Escrow.sol\":10477:10481  deal */\n      dup2\n        /* \"Escrow.sol\":10477:10488  deal.status */\n      0x04\n      add\n      0x00\n      swap1\n      sload\n      swap1\n      0x0100\n      exp\n      swap1\n      div\n      0xff\n      and\n        /* \"Escrow.sol\":10477:10511  deal.status == EscrowStatus.Funded */\n      0x05\n      dup2\n      gt\n      iszero\n      tag_139\n      jumpi\n      tag_140\n      tag_91\n      jump\t// in\n    tag_140:\n    tag_139:\n      eq\n        /* \"Escrow.sol\":10477:10568  deal.status == EscrowStatus.Funded ||... */\n      dup1\n      tag_141\n      jumpi\n      pop\n        /* \"Escrow.sol\":10546:10568  EscrowStatus.Submitted */\n      0x02\n        /* \"Escrow.sol\":10531:10568  deal.status == EscrowStatus.Submitted */\n      0x05\n      dup2\n      gt\n      iszero\n      tag_142\n      jumpi\n      tag_143\n      tag_91\n      jump\t// in\n    tag_143:\n    tag_142:\n        /* \"Escrow.sol\":10531:10535  deal */\n      dup2\n        /* \"Escrow.sol\":10531:10542  deal.status */\n      0x04\n      add\n      0x00\n      swap1\n      sload\n      swap1\n      0x0100\n      exp\n      swap1\n      div\n      0xff\n      and\n        /* \"Escrow.sol\":10531:10568  deal.status == EscrowStatus.Submitted */\n      0x05\n      dup2\n      gt\n      iszero\n      tag_144\n      jumpi\n      tag_145\n      tag_91\n      jump\t// in\n    tag_145:\n    tag_144:\n      eq\n        /* \"Escrow.sol\":10477:10568  deal.status == EscrowStatus.Funded ||... */\n    tag_141:\n        /* \"Escrow.sol\":10456:10615  require(... */\n      tag_146\n      jumpi\n      mload(0x40)\n      0x08c379a000000000000000000000000000000000000000000000000000000000\n      dup2\n      mstore\n      0x04\n      add\n      tag_147\n      swap1\n      tag_148\n      jump\t// in\n    tag_147:\n      mload(0x40)\n      dup1\n      swap2\n      sub\n      swap1\n      revert\n    tag_146:\n        /* \"Escrow.sol\":10626:10661  IMarketplace.Listing memory listing */\n      0x00\n        /* \"Escrow.sol\":10689:10700  marketplace */\n      0x01\n      0x00\n      swap1\n      sload\n      swap1\n      0x0100\n      exp\n      swap1\n      div\n      0xffffffffffffffffffffffffffffffffffffffff\n      and\n        /* \"Escrow.sol\":10676:10712  IMarketplace(marketplace).getListing */\n      0xffffffffffffffffffffffffffffffffffffffff\n      and\n      0x107a274a\n        /* \"Escrow.sol\":10713:10722  listingId */\n      dup6\n        /* \"Escrow.sol\":10676:10723  IMarketplace(marketplace).getListing(listingId) */\n      mload(0x40)\n      dup3\n      0xffffffff\n      and\n      0xe0\n      shl\n      dup2\n      mstore\n      0x04\n      add\n      tag_149\n      swap2\n      swap1\n      tag_31\n      jump\t// in\n    tag_149:\n      0x00\n      mload(0x40)\n      dup1\n      dup4\n      sub\n      dup2\n      dup7\n      gas\n      staticcall\n      iszero\n      dup1\n      iszero\n      tag_151\n      jumpi\n      returndatacopy(0x00, 0x00, returndatasize)\n      revert(0x00, returndatasize)\n    tag_151:\n      pop\n      pop\n      pop\n      pop\n      mload(0x40)\n      returndatasize\n      0x00\n      dup3\n      returndatacopy\n      returndatasize\n      not(0x1f)\n      0x1f\n      dup3\n      add\n      and\n      dup3\n      add\n      dup1\n      0x40\n      mstore\n      pop\n      dup2\n      add\n      swap1\n      tag_152\n      swap2\n      swap1\n      tag_106\n      jump\t// in\n    tag_152:\n        /* \"Escrow.sol\":10626:10723  IMarketplace.Listing memory listing =... */\n      swap1\n      pop\n        /* \"Escrow.sol\":10734:10757  address refundRecipient */\n      0x00\n        /* \"Escrow.sol\":10795:10828  IMarketplace.ListingType.ItemSale */\n      0x00\n        /* \"Escrow.sol\":10772:10828  listing.listingType == IMarketplace.ListingType.ItemSale */\n      0x01\n      dup2\n      gt\n      iszero\n      tag_153\n      jumpi\n      tag_154\n      tag_91\n      jump\t// in\n    tag_154:\n    tag_153:\n        /* \"Escrow.sol\":10772:10779  listing */\n      dup3\n        /* \"Escrow.sol\":10772:10791  listing.listingType */\n      0xa0\n      add\n      mload\n        /* \"Escrow.sol\":10772:10828  listing.listingType == IMarketplace.ListingType.ItemSale */\n      0x01\n      dup2\n      gt\n      iszero\n      tag_155\n      jumpi\n      tag_156\n      tag_91\n      jump\t// in\n    tag_156:\n    tag_155:\n      sub\n        /* \"Escrow.sol\":10768:10943  if (listing.listingType == IMarketplace.ListingType.ItemSale) {... */\n      tag_157\n      jumpi\n        /* \"Escrow.sol\":10862:10866  deal */\n      dup3\n        /* \"Escrow.sol\":10862:10872  deal.buyer */\n      0x01\n      add\n      0x00\n      swap1\n      sload\n      swap1\n      0x0100\n      exp\n      swap1\n      div\n      0xffffffffffffffffffffffffffffffffffffffff\n      and\n        /* \"Escrow.sol\":10844:10872  refundRecipient = deal.buyer */\n      swap1\n      pop\n        /* \"Escrow.sol\":10768:10943  if (listing.listingType == IMarketplace.ListingType.ItemSale) {... */\n      jump(tag_158)\n    tag_157:\n        /* \"Escrow.sol\":10921:10925  deal */\n      dup3\n        /* \"Escrow.sol\":10921:10932  deal.seller */\n      0x02\n      add\n      0x00\n      swap1\n      sload\n      swap1\n      0x0100\n      exp\n      swap1\n      div\n      0xffffffffffffffffffffffffffffffffffffffff\n      and\n        /* \"Escrow.sol\":10903:10932  refundRecipient = deal.seller */\n      swap1\n      pop\n        /* \"Escrow.sol\":10768:10943  if (listing.listingType == IMarketplace.ListingType.ItemSale) {... */\n    tag_158:\n        /* \"Escrow.sol\":10967:10988  EscrowStatus.Refunded */\n      0x04\n        /* \"Escrow.sol\":10953:10957  deal */\n      dup4\n        /* \"Escrow.sol\":10953:10964  deal.status */\n      0x04\n      add\n      0x00\n        /* \"Escrow.sol\":10953:10988  deal.status = EscrowStatus.Refunded */\n      0x0100\n      exp\n      dup2\n      sload\n      dup2\n      0xff\n      mul\n      not\n      and\n      swap1\n      dup4\n      0x05\n      dup2\n      gt\n      iszero\n      tag_159\n      jumpi\n      tag_160\n      tag_91\n      jump\t// in\n    tag_160:\n    tag_159:\n      mul\n      or\n      swap1\n      sstore\n      pop\n        /* \"Escrow.sol\":11020:11032  paymentToken */\n      0x02\n      0x00\n      swap1\n      sload\n      swap1\n      0x0100\n      exp\n      swap1\n      div\n      0xffffffffffffffffffffffffffffffffffffffff\n      and\n        /* \"Escrow.sol\":11020:11041  paymentToken.transfer */\n      0xffffffffffffffffffffffffffffffffffffffff\n      and\n      0xa9059cbb\n        /* \"Escrow.sol\":11042:11057  refundRecipient */\n      dup3\n        /* \"Escrow.sol\":11059:11063  deal */\n      dup6\n        /* \"Escrow.sol\":11059:11070  deal.amount */\n      0x03\n      add\n      sload\n        /* \"Escrow.sol\":11020:11071  paymentToken.transfer(refundRecipient, deal.amount) */\n      mload(0x40)\n      dup4\n      0xffffffff\n      and\n      0xe0\n      shl\n      dup2\n      mstore\n      0x04\n      add\n      tag_161\n      swap3\n      swap2\n      swap1\n      tag_116\n      jump\t// in\n    tag_161:\n      0x20\n      mload(0x40)\n      dup1\n      dup4\n      sub\n      dup2\n      0x00\n      dup8\n      gas\n      call\n      iszero\n      dup1\n      iszero\n      tag_163\n      jumpi\n      returndatacopy(0x00, 0x00, returndatasize)\n      revert(0x00, returndatasize)\n    tag_163:\n      pop\n      pop\n      pop\n      pop\n      mload(0x40)\n      returndatasize\n      not(0x1f)\n      0x1f\n      dup3\n      add\n      and\n      dup3\n      add\n      dup1\n      0x40\n      mstore\n      pop\n      dup2\n      add\n      swap1\n      tag_164\n      swap2\n      swap1\n      tag_120\n      jump\t// in\n    tag_164:\n        /* \"Escrow.sol\":10999:11110  require(... */\n      tag_165\n      jumpi\n      mload(0x40)\n      0x08c379a000000000000000000000000000000000000000000000000000000000\n      dup2\n      mstore\n      0x04\n      add\n      tag_166\n      swap1\n      tag_123\n      jump\t// in\n    tag_166:\n      mload(0x40)\n      dup1\n      swap2\n      sub\n      swap1\n      revert\n    tag_165:\n        /* \"Escrow.sol\":11134:11145  marketplace */\n      0x01\n      0x00\n      swap1\n      sload\n      swap1\n      0x0100\n      exp\n      swap1\n      div\n      0xffffffffffffffffffffffffffffffffffffffff\n      and\n        /* \"Escrow.sol\":11121:11174  IMarketplace(marketplace).escrowCancelReservedListing */\n      0xffffffffffffffffffffffffffffffffffffffff\n      and\n      0x6b675cb4\n        /* \"Escrow.sol\":11175:11184  listingId */\n      dup7\n        /* \"Escrow.sol\":11121:11185  IMarketplace(marketplace).escrowCancelReservedListing(listingId) */\n      mload(0x40)\n      dup3\n      0xffffffff\n      and\n      0xe0\n      shl\n      dup2\n      mstore\n      0x04\n      add\n      tag_167\n      swap2\n      swap1\n      tag_31\n      jump\t// in\n    tag_167:\n      0x00\n      mload(0x40)\n      dup1\n      dup4\n      sub\n      dup2\n      0x00\n      dup8\n      dup1\n      extcodesize\n      iszero\n      dup1\n      iszero\n      tag_168\n      jumpi\n      revert(0x00, 0x00)\n    tag_168:\n      pop\n      gas\n      call\n      iszero\n      dup1\n      iszero\n      tag_170\n      jumpi\n      returndatacopy(0x00, 0x00, returndatasize)\n      revert(0x00, returndatasize)\n    tag_170:\n      pop\n      pop\n      pop\n      pop\n        /* \"Escrow.sol\":11227:11242  refundRecipient */\n      dup1\n        /* \"Escrow.sol\":11201:11256  EscrowRefunded(listingId, refundRecipient, deal.amount) */\n      0xffffffffffffffffffffffffffffffffffffffff\n      and\n        /* \"Escrow.sol\":11216:11225  listingId */\n      dup6\n        /* \"Escrow.sol\":11201:11256  EscrowRefunded(listingId, refundRecipient, deal.amount) */\n      0xeac97bc1917fcedc984e3d0671d4e83b359890323d5d1c2de32b28d17c356ced\n        /* \"Escrow.sol\":11244:11248  deal */\n      dup6\n        /* \"Escrow.sol\":11244:11255  deal.amount */\n      0x03\n      add\n      sload\n        /* \"Escrow.sol\":11201:11256  EscrowRefunded(listingId, refundRecipient, deal.amount) */\n      mload(0x40)\n      tag_171\n      swap2\n      swap1\n      tag_31\n      jump\t// in\n    tag_171:\n      mload(0x40)\n      dup1\n      swap2\n      sub\n      swap1\n      log3\n        /* \"Escrow.sol\":10391:11263  {... */\n      pop\n      pop\n      pop\n        /* \"Escrow.sol\":10280:11263  function adminRefund(uint256 listingId)... */\n      pop\n      pop\n      jump\t// out\n        /* \"Escrow.sol\":4030:4272  function setPaymentToken(address newPaymentToken) external onlyOwner {... */\n    tag_49:\n        /* \"Escrow.sol\":2784:2789  owner */\n      0x00\n      0x00\n      swap1\n      sload\n      swap1\n      0x0100\n      exp\n      swap1\n      div\n      0xffffffffffffffffffffffffffffffffffffffff\n      and\n        /* \"Escrow.sol\":2770:2789  msg.sender == owner */\n      0xffffffffffffffffffffffffffffffffffffffff\n      and\n        /* \"Escrow.sol\":2770:2780  msg.sender */\n      caller\n        /* \"Escrow.sol\":2770:2789  msg.sender == owner */\n      0xffffffffffffffffffffffffffffffffffffffff\n      and\n      eq\n        /* \"Escrow.sol\":2762:2803  require(msg.sender == owner, \"Not owner\") */\n      tag_173\n      jumpi\n      mload(0x40)\n      0x08c379a000000000000000000000000000000000000000000000000000000000\n      dup2\n      mstore\n      0x04\n      add\n      tag_174\n      swap1\n      tag_135\n      jump\t// in\n    tag_174:\n      mload(0x40)\n      dup1\n      swap2\n      sub\n      swap1\n      revert\n    tag_173:\n        /* \"Escrow.sol\":4144:4145  0 */\n      0x00\n        /* \"Escrow.sol\":4117:4146  newPaymentToken != address(0) */\n      0xffffffffffffffffffffffffffffffffffffffff\n      and\n        /* \"Escrow.sol\":4117:4132  newPaymentToken */\n      dup2\n        /* \"Escrow.sol\":4117:4146  newPaymentToken != address(0) */\n      0xffffffffffffffffffffffffffffffffffffffff\n      and\n      sub\n        /* \"Escrow.sol\":4109:4164  require(newPaymentToken != address(0), \"Invalid token\") */\n      tag_176\n      jumpi\n      mload(0x40)\n      0x08c379a000000000000000000000000000000000000000000000000000000000\n      dup2\n      mstore\n      0x04\n      add\n      tag_177\n      swap1\n      tag_178\n      jump\t// in\n    tag_177:\n      mload(0x40)\n      dup1\n      swap2\n      sub\n      swap1\n      revert\n    tag_176:\n        /* \"Escrow.sol\":4197:4212  newPaymentToken */\n      dup1\n        /* \"Escrow.sol\":4175:4187  paymentToken */\n      0x02\n      0x00\n        /* \"Escrow.sol\":4175:4213  paymentToken = IERC20(newPaymentToken) */\n      0x0100\n      exp\n      dup2\n      sload\n      dup2\n      0xffffffffffffffffffffffffffffffffffffffff\n      mul\n      not\n      and\n      swap1\n      dup4\n      0xffffffffffffffffffffffffffffffffffffffff\n      and\n      mul\n      or\n      swap1\n      sstore\n      pop\n        /* \"Escrow.sol\":4229:4265  PaymentTokenUpdated(newPaymentToken) */\n      0xbd4032c1c91da2791730ea1bbc82c6b6f857da7c0a8318143d19ef74e62cd913\n        /* \"Escrow.sol\":4249:4264  newPaymentToken */\n      dup2\n        /* \"Escrow.sol\":4229:4265  PaymentTokenUpdated(newPaymentToken) */\n      mload(0x40)\n      tag_179\n      swap2\n      swap1\n      tag_42\n      jump\t// in\n    tag_179:\n      mload(0x40)\n      dup1\n      swap2\n      sub\n      swap1\n      log1\n        /* \"Escrow.sol\":4030:4272  function setPaymentToken(address newPaymentToken) external onlyOwner {... */\n      pop\n      jump\t// out\n        /* \"Escrow.sol\":11269:11419  function getEscrow(uint256 listingId)... */\n    tag_52:\n        /* \"Escrow.sol\":11354:11371  EscrowDeal memory */\n      tag_180\n      tag_181\n      jump\t// in\n    tag_180:\n        /* \"Escrow.sol\":11394:11401  escrows */\n      0x05\n        /* \"Escrow.sol\":11394:11412  escrows[listingId] */\n      0x00\n        /* \"Escrow.sol\":11402:11411  listingId */\n      dup4\n        /* \"Escrow.sol\":11394:11412  escrows[listingId] */\n      dup2\n      mstore\n      0x20\n      add\n      swap1\n      dup2\n      mstore\n      0x20\n      add\n      0x00\n      keccak256\n        /* \"Escrow.sol\":11387:11412  return escrows[listingId] */\n      mload(0x40)\n      dup1\n      0x0100\n      add\n      0x40\n      mstore\n      swap1\n      dup2\n      0x00\n      dup3\n      add\n      sload\n      dup2\n      mstore\n      0x20\n      add\n      0x01\n      dup3\n      add\n      0x00\n      swap1\n      sload\n      swap1\n      0x0100\n      exp\n      swap1\n      div\n      0xffffffffffffffffffffffffffffffffffffffff\n      and\n      0xffffffffffffffffffffffffffffffffffffffff\n      and\n      0xffffffffffffffffffffffffffffffffffffffff\n      and\n      dup2\n      mstore\n      0x20\n      add\n      0x02\n      dup3\n      add\n      0x00\n      swap1\n      sload\n      swap1\n      0x0100\n      exp\n      swap1\n      div\n      0xffffffffffffffffffffffffffffffffffffffff\n      and\n      0xffffffffffffffffffffffffffffffffffffffff\n      and\n      0xffffffffffffffffffffffffffffffffffffffff\n      and\n      dup2\n      mstore\n      0x20\n      add\n      0x03\n      dup3\n      add\n      sload\n      dup2\n      mstore\n      0x20\n      add\n      0x04\n      dup3\n      add\n      0x00\n      swap1\n      sload\n      swap1\n      0x0100\n      exp\n      swap1\n      div\n      0xff\n      and\n      0x05\n      dup2\n      gt\n      iszero\n      tag_183\n      jumpi\n      tag_184\n      tag_91\n      jump\t// in\n    tag_184:\n    tag_183:\n      0x05\n      dup2\n      gt\n      iszero\n      tag_185\n      jumpi\n      tag_186\n      tag_91\n      jump\t// in\n    tag_186:\n    tag_185:\n      dup2\n      mstore\n      0x20\n      add\n      0x05\n      dup3\n      add\n      sload\n      dup2\n      mstore\n      0x20\n      add\n      0x06\n      dup3\n      add\n      0x00\n      swap1\n      sload\n      swap1\n      0x0100\n      exp\n      swap1\n      div\n      0xff\n      and\n      iszero\n      iszero\n      iszero\n      iszero\n      dup2\n      mstore\n      0x20\n      add\n      0x06\n      dup3\n      add\n      0x01\n      swap1\n      sload\n      swap1\n      0x0100\n      exp\n      swap1\n      div\n      0xff\n      and\n      iszero\n      iszero\n      iszero\n      iszero\n      dup2\n      mstore\n      pop\n      pop\n      swap1\n      pop\n        /* \"Escrow.sol\":11269:11419  function getEscrow(uint256 listingId)... */\n      swap2\n      swap1\n      pop\n      jump\t// out\n        /* \"Escrow.sol\":1615:1635  address public owner */\n    tag_56:\n      0x00\n      0x00\n      swap1\n      sload\n      swap1\n      0x0100\n      exp\n      swap1\n      div\n      0xffffffffffffffffffffffffffffffffffffffff\n      and\n      dup2\n      jump\t// out\n        /* \"Escrow.sol\":7662:9229  function confirmCompletion(uint256 listingId)... */\n    tag_60:\n        /* \"Escrow.sol\":7746:7755  listingId */\n      dup1\n        /* \"Escrow.sol\":3021:3028  escrows */\n      0x05\n        /* \"Escrow.sol\":3021:3039  escrows[listingId] */\n      0x00\n        /* \"Escrow.sol\":3029:3038  listingId */\n      dup3\n        /* \"Escrow.sol\":3021:3039  escrows[listingId] */\n      dup2\n      mstore\n      0x20\n      add\n      swap1\n      dup2\n      mstore\n      0x20\n      add\n      0x00\n      keccak256\n        /* \"Escrow.sol\":3021:3046  escrows[listingId].exists */\n      0x06\n      add\n      0x00\n      swap1\n      sload\n      swap1\n      0x0100\n      exp\n      swap1\n      div\n      0xff\n      and\n        /* \"Escrow.sol\":3013:3072  require(escrows[listingId].exists, \"Escrow does not exist\") */\n      tag_188\n      jumpi\n      mload(0x40)\n      0x08c379a000000000000000000000000000000000000000000000000000000000\n      dup2\n      mstore\n      0x04\n      add\n      tag_189\n      swap1\n      tag_83\n      jump\t// in\n    tag_189:\n      mload(0x40)\n      dup1\n      swap2\n      sub\n      swap1\n      revert\n    tag_188:\n        /* \"Escrow.sol\":7771:7794  EscrowDeal storage deal */\n      0x00\n        /* \"Escrow.sol\":7797:7804  escrows */\n      0x05\n        /* \"Escrow.sol\":7797:7815  escrows[listingId] */\n      0x00\n        /* \"Escrow.sol\":7805:7814  listingId */\n      dup5\n        /* \"Escrow.sol\":7797:7815  escrows[listingId] */\n      dup2\n      mstore\n      0x20\n      add\n      swap1\n      dup2\n      mstore\n      0x20\n      add\n      0x00\n      keccak256\n        /* \"Escrow.sol\":7771:7815  EscrowDeal storage deal = escrows[listingId] */\n      swap1\n      pop\n        /* \"Escrow.sol\":7826:7861  IMarketplace.Listing memory listing */\n      0x00\n        /* \"Escrow.sol\":7889:7900  marketplace */\n      0x01\n      0x00\n      swap1\n      sload\n      swap1\n      0x0100\n      exp\n      swap1\n      div\n      0xffffffffffffffffffffffffffffffffffffffff\n      and\n        /* \"Escrow.sol\":7876:7912  IMarketplace(marketplace).getListing */\n      0xffffffffffffffffffffffffffffffffffffffff\n      and\n      0x107a274a\n        /* \"Escrow.sol\":7913:7922  listingId */\n      dup6\n        /* \"Escrow.sol\":7876:7923  IMarketplace(marketplace).getListing(listingId) */\n      mload(0x40)\n      dup3\n      0xffffffff\n      and\n      0xe0\n      shl\n      dup2\n      mstore\n      0x04\n      add\n      tag_191\n      swap2\n      swap1\n      tag_31\n      jump\t// in\n    tag_191:\n      0x00\n      mload(0x40)\n      dup1\n      dup4\n      sub\n      dup2\n      dup7\n      gas\n      staticcall\n      iszero\n      dup1\n      iszero\n      tag_193\n      jumpi\n      returndatacopy(0x00, 0x00, returndatasize)\n      revert(0x00, returndatasize)\n    tag_193:\n      pop\n      pop\n      pop\n      pop\n      mload(0x40)\n      returndatasize\n      0x00\n      dup3\n      returndatacopy\n      returndatasize\n      not(0x1f)\n      0x1f\n      dup3\n      add\n      and\n      dup3\n      add\n      dup1\n      0x40\n      mstore\n      pop\n      dup2\n      add\n      swap1\n      tag_194\n      swap2\n      swap1\n      tag_106\n      jump\t// in\n    tag_194:\n        /* \"Escrow.sol\":7826:7923  IMarketplace.Listing memory listing =... */\n      swap1\n      pop\n        /* \"Escrow.sol\":7957:7979  EscrowStatus.Submitted */\n      0x02\n        /* \"Escrow.sol\":7942:7979  deal.status == EscrowStatus.Submitted */\n      0x05\n      dup2\n      gt\n      iszero\n      tag_195\n      jumpi\n      tag_196\n      tag_91\n      jump\t// in\n    tag_196:\n    tag_195:\n        /* \"Escrow.sol\":7942:7946  deal */\n      dup3\n        /* \"Escrow.sol\":7942:7953  deal.status */\n      0x04\n      add\n      0x00\n      swap1\n      sload\n      swap1\n      0x0100\n      exp\n      swap1\n      div\n      0xff\n      and\n        /* \"Escrow.sol\":7942:7979  deal.status == EscrowStatus.Submitted */\n      0x05\n      dup2\n      gt\n      iszero\n      tag_197\n      jumpi\n      tag_198\n      tag_91\n      jump\t// in\n    tag_198:\n    tag_197:\n      eq\n        /* \"Escrow.sol\":7934:8002  require(deal.status == EscrowStatus.Submitted, \"Work not submitted\") */\n      tag_199\n      jumpi\n      mload(0x40)\n      0x08c379a000000000000000000000000000000000000000000000000000000000\n      dup2\n      mstore\n      0x04\n      add\n      tag_200\n      swap1\n      tag_201\n      jump\t// in\n    tag_200:\n      mload(0x40)\n      dup1\n      swap2\n      sub\n      swap1\n      revert\n    tag_199:\n        /* \"Escrow.sol\":8040:8073  IMarketplace.ListingType.ItemSale */\n      0x00\n        /* \"Escrow.sol\":8017:8073  listing.listingType == IMarketplace.ListingType.ItemSale */\n      0x01\n      dup2\n      gt\n      iszero\n      tag_202\n      jumpi\n      tag_203\n      tag_91\n      jump\t// in\n    tag_203:\n    tag_202:\n        /* \"Escrow.sol\":8017:8024  listing */\n      dup2\n        /* \"Escrow.sol\":8017:8036  listing.listingType */\n      0xa0\n      add\n      mload\n        /* \"Escrow.sol\":8017:8073  listing.listingType == IMarketplace.ListingType.ItemSale */\n      0x01\n      dup2\n      gt\n      iszero\n      tag_204\n      jumpi\n      tag_205\n      tag_91\n      jump\t// in\n    tag_205:\n    tag_204:\n      sub\n        /* \"Escrow.sol\":8013:8322  if (listing.listingType == IMarketplace.ListingType.ItemSale) {... */\n      tag_206\n      jumpi\n        /* \"Escrow.sol\":8111:8115  deal */\n      dup2\n        /* \"Escrow.sol\":8111:8121  deal.buyer */\n      0x01\n      add\n      0x00\n      swap1\n      sload\n      swap1\n      0x0100\n      exp\n      swap1\n      div\n      0xffffffffffffffffffffffffffffffffffffffff\n      and\n        /* \"Escrow.sol\":8097:8121  msg.sender == deal.buyer */\n      0xffffffffffffffffffffffffffffffffffffffff\n      and\n        /* \"Escrow.sol\":8097:8107  msg.sender */\n      caller\n        /* \"Escrow.sol\":8097:8121  msg.sender == deal.buyer */\n      0xffffffffffffffffffffffffffffffffffffffff\n      and\n      eq\n        /* \"Escrow.sol\":8089:8158  require(msg.sender == deal.buyer, \"Buyer must confirm item delivery\") */\n      tag_207\n      jumpi\n      mload(0x40)\n      0x08c379a000000000000000000000000000000000000000000000000000000000\n      dup2\n      mstore\n      0x04\n      add\n      tag_208\n      swap1\n      tag_209\n      jump\t// in\n    tag_208:\n      mload(0x40)\n      dup1\n      swap2\n      sub\n      swap1\n      revert\n    tag_207:\n        /* \"Escrow.sol\":8013:8322  if (listing.listingType == IMarketplace.ListingType.ItemSale) {... */\n      jump(tag_210)\n    tag_206:\n        /* \"Escrow.sol\":8228:8232  deal */\n      dup2\n        /* \"Escrow.sol\":8228:8239  deal.seller */\n      0x02\n      add\n      0x00\n      swap1\n      sload\n      swap1\n      0x0100\n      exp\n      swap1\n      div\n      0xffffffffffffffffffffffffffffffffffffffff\n      and\n        /* \"Escrow.sol\":8214:8239  msg.sender == deal.seller */\n      0xffffffffffffffffffffffffffffffffffffffff\n      and\n        /* \"Escrow.sol\":8214:8224  msg.sender */\n      caller\n        /* \"Escrow.sol\":8214:8239  msg.sender == deal.seller */\n      0xffffffffffffffffffffffffffffffffffffffff\n      and\n      eq\n        /* \"Escrow.sol\":8189:8311  require(... */\n      tag_211\n      jumpi\n      mload(0x40)\n      0x08c379a000000000000000000000000000000000000000000000000000000000\n      dup2\n      mstore\n      0x04\n      add\n      tag_212\n      swap1\n      tag_213\n      jump\t// in\n    tag_212:\n      mload(0x40)\n      dup1\n      swap2\n      sub\n      swap1\n      revert\n    tag_211:\n        /* \"Escrow.sol\":8013:8322  if (listing.listingType == IMarketplace.ListingType.ItemSale) {... */\n    tag_210:\n        /* \"Escrow.sol\":8332:8349  uint256 feeAmount */\n      0x00\n        /* \"Escrow.sol\":8385:8390  10000 */\n      0x2710\n        /* \"Escrow.sol\":8367:8381  platformFeeBps */\n      sload(0x03)\n        /* \"Escrow.sol\":8353:8357  deal */\n      dup5\n        /* \"Escrow.sol\":8353:8364  deal.amount */\n      0x03\n      add\n      sload\n        /* \"Escrow.sol\":8353:8381  deal.amount * platformFeeBps */\n      tag_214\n      swap2\n      swap1\n      tag_215\n      jump\t// in\n    tag_214:\n        /* \"Escrow.sol\":8352:8390  (deal.amount * platformFeeBps) / 10000 */\n      tag_216\n      swap2\n      swap1\n      tag_217\n      jump\t// in\n    tag_216:\n        /* \"Escrow.sol\":8332:8390  uint256 feeAmount = (deal.amount * platformFeeBps) / 10000 */\n      swap1\n      pop\n        /* \"Escrow.sol\":8400:8420  uint256 payoutAmount */\n      0x00\n        /* \"Escrow.sol\":8437:8446  feeAmount */\n      dup2\n        /* \"Escrow.sol\":8423:8427  deal */\n      dup5\n        /* \"Escrow.sol\":8423:8434  deal.amount */\n      0x03\n      add\n      sload\n        /* \"Escrow.sol\":8423:8446  deal.amount - feeAmount */\n      tag_218\n      swap2\n      swap1\n      tag_219\n      jump\t// in\n    tag_218:\n        /* \"Escrow.sol\":8400:8446  uint256 payoutAmount = deal.amount - feeAmount */\n      swap1\n      pop\n        /* \"Escrow.sol\":8471:8492  EscrowStatus.Released */\n      0x03\n        /* \"Escrow.sol\":8457:8461  deal */\n      dup5\n        /* \"Escrow.sol\":8457:8468  deal.status */\n      0x04\n      add\n      0x00\n        /* \"Escrow.sol\":8457:8492  deal.status = EscrowStatus.Released */\n      0x0100\n      exp\n      dup2\n      sload\n      dup2\n      0xff\n      mul\n      not\n      and\n      swap1\n      dup4\n      0x05\n      dup2\n      gt\n      iszero\n      tag_220\n      jumpi\n      tag_221\n      tag_91\n      jump\t// in\n    tag_221:\n    tag_220:\n      mul\n      or\n      swap1\n      sstore\n      pop\n        /* \"Escrow.sol\":8530:8563  IMarketplace.ListingType.ItemSale */\n      0x00\n        /* \"Escrow.sol\":8507:8563  listing.listingType == IMarketplace.ListingType.ItemSale */\n      0x01\n      dup2\n      gt\n      iszero\n      tag_222\n      jumpi\n      tag_223\n      tag_91\n      jump\t// in\n    tag_223:\n    tag_222:\n        /* \"Escrow.sol\":8507:8514  listing */\n      dup4\n        /* \"Escrow.sol\":8507:8526  listing.listingType */\n      0xa0\n      add\n      mload\n        /* \"Escrow.sol\":8507:8563  listing.listingType == IMarketplace.ListingType.ItemSale */\n      0x01\n      dup2\n      gt\n      iszero\n      tag_224\n      jumpi\n      tag_225\n      tag_91\n      jump\t// in\n    tag_225:\n    tag_224:\n      sub\n        /* \"Escrow.sol\":8503:8876  if (listing.listingType == IMarketplace.ListingType.ItemSale) {... */\n      tag_226\n      jumpi\n        /* \"Escrow.sol\":8604:8616  paymentToken */\n      0x02\n      0x00\n      swap1\n      sload\n      swap1\n      0x0100\n      exp\n      swap1\n      div\n      0xffffffffffffffffffffffffffffffffffffffff\n      and\n        /* \"Escrow.sol\":8604:8625  paymentToken.transfer */\n      0xffffffffffffffffffffffffffffffffffffffff\n      and\n      0xa9059cbb\n        /* \"Escrow.sol\":8626:8630  deal */\n      dup6\n        /* \"Escrow.sol\":8626:8637  deal.seller */\n      0x02\n      add\n      0x00\n      swap1\n      sload\n      swap1\n      0x0100\n      exp\n      swap1\n      div\n      0xffffffffffffffffffffffffffffffffffffffff\n      and\n        /* \"Escrow.sol\":8639:8651  payoutAmount */\n      dup4\n        /* \"Escrow.sol\":8604:8652  paymentToken.transfer(deal.seller, payoutAmount) */\n      mload(0x40)\n      dup4\n      0xffffffff\n      and\n      0xe0\n      shl\n      dup2\n      mstore\n      0x04\n      add\n      tag_227\n      swap3\n      swap2\n      swap1\n      tag_116\n      jump\t// in\n    tag_227:\n      0x20\n      mload(0x40)\n      dup1\n      dup4\n      sub\n      dup2\n      0x00\n      dup8\n      gas\n      call\n      iszero\n      dup1\n      iszero\n      tag_229\n      jumpi\n      returndatacopy(0x00, 0x00, returndatasize)\n      revert(0x00, returndatasize)\n    tag_229:\n      pop\n      pop\n      pop\n      pop\n      mload(0x40)\n      returndatasize\n      not(0x1f)\n      0x1f\n      dup3\n      add\n      and\n      dup3\n      add\n      dup1\n      0x40\n      mstore\n      pop\n      dup2\n      add\n      swap1\n      tag_230\n      swap2\n      swap1\n      tag_120\n      jump\t// in\n    tag_230:\n        /* \"Escrow.sol\":8579:8707  require(... */\n      tag_231\n      jumpi\n      mload(0x40)\n      0x08c379a000000000000000000000000000000000000000000000000000000000\n      dup2\n      mstore\n      0x04\n      add\n      tag_232\n      swap1\n      tag_233\n      jump\t// in\n    tag_232:\n      mload(0x40)\n      dup1\n      swap2\n      sub\n      swap1\n      revert\n    tag_231:\n        /* \"Escrow.sol\":8503:8876  if (listing.listingType == IMarketplace.ListingType.ItemSale) {... */\n      jump(tag_234)\n    tag_226:\n        /* \"Escrow.sol\":8763:8775  paymentToken */\n      0x02\n      0x00\n      swap1\n      sload\n      swap1\n      0x0100\n      exp\n      swap1\n      div\n      0xffffffffffffffffffffffffffffffffffffffff\n      and\n        /* \"Escrow.sol\":8763:8784  paymentToken.transfer */\n      0xffffffffffffffffffffffffffffffffffffffff\n      and\n      0xa9059cbb\n        /* \"Escrow.sol\":8785:8789  deal */\n      dup6\n        /* \"Escrow.sol\":8785:8795  deal.buyer */\n      0x01\n      add\n      0x00\n      swap1\n      sload\n      swap1\n      0x0100\n      exp\n      swap1\n      div\n      0xffffffffffffffffffffffffffffffffffffffff\n      and\n        /* \"Escrow.sol\":8797:8809  payoutAmount */\n      dup4\n        /* \"Escrow.sol\":8763:8810  paymentToken.transfer(deal.buyer, payoutAmount) */\n      mload(0x40)\n      dup4\n      0xffffffff\n      and\n      0xe0\n      shl\n      dup2\n      mstore\n      0x04\n      add\n      tag_235\n      swap3\n      swap2\n      swap1\n      tag_116\n      jump\t// in\n    tag_235:\n      0x20\n      mload(0x40)\n      dup1\n      dup4\n      sub\n      dup2\n      0x00\n      dup8\n      gas\n      call\n      iszero\n      dup1\n      iszero\n      tag_237\n      jumpi\n      returndatacopy(0x00, 0x00, returndatasize)\n      revert(0x00, returndatasize)\n    tag_237:\n      pop\n      pop\n      pop\n      pop\n      mload(0x40)\n      returndatasize\n      not(0x1f)\n      0x1f\n      dup3\n      add\n      and\n      dup3\n      add\n      dup1\n      0x40\n      mstore\n      pop\n      dup2\n      add\n      swap1\n      tag_238\n      swap2\n      swap1\n      tag_120\n      jump\t// in\n    tag_238:\n        /* \"Escrow.sol\":8738:8865  require(... */\n      tag_239\n      jumpi\n      mload(0x40)\n      0x08c379a000000000000000000000000000000000000000000000000000000000\n      dup2\n      mstore\n      0x04\n      add\n      tag_240\n      swap1\n      tag_241\n      jump\t// in\n    tag_240:\n      mload(0x40)\n      dup1\n      swap2\n      sub\n      swap1\n      revert\n    tag_239:\n        /* \"Escrow.sol\":8503:8876  if (listing.listingType == IMarketplace.ListingType.ItemSale) {... */\n    tag_234:\n        /* \"Escrow.sol\":8907:8919  paymentToken */\n      0x02\n      0x00\n      swap1\n      sload\n      swap1\n      0x0100\n      exp\n      swap1\n      div\n      0xffffffffffffffffffffffffffffffffffffffff\n      and\n        /* \"Escrow.sol\":8907:8928  paymentToken.transfer */\n      0xffffffffffffffffffffffffffffffffffffffff\n      and\n      0xa9059cbb\n        /* \"Escrow.sol\":8929:8941  feeRecipient */\n      0x04\n      0x00\n      swap1\n      sload\n      swap1\n      0x0100\n      exp\n      swap1\n      div\n      0xffffffffffffffffffffffffffffffffffffffff\n      and\n        /* \"Escrow.sol\":8943:8952  feeAmount */\n      dup5\n        /* \"Escrow.sol\":8907:8953  paymentToken.transfer(feeRecipient, feeAmount) */\n      mload(0x40)\n      dup4\n      0xffffffff\n      and\n      0xe0\n      shl\n      dup2\n      mstore\n      0x04\n      add\n      tag_242\n      swap3\n      swap2\n      swap1\n      tag_116\n      jump\t// in\n    tag_242:\n      0x20\n      mload(0x40)\n      dup1\n      dup4\n      sub\n      dup2\n      0x00\n      dup8\n      gas\n      call\n      iszero\n      dup1\n      iszero\n      tag_244\n      jumpi\n      returndatacopy(0x00, 0x00, returndatasize)\n      revert(0x00, returndatasize)\n    tag_244:\n      pop\n      pop\n      pop\n      pop\n      mload(0x40)\n      returndatasize\n      not(0x1f)\n      0x1f\n      dup3\n      add\n      and\n      dup3\n      add\n      dup1\n      0x40\n      mstore\n      pop\n      dup2\n      add\n      swap1\n      tag_245\n      swap2\n      swap1\n      tag_120\n      jump\t// in\n    tag_245:\n        /* \"Escrow.sol\":8886:8997  require(... */\n      tag_246\n      jumpi\n      mload(0x40)\n      0x08c379a000000000000000000000000000000000000000000000000000000000\n      dup2\n      mstore\n      0x04\n      add\n      tag_247\n      swap1\n      tag_248\n      jump\t// in\n    tag_247:\n      mload(0x40)\n      dup1\n      swap2\n      sub\n      swap1\n      revert\n    tag_246:\n        /* \"Escrow.sol\":9021:9032  marketplace */\n      0x01\n      0x00\n      swap1\n      sload\n      swap1\n      0x0100\n      exp\n      swap1\n      div\n      0xffffffffffffffffffffffffffffffffffffffff\n      and\n        /* \"Escrow.sol\":9008:9050  IMarketplace(marketplace).escrowMarkAsSold */\n      0xffffffffffffffffffffffffffffffffffffffff\n      and\n      0x4904ff8e\n        /* \"Escrow.sol\":9051:9060  listingId */\n      dup8\n        /* \"Escrow.sol\":9008:9061  IMarketplace(marketplace).escrowMarkAsSold(listingId) */\n      mload(0x40)\n      dup3\n      0xffffffff\n      and\n      0xe0\n      shl\n      dup2\n      mstore\n      0x04\n      add\n      tag_249\n      swap2\n      swap1\n      tag_31\n      jump\t// in\n    tag_249:\n      0x00\n      mload(0x40)\n      dup1\n      dup4\n      sub\n      dup2\n      0x00\n      dup8\n      dup1\n      extcodesize\n      iszero\n      dup1\n      iszero\n      tag_250\n      jumpi\n      revert(0x00, 0x00)\n    tag_250:\n      pop\n      gas\n      call\n      iszero\n      dup1\n      iszero\n      tag_252\n      jumpi\n      returndatacopy(0x00, 0x00, returndatasize)\n      revert(0x00, returndatasize)\n    tag_252:\n      pop\n      pop\n      pop\n      pop\n        /* \"Escrow.sol\":9152:9156  deal */\n      dup4\n        /* \"Escrow.sol\":9152:9163  deal.seller */\n      0x02\n      add\n      0x00\n      swap1\n      sload\n      swap1\n      0x0100\n      exp\n      swap1\n      div\n      0xffffffffffffffffffffffffffffffffffffffff\n      and\n        /* \"Escrow.sol\":9077:9222  EscrowReleased(... */\n      0xffffffffffffffffffffffffffffffffffffffff\n      and\n        /* \"Escrow.sol\":9128:9132  deal */\n      dup5\n        /* \"Escrow.sol\":9128:9138  deal.buyer */\n      0x01\n      add\n      0x00\n      swap1\n      sload\n      swap1\n      0x0100\n      exp\n      swap1\n      div\n      0xffffffffffffffffffffffffffffffffffffffff\n      and\n        /* \"Escrow.sol\":9077:9222  EscrowReleased(... */\n      0xffffffffffffffffffffffffffffffffffffffff\n      and\n        /* \"Escrow.sol\":9105:9114  listingId */\n      dup8\n        /* \"Escrow.sol\":9077:9222  EscrowReleased(... */\n      0x48269de621c6d0c7deba303f09a0f908001eeecf281f1e3ffc5c31249298da3c\n        /* \"Escrow.sol\":9177:9189  payoutAmount */\n      dup5\n        /* \"Escrow.sol\":9203:9212  feeAmount */\n      dup7\n        /* \"Escrow.sol\":9077:9222  EscrowReleased(... */\n      mload(0x40)\n      tag_253\n      swap3\n      swap2\n      swap1\n      tag_254\n      jump\t// in\n    tag_253:\n      mload(0x40)\n      dup1\n      swap2\n      sub\n      swap1\n      log4\n        /* \"Escrow.sol\":7761:9229  {... */\n      pop\n      pop\n      pop\n      pop\n        /* \"Escrow.sol\":7662:9229  function confirmCompletion(uint256 listingId)... */\n      pop\n      pop\n      jump\t// out\n        /* \"Escrow.sol\":1641:1667  address public marketplace */\n    tag_62:\n      0x01\n      0x00\n      swap1\n      sload\n      swap1\n      0x0100\n      exp\n      swap1\n      div\n      0xffffffffffffffffffffffffffffffffffffffff\n      and\n      dup2\n      jump\t// out\n        /* \"Escrow.sol\":5965:6710  function submitWork(uint256 listingId) external escrowExists(listingId) {... */\n    tag_66:\n        /* \"Escrow.sol\":6026:6035  listingId */\n      dup1\n        /* \"Escrow.sol\":3021:3028  escrows */\n      0x05\n        /* \"Escrow.sol\":3021:3039  escrows[listingId] */\n      0x00\n        /* \"Escrow.sol\":3029:3038  listingId */\n      dup3\n        /* \"Escrow.sol\":3021:3039  escrows[listingId] */\n      dup2\n      mstore\n      0x20\n      add\n      swap1\n      dup2\n      mstore\n      0x20\n      add\n      0x00\n      keccak256\n        /* \"Escrow.sol\":3021:3046  escrows[listingId].exists */\n      0x06\n      add\n      0x00\n      swap1\n      sload\n      swap1\n      0x0100\n      exp\n      swap1\n      div\n      0xff\n      and\n        /* \"Escrow.sol\":3013:3072  require(escrows[listingId].exists, \"Escrow does not exist\") */\n      tag_256\n      jumpi\n      mload(0x40)\n      0x08c379a000000000000000000000000000000000000000000000000000000000\n      dup2\n      mstore\n      0x04\n      add\n      tag_257\n      swap1\n      tag_83\n      jump\t// in\n    tag_257:\n      mload(0x40)\n      dup1\n      swap2\n      sub\n      swap1\n      revert\n    tag_256:\n        /* \"Escrow.sol\":6047:6070  EscrowDeal storage deal */\n      0x00\n        /* \"Escrow.sol\":6073:6080  escrows */\n      0x05\n        /* \"Escrow.sol\":6073:6091  escrows[listingId] */\n      0x00\n        /* \"Escrow.sol\":6081:6090  listingId */\n      dup5\n        /* \"Escrow.sol\":6073:6091  escrows[listingId] */\n      dup2\n      mstore\n      0x20\n      add\n      swap1\n      dup2\n      mstore\n      0x20\n      add\n      0x00\n      keccak256\n        /* \"Escrow.sol\":6047:6091  EscrowDeal storage deal = escrows[listingId] */\n      swap1\n      pop\n        /* \"Escrow.sol\":6102:6137  IMarketplace.Listing memory listing */\n      0x00\n        /* \"Escrow.sol\":6165:6176  marketplace */\n      0x01\n      0x00\n      swap1\n      sload\n      swap1\n      0x0100\n      exp\n      swap1\n      div\n      0xffffffffffffffffffffffffffffffffffffffff\n      and\n        /* \"Escrow.sol\":6152:6188  IMarketplace(marketplace).getListing */\n      0xffffffffffffffffffffffffffffffffffffffff\n      and\n      0x107a274a\n        /* \"Escrow.sol\":6189:6198  listingId */\n      dup6\n        /* \"Escrow.sol\":6152:6199  IMarketplace(marketplace).getListing(listingId) */\n      mload(0x40)\n      dup3\n      0xffffffff\n      and\n      0xe0\n      shl\n      dup2\n      mstore\n      0x04\n      add\n      tag_259\n      swap2\n      swap1\n      tag_31\n      jump\t// in\n    tag_259:\n      0x00\n      mload(0x40)\n      dup1\n      dup4\n      sub\n      dup2\n      dup7\n      gas\n      staticcall\n      iszero\n      dup1\n      iszero\n      tag_261\n      jumpi\n      returndatacopy(0x00, 0x00, returndatasize)\n      revert(0x00, returndatasize)\n    tag_261:\n      pop\n      pop\n      pop\n      pop\n      mload(0x40)\n      returndatasize\n      0x00\n      dup3\n      returndatacopy\n      returndatasize\n      not(0x1f)\n      0x1f\n      dup3\n      add\n      and\n      dup3\n      add\n      dup1\n      0x40\n      mstore\n      pop\n      dup2\n      add\n      swap1\n      tag_262\n      swap2\n      swap1\n      tag_106\n      jump\t// in\n    tag_262:\n        /* \"Escrow.sol\":6102:6199  IMarketplace.Listing memory listing =... */\n      swap1\n      pop\n        /* \"Escrow.sol\":6233:6252  EscrowStatus.Funded */\n      0x01\n        /* \"Escrow.sol\":6218:6252  deal.status == EscrowStatus.Funded */\n      0x05\n      dup2\n      gt\n      iszero\n      tag_263\n      jumpi\n      tag_264\n      tag_91\n      jump\t// in\n    tag_264:\n    tag_263:\n        /* \"Escrow.sol\":6218:6222  deal */\n      dup3\n        /* \"Escrow.sol\":6218:6229  deal.status */\n      0x04\n      add\n      0x00\n      swap1\n      sload\n      swap1\n      0x0100\n      exp\n      swap1\n      div\n      0xff\n      and\n        /* \"Escrow.sol\":6218:6252  deal.status == EscrowStatus.Funded */\n      0x05\n      dup2\n      gt\n      iszero\n      tag_265\n      jumpi\n      tag_266\n      tag_91\n      jump\t// in\n    tag_266:\n    tag_265:\n      eq\n        /* \"Escrow.sol\":6210:6274  require(deal.status == EscrowStatus.Funded, \"Escrow not funded\") */\n      tag_267\n      jumpi\n      mload(0x40)\n      0x08c379a000000000000000000000000000000000000000000000000000000000\n      dup2\n      mstore\n      0x04\n      add\n      tag_268\n      swap1\n      tag_269\n      jump\t// in\n    tag_268:\n      mload(0x40)\n      dup1\n      swap2\n      sub\n      swap1\n      revert\n    tag_267:\n        /* \"Escrow.sol\":6312:6345  IMarketplace.ListingType.ItemSale */\n      0x00\n        /* \"Escrow.sol\":6289:6345  listing.listingType == IMarketplace.ListingType.ItemSale */\n      0x01\n      dup2\n      gt\n      iszero\n      tag_270\n      jumpi\n      tag_271\n      tag_91\n      jump\t// in\n    tag_271:\n    tag_270:\n        /* \"Escrow.sol\":6289:6296  listing */\n      dup2\n        /* \"Escrow.sol\":6289:6308  listing.listingType */\n      0xa0\n      add\n      mload\n        /* \"Escrow.sol\":6289:6345  listing.listingType == IMarketplace.ListingType.ItemSale */\n      0x01\n      dup2\n      gt\n      iszero\n      tag_272\n      jumpi\n      tag_273\n      tag_91\n      jump\t// in\n    tag_273:\n    tag_272:\n      sub\n        /* \"Escrow.sol\":6285:6538  if (listing.listingType == IMarketplace.ListingType.ItemSale) {... */\n      tag_274\n      jumpi\n        /* \"Escrow.sol\":6383:6387  deal */\n      dup2\n        /* \"Escrow.sol\":6383:6394  deal.seller */\n      0x02\n      add\n      0x00\n      swap1\n      sload\n      swap1\n      0x0100\n      exp\n      swap1\n      div\n      0xffffffffffffffffffffffffffffffffffffffff\n      and\n        /* \"Escrow.sol\":6369:6394  msg.sender == deal.seller */\n      0xffffffffffffffffffffffffffffffffffffffff\n      and\n        /* \"Escrow.sol\":6369:6379  msg.sender */\n      caller\n        /* \"Escrow.sol\":6369:6394  msg.sender == deal.seller */\n      0xffffffffffffffffffffffffffffffffffffffff\n      and\n      eq\n        /* \"Escrow.sol\":6361:6430  require(msg.sender == deal.seller, \"Only seller can submit delivery\") */\n      tag_275\n      jumpi\n      mload(0x40)\n      0x08c379a000000000000000000000000000000000000000000000000000000000\n      dup2\n      mstore\n      0x04\n      add\n      tag_276\n      swap1\n      tag_277\n      jump\t// in\n    tag_276:\n      mload(0x40)\n      dup1\n      swap2\n      sub\n      swap1\n      revert\n    tag_275:\n        /* \"Escrow.sol\":6285:6538  if (listing.listingType == IMarketplace.ListingType.ItemSale) {... */\n      jump(tag_278)\n    tag_274:\n        /* \"Escrow.sol\":6483:6487  deal */\n      dup2\n        /* \"Escrow.sol\":6483:6493  deal.buyer */\n      0x01\n      add\n      0x00\n      swap1\n      sload\n      swap1\n      0x0100\n      exp\n      swap1\n      div\n      0xffffffffffffffffffffffffffffffffffffffff\n      and\n        /* \"Escrow.sol\":6469:6493  msg.sender == deal.buyer */\n      0xffffffffffffffffffffffffffffffffffffffff\n      and\n        /* \"Escrow.sol\":6469:6479  msg.sender */\n      caller\n        /* \"Escrow.sol\":6469:6493  msg.sender == deal.buyer */\n      0xffffffffffffffffffffffffffffffffffffffff\n      and\n      eq\n        /* \"Escrow.sol\":6461:6527  require(msg.sender == deal.buyer, \"Only worker can submit bounty\") */\n      tag_279\n      jumpi\n      mload(0x40)\n      0x08c379a000000000000000000000000000000000000000000000000000000000\n      dup2\n      mstore\n      0x04\n      add\n      tag_280\n      swap1\n      tag_281\n      jump\t// in\n    tag_280:\n      mload(0x40)\n      dup1\n      swap2\n      sub\n      swap1\n      revert\n    tag_279:\n        /* \"Escrow.sol\":6285:6538  if (listing.listingType == IMarketplace.ListingType.ItemSale) {... */\n    tag_278:\n        /* \"Escrow.sol\":6562:6584  EscrowStatus.Submitted */\n      0x02\n        /* \"Escrow.sol\":6548:6552  deal */\n      dup3\n        /* \"Escrow.sol\":6548:6559  deal.status */\n      0x04\n      add\n      0x00\n        /* \"Escrow.sol\":6548:6584  deal.status = EscrowStatus.Submitted */\n      0x0100\n      exp\n      dup2\n      sload\n      dup2\n      0xff\n      mul\n      not\n      and\n      swap1\n      dup4\n      0x05\n      dup2\n      gt\n      iszero\n      tag_282\n      jumpi\n      tag_283\n      tag_91\n      jump\t// in\n    tag_283:\n    tag_282:\n      mul\n      or\n      swap1\n      sstore\n      pop\n        /* \"Escrow.sol\":6608:6619  marketplace */\n      0x01\n      0x00\n      swap1\n      sload\n      swap1\n      0x0100\n      exp\n      swap1\n      div\n      0xffffffffffffffffffffffffffffffffffffffff\n      and\n        /* \"Escrow.sol\":6595:6640  IMarketplace(marketplace).escrowMarkCompleted */\n      0xffffffffffffffffffffffffffffffffffffffff\n      and\n      0xcdda6c65\n        /* \"Escrow.sol\":6641:6650  listingId */\n      dup6\n        /* \"Escrow.sol\":6595:6651  IMarketplace(marketplace).escrowMarkCompleted(listingId) */\n      mload(0x40)\n      dup3\n      0xffffffff\n      and\n      0xe0\n      shl\n      dup2\n      mstore\n      0x04\n      add\n      tag_284\n      swap2\n      swap1\n      tag_31\n      jump\t// in\n    tag_284:\n      0x00\n      mload(0x40)\n      dup1\n      dup4\n      sub\n      dup2\n      0x00\n      dup8\n      dup1\n      extcodesize\n      iszero\n      dup1\n      iszero\n      tag_285\n      jumpi\n      revert(0x00, 0x00)\n    tag_285:\n      pop\n      gas\n      call\n      iszero\n      dup1\n      iszero\n      tag_287\n      jumpi\n      returndatacopy(0x00, 0x00, returndatasize)\n      revert(0x00, returndatasize)\n    tag_287:\n      pop\n      pop\n      pop\n      pop\n        /* \"Escrow.sol\":6692:6702  msg.sender */\n      caller\n        /* \"Escrow.sol\":6667:6703  WorkSubmitted(listingId, msg.sender) */\n      0xffffffffffffffffffffffffffffffffffffffff\n      and\n        /* \"Escrow.sol\":6681:6690  listingId */\n      dup5\n        /* \"Escrow.sol\":6667:6703  WorkSubmitted(listingId, msg.sender) */\n      0x2e1034180f85502b3a04560be6ed4c24fe9b9c9e0bd7f4e09720494ac48859fa\n      mload(0x40)\n      mload(0x40)\n      dup1\n      swap2\n      sub\n      swap1\n      log3\n        /* \"Escrow.sol\":6037:6710  {... */\n      pop\n      pop\n        /* \"Escrow.sol\":5965:6710  function submitWork(uint256 listingId) external escrowExists(listingId) {... */\n      pop\n      pop\n      jump\t// out\n        /* \"Escrow.sol\":3570:3776  function setPlatformFeeBps(uint256 newFeeBps) external onlyOwner {... */\n    tag_69:\n        /* \"Escrow.sol\":2784:2789  owner */\n      0x00\n      0x00\n      swap1\n      sload\n      swap1\n      0x0100\n      exp\n      swap1\n      div\n      0xffffffffffffffffffffffffffffffffffffffff\n      and\n        /* \"Escrow.sol\":2770:2789  msg.sender == owner */\n      0xffffffffffffffffffffffffffffffffffffffff\n      and\n        /* \"Escrow.sol\":2770:2780  msg.sender */\n      caller\n        /* \"Escrow.sol\":2770:2789  msg.sender == owner */\n      0xffffffffffffffffffffffffffffffffffffffff\n      and\n      eq\n        /* \"Escrow.sol\":2762:2803  require(msg.sender == owner, \"Not owner\") */\n      tag_289\n      jumpi\n      mload(0x40)\n      0x08c379a000000000000000000000000000000000000000000000000000000000\n      dup2\n      mstore\n      0x04\n      add\n      tag_290\n      swap1\n      tag_135\n      jump\t// in\n    tag_290:\n      mload(0x40)\n      dup1\n      swap2\n      sub\n      swap1\n      revert\n    tag_289:\n        /* \"Escrow.sol\":3666:3670  1000 */\n      0x03e8\n        /* \"Escrow.sol\":3653:3662  newFeeBps */\n      dup2\n        /* \"Escrow.sol\":3653:3670  newFeeBps <= 1000 */\n      gt\n      iszero\n        /* \"Escrow.sol\":3645:3687  require(newFeeBps <= 1000, \"Fee too high\") */\n      tag_292\n      jumpi\n      mload(0x40)\n      0x08c379a000000000000000000000000000000000000000000000000000000000\n      dup2\n      mstore\n      0x04\n      add\n      tag_293\n      swap1\n      tag_294\n      jump\t// in\n    tag_293:\n      mload(0x40)\n      dup1\n      swap2\n      sub\n      swap1\n      revert\n    tag_292:\n        /* \"Escrow.sol\":3715:3724  newFeeBps */\n      dup1\n        /* \"Escrow.sol\":3698:3712  platformFeeBps */\n      0x03\n        /* \"Escrow.sol\":3698:3724  platformFeeBps = newFeeBps */\n      dup2\n      swap1\n      sstore\n      pop\n        /* \"Escrow.sol\":3740:3769  PlatformFeeUpdated(newFeeBps) */\n      0x45610d581145924dd7090a5017e5f2b1d6f42213bb2e95707ff86846bbfcb1ca\n        /* \"Escrow.sol\":3759:3768  newFeeBps */\n      dup2\n        /* \"Escrow.sol\":3740:3769  PlatformFeeUpdated(newFeeBps) */\n      mload(0x40)\n      tag_295\n      swap2\n      swap1\n      tag_31\n      jump\t// in\n    tag_295:\n      mload(0x40)\n      dup1\n      swap2\n      sub\n      swap1\n      log1\n        /* \"Escrow.sol\":3570:3776  function setPlatformFeeBps(uint256 newFeeBps) external onlyOwner {... */\n      pop\n      jump\t// out\n        /* \"Escrow.sol\":4278:5959  function fundEscrow(uint256 listingId) external {... */\n    tag_72:\n        /* \"Escrow.sol\":4336:4371  IMarketplace.Listing memory listing */\n      0x00\n        /* \"Escrow.sol\":4399:4410  marketplace */\n      0x01\n      0x00\n      swap1\n      sload\n      swap1\n      0x0100\n      exp\n      swap1\n      div\n      0xffffffffffffffffffffffffffffffffffffffff\n      and\n        /* \"Escrow.sol\":4386:4422  IMarketplace(marketplace).getListing */\n      0xffffffffffffffffffffffffffffffffffffffff\n      and\n      0x107a274a\n        /* \"Escrow.sol\":4423:4432  listingId */\n      dup4\n        /* \"Escrow.sol\":4386:4433  IMarketplace(marketplace).getListing(listingId) */\n      mload(0x40)\n      dup3\n      0xffffffff\n      and\n      0xe0\n      shl\n      dup2\n      mstore\n      0x04\n      add\n      tag_297\n      swap2\n      swap1\n      tag_31\n      jump\t// in\n    tag_297:\n      0x00\n      mload(0x40)\n      dup1\n      dup4\n      sub\n      dup2\n      dup7\n      gas\n      staticcall\n      iszero\n      dup1\n      iszero\n      tag_299\n      jumpi\n      returndatacopy(0x00, 0x00, returndatasize)\n      revert(0x00, returndatasize)\n    tag_299:\n      pop\n      pop\n      pop\n      pop\n      mload(0x40)\n      returndatasize\n      0x00\n      dup3\n      returndatacopy\n      returndatasize\n      not(0x1f)\n      0x1f\n      dup3\n      add\n      and\n      dup3\n      add\n      dup1\n      0x40\n      mstore\n      pop\n      dup2\n      add\n      swap1\n      tag_300\n      swap2\n      swap1\n      tag_106\n      jump\t// in\n    tag_300:\n        /* \"Escrow.sol\":4336:4433  IMarketplace.Listing memory listing =... */\n      swap1\n      pop\n        /* \"Escrow.sol\":4452:4459  listing */\n      dup1\n        /* \"Escrow.sol\":4452:4466  listing.exists */\n      0xe0\n      add\n      mload\n        /* \"Escrow.sol\":4444:4493  require(listing.exists, \"Listing does not exist\") */\n      tag_301\n      jumpi\n      mload(0x40)\n      0x08c379a000000000000000000000000000000000000000000000000000000000\n      dup2\n      mstore\n      0x04\n      add\n      tag_302\n      swap1\n      tag_303\n      jump\t// in\n    tag_302:\n      mload(0x40)\n      dup1\n      swap2\n      sub\n      swap1\n      revert\n    tag_301:\n        /* \"Escrow.sol\":4542:4575  IMarketplace.ListingStatus.Active */\n      0x01\n        /* \"Escrow.sol\":4524:4575  listing.status == IMarketplace.ListingStatus.Active */\n      0x05\n      dup2\n      gt\n      iszero\n      tag_304\n      jumpi\n      tag_305\n      tag_91\n      jump\t// in\n    tag_305:\n    tag_304:\n        /* \"Escrow.sol\":4524:4531  listing */\n      dup2\n        /* \"Escrow.sol\":4524:4538  listing.status */\n      0xc0\n      add\n      mload\n        /* \"Escrow.sol\":4524:4575  listing.status == IMarketplace.ListingStatus.Active */\n      0x05\n      dup2\n      gt\n      iszero\n      tag_306\n      jumpi\n      tag_307\n      tag_91\n      jump\t// in\n    tag_307:\n    tag_306:\n      eq\n        /* \"Escrow.sol\":4503:4619  require(... */\n      tag_308\n      jumpi\n      mload(0x40)\n      0x08c379a000000000000000000000000000000000000000000000000000000000\n      dup2\n      mstore\n      0x04\n      add\n      tag_309\n      swap1\n      tag_310\n      jump\t// in\n    tag_309:\n      mload(0x40)\n      dup1\n      swap2\n      sub\n      swap1\n      revert\n    tag_308:\n        /* \"Escrow.sol\":4651:4658  listing */\n      dup1\n        /* \"Escrow.sol\":4651:4665  listing.seller */\n      0x20\n      add\n      mload\n        /* \"Escrow.sol\":4637:4665  msg.sender != listing.seller */\n      0xffffffffffffffffffffffffffffffffffffffff\n      and\n        /* \"Escrow.sol\":4637:4647  msg.sender */\n      caller\n        /* \"Escrow.sol\":4637:4665  msg.sender != listing.seller */\n      0xffffffffffffffffffffffffffffffffffffffff\n      and\n      sub\n        /* \"Escrow.sol\":4629:4703  require(msg.sender != listing.seller, \"Creator cannot accept own listing\") */\n      tag_311\n      jumpi\n      mload(0x40)\n      0x08c379a000000000000000000000000000000000000000000000000000000000\n      dup2\n      mstore\n      0x04\n      add\n      tag_312\n      swap1\n      tag_313\n      jump\t// in\n    tag_312:\n      mload(0x40)\n      dup1\n      swap2\n      sub\n      swap1\n      revert\n    tag_311:\n        /* \"Escrow.sol\":4722:4729  escrows */\n      0x05\n        /* \"Escrow.sol\":4722:4740  escrows[listingId] */\n      0x00\n        /* \"Escrow.sol\":4730:4739  listingId */\n      dup4\n        /* \"Escrow.sol\":4722:4740  escrows[listingId] */\n      dup2\n      mstore\n      0x20\n      add\n      swap1\n      dup2\n      mstore\n      0x20\n      add\n      0x00\n      keccak256\n        /* \"Escrow.sol\":4722:4747  escrows[listingId].exists */\n      0x06\n      add\n      0x00\n      swap1\n      sload\n      swap1\n      0x0100\n      exp\n      swap1\n      div\n      0xff\n      and\n        /* \"Escrow.sol\":4721:4747  !escrows[listingId].exists */\n      iszero\n        /* \"Escrow.sol\":4713:4773  require(!escrows[listingId].exists, \"Escrow already exists\") */\n      tag_314\n      jumpi\n      mload(0x40)\n      0x08c379a000000000000000000000000000000000000000000000000000000000\n      dup2\n      mstore\n      0x04\n      add\n      tag_315\n      swap1\n      tag_316\n      jump\t// in\n    tag_315:\n      mload(0x40)\n      dup1\n      swap2\n      sub\n      swap1\n      revert\n    tag_314:\n        /* \"Escrow.sol\":4858:4868  msg.sender */\n      caller\n        /* \"Escrow.sol\":4804:4868  IMarketplace(marketplace).approvedBuyer(listingId) == msg.sender */\n      0xffffffffffffffffffffffffffffffffffffffff\n      and\n        /* \"Escrow.sol\":4817:4828  marketplace */\n      0x01\n      0x00\n      swap1\n      sload\n      swap1\n      0x0100\n      exp\n      swap1\n      div\n      0xffffffffffffffffffffffffffffffffffffffff\n      and\n        /* \"Escrow.sol\":4804:4843  IMarketplace(marketplace).approvedBuyer */\n      0xffffffffffffffffffffffffffffffffffffffff\n      and\n      0x4a0f2887\n        /* \"Escrow.sol\":4844:4853  listingId */\n      dup5\n        /* \"Escrow.sol\":4804:4854  IMarketplace(marketplace).approvedBuyer(listingId) */\n      mload(0x40)\n      dup3\n      0xffffffff\n      and\n      0xe0\n      shl\n      dup2\n      mstore\n      0x04\n      add\n      tag_317\n      swap2\n      swap1\n      tag_31\n      jump\t// in\n    tag_317:\n      0x20\n      mload(0x40)\n      dup1\n      dup4\n      sub\n      dup2\n      dup7\n      gas\n      staticcall\n      iszero\n      dup1\n      iszero\n      tag_319\n      jumpi\n      returndatacopy(0x00, 0x00, returndatasize)\n      revert(0x00, returndatasize)\n    tag_319:\n      pop\n      pop\n      pop\n      pop\n      mload(0x40)\n      returndatasize\n      not(0x1f)\n      0x1f\n      dup3\n      add\n      and\n      dup3\n      add\n      dup1\n      0x40\n      mstore\n      pop\n      dup2\n      add\n      swap1\n      tag_320\n      swap2\n      swap1\n      tag_321\n      jump\t// in\n    tag_320:\n        /* \"Escrow.sol\":4804:4868  IMarketplace(marketplace).approvedBuyer(listingId) == msg.sender */\n      0xffffffffffffffffffffffffffffffffffffffff\n      and\n      eq\n        /* \"Escrow.sol\":4783:4918  require(... */\n      tag_322\n      jumpi\n      mload(0x40)\n      0x08c379a000000000000000000000000000000000000000000000000000000000\n      dup2\n      mstore\n      0x04\n      add\n      tag_323\n      swap1\n      tag_324\n      jump\t// in\n    tag_323:\n      mload(0x40)\n      dup1\n      swap2\n      sub\n      swap1\n      revert\n    tag_322:\n        /* \"Escrow.sol\":4929:4941  bool success */\n      0x00\n        /* \"Escrow.sol\":4979:5012  IMarketplace.ListingType.ItemSale */\n      0x00\n        /* \"Escrow.sol\":4956:5012  listing.listingType == IMarketplace.ListingType.ItemSale */\n      0x01\n      dup2\n      gt\n      iszero\n      tag_325\n      jumpi\n      tag_326\n      tag_91\n      jump\t// in\n    tag_326:\n    tag_325:\n        /* \"Escrow.sol\":4956:4963  listing */\n      dup3\n        /* \"Escrow.sol\":4956:4975  listing.listingType */\n      0xa0\n      add\n      mload\n        /* \"Escrow.sol\":4956:5012  listing.listingType == IMarketplace.ListingType.ItemSale */\n      0x01\n      dup2\n      gt\n      iszero\n      tag_327\n      jumpi\n      tag_328\n      tag_91\n      jump\t// in\n    tag_328:\n    tag_327:\n      sub\n        /* \"Escrow.sol\":4952:5352  if (listing.listingType == IMarketplace.ListingType.ItemSale) {... */\n      tag_329\n      jumpi\n        /* \"Escrow.sol\":5038:5050  paymentToken */\n      0x02\n      0x00\n      swap1\n      sload\n      swap1\n      0x0100\n      exp\n      swap1\n      div\n      0xffffffffffffffffffffffffffffffffffffffff\n      and\n        /* \"Escrow.sol\":5038:5063  paymentToken.transferFrom */\n      0xffffffffffffffffffffffffffffffffffffffff\n      and\n      0x23b872dd\n        /* \"Escrow.sol\":5081:5091  msg.sender */\n      caller\n        /* \"Escrow.sol\":5117:5121  this */\n      address\n        /* \"Escrow.sol\":5140:5147  listing */\n      dup6\n        /* \"Escrow.sol\":5140:5153  listing.price */\n      0x60\n      add\n      mload\n        /* \"Escrow.sol\":5038:5167  paymentToken.transferFrom(... */\n      mload(0x40)\n      dup5\n      0xffffffff\n      and\n      0xe0\n      shl\n      dup2\n      mstore\n      0x04\n      add\n      tag_330\n      swap4\n      swap3\n      swap2\n      swap1\n      tag_331\n      jump\t// in\n    tag_330:\n      0x20\n      mload(0x40)\n      dup1\n      dup4\n      sub\n      dup2\n      0x00\n      dup8\n      gas\n      call\n      iszero\n      dup1\n      iszero\n      tag_333\n      jumpi\n      returndatacopy(0x00, 0x00, returndatasize)\n      revert(0x00, returndatasize)\n    tag_333:\n      pop\n      pop\n      pop\n      pop\n      mload(0x40)\n      returndatasize\n      not(0x1f)\n      0x1f\n      dup3\n      add\n      and\n      dup3\n      add\n      dup1\n      0x40\n      mstore\n      pop\n      dup2\n      add\n      swap1\n      tag_334\n      swap2\n      swap1\n      tag_120\n      jump\t// in\n    tag_334:\n        /* \"Escrow.sol\":5028:5167  success = paymentToken.transferFrom(... */\n      swap1\n      pop\n        /* \"Escrow.sol\":4952:5352  if (listing.listingType == IMarketplace.ListingType.ItemSale) {... */\n      jump(tag_335)\n    tag_329:\n        /* \"Escrow.sol\":5208:5220  paymentToken */\n      0x02\n      0x00\n      swap1\n      sload\n      swap1\n      0x0100\n      exp\n      swap1\n      div\n      0xffffffffffffffffffffffffffffffffffffffff\n      and\n        /* \"Escrow.sol\":5208:5233  paymentToken.transferFrom */\n      0xffffffffffffffffffffffffffffffffffffffff\n      and\n      0x23b872dd\n        /* \"Escrow.sol\":5251:5258  listing */\n      dup4\n        /* \"Escrow.sol\":5251:5265  listing.seller */\n      0x20\n      add\n      mload\n        /* \"Escrow.sol\":5291:5295  this */\n      address\n        /* \"Escrow.sol\":5314:5321  listing */\n      dup6\n        /* \"Escrow.sol\":5314:5327  listing.price */\n      0x60\n      add\n      mload\n        /* \"Escrow.sol\":5208:5341  paymentToken.transferFrom(... */\n      mload(0x40)\n      dup5\n      0xffffffff\n      and\n      0xe0\n      shl\n      dup2\n      mstore\n      0x04\n      add\n      tag_336\n      swap4\n      swap3\n      swap2\n      swap1\n      tag_331\n      jump\t// in\n    tag_336:\n      0x20\n      mload(0x40)\n      dup1\n      dup4\n      sub\n      dup2\n      0x00\n      dup8\n      gas\n      call\n      iszero\n      dup1\n      iszero\n      tag_338\n      jumpi\n      returndatacopy(0x00, 0x00, returndatasize)\n      revert(0x00, returndatasize)\n    tag_338:\n      pop\n      pop\n      pop\n      pop\n      mload(0x40)\n      returndatasize\n      not(0x1f)\n      0x1f\n      dup3\n      add\n      and\n      dup3\n      add\n      dup1\n      0x40\n      mstore\n      pop\n      dup2\n      add\n      swap1\n      tag_339\n      swap2\n      swap1\n      tag_120\n      jump\t// in\n    tag_339:\n        /* \"Escrow.sol\":5198:5341  success = paymentToken.transferFrom(... */\n      swap1\n      pop\n        /* \"Escrow.sol\":4952:5352  if (listing.listingType == IMarketplace.ListingType.ItemSale) {... */\n    tag_335:\n        /* \"Escrow.sol\":5370:5377  success */\n      dup1\n        /* \"Escrow.sol\":5362:5403  require(success, \"Token transfer failed\") */\n      tag_340\n      jumpi\n      mload(0x40)\n      0x08c379a000000000000000000000000000000000000000000000000000000000\n      dup2\n      mstore\n      0x04\n      add\n      tag_341\n      swap1\n      tag_342\n      jump\t// in\n    tag_341:\n      mload(0x40)\n      dup1\n      swap2\n      sub\n      swap1\n      revert\n    tag_340:\n        /* \"Escrow.sol\":5435:5732  EscrowDeal({... */\n      mload(0x40)\n      dup1\n      0x0100\n      add\n      0x40\n      mstore\n      dup1\n        /* \"Escrow.sol\":5471:5480  listingId */\n      dup5\n        /* \"Escrow.sol\":5435:5732  EscrowDeal({... */\n      dup2\n      mstore\n      0x20\n      add\n        /* \"Escrow.sol\":5501:5511  msg.sender */\n      caller\n        /* \"Escrow.sol\":5435:5732  EscrowDeal({... */\n      0xffffffffffffffffffffffffffffffffffffffff\n      and\n      dup2\n      mstore\n      0x20\n      add\n        /* \"Escrow.sol\":5533:5540  listing */\n      dup4\n        /* \"Escrow.sol\":5533:5547  listing.seller */\n      0x20\n      add\n      mload\n        /* \"Escrow.sol\":5435:5732  EscrowDeal({... */\n      0xffffffffffffffffffffffffffffffffffffffff\n      and\n      dup2\n      mstore\n      0x20\n      add\n        /* \"Escrow.sol\":5569:5576  listing */\n      dup4\n        /* \"Escrow.sol\":5569:5582  listing.price */\n      0x60\n      add\n      mload\n        /* \"Escrow.sol\":5435:5732  EscrowDeal({... */\n      dup2\n      mstore\n      0x20\n      add\n        /* \"Escrow.sol\":5604:5623  EscrowStatus.Funded */\n      0x01\n        /* \"Escrow.sol\":5435:5732  EscrowDeal({... */\n      0x05\n      dup2\n      gt\n      iszero\n      tag_343\n      jumpi\n      tag_344\n      tag_91\n      jump\t// in\n    tag_344:\n    tag_343:\n      dup2\n      mstore\n      0x20\n      add\n        /* \"Escrow.sol\":5647:5662  block.timestamp */\n      timestamp\n        /* \"Escrow.sol\":5435:5732  EscrowDeal({... */\n      dup2\n      mstore\n      0x20\n      add\n        /* \"Escrow.sol\":5684:5688  true */\n      0x01\n        /* \"Escrow.sol\":5435:5732  EscrowDeal({... */\n      iszero\n      iszero\n      dup2\n      mstore\n      0x20\n      add\n        /* \"Escrow.sol\":5716:5721  false */\n      0x00\n        /* \"Escrow.sol\":5435:5732  EscrowDeal({... */\n      iszero\n      iszero\n      dup2\n      mstore\n      pop\n        /* \"Escrow.sol\":5414:5421  escrows */\n      0x05\n        /* \"Escrow.sol\":5414:5432  escrows[listingId] */\n      0x00\n        /* \"Escrow.sol\":5422:5431  listingId */\n      dup6\n        /* \"Escrow.sol\":5414:5432  escrows[listingId] */\n      dup2\n      mstore\n      0x20\n      add\n      swap1\n      dup2\n      mstore\n      0x20\n      add\n      0x00\n      keccak256\n        /* \"Escrow.sol\":5414:5732  escrows[listingId] = EscrowDeal({... */\n      0x00\n      dup3\n      add\n      mload\n      dup2\n      0x00\n      add\n      sstore\n      0x20\n      dup3\n      add\n      mload\n      dup2\n      0x01\n      add\n      exp(0x0100, 0x00)\n      dup2\n      sload\n      dup2\n      0xffffffffffffffffffffffffffffffffffffffff\n      mul\n      not\n      and\n      swap1\n      dup4\n      0xffffffffffffffffffffffffffffffffffffffff\n      and\n      mul\n      or\n      swap1\n      sstore\n      pop\n      0x40\n      dup3\n      add\n      mload\n      dup2\n      0x02\n      add\n      exp(0x0100, 0x00)\n      dup2\n      sload\n      dup2\n      0xffffffffffffffffffffffffffffffffffffffff\n      mul\n      not\n      and\n      swap1\n      dup4\n      0xffffffffffffffffffffffffffffffffffffffff\n      and\n      mul\n      or\n      swap1\n      sstore\n      pop\n      0x60\n      dup3\n      add\n      mload\n      dup2\n      0x03\n      add\n      sstore\n      0x80\n      dup3\n      add\n      mload\n      dup2\n      0x04\n      add\n      exp(0x0100, 0x00)\n      dup2\n      sload\n      dup2\n      0xff\n      mul\n      not\n      and\n      swap1\n      dup4\n      0x05\n      dup2\n      gt\n      iszero\n      tag_345\n      jumpi\n      tag_346\n      tag_91\n      jump\t// in\n    tag_346:\n    tag_345:\n      mul\n      or\n      swap1\n      sstore\n      pop\n      0xa0\n      dup3\n      add\n      mload\n      dup2\n      0x05\n      add\n      sstore\n      0xc0\n      dup3\n      add\n      mload\n      dup2\n      0x06\n      add\n      exp(0x0100, 0x00)\n      dup2\n      sload\n      dup2\n      0xff\n      mul\n      not\n      and\n      swap1\n      dup4\n      iszero\n      iszero\n      mul\n      or\n      swap1\n      sstore\n      pop\n      0xe0\n      dup3\n      add\n      mload\n      dup2\n      0x06\n      add\n      exp(0x0100, 0x01)\n      dup2\n      sload\n      dup2\n      0xff\n      mul\n      not\n      and\n      swap1\n      dup4\n      iszero\n      iszero\n      mul\n      or\n      swap1\n      sstore\n      pop\n      swap1\n      pop\n      pop\n        /* \"Escrow.sol\":5756:5767  marketplace */\n      0x01\n      0x00\n      swap1\n      sload\n      swap1\n      0x0100\n      exp\n      swap1\n      div\n      0xffffffffffffffffffffffffffffffffffffffff\n      and\n        /* \"Escrow.sol\":5743:5789  IMarketplace(marketplace).escrowReserveListing */\n      0xffffffffffffffffffffffffffffffffffffffff\n      and\n      0x8a9bc5da\n        /* \"Escrow.sol\":5790:5799  listingId */\n      dup5\n        /* \"Escrow.sol\":5801:5811  msg.sender */\n      caller\n        /* \"Escrow.sol\":5743:5812  IMarketplace(marketplace).escrowReserveListing(listingId, msg.sender) */\n      mload(0x40)\n      dup4\n      0xffffffff\n      and\n      0xe0\n      shl\n      dup2\n      mstore\n      0x04\n      add\n      tag_347\n      swap3\n      swap2\n      swap1\n      tag_348\n      jump\t// in\n    tag_347:\n      0x00\n      mload(0x40)\n      dup1\n      dup4\n      sub\n      dup2\n      0x00\n      dup8\n      dup1\n      extcodesize\n      iszero\n      dup1\n      iszero\n      tag_349\n      jumpi\n      revert(0x00, 0x00)\n    tag_349:\n      pop\n      gas\n      call\n      iszero\n      dup1\n      iszero\n      tag_351\n      jumpi\n      returndatacopy(0x00, 0x00, returndatasize)\n      revert(0x00, returndatasize)\n    tag_351:\n      pop\n      pop\n      pop\n      pop\n        /* \"Escrow.sol\":5901:5908  listing */\n      dup2\n        /* \"Escrow.sol\":5901:5915  listing.seller */\n      0x20\n      add\n      mload\n        /* \"Escrow.sol\":5828:5952  EscrowFunded(... */\n      0xffffffffffffffffffffffffffffffffffffffff\n      and\n        /* \"Escrow.sol\":5877:5887  msg.sender */\n      caller\n        /* \"Escrow.sol\":5828:5952  EscrowFunded(... */\n      0xffffffffffffffffffffffffffffffffffffffff\n      and\n        /* \"Escrow.sol\":5854:5863  listingId */\n      dup5\n        /* \"Escrow.sol\":5828:5952  EscrowFunded(... */\n      0x1736617f8b9029b421ccc471ca8a99395f5d8a1cb348be9fcbfd64cceee7252f\n        /* \"Escrow.sol\":5929:5936  listing */\n      dup6\n        /* \"Escrow.sol\":5929:5942  listing.price */\n      0x60\n      add\n      mload\n        /* \"Escrow.sol\":5828:5952  EscrowFunded(... */\n      mload(0x40)\n      tag_352\n      swap2\n      swap1\n      tag_31\n      jump\t// in\n    tag_352:\n      mload(0x40)\n      dup1\n      swap2\n      sub\n      swap1\n      log4\n        /* \"Escrow.sol\":4326:5959  {... */\n      pop\n      pop\n        /* \"Escrow.sol\":4278:5959  function fundEscrow(uint256 listingId) external {... */\n      pop\n      jump\t// out\n        /* \"Escrow.sol\":6716:7656  function rejectWork(uint256 listingId, string calldata reason)... */\n    tag_76:\n        /* \"Escrow.sol\":6817:6826  listingId */\n      dup3\n        /* \"Escrow.sol\":3021:3028  escrows */\n      0x05\n        /* \"Escrow.sol\":3021:3039  escrows[listingId] */\n      0x00\n        /* \"Escrow.sol\":3029:3038  listingId */\n      dup3\n        /* \"Escrow.sol\":3021:3039  escrows[listingId] */\n      dup2\n      mstore\n      0x20\n      add\n      swap1\n      dup2\n      mstore\n      0x20\n      add\n      0x00\n      keccak256\n        /* \"Escrow.sol\":3021:3046  escrows[listingId].exists */\n      0x06\n      add\n      0x00\n      swap1\n      sload\n      swap1\n      0x0100\n      exp\n      swap1\n      div\n      0xff\n      and\n        /* \"Escrow.sol\":3013:3072  require(escrows[listingId].exists, \"Escrow does not exist\") */\n      tag_354\n      jumpi\n      mload(0x40)\n      0x08c379a000000000000000000000000000000000000000000000000000000000\n      dup2\n      mstore\n      0x04\n      add\n      tag_355\n      swap1\n      tag_83\n      jump\t// in\n    tag_355:\n      mload(0x40)\n      dup1\n      swap2\n      sub\n      swap1\n      revert\n    tag_354:\n        /* \"Escrow.sol\":6842:6865  EscrowDeal storage deal */\n      0x00\n        /* \"Escrow.sol\":6868:6875  escrows */\n      0x05\n        /* \"Escrow.sol\":6868:6886  escrows[listingId] */\n      0x00\n        /* \"Escrow.sol\":6876:6885  listingId */\n      dup7\n        /* \"Escrow.sol\":6868:6886  escrows[listingId] */\n      dup2\n      mstore\n      0x20\n      add\n      swap1\n      dup2\n      mstore\n      0x20\n      add\n      0x00\n      keccak256\n        /* \"Escrow.sol\":6842:6886  EscrowDeal storage deal = escrows[listingId] */\n      swap1\n      pop\n        /* \"Escrow.sol\":6897:6932  IMarketplace.Listing memory listing */\n      0x00\n        /* \"Escrow.sol\":6960:6971  marketplace */\n      0x01\n      0x00\n      swap1\n      sload\n      swap1\n      0x0100\n      exp\n      swap1\n      div\n      0xffffffffffffffffffffffffffffffffffffffff\n      and\n        /* \"Escrow.sol\":6947:6983  IMarketplace(marketplace).getListing */\n      0xffffffffffffffffffffffffffffffffffffffff\n      and\n      0x107a274a\n        /* \"Escrow.sol\":6984:6993  listingId */\n      dup8\n        /* \"Escrow.sol\":6947:6994  IMarketplace(marketplace).getListing(listingId) */\n      mload(0x40)\n      dup3\n      0xffffffff\n      and\n      0xe0\n      shl\n      dup2\n      mstore\n      0x04\n      add\n      tag_357\n      swap2\n      swap1\n      tag_31\n      jump\t// in\n    tag_357:\n      0x00\n      mload(0x40)\n      dup1\n      dup4\n      sub\n      dup2\n      dup7\n      gas\n      staticcall\n      iszero\n      dup1\n      iszero\n      tag_359\n      jumpi\n      returndatacopy(0x00, 0x00, returndatasize)\n      revert(0x00, returndatasize)\n    tag_359:\n      pop\n      pop\n      pop\n      pop\n      mload(0x40)\n      returndatasize\n      0x00\n      dup3\n      returndatacopy\n      returndatasize\n      not(0x1f)\n      0x1f\n      dup3\n      add\n      and\n      dup3\n      add\n      dup1\n      0x40\n      mstore\n      pop\n      dup2\n      add\n      swap1\n      tag_360\n      swap2\n      swap1\n      tag_106\n      jump\t// in\n    tag_360:\n        /* \"Escrow.sol\":6897:6994  IMarketplace.Listing memory listing =... */\n      swap1\n      pop\n        /* \"Escrow.sol\":7028:7050  EscrowStatus.Submitted */\n      0x02\n        /* \"Escrow.sol\":7013:7050  deal.status == EscrowStatus.Submitted */\n      0x05\n      dup2\n      gt\n      iszero\n      tag_361\n      jumpi\n      tag_362\n      tag_91\n      jump\t// in\n    tag_362:\n    tag_361:\n        /* \"Escrow.sol\":7013:7017  deal */\n      dup3\n        /* \"Escrow.sol\":7013:7024  deal.status */\n      0x04\n      add\n      0x00\n      swap1\n      sload\n      swap1\n      0x0100\n      exp\n      swap1\n      div\n      0xff\n      and\n        /* \"Escrow.sol\":7013:7050  deal.status == EscrowStatus.Submitted */\n      0x05\n      dup2\n      gt\n      iszero\n      tag_363\n      jumpi\n      tag_364\n      tag_91\n      jump\t// in\n    tag_364:\n    tag_363:\n      eq\n        /* \"Escrow.sol\":7005:7073  require(deal.status == EscrowStatus.Submitted, \"Work not submitted\") */\n      tag_365\n      jumpi\n      mload(0x40)\n      0x08c379a000000000000000000000000000000000000000000000000000000000\n      dup2\n      mstore\n      0x04\n      add\n      tag_366\n      swap1\n      tag_201\n      jump\t// in\n    tag_366:\n      mload(0x40)\n      dup1\n      swap2\n      sub\n      swap1\n      revert\n    tag_365:\n        /* \"Escrow.sol\":7092:7096  deal */\n      dup2\n        /* \"Escrow.sol\":7092:7109  deal.rejectedOnce */\n      0x06\n      add\n      0x01\n      swap1\n      sload\n      swap1\n      0x0100\n      exp\n      swap1\n      div\n      0xff\n      and\n        /* \"Escrow.sol\":7091:7109  !deal.rejectedOnce */\n      iszero\n        /* \"Escrow.sol\":7083:7135  require(!deal.rejectedOnce, \"Already rejected once\") */\n      tag_367\n      jumpi\n      mload(0x40)\n      0x08c379a000000000000000000000000000000000000000000000000000000000\n      dup2\n      mstore\n      0x04\n      add\n      tag_368\n      swap1\n      tag_369\n      jump\t// in\n    tag_368:\n      mload(0x40)\n      dup1\n      swap2\n      sub\n      swap1\n      revert\n    tag_367:\n        /* \"Escrow.sol\":7173:7206  IMarketplace.ListingType.ItemSale */\n      0x00\n        /* \"Escrow.sol\":7150:7206  listing.listingType == IMarketplace.ListingType.ItemSale */\n      0x01\n      dup2\n      gt\n      iszero\n      tag_370\n      jumpi\n      tag_371\n      tag_91\n      jump\t// in\n    tag_371:\n    tag_370:\n        /* \"Escrow.sol\":7150:7157  listing */\n      dup2\n        /* \"Escrow.sol\":7150:7169  listing.listingType */\n      0xa0\n      add\n      mload\n        /* \"Escrow.sol\":7150:7206  listing.listingType == IMarketplace.ListingType.ItemSale */\n      0x01\n      dup2\n      gt\n      iszero\n      tag_372\n      jumpi\n      tag_373\n      tag_91\n      jump\t// in\n    tag_373:\n    tag_372:\n      sub\n        /* \"Escrow.sol\":7146:7447  if (listing.listingType == IMarketplace.ListingType.ItemSale) {... */\n      tag_374\n      jumpi\n        /* \"Escrow.sol\":7244:7248  deal */\n      dup2\n        /* \"Escrow.sol\":7244:7254  deal.buyer */\n      0x01\n      add\n      0x00\n      swap1\n      sload\n      swap1\n      0x0100\n      exp\n      swap1\n      div\n      0xffffffffffffffffffffffffffffffffffffffff\n      and\n        /* \"Escrow.sol\":7230:7254  msg.sender == deal.buyer */\n      0xffffffffffffffffffffffffffffffffffffffff\n      and\n        /* \"Escrow.sol\":7230:7240  msg.sender */\n      caller\n        /* \"Escrow.sol\":7230:7254  msg.sender == deal.buyer */\n      0xffffffffffffffffffffffffffffffffffffffff\n      and\n      eq\n        /* \"Escrow.sol\":7222:7290  require(msg.sender == deal.buyer, \"Buyer must reject item delivery\") */\n      tag_375\n      jumpi\n      mload(0x40)\n      0x08c379a000000000000000000000000000000000000000000000000000000000\n      dup2\n      mstore\n      0x04\n      add\n      tag_376\n      swap1\n      tag_377\n      jump\t// in\n    tag_376:\n      mload(0x40)\n      dup1\n      swap2\n      sub\n      swap1\n      revert\n    tag_375:\n        /* \"Escrow.sol\":7146:7447  if (listing.listingType == IMarketplace.ListingType.ItemSale) {... */\n      jump(tag_378)\n    tag_374:\n        /* \"Escrow.sol\":7360:7364  deal */\n      dup2\n        /* \"Escrow.sol\":7360:7371  deal.seller */\n      0x02\n      add\n      0x00\n      swap1\n      sload\n      swap1\n      0x0100\n      exp\n      swap1\n      div\n      0xffffffffffffffffffffffffffffffffffffffff\n      and\n        /* \"Escrow.sol\":7346:7371  msg.sender == deal.seller */\n      0xffffffffffffffffffffffffffffffffffffffff\n      and\n        /* \"Escrow.sol\":7346:7356  msg.sender */\n      caller\n        /* \"Escrow.sol\":7346:7371  msg.sender == deal.seller */\n      0xffffffffffffffffffffffffffffffffffffffff\n      and\n      eq\n        /* \"Escrow.sol\":7321:7436  require(... */\n      tag_379\n      jumpi\n      mload(0x40)\n      0x08c379a000000000000000000000000000000000000000000000000000000000\n      dup2\n      mstore\n      0x04\n      add\n      tag_380\n      swap1\n      tag_381\n      jump\t// in\n    tag_380:\n      mload(0x40)\n      dup1\n      swap2\n      sub\n      swap1\n      revert\n    tag_379:\n        /* \"Escrow.sol\":7146:7447  if (listing.listingType == IMarketplace.ListingType.ItemSale) {... */\n    tag_378:\n        /* \"Escrow.sol\":7477:7481  true */\n      0x01\n        /* \"Escrow.sol\":7457:7461  deal */\n      dup3\n        /* \"Escrow.sol\":7457:7474  deal.rejectedOnce */\n      0x06\n      add\n      0x01\n        /* \"Escrow.sol\":7457:7481  deal.rejectedOnce = true */\n      0x0100\n      exp\n      dup2\n      sload\n      dup2\n      0xff\n      mul\n      not\n      and\n      swap1\n      dup4\n      iszero\n      iszero\n      mul\n      or\n      swap1\n      sstore\n      pop\n        /* \"Escrow.sol\":7505:7524  EscrowStatus.Funded */\n      0x01\n        /* \"Escrow.sol\":7491:7495  deal */\n      dup3\n        /* \"Escrow.sol\":7491:7502  deal.status */\n      0x04\n      add\n      0x00\n        /* \"Escrow.sol\":7491:7524  deal.status = EscrowStatus.Funded */\n      0x0100\n      exp\n      dup2\n      sload\n      dup2\n      0xff\n      mul\n      not\n      and\n      swap1\n      dup4\n      0x05\n      dup2\n      gt\n      iszero\n      tag_382\n      jumpi\n      tag_383\n      tag_91\n      jump\t// in\n    tag_383:\n    tag_382:\n      mul\n      or\n      swap1\n      sstore\n      pop\n        /* \"Escrow.sol\":7548:7559  marketplace */\n      0x01\n      0x00\n      swap1\n      sload\n      swap1\n      0x0100\n      exp\n      swap1\n      div\n      0xffffffffffffffffffffffffffffffffffffffff\n      and\n        /* \"Escrow.sol\":7535:7579  IMarketplace(marketplace).escrowMarkReserved */\n      0xffffffffffffffffffffffffffffffffffffffff\n      and\n      0xc8319685\n        /* \"Escrow.sol\":7580:7589  listingId */\n      dup8\n        /* \"Escrow.sol\":7535:7590  IMarketplace(marketplace).escrowMarkReserved(listingId) */\n      mload(0x40)\n      dup3\n      0xffffffff\n      and\n      0xe0\n      shl\n      dup2\n      mstore\n      0x04\n      add\n      tag_384\n      swap2\n      swap1\n      tag_31\n      jump\t// in\n    tag_384:\n      0x00\n      mload(0x40)\n      dup1\n      dup4\n      sub\n      dup2\n      0x00\n      dup8\n      dup1\n      extcodesize\n      iszero\n      dup1\n      iszero\n      tag_385\n      jumpi\n      revert(0x00, 0x00)\n    tag_385:\n      pop\n      gas\n      call\n      iszero\n      dup1\n      iszero\n      tag_387\n      jumpi\n      returndatacopy(0x00, 0x00, returndatasize)\n      revert(0x00, returndatasize)\n    tag_387:\n      pop\n      pop\n      pop\n      pop\n        /* \"Escrow.sol\":7630:7640  msg.sender */\n      caller\n        /* \"Escrow.sol\":7606:7649  WorkRejected(listingId, msg.sender, reason) */\n      0xffffffffffffffffffffffffffffffffffffffff\n      and\n        /* \"Escrow.sol\":7619:7628  listingId */\n      dup7\n        /* \"Escrow.sol\":7606:7649  WorkRejected(listingId, msg.sender, reason) */\n      0xfb1f2b2d59e15c4d9793571c3df2fc8aa0fed8c4308b8f71ff5a77678e571e72\n        /* \"Escrow.sol\":7642:7648  reason */\n      dup8\n      dup8\n        /* \"Escrow.sol\":7606:7649  WorkRejected(listingId, msg.sender, reason) */\n      mload(0x40)\n      tag_388\n      swap3\n      swap2\n      swap1\n      tag_389\n      jump\t// in\n    tag_388:\n      mload(0x40)\n      dup1\n      swap2\n      sub\n      swap1\n      log3\n        /* \"Escrow.sol\":6832:7656  {... */\n      pop\n      pop\n        /* \"Escrow.sol\":6716:7656  function rejectWork(uint256 listingId, string calldata reason)... */\n      pop\n      pop\n      pop\n      pop\n      jump\t// out\n        /* \"Escrow.sol\":3782:4024  function setFeeRecipient(address newFeeRecipient) external onlyOwner {... */\n    tag_79:\n        /* \"Escrow.sol\":2784:2789  owner */\n      0x00\n      0x00\n      swap1\n      sload\n      swap1\n      0x0100\n      exp\n      swap1\n      div\n      0xffffffffffffffffffffffffffffffffffffffff\n      and\n        /* \"Escrow.sol\":2770:2789  msg.sender == owner */\n      0xffffffffffffffffffffffffffffffffffffffff\n      and\n        /* \"Escrow.sol\":2770:2780  msg.sender */\n      caller\n        /* \"Escrow.sol\":2770:2789  msg.sender == owner */\n      0xffffffffffffffffffffffffffffffffffffffff\n      and\n      eq\n        /* \"Escrow.sol\":2762:2803  require(msg.sender == owner, \"Not owner\") */\n      tag_391\n      jumpi\n      mload(0x40)\n      0x08c379a000000000000000000000000000000000000000000000000000000000\n      dup2\n      mstore\n      0x04\n      add\n      tag_392\n      swap1\n      tag_135\n      jump\t// in\n    tag_392:\n      mload(0x40)\n      dup1\n      swap2\n      sub\n      swap1\n      revert\n    tag_391:\n        /* \"Escrow.sol\":3896:3897  0 */\n      0x00\n        /* \"Escrow.sol\":3869:3898  newFeeRecipient != address(0) */\n      0xffffffffffffffffffffffffffffffffffffffff\n      and\n        /* \"Escrow.sol\":3869:3884  newFeeRecipient */\n      dup2\n        /* \"Escrow.sol\":3869:3898  newFeeRecipient != address(0) */\n      0xffffffffffffffffffffffffffffffffffffffff\n      and\n      sub\n        /* \"Escrow.sol\":3861:3924  require(newFeeRecipient != address(0), \"Invalid fee recipient\") */\n      tag_394\n      jumpi\n      mload(0x40)\n      0x08c379a000000000000000000000000000000000000000000000000000000000\n      dup2\n      mstore\n      0x04\n      add\n      tag_395\n      swap1\n      tag_396\n      jump\t// in\n    tag_395:\n      mload(0x40)\n      dup1\n      swap2\n      sub\n      swap1\n      revert\n    tag_394:\n        /* \"Escrow.sol\":3950:3965  newFeeRecipient */\n      dup1\n        /* \"Escrow.sol\":3935:3947  feeRecipient */\n      0x04\n      0x00\n        /* \"Escrow.sol\":3935:3965  feeRecipient = newFeeRecipient */\n      0x0100\n      exp\n      dup2\n      sload\n      dup2\n      0xffffffffffffffffffffffffffffffffffffffff\n      mul\n      not\n      and\n      swap1\n      dup4\n      0xffffffffffffffffffffffffffffffffffffffff\n      and\n      mul\n      or\n      swap1\n      sstore\n      pop\n        /* \"Escrow.sol\":3981:4017  FeeRecipientUpdated(newFeeRecipient) */\n      0x7a7b5a0a132f9e0581eb8527f66eae9ee89c2a3e79d4ac7e41a1f1f4d48a7fc2\n        /* \"Escrow.sol\":4001:4016  newFeeRecipient */\n      dup2\n        /* \"Escrow.sol\":3981:4017  FeeRecipientUpdated(newFeeRecipient) */\n      mload(0x40)\n      tag_397\n      swap2\n      swap1\n      tag_42\n      jump\t// in\n    tag_397:\n      mload(0x40)\n      dup1\n      swap2\n      sub\n      swap1\n      log1\n        /* \"Escrow.sol\":3782:4024  function setFeeRecipient(address newFeeRecipient) external onlyOwner {... */\n      pop\n      jump\t// out\n    tag_181:\n      mload(0x40)\n      dup1\n      0x0100\n      add\n      0x40\n      mstore\n      dup1\n      0x00\n      dup2\n      mstore\n      0x20\n      add\n      and(0xffffffffffffffffffffffffffffffffffffffff, 0x00)\n      dup2\n      mstore\n      0x20\n      add\n      and(0xffffffffffffffffffffffffffffffffffffffff, 0x00)\n      dup2\n      mstore\n      0x20\n      add\n      0x00\n      dup2\n      mstore\n      0x20\n      add\n      0x00\n      0x05\n      dup2\n      gt\n      iszero\n      tag_398\n      jumpi\n      tag_399\n      tag_91\n      jump\t// in\n    tag_399:\n    tag_398:\n      dup2\n      mstore\n      0x20\n      add\n      0x00\n      dup2\n      mstore\n      0x20\n      add\n      iszero(iszero(0x00))\n      dup2\n      mstore\n      0x20\n      add\n      iszero(iszero(0x00))\n      dup2\n      mstore\n      pop\n      swap1\n      jump\t// out\n        /* \"#utility.yul\":7:82   */\n    tag_400:\n        /* \"#utility.yul\":40:46   */\n      0x00\n        /* \"#utility.yul\":73:75   */\n      0x40\n        /* \"#utility.yul\":67:76   */\n      mload\n        /* \"#utility.yul\":57:76   */\n      swap1\n      pop\n        /* \"#utility.yul\":7:82   */\n      swap1\n      jump\t// out\n        /* \"#utility.yul\":88:205   */\n    tag_401:\n        /* \"#utility.yul\":197:198   */\n      0x00\n        /* \"#utility.yul\":194:195   */\n      0x00\n        /* \"#utility.yul\":187:199   */\n      revert\n        /* \"#utility.yul\":211:328   */\n    tag_402:\n        /* \"#utility.yul\":320:321   */\n      0x00\n        /* \"#utility.yul\":317:318   */\n      0x00\n        /* \"#utility.yul\":310:322   */\n      revert\n        /* \"#utility.yul\":334:411   */\n    tag_403:\n        /* \"#utility.yul\":371:378   */\n      0x00\n        /* \"#utility.yul\":400:405   */\n      dup2\n        /* \"#utility.yul\":389:405   */\n      swap1\n      pop\n        /* \"#utility.yul\":334:411   */\n      swap2\n      swap1\n      pop\n      jump\t// out\n        /* \"#utility.yul\":417:539   */\n    tag_404:\n        /* \"#utility.yul\":490:514   */\n      tag_517\n        /* \"#utility.yul\":508:513   */\n      dup2\n        /* \"#utility.yul\":490:514   */\n      tag_403\n      jump\t// in\n    tag_517:\n        /* \"#utility.yul\":483:488   */\n      dup2\n        /* \"#utility.yul\":480:515   */\n      eq\n        /* \"#utility.yul\":470:533   */\n      tag_518\n      jumpi\n        /* \"#utility.yul\":529:530   */\n      0x00\n        /* \"#utility.yul\":526:527   */\n      0x00\n        /* \"#utility.yul\":519:531   */\n      revert\n        /* \"#utility.yul\":470:533   */\n    tag_518:\n        /* \"#utility.yul\":417:539   */\n      pop\n      jump\t// out\n        /* \"#utility.yul\":545:684   */\n    tag_405:\n        /* \"#utility.yul\":591:596   */\n      0x00\n        /* \"#utility.yul\":629:635   */\n      dup2\n        /* \"#utility.yul\":616:636   */\n      calldataload\n        /* \"#utility.yul\":607:636   */\n      swap1\n      pop\n        /* \"#utility.yul\":645:678   */\n      tag_520\n        /* \"#utility.yul\":672:677   */\n      dup2\n        /* \"#utility.yul\":645:678   */\n      tag_404\n      jump\t// in\n    tag_520:\n        /* \"#utility.yul\":545:684   */\n      swap3\n      swap2\n      pop\n      pop\n      jump\t// out\n        /* \"#utility.yul\":690:1019   */\n    tag_24:\n        /* \"#utility.yul\":749:755   */\n      0x00\n        /* \"#utility.yul\":798:800   */\n      0x20\n        /* \"#utility.yul\":786:795   */\n      dup3\n        /* \"#utility.yul\":777:784   */\n      dup5\n        /* \"#utility.yul\":773:796   */\n      sub\n        /* \"#utility.yul\":769:801   */\n      slt\n        /* \"#utility.yul\":766:885   */\n      iszero\n      tag_522\n      jumpi\n        /* \"#utility.yul\":804:883   */\n      tag_523\n      tag_401\n      jump\t// in\n    tag_523:\n        /* \"#utility.yul\":766:885   */\n    tag_522:\n        /* \"#utility.yul\":924:925   */\n      0x00\n        /* \"#utility.yul\":949:1002   */\n      tag_524\n        /* \"#utility.yul\":994:1001   */\n      dup5\n        /* \"#utility.yul\":985:991   */\n      dup3\n        /* \"#utility.yul\":974:983   */\n      dup6\n        /* \"#utility.yul\":970:992   */\n      add\n        /* \"#utility.yul\":949:1002   */\n      tag_405\n      jump\t// in\n    tag_524:\n        /* \"#utility.yul\":939:1002   */\n      swap2\n      pop\n        /* \"#utility.yul\":895:1012   */\n      pop\n        /* \"#utility.yul\":690:1019   */\n      swap3\n      swap2\n      pop\n      pop\n      jump\t// out\n        /* \"#utility.yul\":1025:1143   */\n    tag_406:\n        /* \"#utility.yul\":1112:1136   */\n      tag_526\n        /* \"#utility.yul\":1130:1135   */\n      dup2\n        /* \"#utility.yul\":1112:1136   */\n      tag_403\n      jump\t// in\n    tag_526:\n        /* \"#utility.yul\":1107:1110   */\n      dup3\n        /* \"#utility.yul\":1100:1137   */\n      mstore\n        /* \"#utility.yul\":1025:1143   */\n      pop\n      pop\n      jump\t// out\n        /* \"#utility.yul\":1149:1275   */\n    tag_407:\n        /* \"#utility.yul\":1186:1193   */\n      0x00\n        /* \"#utility.yul\":1226:1268   */\n      0xffffffffffffffffffffffffffffffffffffffff\n        /* \"#utility.yul\":1219:1224   */\n      dup3\n        /* \"#utility.yul\":1215:1269   */\n      and\n        /* \"#utility.yul\":1204:1269   */\n      swap1\n      pop\n        /* \"#utility.yul\":1149:1275   */\n      swap2\n      swap1\n      pop\n      jump\t// out\n        /* \"#utility.yul\":1281:1377   */\n    tag_408:\n        /* \"#utility.yul\":1318:1325   */\n      0x00\n        /* \"#utility.yul\":1347:1371   */\n      tag_529\n        /* \"#utility.yul\":1365:1370   */\n      dup3\n        /* \"#utility.yul\":1347:1371   */\n      tag_407\n      jump\t// in\n    tag_529:\n        /* \"#utility.yul\":1336:1371   */\n      swap1\n      pop\n        /* \"#utility.yul\":1281:1377   */\n      swap2\n      swap1\n      pop\n      jump\t// out\n        /* \"#utility.yul\":1383:1501   */\n    tag_409:\n        /* \"#utility.yul\":1470:1494   */\n      tag_531\n        /* \"#utility.yul\":1488:1493   */\n      dup2\n        /* \"#utility.yul\":1470:1494   */\n      tag_408\n      jump\t// in\n    tag_531:\n        /* \"#utility.yul\":1465:1468   */\n      dup3\n        /* \"#utility.yul\":1458:1495   */\n      mstore\n        /* \"#utility.yul\":1383:1501   */\n      pop\n      pop\n      jump\t// out\n        /* \"#utility.yul\":1507:1687   */\n    tag_91:\n        /* \"#utility.yul\":1555:1632   */\n      0x4e487b7100000000000000000000000000000000000000000000000000000000\n        /* \"#utility.yul\":1552:1553   */\n      0x00\n        /* \"#utility.yul\":1545:1633   */\n      mstore\n        /* \"#utility.yul\":1652:1656   */\n      0x21\n        /* \"#utility.yul\":1649:1650   */\n      0x04\n        /* \"#utility.yul\":1642:1657   */\n      mstore\n        /* \"#utility.yul\":1676:1680   */\n      0x24\n        /* \"#utility.yul\":1673:1674   */\n      0x00\n        /* \"#utility.yul\":1666:1681   */\n      revert\n        /* \"#utility.yul\":1693:1814   */\n    tag_410:\n        /* \"#utility.yul\":1782:1783   */\n      0x06\n        /* \"#utility.yul\":1775:1780   */\n      dup2\n        /* \"#utility.yul\":1772:1784   */\n      lt\n        /* \"#utility.yul\":1762:1808   */\n      tag_534\n      jumpi\n        /* \"#utility.yul\":1788:1806   */\n      tag_535\n      tag_91\n      jump\t// in\n    tag_535:\n        /* \"#utility.yul\":1762:1808   */\n    tag_534:\n        /* \"#utility.yul\":1693:1814   */\n      pop\n      jump\t// out\n        /* \"#utility.yul\":1820:1963   */\n    tag_411:\n        /* \"#utility.yul\":1873:1880   */\n      0x00\n        /* \"#utility.yul\":1902:1907   */\n      dup2\n        /* \"#utility.yul\":1891:1907   */\n      swap1\n      pop\n        /* \"#utility.yul\":1908:1957   */\n      tag_537\n        /* \"#utility.yul\":1951:1956   */\n      dup3\n        /* \"#utility.yul\":1908:1957   */\n      tag_410\n      jump\t// in\n    tag_537:\n        /* \"#utility.yul\":1820:1963   */\n      swap2\n      swap1\n      pop\n      jump\t// out\n        /* \"#utility.yul\":1969:2112   */\n    tag_412:\n        /* \"#utility.yul\":2033:2042   */\n      0x00\n        /* \"#utility.yul\":2066:2106   */\n      tag_539\n        /* \"#utility.yul\":2100:2105   */\n      dup3\n        /* \"#utility.yul\":2066:2106   */\n      tag_411\n      jump\t// in\n    tag_539:\n        /* \"#utility.yul\":2053:2106   */\n      swap1\n      pop\n        /* \"#utility.yul\":1969:2112   */\n      swap2\n      swap1\n      pop\n      jump\t// out\n        /* \"#utility.yul\":2118:2277   */\n    tag_413:\n        /* \"#utility.yul\":2219:2270   */\n      tag_541\n        /* \"#utility.yul\":2264:2269   */\n      dup2\n        /* \"#utility.yul\":2219:2270   */\n      tag_412\n      jump\t// in\n    tag_541:\n        /* \"#utility.yul\":2214:2217   */\n      dup3\n        /* \"#utility.yul\":2207:2271   */\n      mstore\n        /* \"#utility.yul\":2118:2277   */\n      pop\n      pop\n      jump\t// out\n        /* \"#utility.yul\":2283:2373   */\n    tag_414:\n        /* \"#utility.yul\":2317:2324   */\n      0x00\n        /* \"#utility.yul\":2360:2365   */\n      dup2\n        /* \"#utility.yul\":2353:2366   */\n      iszero\n        /* \"#utility.yul\":2346:2367   */\n      iszero\n        /* \"#utility.yul\":2335:2367   */\n      swap1\n      pop\n        /* \"#utility.yul\":2283:2373   */\n      swap2\n      swap1\n      pop\n      jump\t// out\n        /* \"#utility.yul\":2379:2488   */\n    tag_415:\n        /* \"#utility.yul\":2460:2481   */\n      tag_544\n        /* \"#utility.yul\":2475:2480   */\n      dup2\n        /* \"#utility.yul\":2460:2481   */\n      tag_414\n      jump\t// in\n    tag_544:\n        /* \"#utility.yul\":2455:2458   */\n      dup3\n        /* \"#utility.yul\":2448:2482   */\n      mstore\n        /* \"#utility.yul\":2379:2488   */\n      pop\n      pop\n      jump\t// out\n        /* \"#utility.yul\":2494:3495   */\n    tag_27:\n        /* \"#utility.yul\":2785:2789   */\n      0x00\n        /* \"#utility.yul\":2823:2826   */\n      0x0100\n        /* \"#utility.yul\":2812:2821   */\n      dup3\n        /* \"#utility.yul\":2808:2827   */\n      add\n        /* \"#utility.yul\":2800:2827   */\n      swap1\n      pop\n        /* \"#utility.yul\":2837:2908   */\n      tag_546\n        /* \"#utility.yul\":2905:2906   */\n      0x00\n        /* \"#utility.yul\":2894:2903   */\n      dup4\n        /* \"#utility.yul\":2890:2907   */\n      add\n        /* \"#utility.yul\":2881:2887   */\n      dup12\n        /* \"#utility.yul\":2837:2908   */\n      tag_406\n      jump\t// in\n    tag_546:\n        /* \"#utility.yul\":2918:2990   */\n      tag_547\n        /* \"#utility.yul\":2986:2988   */\n      0x20\n        /* \"#utility.yul\":2975:2984   */\n      dup4\n        /* \"#utility.yul\":2971:2989   */\n      add\n        /* \"#utility.yul\":2962:2968   */\n      dup11\n        /* \"#utility.yul\":2918:2990   */\n      tag_409\n      jump\t// in\n    tag_547:\n        /* \"#utility.yul\":3000:3072   */\n      tag_548\n        /* \"#utility.yul\":3068:3070   */\n      0x40\n        /* \"#utility.yul\":3057:3066   */\n      dup4\n        /* \"#utility.yul\":3053:3071   */\n      add\n        /* \"#utility.yul\":3044:3050   */\n      dup10\n        /* \"#utility.yul\":3000:3072   */\n      tag_409\n      jump\t// in\n    tag_548:\n        /* \"#utility.yul\":3082:3154   */\n      tag_549\n        /* \"#utility.yul\":3150:3152   */\n      0x60\n        /* \"#utility.yul\":3139:3148   */\n      dup4\n        /* \"#utility.yul\":3135:3153   */\n      add\n        /* \"#utility.yul\":3126:3132   */\n      dup9\n        /* \"#utility.yul\":3082:3154   */\n      tag_406\n      jump\t// in\n    tag_549:\n        /* \"#utility.yul\":3164:3251   */\n      tag_550\n        /* \"#utility.yul\":3246:3249   */\n      0x80\n        /* \"#utility.yul\":3235:3244   */\n      dup4\n        /* \"#utility.yul\":3231:3250   */\n      add\n        /* \"#utility.yul\":3222:3228   */\n      dup8\n        /* \"#utility.yul\":3164:3251   */\n      tag_413\n      jump\t// in\n    tag_550:\n        /* \"#utility.yul\":3261:3334   */\n      tag_551\n        /* \"#utility.yul\":3329:3332   */\n      0xa0\n        /* \"#utility.yul\":3318:3327   */\n      dup4\n        /* \"#utility.yul\":3314:3333   */\n      add\n        /* \"#utility.yul\":3305:3311   */\n      dup7\n        /* \"#utility.yul\":3261:3334   */\n      tag_406\n      jump\t// in\n    tag_551:\n        /* \"#utility.yul\":3344:3411   */\n      tag_552\n        /* \"#utility.yul\":3406:3409   */\n      0xc0\n        /* \"#utility.yul\":3395:3404   */\n      dup4\n        /* \"#utility.yul\":3391:3410   */\n      add\n        /* \"#utility.yul\":3382:3388   */\n      dup6\n        /* \"#utility.yul\":3344:3411   */\n      tag_415\n      jump\t// in\n    tag_552:\n        /* \"#utility.yul\":3421:3488   */\n      tag_553\n        /* \"#utility.yul\":3483:3486   */\n      0xe0\n        /* \"#utility.yul\":3472:3481   */\n      dup4\n        /* \"#utility.yul\":3468:3487   */\n      add\n        /* \"#utility.yul\":3459:3465   */\n      dup5\n        /* \"#utility.yul\":3421:3488   */\n      tag_415\n      jump\t// in\n    tag_553:\n        /* \"#utility.yul\":2494:3495   */\n      swap10\n      swap9\n      pop\n      pop\n      pop\n      pop\n      pop\n      pop\n      pop\n      pop\n      pop\n      jump\t// out\n        /* \"#utility.yul\":3501:3723   */\n    tag_31:\n        /* \"#utility.yul\":3594:3598   */\n      0x00\n        /* \"#utility.yul\":3632:3634   */\n      0x20\n        /* \"#utility.yul\":3621:3630   */\n      dup3\n        /* \"#utility.yul\":3617:3635   */\n      add\n        /* \"#utility.yul\":3609:3635   */\n      swap1\n      pop\n        /* \"#utility.yul\":3645:3716   */\n      tag_555\n        /* \"#utility.yul\":3713:3714   */\n      0x00\n        /* \"#utility.yul\":3702:3711   */\n      dup4\n        /* \"#utility.yul\":3698:3715   */\n      add\n        /* \"#utility.yul\":3689:3695   */\n      dup5\n        /* \"#utility.yul\":3645:3716   */\n      tag_406\n      jump\t// in\n    tag_555:\n        /* \"#utility.yul\":3501:3723   */\n      swap3\n      swap2\n      pop\n      pop\n      jump\t// out\n        /* \"#utility.yul\":3729:3789   */\n    tag_416:\n        /* \"#utility.yul\":3757:3760   */\n      0x00\n        /* \"#utility.yul\":3778:3783   */\n      dup2\n        /* \"#utility.yul\":3771:3783   */\n      swap1\n      pop\n        /* \"#utility.yul\":3729:3789   */\n      swap2\n      swap1\n      pop\n      jump\t// out\n        /* \"#utility.yul\":3795:3937   */\n    tag_417:\n        /* \"#utility.yul\":3845:3854   */\n      0x00\n        /* \"#utility.yul\":3878:3931   */\n      tag_558\n        /* \"#utility.yul\":3896:3930   */\n      tag_559\n        /* \"#utility.yul\":3905:3929   */\n      tag_560\n        /* \"#utility.yul\":3923:3928   */\n      dup5\n        /* \"#utility.yul\":3905:3929   */\n      tag_407\n      jump\t// in\n    tag_560:\n        /* \"#utility.yul\":3896:3930   */\n      tag_416\n      jump\t// in\n    tag_559:\n        /* \"#utility.yul\":3878:3931   */\n      tag_407\n      jump\t// in\n    tag_558:\n        /* \"#utility.yul\":3865:3931   */\n      swap1\n      pop\n        /* \"#utility.yul\":3795:3937   */\n      swap2\n      swap1\n      pop\n      jump\t// out\n        /* \"#utility.yul\":3943:4069   */\n    tag_418:\n        /* \"#utility.yul\":3993:4002   */\n      0x00\n        /* \"#utility.yul\":4026:4063   */\n      tag_562\n        /* \"#utility.yul\":4057:4062   */\n      dup3\n        /* \"#utility.yul\":4026:4063   */\n      tag_417\n      jump\t// in\n    tag_562:\n        /* \"#utility.yul\":4013:4063   */\n      swap1\n      pop\n        /* \"#utility.yul\":3943:4069   */\n      swap2\n      swap1\n      pop\n      jump\t// out\n        /* \"#utility.yul\":4075:4214   */\n    tag_419:\n        /* \"#utility.yul\":4138:4147   */\n      0x00\n        /* \"#utility.yul\":4171:4208   */\n      tag_564\n        /* \"#utility.yul\":4202:4207   */\n      dup3\n        /* \"#utility.yul\":4171:4208   */\n      tag_418\n      jump\t// in\n    tag_564:\n        /* \"#utility.yul\":4158:4208   */\n      swap1\n      pop\n        /* \"#utility.yul\":4075:4214   */\n      swap2\n      swap1\n      pop\n      jump\t// out\n        /* \"#utility.yul\":4220:4377   */\n    tag_420:\n        /* \"#utility.yul\":4320:4370   */\n      tag_566\n        /* \"#utility.yul\":4364:4369   */\n      dup2\n        /* \"#utility.yul\":4320:4370   */\n      tag_419\n      jump\t// in\n    tag_566:\n        /* \"#utility.yul\":4315:4318   */\n      dup3\n        /* \"#utility.yul\":4308:4371   */\n      mstore\n        /* \"#utility.yul\":4220:4377   */\n      pop\n      pop\n      jump\t// out\n        /* \"#utility.yul\":4383:4631   */\n    tag_35:\n        /* \"#utility.yul\":4489:4493   */\n      0x00\n        /* \"#utility.yul\":4527:4529   */\n      0x20\n        /* \"#utility.yul\":4516:4525   */\n      dup3\n        /* \"#utility.yul\":4512:4530   */\n      add\n        /* \"#utility.yul\":4504:4530   */\n      swap1\n      pop\n        /* \"#utility.yul\":4540:4624   */\n      tag_568\n        /* \"#utility.yul\":4621:4622   */\n      0x00\n        /* \"#utility.yul\":4610:4619   */\n      dup4\n        /* \"#utility.yul\":4606:4623   */\n      add\n        /* \"#utility.yul\":4597:4603   */\n      dup5\n        /* \"#utility.yul\":4540:4624   */\n      tag_420\n      jump\t// in\n    tag_568:\n        /* \"#utility.yul\":4383:4631   */\n      swap3\n      swap2\n      pop\n      pop\n      jump\t// out\n        /* \"#utility.yul\":4637:4859   */\n    tag_42:\n        /* \"#utility.yul\":4730:4734   */\n      0x00\n        /* \"#utility.yul\":4768:4770   */\n      0x20\n        /* \"#utility.yul\":4757:4766   */\n      dup3\n        /* \"#utility.yul\":4753:4771   */\n      add\n        /* \"#utility.yul\":4745:4771   */\n      swap1\n      pop\n        /* \"#utility.yul\":4781:4852   */\n      tag_570\n        /* \"#utility.yul\":4849:4850   */\n      0x00\n        /* \"#utility.yul\":4838:4847   */\n      dup4\n        /* \"#utility.yul\":4834:4851   */\n      add\n        /* \"#utility.yul\":4825:4831   */\n      dup5\n        /* \"#utility.yul\":4781:4852   */\n      tag_409\n      jump\t// in\n    tag_570:\n        /* \"#utility.yul\":4637:4859   */\n      swap3\n      swap2\n      pop\n      pop\n      jump\t// out\n        /* \"#utility.yul\":4865:4987   */\n    tag_421:\n        /* \"#utility.yul\":4938:4962   */\n      tag_572\n        /* \"#utility.yul\":4956:4961   */\n      dup2\n        /* \"#utility.yul\":4938:4962   */\n      tag_408\n      jump\t// in\n    tag_572:\n        /* \"#utility.yul\":4931:4936   */\n      dup2\n        /* \"#utility.yul\":4928:4963   */\n      eq\n        /* \"#utility.yul\":4918:4981   */\n      tag_573\n      jumpi\n        /* \"#utility.yul\":4977:4978   */\n      0x00\n        /* \"#utility.yul\":4974:4975   */\n      0x00\n        /* \"#utility.yul\":4967:4979   */\n      revert\n        /* \"#utility.yul\":4918:4981   */\n    tag_573:\n        /* \"#utility.yul\":4865:4987   */\n      pop\n      jump\t// out\n        /* \"#utility.yul\":4993:5132   */\n    tag_422:\n        /* \"#utility.yul\":5039:5044   */\n      0x00\n        /* \"#utility.yul\":5077:5083   */\n      dup2\n        /* \"#utility.yul\":5064:5084   */\n      calldataload\n        /* \"#utility.yul\":5055:5084   */\n      swap1\n      pop\n        /* \"#utility.yul\":5093:5126   */\n      tag_575\n        /* \"#utility.yul\":5120:5125   */\n      dup2\n        /* \"#utility.yul\":5093:5126   */\n      tag_421\n      jump\t// in\n    tag_575:\n        /* \"#utility.yul\":4993:5132   */\n      swap3\n      swap2\n      pop\n      pop\n      jump\t// out\n        /* \"#utility.yul\":5138:5467   */\n    tag_48:\n        /* \"#utility.yul\":5197:5203   */\n      0x00\n        /* \"#utility.yul\":5246:5248   */\n      0x20\n        /* \"#utility.yul\":5234:5243   */\n      dup3\n        /* \"#utility.yul\":5225:5232   */\n      dup5\n        /* \"#utility.yul\":5221:5244   */\n      sub\n        /* \"#utility.yul\":5217:5249   */\n      slt\n        /* \"#utility.yul\":5214:5333   */\n      iszero\n      tag_577\n      jumpi\n        /* \"#utility.yul\":5252:5331   */\n      tag_578\n      tag_401\n      jump\t// in\n    tag_578:\n        /* \"#utility.yul\":5214:5333   */\n    tag_577:\n        /* \"#utility.yul\":5372:5373   */\n      0x00\n        /* \"#utility.yul\":5397:5450   */\n      tag_579\n        /* \"#utility.yul\":5442:5449   */\n      dup5\n        /* \"#utility.yul\":5433:5439   */\n      dup3\n        /* \"#utility.yul\":5422:5431   */\n      dup6\n        /* \"#utility.yul\":5418:5440   */\n      add\n        /* \"#utility.yul\":5397:5450   */\n      tag_422\n      jump\t// in\n    tag_579:\n        /* \"#utility.yul\":5387:5450   */\n      swap2\n      pop\n        /* \"#utility.yul\":5343:5460   */\n      pop\n        /* \"#utility.yul\":5138:5467   */\n      swap3\n      swap2\n      pop\n      pop\n      jump\t// out\n        /* \"#utility.yul\":5473:5581   */\n    tag_423:\n        /* \"#utility.yul\":5550:5574   */\n      tag_581\n        /* \"#utility.yul\":5568:5573   */\n      dup2\n        /* \"#utility.yul\":5550:5574   */\n      tag_403\n      jump\t// in\n    tag_581:\n        /* \"#utility.yul\":5545:5548   */\n      dup3\n        /* \"#utility.yul\":5538:5575   */\n      mstore\n        /* \"#utility.yul\":5473:5581   */\n      pop\n      pop\n      jump\t// out\n        /* \"#utility.yul\":5587:5695   */\n    tag_424:\n        /* \"#utility.yul\":5664:5688   */\n      tag_583\n        /* \"#utility.yul\":5682:5687   */\n      dup2\n        /* \"#utility.yul\":5664:5688   */\n      tag_408\n      jump\t// in\n    tag_583:\n        /* \"#utility.yul\":5659:5662   */\n      dup3\n        /* \"#utility.yul\":5652:5689   */\n      mstore\n        /* \"#utility.yul\":5587:5695   */\n      pop\n      pop\n      jump\t// out\n        /* \"#utility.yul\":5701:5850   */\n    tag_425:\n        /* \"#utility.yul\":5792:5843   */\n      tag_585\n        /* \"#utility.yul\":5837:5842   */\n      dup2\n        /* \"#utility.yul\":5792:5843   */\n      tag_412\n      jump\t// in\n    tag_585:\n        /* \"#utility.yul\":5787:5790   */\n      dup3\n        /* \"#utility.yul\":5780:5844   */\n      mstore\n        /* \"#utility.yul\":5701:5850   */\n      pop\n      pop\n      jump\t// out\n        /* \"#utility.yul\":5856:5955   */\n    tag_426:\n        /* \"#utility.yul\":5927:5948   */\n      tag_587\n        /* \"#utility.yul\":5942:5947   */\n      dup2\n        /* \"#utility.yul\":5927:5948   */\n      tag_414\n      jump\t// in\n    tag_587:\n        /* \"#utility.yul\":5922:5925   */\n      dup3\n        /* \"#utility.yul\":5915:5949   */\n      mstore\n        /* \"#utility.yul\":5856:5955   */\n      pop\n      pop\n      jump\t// out\n        /* \"#utility.yul\":6021:7606   */\n    tag_427:\n        /* \"#utility.yul\":6172:6178   */\n      0x0100\n        /* \"#utility.yul\":6167:6170   */\n      dup3\n        /* \"#utility.yul\":6163:6179   */\n      add\n        /* \"#utility.yul\":6266:6270   */\n      0x00\n        /* \"#utility.yul\":6259:6264   */\n      dup3\n        /* \"#utility.yul\":6255:6271   */\n      add\n        /* \"#utility.yul\":6249:6272   */\n      mload\n        /* \"#utility.yul\":6285:6348   */\n      tag_589\n        /* \"#utility.yul\":6342:6346   */\n      0x00\n        /* \"#utility.yul\":6337:6340   */\n      dup6\n        /* \"#utility.yul\":6333:6347   */\n      add\n        /* \"#utility.yul\":6319:6331   */\n      dup3\n        /* \"#utility.yul\":6285:6348   */\n      tag_423\n      jump\t// in\n    tag_589:\n        /* \"#utility.yul\":6189:6358   */\n      pop\n        /* \"#utility.yul\":6441:6445   */\n      0x20\n        /* \"#utility.yul\":6434:6439   */\n      dup3\n        /* \"#utility.yul\":6430:6446   */\n      add\n        /* \"#utility.yul\":6424:6447   */\n      mload\n        /* \"#utility.yul\":6460:6523   */\n      tag_590\n        /* \"#utility.yul\":6517:6521   */\n      0x20\n        /* \"#utility.yul\":6512:6515   */\n      dup6\n        /* \"#utility.yul\":6508:6522   */\n      add\n        /* \"#utility.yul\":6494:6506   */\n      dup3\n        /* \"#utility.yul\":6460:6523   */\n      tag_424\n      jump\t// in\n    tag_590:\n        /* \"#utility.yul\":6368:6533   */\n      pop\n        /* \"#utility.yul\":6617:6621   */\n      0x40\n        /* \"#utility.yul\":6610:6615   */\n      dup3\n        /* \"#utility.yul\":6606:6622   */\n      add\n        /* \"#utility.yul\":6600:6623   */\n      mload\n        /* \"#utility.yul\":6636:6699   */\n      tag_591\n        /* \"#utility.yul\":6693:6697   */\n      0x40\n        /* \"#utility.yul\":6688:6691   */\n      dup6\n        /* \"#utility.yul\":6684:6698   */\n      add\n        /* \"#utility.yul\":6670:6682   */\n      dup3\n        /* \"#utility.yul\":6636:6699   */\n      tag_424\n      jump\t// in\n    tag_591:\n        /* \"#utility.yul\":6543:6709   */\n      pop\n        /* \"#utility.yul\":6793:6797   */\n      0x60\n        /* \"#utility.yul\":6786:6791   */\n      dup3\n        /* \"#utility.yul\":6782:6798   */\n      add\n        /* \"#utility.yul\":6776:6799   */\n      mload\n        /* \"#utility.yul\":6812:6875   */\n      tag_592\n        /* \"#utility.yul\":6869:6873   */\n      0x60\n        /* \"#utility.yul\":6864:6867   */\n      dup6\n        /* \"#utility.yul\":6860:6874   */\n      add\n        /* \"#utility.yul\":6846:6858   */\n      dup3\n        /* \"#utility.yul\":6812:6875   */\n      tag_423\n      jump\t// in\n    tag_592:\n        /* \"#utility.yul\":6719:6885   */\n      pop\n        /* \"#utility.yul\":6969:6973   */\n      0x80\n        /* \"#utility.yul\":6962:6967   */\n      dup3\n        /* \"#utility.yul\":6958:6974   */\n      add\n        /* \"#utility.yul\":6952:6975   */\n      mload\n        /* \"#utility.yul\":6988:7065   */\n      tag_593\n        /* \"#utility.yul\":7059:7063   */\n      0x80\n        /* \"#utility.yul\":7054:7057   */\n      dup6\n        /* \"#utility.yul\":7050:7064   */\n      add\n        /* \"#utility.yul\":7036:7048   */\n      dup3\n        /* \"#utility.yul\":6988:7065   */\n      tag_425\n      jump\t// in\n    tag_593:\n        /* \"#utility.yul\":6895:7075   */\n      pop\n        /* \"#utility.yul\":7161:7165   */\n      0xa0\n        /* \"#utility.yul\":7154:7159   */\n      dup3\n        /* \"#utility.yul\":7150:7166   */\n      add\n        /* \"#utility.yul\":7144:7167   */\n      mload\n        /* \"#utility.yul\":7180:7243   */\n      tag_594\n        /* \"#utility.yul\":7237:7241   */\n      0xa0\n        /* \"#utility.yul\":7232:7235   */\n      dup6\n        /* \"#utility.yul\":7228:7242   */\n      add\n        /* \"#utility.yul\":7214:7226   */\n      dup3\n        /* \"#utility.yul\":7180:7243   */\n      tag_423\n      jump\t// in\n    tag_594:\n        /* \"#utility.yul\":7085:7253   */\n      pop\n        /* \"#utility.yul\":7337:7341   */\n      0xc0\n        /* \"#utility.yul\":7330:7335   */\n      dup3\n        /* \"#utility.yul\":7326:7342   */\n      add\n        /* \"#utility.yul\":7320:7343   */\n      mload\n        /* \"#utility.yul\":7356:7413   */\n      tag_595\n        /* \"#utility.yul\":7407:7411   */\n      0xc0\n        /* \"#utility.yul\":7402:7405   */\n      dup6\n        /* \"#utility.yul\":7398:7412   */\n      add\n        /* \"#utility.yul\":7384:7396   */\n      dup3\n        /* \"#utility.yul\":7356:7413   */\n      tag_426\n      jump\t// in\n    tag_595:\n        /* \"#utility.yul\":7263:7423   */\n      pop\n        /* \"#utility.yul\":7513:7517   */\n      0xe0\n        /* \"#utility.yul\":7506:7511   */\n      dup3\n        /* \"#utility.yul\":7502:7518   */\n      add\n        /* \"#utility.yul\":7496:7519   */\n      mload\n        /* \"#utility.yul\":7532:7589   */\n      tag_596\n        /* \"#utility.yul\":7583:7587   */\n      0xe0\n        /* \"#utility.yul\":7578:7581   */\n      dup6\n        /* \"#utility.yul\":7574:7588   */\n      add\n        /* \"#utility.yul\":7560:7572   */\n      dup3\n        /* \"#utility.yul\":7532:7589   */\n      tag_426\n      jump\t// in\n    tag_596:\n        /* \"#utility.yul\":7433:7599   */\n      pop\n        /* \"#utility.yul\":6141:7606   */\n      pop\n        /* \"#utility.yul\":6021:7606   */\n      pop\n      pop\n      jump\t// out\n        /* \"#utility.yul\":7612:7943   */\n    tag_54:\n        /* \"#utility.yul\":7759:7763   */\n      0x00\n        /* \"#utility.yul\":7797:7800   */\n      0x0100\n        /* \"#utility.yul\":7786:7795   */\n      dup3\n        /* \"#utility.yul\":7782:7801   */\n      add\n        /* \"#utility.yul\":7774:7801   */\n      swap1\n      pop\n        /* \"#utility.yul\":7811:7936   */\n      tag_598\n        /* \"#utility.yul\":7933:7934   */\n      0x00\n        /* \"#utility.yul\":7922:7931   */\n      dup4\n        /* \"#utility.yul\":7918:7935   */\n      add\n        /* \"#utility.yul\":7909:7915   */\n      dup5\n        /* \"#utility.yul\":7811:7936   */\n      tag_427\n      jump\t// in\n    tag_598:\n        /* \"#utility.yul\":7612:7943   */\n      swap3\n      swap2\n      pop\n      pop\n      jump\t// out\n        /* \"#utility.yul\":7949:8066   */\n    tag_428:\n        /* \"#utility.yul\":8058:8059   */\n      0x00\n        /* \"#utility.yul\":8055:8056   */\n      0x00\n        /* \"#utility.yul\":8048:8060   */\n      revert\n        /* \"#utility.yul\":8072:8189   */\n    tag_429:\n        /* \"#utility.yul\":8181:8182   */\n      0x00\n        /* \"#utility.yul\":8178:8179   */\n      0x00\n        /* \"#utility.yul\":8171:8183   */\n      revert\n        /* \"#utility.yul\":8195:8312   */\n    tag_430:\n        /* \"#utility.yul\":8304:8305   */\n      0x00\n        /* \"#utility.yul\":8301:8302   */\n      0x00\n        /* \"#utility.yul\":8294:8306   */\n      revert\n        /* \"#utility.yul\":8332:8885   */\n    tag_431:\n        /* \"#utility.yul\":8390:8398   */\n      0x00\n        /* \"#utility.yul\":8400:8406   */\n      0x00\n        /* \"#utility.yul\":8450:8453   */\n      dup4\n        /* \"#utility.yul\":8443:8447   */\n      0x1f\n        /* \"#utility.yul\":8435:8441   */\n      dup5\n        /* \"#utility.yul\":8431:8448   */\n      add\n        /* \"#utility.yul\":8427:8454   */\n      slt\n        /* \"#utility.yul\":8417:8539   */\n      tag_603\n      jumpi\n        /* \"#utility.yul\":8458:8537   */\n      tag_604\n      tag_428\n      jump\t// in\n    tag_604:\n        /* \"#utility.yul\":8417:8539   */\n    tag_603:\n        /* \"#utility.yul\":8571:8577   */\n      dup3\n        /* \"#utility.yul\":8558:8578   */\n      calldataload\n        /* \"#utility.yul\":8548:8578   */\n      swap1\n      pop\n        /* \"#utility.yul\":8601:8619   */\n      0xffffffffffffffff\n        /* \"#utility.yul\":8593:8599   */\n      dup2\n        /* \"#utility.yul\":8590:8620   */\n      gt\n        /* \"#utility.yul\":8587:8704   */\n      iszero\n      tag_605\n      jumpi\n        /* \"#utility.yul\":8623:8702   */\n      tag_606\n      tag_429\n      jump\t// in\n    tag_606:\n        /* \"#utility.yul\":8587:8704   */\n    tag_605:\n        /* \"#utility.yul\":8737:8741   */\n      0x20\n        /* \"#utility.yul\":8729:8735   */\n      dup4\n        /* \"#utility.yul\":8725:8742   */\n      add\n        /* \"#utility.yul\":8713:8742   */\n      swap2\n      pop\n        /* \"#utility.yul\":8791:8794   */\n      dup4\n        /* \"#utility.yul\":8783:8787   */\n      0x01\n        /* \"#utility.yul\":8775:8781   */\n      dup3\n        /* \"#utility.yul\":8771:8788   */\n      mul\n        /* \"#utility.yul\":8761:8769   */\n      dup4\n        /* \"#utility.yul\":8757:8789   */\n      add\n        /* \"#utility.yul\":8754:8795   */\n      gt\n        /* \"#utility.yul\":8751:8879   */\n      iszero\n      tag_607\n      jumpi\n        /* \"#utility.yul\":8798:8877   */\n      tag_608\n      tag_430\n      jump\t// in\n    tag_608:\n        /* \"#utility.yul\":8751:8879   */\n    tag_607:\n        /* \"#utility.yul\":8332:8885   */\n      swap3\n      pop\n      swap3\n      swap1\n      pop\n      jump\t// out\n        /* \"#utility.yul\":8891:9565   */\n    tag_75:\n        /* \"#utility.yul\":8971:8977   */\n      0x00\n        /* \"#utility.yul\":8979:8985   */\n      0x00\n        /* \"#utility.yul\":8987:8993   */\n      0x00\n        /* \"#utility.yul\":9036:9038   */\n      0x40\n        /* \"#utility.yul\":9024:9033   */\n      dup5\n        /* \"#utility.yul\":9015:9022   */\n      dup7\n        /* \"#utility.yul\":9011:9034   */\n      sub\n        /* \"#utility.yul\":9007:9039   */\n      slt\n        /* \"#utility.yul\":9004:9123   */\n      iszero\n      tag_610\n      jumpi\n        /* \"#utility.yul\":9042:9121   */\n      tag_611\n      tag_401\n      jump\t// in\n    tag_611:\n        /* \"#utility.yul\":9004:9123   */\n    tag_610:\n        /* \"#utility.yul\":9162:9163   */\n      0x00\n        /* \"#utility.yul\":9187:9240   */\n      tag_612\n        /* \"#utility.yul\":9232:9239   */\n      dup7\n        /* \"#utility.yul\":9223:9229   */\n      dup3\n        /* \"#utility.yul\":9212:9221   */\n      dup8\n        /* \"#utility.yul\":9208:9230   */\n      add\n        /* \"#utility.yul\":9187:9240   */\n      tag_405\n      jump\t// in\n    tag_612:\n        /* \"#utility.yul\":9177:9240   */\n      swap4\n      pop\n        /* \"#utility.yul\":9133:9250   */\n      pop\n        /* \"#utility.yul\":9317:9319   */\n      0x20\n        /* \"#utility.yul\":9306:9315   */\n      dup5\n        /* \"#utility.yul\":9302:9320   */\n      add\n        /* \"#utility.yul\":9289:9321   */\n      calldataload\n        /* \"#utility.yul\":9348:9366   */\n      0xffffffffffffffff\n        /* \"#utility.yul\":9340:9346   */\n      dup2\n        /* \"#utility.yul\":9337:9367   */\n      gt\n        /* \"#utility.yul\":9334:9451   */\n      iszero\n      tag_613\n      jumpi\n        /* \"#utility.yul\":9370:9449   */\n      tag_614\n      tag_402\n      jump\t// in\n    tag_614:\n        /* \"#utility.yul\":9334:9451   */\n    tag_613:\n        /* \"#utility.yul\":9483:9548   */\n      tag_615\n        /* \"#utility.yul\":9540:9547   */\n      dup7\n        /* \"#utility.yul\":9531:9537   */\n      dup3\n        /* \"#utility.yul\":9520:9529   */\n      dup8\n        /* \"#utility.yul\":9516:9538   */\n      add\n        /* \"#utility.yul\":9483:9548   */\n      tag_431\n      jump\t// in\n    tag_615:\n        /* \"#utility.yul\":9465:9548   */\n      swap3\n      pop\n      swap3\n      pop\n        /* \"#utility.yul\":9260:9558   */\n      pop\n        /* \"#utility.yul\":8891:9565   */\n      swap3\n      pop\n      swap3\n      pop\n      swap3\n      jump\t// out\n        /* \"#utility.yul\":9571:9740   */\n    tag_432:\n        /* \"#utility.yul\":9655:9666   */\n      0x00\n        /* \"#utility.yul\":9689:9695   */\n      dup3\n        /* \"#utility.yul\":9684:9687   */\n      dup3\n        /* \"#utility.yul\":9677:9696   */\n      mstore\n        /* \"#utility.yul\":9729:9733   */\n      0x20\n        /* \"#utility.yul\":9724:9727   */\n      dup3\n        /* \"#utility.yul\":9720:9734   */\n      add\n        /* \"#utility.yul\":9705:9734   */\n      swap1\n      pop\n        /* \"#utility.yul\":9571:9740   */\n      swap3\n      swap2\n      pop\n      pop\n      jump\t// out\n        /* \"#utility.yul\":9746:9917   */\n    tag_433:\n        /* \"#utility.yul\":9886:9909   */\n      0x457363726f7720646f6573206e6f742065786973740000000000000000000000\n        /* \"#utility.yul\":9882:9883   */\n      0x00\n        /* \"#utility.yul\":9874:9880   */\n      dup3\n        /* \"#utility.yul\":9870:9884   */\n      add\n        /* \"#utility.yul\":9863:9910   */\n      mstore\n        /* \"#utility.yul\":9746:9917   */\n      pop\n      jump\t// out\n        /* \"#utility.yul\":9923:10289   */\n    tag_434:\n        /* \"#utility.yul\":10065:10068   */\n      0x00\n        /* \"#utility.yul\":10086:10153   */\n      tag_619\n        /* \"#utility.yul\":10150:10152   */\n      0x15\n        /* \"#utility.yul\":10145:10148   */\n      dup4\n        /* \"#utility.yul\":10086:10153   */\n      tag_432\n      jump\t// in\n    tag_619:\n        /* \"#utility.yul\":10079:10153   */\n      swap2\n      pop\n        /* \"#utility.yul\":10162:10255   */\n      tag_620\n        /* \"#utility.yul\":10251:10254   */\n      dup3\n        /* \"#utility.yul\":10162:10255   */\n      tag_433\n      jump\t// in\n    tag_620:\n        /* \"#utility.yul\":10280:10282   */\n      0x20\n        /* \"#utility.yul\":10275:10278   */\n      dup3\n        /* \"#utility.yul\":10271:10283   */\n      add\n        /* \"#utility.yul\":10264:10283   */\n      swap1\n      pop\n        /* \"#utility.yul\":9923:10289   */\n      swap2\n      swap1\n      pop\n      jump\t// out\n        /* \"#utility.yul\":10295:10714   */\n    tag_83:\n        /* \"#utility.yul\":10461:10465   */\n      0x00\n        /* \"#utility.yul\":10499:10501   */\n      0x20\n        /* \"#utility.yul\":10488:10497   */\n      dup3\n        /* \"#utility.yul\":10484:10502   */\n      add\n        /* \"#utility.yul\":10476:10502   */\n      swap1\n      pop\n        /* \"#utility.yul\":10548:10557   */\n      dup2\n        /* \"#utility.yul\":10542:10546   */\n      dup2\n        /* \"#utility.yul\":10538:10558   */\n      sub\n        /* \"#utility.yul\":10534:10535   */\n      0x00\n        /* \"#utility.yul\":10523:10532   */\n      dup4\n        /* \"#utility.yul\":10519:10536   */\n      add\n        /* \"#utility.yul\":10512:10559   */\n      mstore\n        /* \"#utility.yul\":10576:10707   */\n      tag_622\n        /* \"#utility.yul\":10702:10706   */\n      dup2\n        /* \"#utility.yul\":10576:10707   */\n      tag_434\n      jump\t// in\n    tag_622:\n        /* \"#utility.yul\":10568:10707   */\n      swap1\n      pop\n        /* \"#utility.yul\":10295:10714   */\n      swap2\n      swap1\n      pop\n      jump\t// out\n        /* \"#utility.yul\":10720:10880   */\n    tag_435:\n        /* \"#utility.yul\":10860:10872   */\n      0x4e6f742073656c6c657200000000000000000000000000000000000000000000\n        /* \"#utility.yul\":10856:10857   */\n      0x00\n        /* \"#utility.yul\":10848:10854   */\n      dup3\n        /* \"#utility.yul\":10844:10858   */\n      add\n        /* \"#utility.yul\":10837:10873   */\n      mstore\n        /* \"#utility.yul\":10720:10880   */\n      pop\n      jump\t// out\n        /* \"#utility.yul\":10886:11252   */\n    tag_436:\n        /* \"#utility.yul\":11028:11031   */\n      0x00\n        /* \"#utility.yul\":11049:11116   */\n      tag_625\n        /* \"#utility.yul\":11113:11115   */\n      0x0a\n        /* \"#utility.yul\":11108:11111   */\n      dup4\n        /* \"#utility.yul\":11049:11116   */\n      tag_432\n      jump\t// in\n    tag_625:\n        /* \"#utility.yul\":11042:11116   */\n      swap2\n      pop\n        /* \"#utility.yul\":11125:11218   */\n      tag_626\n        /* \"#utility.yul\":11214:11217   */\n      dup3\n        /* \"#utility.yul\":11125:11218   */\n      tag_435\n      jump\t// in\n    tag_626:\n        /* \"#utility.yul\":11243:11245   */\n      0x20\n        /* \"#utility.yul\":11238:11241   */\n      dup3\n        /* \"#utility.yul\":11234:11246   */\n      add\n        /* \"#utility.yul\":11227:11246   */\n      swap1\n      pop\n        /* \"#utility.yul\":10886:11252   */\n      swap2\n      swap1\n      pop\n      jump\t// out\n        /* \"#utility.yul\":11258:11677   */\n    tag_87:\n        /* \"#utility.yul\":11424:11428   */\n      0x00\n        /* \"#utility.yul\":11462:11464   */\n      0x20\n        /* \"#utility.yul\":11451:11460   */\n      dup3\n        /* \"#utility.yul\":11447:11465   */\n      add\n        /* \"#utility.yul\":11439:11465   */\n      swap1\n      pop\n        /* \"#utility.yul\":11511:11520   */\n      dup2\n        /* \"#utility.yul\":11505:11509   */\n      dup2\n        /* \"#utility.yul\":11501:11521   */\n      sub\n        /* \"#utility.yul\":11497:11498   */\n      0x00\n        /* \"#utility.yul\":11486:11495   */\n      dup4\n        /* \"#utility.yul\":11482:11499   */\n      add\n        /* \"#utility.yul\":11475:11522   */\n      mstore\n        /* \"#utility.yul\":11539:11670   */\n      tag_628\n        /* \"#utility.yul\":11665:11669   */\n      dup2\n        /* \"#utility.yul\":11539:11670   */\n      tag_436\n      jump\t// in\n    tag_628:\n        /* \"#utility.yul\":11531:11670   */\n      swap1\n      pop\n        /* \"#utility.yul\":11258:11677   */\n      swap2\n      swap1\n      pop\n      jump\t// out\n        /* \"#utility.yul\":11683:11855   */\n    tag_437:\n        /* \"#utility.yul\":11823:11847   */\n      0x457363726f77206e6f742063616e63656c6c61626c6500000000000000000000\n        /* \"#utility.yul\":11819:11820   */\n      0x00\n        /* \"#utility.yul\":11811:11817   */\n      dup3\n        /* \"#utility.yul\":11807:11821   */\n      add\n        /* \"#utility.yul\":11800:11848   */\n      mstore\n        /* \"#utility.yul\":11683:11855   */\n      pop\n      jump\t// out\n        /* \"#utility.yul\":11861:12227   */\n    tag_438:\n        /* \"#utility.yul\":12003:12006   */\n      0x00\n        /* \"#utility.yul\":12024:12091   */\n      tag_631\n        /* \"#utility.yul\":12088:12090   */\n      0x16\n        /* \"#utility.yul\":12083:12086   */\n      dup4\n        /* \"#utility.yul\":12024:12091   */\n      tag_432\n      jump\t// in\n    tag_631:\n        /* \"#utility.yul\":12017:12091   */\n      swap2\n      pop\n        /* \"#utility.yul\":12100:12193   */\n      tag_632\n        /* \"#utility.yul\":12189:12192   */\n      dup3\n        /* \"#utility.yul\":12100:12193   */\n      tag_437\n      jump\t// in\n    tag_632:\n        /* \"#utility.yul\":12218:12220   */\n      0x20\n        /* \"#utility.yul\":12213:12216   */\n      dup3\n        /* \"#utility.yul\":12209:12221   */\n      add\n        /* \"#utility.yul\":12202:12221   */\n      swap1\n      pop\n        /* \"#utility.yul\":11861:12227   */\n      swap2\n      swap1\n      pop\n      jump\t// out\n        /* \"#utility.yul\":12233:12652   */\n    tag_101:\n        /* \"#utility.yul\":12399:12403   */\n      0x00\n        /* \"#utility.yul\":12437:12439   */\n      0x20\n        /* \"#utility.yul\":12426:12435   */\n      dup3\n        /* \"#utility.yul\":12422:12440   */\n      add\n        /* \"#utility.yul\":12414:12440   */\n      swap1\n      pop\n        /* \"#utility.yul\":12486:12495   */\n      dup2\n        /* \"#utility.yul\":12480:12484   */\n      dup2\n        /* \"#utility.yul\":12476:12496   */\n      sub\n        /* \"#utility.yul\":12472:12473   */\n      0x00\n        /* \"#utility.yul\":12461:12470   */\n      dup4\n        /* \"#utility.yul\":12457:12474   */\n      add\n        /* \"#utility.yul\":12450:12497   */\n      mstore\n        /* \"#utility.yul\":12514:12645   */\n      tag_634\n        /* \"#utility.yul\":12640:12644   */\n      dup2\n        /* \"#utility.yul\":12514:12645   */\n      tag_438\n      jump\t// in\n    tag_634:\n        /* \"#utility.yul\":12506:12645   */\n      swap1\n      pop\n        /* \"#utility.yul\":12233:12652   */\n      swap2\n      swap1\n      pop\n      jump\t// out\n        /* \"#utility.yul\":12658:12775   */\n    tag_439:\n        /* \"#utility.yul\":12767:12768   */\n      0x00\n        /* \"#utility.yul\":12764:12765   */\n      0x00\n        /* \"#utility.yul\":12757:12769   */\n      revert\n        /* \"#utility.yul\":12781:12883   */\n    tag_440:\n        /* \"#utility.yul\":12822:12828   */\n      0x00\n        /* \"#utility.yul\":12873:12875   */\n      0x1f\n        /* \"#utility.yul\":12869:12876   */\n      not\n        /* \"#utility.yul\":12864:12866   */\n      0x1f\n        /* \"#utility.yul\":12857:12862   */\n      dup4\n        /* \"#utility.yul\":12853:12867   */\n      add\n        /* \"#utility.yul\":12849:12877   */\n      and\n        /* \"#utility.yul\":12839:12877   */\n      swap1\n      pop\n        /* \"#utility.yul\":12781:12883   */\n      swap2\n      swap1\n      pop\n      jump\t// out\n        /* \"#utility.yul\":12889:13069   */\n    tag_441:\n        /* \"#utility.yul\":12937:13014   */\n      0x4e487b7100000000000000000000000000000000000000000000000000000000\n        /* \"#utility.yul\":12934:12935   */\n      0x00\n        /* \"#utility.yul\":12927:13015   */\n      mstore\n        /* \"#utility.yul\":13034:13038   */\n      0x41\n        /* \"#utility.yul\":13031:13032   */\n      0x04\n        /* \"#utility.yul\":13024:13039   */\n      mstore\n        /* \"#utility.yul\":13058:13062   */\n      0x24\n        /* \"#utility.yul\":13055:13056   */\n      0x00\n        /* \"#utility.yul\":13048:13063   */\n      revert\n        /* \"#utility.yul\":13075:13356   */\n    tag_442:\n        /* \"#utility.yul\":13158:13185   */\n      tag_639\n        /* \"#utility.yul\":13180:13184   */\n      dup3\n        /* \"#utility.yul\":13158:13185   */\n      tag_440\n      jump\t// in\n    tag_639:\n        /* \"#utility.yul\":13150:13156   */\n      dup2\n        /* \"#utility.yul\":13146:13186   */\n      add\n        /* \"#utility.yul\":13288:13294   */\n      dup2\n        /* \"#utility.yul\":13276:13286   */\n      dup2\n        /* \"#utility.yul\":13273:13295   */\n      lt\n        /* \"#utility.yul\":13252:13270   */\n      0xffffffffffffffff\n        /* \"#utility.yul\":13240:13250   */\n      dup3\n        /* \"#utility.yul\":13237:13271   */\n      gt\n        /* \"#utility.yul\":13234:13296   */\n      or\n        /* \"#utility.yul\":13231:13319   */\n      iszero\n      tag_640\n      jumpi\n        /* \"#utility.yul\":13299:13317   */\n      tag_641\n      tag_441\n      jump\t// in\n    tag_641:\n        /* \"#utility.yul\":13231:13319   */\n    tag_640:\n        /* \"#utility.yul\":13339:13349   */\n      dup1\n        /* \"#utility.yul\":13335:13337   */\n      0x40\n        /* \"#utility.yul\":13328:13350   */\n      mstore\n        /* \"#utility.yul\":13118:13356   */\n      pop\n        /* \"#utility.yul\":13075:13356   */\n      pop\n      pop\n      jump\t// out\n        /* \"#utility.yul\":13362:13491   */\n    tag_443:\n        /* \"#utility.yul\":13396:13402   */\n      0x00\n        /* \"#utility.yul\":13423:13443   */\n      tag_643\n      tag_400\n      jump\t// in\n    tag_643:\n        /* \"#utility.yul\":13413:13443   */\n      swap1\n      pop\n        /* \"#utility.yul\":13452:13485   */\n      tag_644\n        /* \"#utility.yul\":13480:13484   */\n      dup3\n        /* \"#utility.yul\":13472:13478   */\n      dup3\n        /* \"#utility.yul\":13452:13485   */\n      tag_442\n      jump\t// in\n    tag_644:\n        /* \"#utility.yul\":13362:13491   */\n      swap2\n      swap1\n      pop\n      jump\t// out\n        /* \"#utility.yul\":13497:13614   */\n    tag_444:\n        /* \"#utility.yul\":13606:13607   */\n      0x00\n        /* \"#utility.yul\":13603:13604   */\n      0x00\n        /* \"#utility.yul\":13596:13608   */\n      revert\n        /* \"#utility.yul\":13620:13763   */\n    tag_445:\n        /* \"#utility.yul\":13677:13682   */\n      0x00\n        /* \"#utility.yul\":13708:13714   */\n      dup2\n        /* \"#utility.yul\":13702:13715   */\n      mload\n        /* \"#utility.yul\":13693:13715   */\n      swap1\n      pop\n        /* \"#utility.yul\":13724:13757   */\n      tag_647\n        /* \"#utility.yul\":13751:13756   */\n      dup2\n        /* \"#utility.yul\":13724:13757   */\n      tag_404\n      jump\t// in\n    tag_647:\n        /* \"#utility.yul\":13620:13763   */\n      swap3\n      swap2\n      pop\n      pop\n      jump\t// out\n        /* \"#utility.yul\":13769:13912   */\n    tag_446:\n        /* \"#utility.yul\":13826:13831   */\n      0x00\n        /* \"#utility.yul\":13857:13863   */\n      dup2\n        /* \"#utility.yul\":13851:13864   */\n      mload\n        /* \"#utility.yul\":13842:13864   */\n      swap1\n      pop\n        /* \"#utility.yul\":13873:13906   */\n      tag_649\n        /* \"#utility.yul\":13900:13905   */\n      dup2\n        /* \"#utility.yul\":13873:13906   */\n      tag_421\n      jump\t// in\n    tag_649:\n        /* \"#utility.yul\":13769:13912   */\n      swap3\n      swap2\n      pop\n      pop\n      jump\t// out\n        /* \"#utility.yul\":13918:14035   */\n    tag_447:\n        /* \"#utility.yul\":14027:14028   */\n      0x00\n        /* \"#utility.yul\":14024:14025   */\n      0x00\n        /* \"#utility.yul\":14017:14029   */\n      revert\n        /* \"#utility.yul\":14041:14349   */\n    tag_448:\n        /* \"#utility.yul\":14103:14107   */\n      0x00\n        /* \"#utility.yul\":14193:14211   */\n      0xffffffffffffffff\n        /* \"#utility.yul\":14185:14191   */\n      dup3\n        /* \"#utility.yul\":14182:14212   */\n      gt\n        /* \"#utility.yul\":14179:14235   */\n      iszero\n      tag_652\n      jumpi\n        /* \"#utility.yul\":14215:14233   */\n      tag_653\n      tag_441\n      jump\t// in\n    tag_653:\n        /* \"#utility.yul\":14179:14235   */\n    tag_652:\n        /* \"#utility.yul\":14253:14282   */\n      tag_654\n        /* \"#utility.yul\":14275:14281   */\n      dup3\n        /* \"#utility.yul\":14253:14282   */\n      tag_440\n      jump\t// in\n    tag_654:\n        /* \"#utility.yul\":14245:14282   */\n      swap1\n      pop\n        /* \"#utility.yul\":14337:14341   */\n      0x20\n        /* \"#utility.yul\":14331:14335   */\n      dup2\n        /* \"#utility.yul\":14327:14342   */\n      add\n        /* \"#utility.yul\":14319:14342   */\n      swap1\n      pop\n        /* \"#utility.yul\":14041:14349   */\n      swap2\n      swap1\n      pop\n      jump\t// out\n        /* \"#utility.yul\":14355:14494   */\n    tag_449:\n        /* \"#utility.yul\":14444:14450   */\n      dup3\n        /* \"#utility.yul\":14439:14442   */\n      dup2\n        /* \"#utility.yul\":14434:14437   */\n      dup4\n        /* \"#utility.yul\":14428:14451   */\n      mcopy\n        /* \"#utility.yul\":14485:14486   */\n      0x00\n        /* \"#utility.yul\":14476:14482   */\n      dup4\n        /* \"#utility.yul\":14471:14474   */\n      dup4\n        /* \"#utility.yul\":14467:14483   */\n      add\n        /* \"#utility.yul\":14460:14487   */\n      mstore\n        /* \"#utility.yul\":14355:14494   */\n      pop\n      pop\n      pop\n      jump\t// out\n        /* \"#utility.yul\":14500:14934   */\n    tag_450:\n        /* \"#utility.yul\":14589:14594   */\n      0x00\n        /* \"#utility.yul\":14614:14680   */\n      tag_657\n        /* \"#utility.yul\":14630:14679   */\n      tag_658\n        /* \"#utility.yul\":14672:14678   */\n      dup5\n        /* \"#utility.yul\":14630:14679   */\n      tag_448\n      jump\t// in\n    tag_658:\n        /* \"#utility.yul\":14614:14680   */\n      tag_443\n      jump\t// in\n    tag_657:\n        /* \"#utility.yul\":14605:14680   */\n      swap1\n      pop\n        /* \"#utility.yul\":14703:14709   */\n      dup3\n        /* \"#utility.yul\":14696:14701   */\n      dup2\n        /* \"#utility.yul\":14689:14710   */\n      mstore\n        /* \"#utility.yul\":14741:14745   */\n      0x20\n        /* \"#utility.yul\":14734:14739   */\n      dup2\n        /* \"#utility.yul\":14730:14746   */\n      add\n        /* \"#utility.yul\":14779:14782   */\n      dup5\n        /* \"#utility.yul\":14770:14776   */\n      dup5\n        /* \"#utility.yul\":14765:14768   */\n      dup5\n        /* \"#utility.yul\":14761:14777   */\n      add\n        /* \"#utility.yul\":14758:14783   */\n      gt\n        /* \"#utility.yul\":14755:14867   */\n      iszero\n      tag_659\n      jumpi\n        /* \"#utility.yul\":14786:14865   */\n      tag_660\n      tag_447\n      jump\t// in\n    tag_660:\n        /* \"#utility.yul\":14755:14867   */\n    tag_659:\n        /* \"#utility.yul\":14876:14928   */\n      tag_661\n        /* \"#utility.yul\":14921:14927   */\n      dup5\n        /* \"#utility.yul\":14916:14919   */\n      dup3\n        /* \"#utility.yul\":14911:14914   */\n      dup6\n        /* \"#utility.yul\":14876:14928   */\n      tag_449\n      jump\t// in\n    tag_661:\n        /* \"#utility.yul\":14595:14934   */\n      pop\n        /* \"#utility.yul\":14500:14934   */\n      swap4\n      swap3\n      pop\n      pop\n      pop\n      jump\t// out\n        /* \"#utility.yul\":14954:15309   */\n    tag_451:\n        /* \"#utility.yul\":15021:15026   */\n      0x00\n        /* \"#utility.yul\":15070:15073   */\n      dup3\n        /* \"#utility.yul\":15063:15067   */\n      0x1f\n        /* \"#utility.yul\":15055:15061   */\n      dup4\n        /* \"#utility.yul\":15051:15068   */\n      add\n        /* \"#utility.yul\":15047:15074   */\n      slt\n        /* \"#utility.yul\":15037:15159   */\n      tag_663\n      jumpi\n        /* \"#utility.yul\":15078:15157   */\n      tag_664\n      tag_428\n      jump\t// in\n    tag_664:\n        /* \"#utility.yul\":15037:15159   */\n    tag_663:\n        /* \"#utility.yul\":15188:15194   */\n      dup2\n        /* \"#utility.yul\":15182:15195   */\n      mload\n        /* \"#utility.yul\":15213:15303   */\n      tag_665\n        /* \"#utility.yul\":15299:15302   */\n      dup5\n        /* \"#utility.yul\":15291:15297   */\n      dup3\n        /* \"#utility.yul\":15284:15288   */\n      0x20\n        /* \"#utility.yul\":15276:15282   */\n      dup7\n        /* \"#utility.yul\":15272:15289   */\n      add\n        /* \"#utility.yul\":15213:15303   */\n      tag_450\n      jump\t// in\n    tag_665:\n        /* \"#utility.yul\":15204:15303   */\n      swap2\n      pop\n        /* \"#utility.yul\":15027:15309   */\n      pop\n        /* \"#utility.yul\":14954:15309   */\n      swap3\n      swap2\n      pop\n      pop\n      jump\t// out\n        /* \"#utility.yul\":15315:15428   */\n    tag_452:\n        /* \"#utility.yul\":15402:15403   */\n      0x02\n        /* \"#utility.yul\":15395:15400   */\n      dup2\n        /* \"#utility.yul\":15392:15404   */\n      lt\n        /* \"#utility.yul\":15382:15422   */\n      tag_667\n      jumpi\n        /* \"#utility.yul\":15418:15419   */\n      0x00\n        /* \"#utility.yul\":15415:15416   */\n      0x00\n        /* \"#utility.yul\":15408:15420   */\n      revert\n        /* \"#utility.yul\":15382:15422   */\n    tag_667:\n        /* \"#utility.yul\":15315:15428   */\n      pop\n      jump\t// out\n        /* \"#utility.yul\":15434:15605   */\n    tag_453:\n        /* \"#utility.yul\":15505:15510   */\n      0x00\n        /* \"#utility.yul\":15536:15542   */\n      dup2\n        /* \"#utility.yul\":15530:15543   */\n      mload\n        /* \"#utility.yul\":15521:15543   */\n      swap1\n      pop\n        /* \"#utility.yul\":15552:15599   */\n      tag_669\n        /* \"#utility.yul\":15593:15598   */\n      dup2\n        /* \"#utility.yul\":15552:15599   */\n      tag_452\n      jump\t// in\n    tag_669:\n        /* \"#utility.yul\":15434:15605   */\n      swap3\n      swap2\n      pop\n      pop\n      jump\t// out\n        /* \"#utility.yul\":15611:15726   */\n    tag_454:\n        /* \"#utility.yul\":15700:15701   */\n      0x06\n        /* \"#utility.yul\":15693:15698   */\n      dup2\n        /* \"#utility.yul\":15690:15702   */\n      lt\n        /* \"#utility.yul\":15680:15720   */\n      tag_671\n      jumpi\n        /* \"#utility.yul\":15716:15717   */\n      0x00\n        /* \"#utility.yul\":15713:15714   */\n      0x00\n        /* \"#utility.yul\":15706:15718   */\n      revert\n        /* \"#utility.yul\":15680:15720   */\n    tag_671:\n        /* \"#utility.yul\":15611:15726   */\n      pop\n      jump\t// out\n        /* \"#utility.yul\":15732:15907   */\n    tag_455:\n        /* \"#utility.yul\":15805:15810   */\n      0x00\n        /* \"#utility.yul\":15836:15842   */\n      dup2\n        /* \"#utility.yul\":15830:15843   */\n      mload\n        /* \"#utility.yul\":15821:15843   */\n      swap1\n      pop\n        /* \"#utility.yul\":15852:15901   */\n      tag_673\n        /* \"#utility.yul\":15895:15900   */\n      dup2\n        /* \"#utility.yul\":15852:15901   */\n      tag_454\n      jump\t// in\n    tag_673:\n        /* \"#utility.yul\":15732:15907   */\n      swap3\n      swap2\n      pop\n      pop\n      jump\t// out\n        /* \"#utility.yul\":15913:16029   */\n    tag_456:\n        /* \"#utility.yul\":15983:16004   */\n      tag_675\n        /* \"#utility.yul\":15998:16003   */\n      dup2\n        /* \"#utility.yul\":15983:16004   */\n      tag_414\n      jump\t// in\n    tag_675:\n        /* \"#utility.yul\":15976:15981   */\n      dup2\n        /* \"#utility.yul\":15973:16005   */\n      eq\n        /* \"#utility.yul\":15963:16023   */\n      tag_676\n      jumpi\n        /* \"#utility.yul\":16019:16020   */\n      0x00\n        /* \"#utility.yul\":16016:16017   */\n      0x00\n        /* \"#utility.yul\":16009:16021   */\n      revert\n        /* \"#utility.yul\":15963:16023   */\n    tag_676:\n        /* \"#utility.yul\":15913:16029   */\n      pop\n      jump\t// out\n        /* \"#utility.yul\":16035:16172   */\n    tag_457:\n        /* \"#utility.yul\":16089:16094   */\n      0x00\n        /* \"#utility.yul\":16120:16126   */\n      dup2\n        /* \"#utility.yul\":16114:16127   */\n      mload\n        /* \"#utility.yul\":16105:16127   */\n      swap1\n      pop\n        /* \"#utility.yul\":16136:16166   */\n      tag_678\n        /* \"#utility.yul\":16160:16165   */\n      dup2\n        /* \"#utility.yul\":16136:16166   */\n      tag_456\n      jump\t// in\n    tag_678:\n        /* \"#utility.yul\":16035:16172   */\n      swap3\n      swap2\n      pop\n      pop\n      jump\t// out\n        /* \"#utility.yul\":16213:18068   */\n    tag_458:\n        /* \"#utility.yul\":16296:16301   */\n      0x00\n        /* \"#utility.yul\":16340:16346   */\n      0x0100\n        /* \"#utility.yul\":16328:16337   */\n      dup3\n        /* \"#utility.yul\":16323:16326   */\n      dup5\n        /* \"#utility.yul\":16319:16338   */\n      sub\n        /* \"#utility.yul\":16315:16347   */\n      slt\n        /* \"#utility.yul\":16312:16431   */\n      iszero\n      tag_680\n      jumpi\n        /* \"#utility.yul\":16350:16429   */\n      tag_681\n      tag_439\n      jump\t// in\n    tag_681:\n        /* \"#utility.yul\":16312:16431   */\n    tag_680:\n        /* \"#utility.yul\":16449:16472   */\n      tag_682\n        /* \"#utility.yul\":16465:16471   */\n      0x0100\n        /* \"#utility.yul\":16449:16472   */\n      tag_443\n      jump\t// in\n    tag_682:\n        /* \"#utility.yul\":16440:16472   */\n      swap1\n      pop\n        /* \"#utility.yul\":16529:16530   */\n      0x00\n        /* \"#utility.yul\":16569:16629   */\n      tag_683\n        /* \"#utility.yul\":16625:16628   */\n      dup5\n        /* \"#utility.yul\":16616:16622   */\n      dup3\n        /* \"#utility.yul\":16605:16614   */\n      dup6\n        /* \"#utility.yul\":16601:16623   */\n      add\n        /* \"#utility.yul\":16569:16629   */\n      tag_445\n      jump\t// in\n    tag_683:\n        /* \"#utility.yul\":16562:16566   */\n      0x00\n        /* \"#utility.yul\":16555:16560   */\n      dup4\n        /* \"#utility.yul\":16551:16567   */\n      add\n        /* \"#utility.yul\":16544:16630   */\n      mstore\n        /* \"#utility.yul\":16482:16641   */\n      pop\n        /* \"#utility.yul\":16702:16704   */\n      0x20\n        /* \"#utility.yul\":16743:16803   */\n      tag_684\n        /* \"#utility.yul\":16799:16802   */\n      dup5\n        /* \"#utility.yul\":16790:16796   */\n      dup3\n        /* \"#utility.yul\":16779:16788   */\n      dup6\n        /* \"#utility.yul\":16775:16797   */\n      add\n        /* \"#utility.yul\":16743:16803   */\n      tag_446\n      jump\t// in\n    tag_684:\n        /* \"#utility.yul\":16736:16740   */\n      0x20\n        /* \"#utility.yul\":16729:16734   */\n      dup4\n        /* \"#utility.yul\":16725:16741   */\n      add\n        /* \"#utility.yul\":16718:16804   */\n      mstore\n        /* \"#utility.yul\":16651:16815   */\n      pop\n        /* \"#utility.yul\":16875:16877   */\n      0x40\n        /* \"#utility.yul\":16916:16976   */\n      tag_685\n        /* \"#utility.yul\":16972:16975   */\n      dup5\n        /* \"#utility.yul\":16963:16969   */\n      dup3\n        /* \"#utility.yul\":16952:16961   */\n      dup6\n        /* \"#utility.yul\":16948:16970   */\n      add\n        /* \"#utility.yul\":16916:16976   */\n      tag_446\n      jump\t// in\n    tag_685:\n        /* \"#utility.yul\":16909:16913   */\n      0x40\n        /* \"#utility.yul\":16902:16907   */\n      dup4\n        /* \"#utility.yul\":16898:16914   */\n      add\n        /* \"#utility.yul\":16891:16977   */\n      mstore\n        /* \"#utility.yul\":16825:16988   */\n      pop\n        /* \"#utility.yul\":17048:17050   */\n      0x60\n        /* \"#utility.yul\":17089:17149   */\n      tag_686\n        /* \"#utility.yul\":17145:17148   */\n      dup5\n        /* \"#utility.yul\":17136:17142   */\n      dup3\n        /* \"#utility.yul\":17125:17134   */\n      dup6\n        /* \"#utility.yul\":17121:17143   */\n      add\n        /* \"#utility.yul\":17089:17149   */\n      tag_445\n      jump\t// in\n    tag_686:\n        /* \"#utility.yul\":17082:17086   */\n      0x60\n        /* \"#utility.yul\":17075:17080   */\n      dup4\n        /* \"#utility.yul\":17071:17087   */\n      add\n        /* \"#utility.yul\":17064:17150   */\n      mstore\n        /* \"#utility.yul\":16998:17161   */\n      pop\n        /* \"#utility.yul\":17248:17251   */\n      0x80\n        /* \"#utility.yul\":17237:17246   */\n      dup3\n        /* \"#utility.yul\":17233:17252   */\n      add\n        /* \"#utility.yul\":17227:17253   */\n      mload\n        /* \"#utility.yul\":17280:17298   */\n      0xffffffffffffffff\n        /* \"#utility.yul\":17272:17278   */\n      dup2\n        /* \"#utility.yul\":17269:17299   */\n      gt\n        /* \"#utility.yul\":17266:17383   */\n      iszero\n      tag_687\n      jumpi\n        /* \"#utility.yul\":17302:17381   */\n      tag_688\n      tag_444\n      jump\t// in\n    tag_688:\n        /* \"#utility.yul\":17266:17383   */\n    tag_687:\n        /* \"#utility.yul\":17422:17492   */\n      tag_689\n        /* \"#utility.yul\":17488:17491   */\n      dup5\n        /* \"#utility.yul\":17479:17485   */\n      dup3\n        /* \"#utility.yul\":17468:17477   */\n      dup6\n        /* \"#utility.yul\":17464:17486   */\n      add\n        /* \"#utility.yul\":17422:17492   */\n      tag_451\n      jump\t// in\n    tag_689:\n        /* \"#utility.yul\":17415:17419   */\n      0x80\n        /* \"#utility.yul\":17408:17413   */\n      dup4\n        /* \"#utility.yul\":17404:17420   */\n      add\n        /* \"#utility.yul\":17397:17493   */\n      mstore\n        /* \"#utility.yul\":17171:17504   */\n      pop\n        /* \"#utility.yul\":17570:17573   */\n      0xa0\n        /* \"#utility.yul\":17612:17686   */\n      tag_690\n        /* \"#utility.yul\":17682:17685   */\n      dup5\n        /* \"#utility.yul\":17673:17679   */\n      dup3\n        /* \"#utility.yul\":17662:17671   */\n      dup6\n        /* \"#utility.yul\":17658:17680   */\n      add\n        /* \"#utility.yul\":17612:17686   */\n      tag_453\n      jump\t// in\n    tag_690:\n        /* \"#utility.yul\":17605:17609   */\n      0xa0\n        /* \"#utility.yul\":17598:17603   */\n      dup4\n        /* \"#utility.yul\":17594:17610   */\n      add\n        /* \"#utility.yul\":17587:17687   */\n      mstore\n        /* \"#utility.yul\":17514:17698   */\n      pop\n        /* \"#utility.yul\":17759:17762   */\n      0xc0\n        /* \"#utility.yul\":17801:17877   */\n      tag_691\n        /* \"#utility.yul\":17873:17876   */\n      dup5\n        /* \"#utility.yul\":17864:17870   */\n      dup3\n        /* \"#utility.yul\":17853:17862   */\n      dup6\n        /* \"#utility.yul\":17849:17871   */\n      add\n        /* \"#utility.yul\":17801:17877   */\n      tag_455\n      jump\t// in\n    tag_691:\n        /* \"#utility.yul\":17794:17798   */\n      0xc0\n        /* \"#utility.yul\":17787:17792   */\n      dup4\n        /* \"#utility.yul\":17783:17799   */\n      add\n        /* \"#utility.yul\":17776:17878   */\n      mstore\n        /* \"#utility.yul\":17708:17889   */\n      pop\n        /* \"#utility.yul\":17950:17953   */\n      0xe0\n        /* \"#utility.yul\":17992:18049   */\n      tag_692\n        /* \"#utility.yul\":18045:18048   */\n      dup5\n        /* \"#utility.yul\":18036:18042   */\n      dup3\n        /* \"#utility.yul\":18025:18034   */\n      dup6\n        /* \"#utility.yul\":18021:18043   */\n      add\n        /* \"#utility.yul\":17992:18049   */\n      tag_457\n      jump\t// in\n    tag_692:\n        /* \"#utility.yul\":17985:17989   */\n      0xe0\n        /* \"#utility.yul\":17978:17983   */\n      dup4\n        /* \"#utility.yul\":17974:17990   */\n      add\n        /* \"#utility.yul\":17967:18050   */\n      mstore\n        /* \"#utility.yul\":17899:18061   */\n      pop\n        /* \"#utility.yul\":16213:18068   */\n      swap3\n      swap2\n      pop\n      pop\n      jump\t// out\n        /* \"#utility.yul\":18074:18624   */\n    tag_106:\n        /* \"#utility.yul\":18167:18173   */\n      0x00\n        /* \"#utility.yul\":18216:18218   */\n      0x20\n        /* \"#utility.yul\":18204:18213   */\n      dup3\n        /* \"#utility.yul\":18195:18202   */\n      dup5\n        /* \"#utility.yul\":18191:18214   */\n      sub\n        /* \"#utility.yul\":18187:18219   */\n      slt\n        /* \"#utility.yul\":18184:18303   */\n      iszero\n      tag_694\n      jumpi\n        /* \"#utility.yul\":18222:18301   */\n      tag_695\n      tag_401\n      jump\t// in\n    tag_695:\n        /* \"#utility.yul\":18184:18303   */\n    tag_694:\n        /* \"#utility.yul\":18363:18364   */\n      0x00\n        /* \"#utility.yul\":18352:18361   */\n      dup3\n        /* \"#utility.yul\":18348:18365   */\n      add\n        /* \"#utility.yul\":18342:18366   */\n      mload\n        /* \"#utility.yul\":18393:18411   */\n      0xffffffffffffffff\n        /* \"#utility.yul\":18385:18391   */\n      dup2\n        /* \"#utility.yul\":18382:18412   */\n      gt\n        /* \"#utility.yul\":18379:18496   */\n      iszero\n      tag_696\n      jumpi\n        /* \"#utility.yul\":18415:18494   */\n      tag_697\n      tag_402\n      jump\t// in\n    tag_697:\n        /* \"#utility.yul\":18379:18496   */\n    tag_696:\n        /* \"#utility.yul\":18520:18607   */\n      tag_698\n        /* \"#utility.yul\":18599:18606   */\n      dup5\n        /* \"#utility.yul\":18590:18596   */\n      dup3\n        /* \"#utility.yul\":18579:18588   */\n      dup6\n        /* \"#utility.yul\":18575:18597   */\n      add\n        /* \"#utility.yul\":18520:18607   */\n      tag_458\n      jump\t// in\n    tag_698:\n        /* \"#utility.yul\":18510:18607   */\n      swap2\n      pop\n        /* \"#utility.yul\":18313:18617   */\n      pop\n        /* \"#utility.yul\":18074:18624   */\n      swap3\n      swap2\n      pop\n      pop\n      jump\t// out\n        /* \"#utility.yul\":18630:18962   */\n    tag_116:\n        /* \"#utility.yul\":18751:18755   */\n      0x00\n        /* \"#utility.yul\":18789:18791   */\n      0x40\n        /* \"#utility.yul\":18778:18787   */\n      dup3\n        /* \"#utility.yul\":18774:18792   */\n      add\n        /* \"#utility.yul\":18766:18792   */\n      swap1\n      pop\n        /* \"#utility.yul\":18802:18873   */\n      tag_700\n        /* \"#utility.yul\":18870:18871   */\n      0x00\n        /* \"#utility.yul\":18859:18868   */\n      dup4\n        /* \"#utility.yul\":18855:18872   */\n      add\n        /* \"#utility.yul\":18846:18852   */\n      dup6\n        /* \"#utility.yul\":18802:18873   */\n      tag_409\n      jump\t// in\n    tag_700:\n        /* \"#utility.yul\":18883:18955   */\n      tag_701\n        /* \"#utility.yul\":18951:18953   */\n      0x20\n        /* \"#utility.yul\":18940:18949   */\n      dup4\n        /* \"#utility.yul\":18936:18954   */\n      add\n        /* \"#utility.yul\":18927:18933   */\n      dup5\n        /* \"#utility.yul\":18883:18955   */\n      tag_406\n      jump\t// in\n    tag_701:\n        /* \"#utility.yul\":18630:18962   */\n      swap4\n      swap3\n      pop\n      pop\n      pop\n      jump\t// out\n        /* \"#utility.yul\":18968:19313   */\n    tag_120:\n        /* \"#utility.yul\":19035:19041   */\n      0x00\n        /* \"#utility.yul\":19084:19086   */\n      0x20\n        /* \"#utility.yul\":19072:19081   */\n      dup3\n        /* \"#utility.yul\":19063:19070   */\n      dup5\n        /* \"#utility.yul\":19059:19082   */\n      sub\n        /* \"#utility.yul\":19055:19087   */\n      slt\n        /* \"#utility.yul\":19052:19171   */\n      iszero\n      tag_703\n      jumpi\n        /* \"#utility.yul\":19090:19169   */\n      tag_704\n      tag_401\n      jump\t// in\n    tag_704:\n        /* \"#utility.yul\":19052:19171   */\n    tag_703:\n        /* \"#utility.yul\":19210:19211   */\n      0x00\n        /* \"#utility.yul\":19235:19296   */\n      tag_705\n        /* \"#utility.yul\":19288:19295   */\n      dup5\n        /* \"#utility.yul\":19279:19285   */\n      dup3\n        /* \"#utility.yul\":19268:19277   */\n      dup6\n        /* \"#utility.yul\":19264:19286   */\n      add\n        /* \"#utility.yul\":19235:19296   */\n      tag_457\n      jump\t// in\n    tag_705:\n        /* \"#utility.yul\":19225:19296   */\n      swap2\n      pop\n        /* \"#utility.yul\":19181:19306   */\n      pop\n        /* \"#utility.yul\":18968:19313   */\n      swap3\n      swap2\n      pop\n      pop\n      jump\t// out\n        /* \"#utility.yul\":19319:19482   */\n    tag_459:\n        /* \"#utility.yul\":19459:19474   */\n      0x526566756e64206661696c656400000000000000000000000000000000000000\n        /* \"#utility.yul\":19455:19456   */\n      0x00\n        /* \"#utility.yul\":19447:19453   */\n      dup3\n        /* \"#utility.yul\":19443:19457   */\n      add\n        /* \"#utility.yul\":19436:19475   */\n      mstore\n        /* \"#utility.yul\":19319:19482   */\n      pop\n      jump\t// out\n        /* \"#utility.yul\":19488:19854   */\n    tag_460:\n        /* \"#utility.yul\":19630:19633   */\n      0x00\n        /* \"#utility.yul\":19651:19718   */\n      tag_708\n        /* \"#utility.yul\":19715:19717   */\n      0x0d\n        /* \"#utility.yul\":19710:19713   */\n      dup4\n        /* \"#utility.yul\":19651:19718   */\n      tag_432\n      jump\t// in\n    tag_708:\n        /* \"#utility.yul\":19644:19718   */\n      swap2\n      pop\n        /* \"#utility.yul\":19727:19820   */\n      tag_709\n        /* \"#utility.yul\":19816:19819   */\n      dup3\n        /* \"#utility.yul\":19727:19820   */\n      tag_459\n      jump\t// in\n    tag_709:\n        /* \"#utility.yul\":19845:19847   */\n      0x20\n        /* \"#utility.yul\":19840:19843   */\n      dup3\n        /* \"#utility.yul\":19836:19848   */\n      add\n        /* \"#utility.yul\":19829:19848   */\n      swap1\n      pop\n        /* \"#utility.yul\":19488:19854   */\n      swap2\n      swap1\n      pop\n      jump\t// out\n        /* \"#utility.yul\":19860:20279   */\n    tag_123:\n        /* \"#utility.yul\":20026:20030   */\n      0x00\n        /* \"#utility.yul\":20064:20066   */\n      0x20\n        /* \"#utility.yul\":20053:20062   */\n      dup3\n        /* \"#utility.yul\":20049:20067   */\n      add\n        /* \"#utility.yul\":20041:20067   */\n      swap1\n      pop\n        /* \"#utility.yul\":20113:20122   */\n      dup2\n        /* \"#utility.yul\":20107:20111   */\n      dup2\n        /* \"#utility.yul\":20103:20123   */\n      sub\n        /* \"#utility.yul\":20099:20100   */\n      0x00\n        /* \"#utility.yul\":20088:20097   */\n      dup4\n        /* \"#utility.yul\":20084:20101   */\n      add\n        /* \"#utility.yul\":20077:20124   */\n      mstore\n        /* \"#utility.yul\":20141:20272   */\n      tag_711\n        /* \"#utility.yul\":20267:20271   */\n      dup2\n        /* \"#utility.yul\":20141:20272   */\n      tag_460\n      jump\t// in\n    tag_711:\n        /* \"#utility.yul\":20133:20272   */\n      swap1\n      pop\n        /* \"#utility.yul\":19860:20279   */\n      swap2\n      swap1\n      pop\n      jump\t// out\n        /* \"#utility.yul\":20285:20444   */\n    tag_461:\n        /* \"#utility.yul\":20425:20436   */\n      0x4e6f74206f776e65720000000000000000000000000000000000000000000000\n        /* \"#utility.yul\":20421:20422   */\n      0x00\n        /* \"#utility.yul\":20413:20419   */\n      dup3\n        /* \"#utility.yul\":20409:20423   */\n      add\n        /* \"#utility.yul\":20402:20437   */\n      mstore\n        /* \"#utility.yul\":20285:20444   */\n      pop\n      jump\t// out\n        /* \"#utility.yul\":20450:20815   */\n    tag_462:\n        /* \"#utility.yul\":20592:20595   */\n      0x00\n        /* \"#utility.yul\":20613:20679   */\n      tag_714\n        /* \"#utility.yul\":20677:20678   */\n      0x09\n        /* \"#utility.yul\":20672:20675   */\n      dup4\n        /* \"#utility.yul\":20613:20679   */\n      tag_432\n      jump\t// in\n    tag_714:\n        /* \"#utility.yul\":20606:20679   */\n      swap2\n      pop\n        /* \"#utility.yul\":20688:20781   */\n      tag_715\n        /* \"#utility.yul\":20777:20780   */\n      dup3\n        /* \"#utility.yul\":20688:20781   */\n      tag_461\n      jump\t// in\n    tag_715:\n        /* \"#utility.yul\":20806:20808   */\n      0x20\n        /* \"#utility.yul\":20801:20804   */\n      dup3\n        /* \"#utility.yul\":20797:20809   */\n      add\n        /* \"#utility.yul\":20790:20809   */\n      swap1\n      pop\n        /* \"#utility.yul\":20450:20815   */\n      swap2\n      swap1\n      pop\n      jump\t// out\n        /* \"#utility.yul\":20821:21240   */\n    tag_135:\n        /* \"#utility.yul\":20987:20991   */\n      0x00\n        /* \"#utility.yul\":21025:21027   */\n      0x20\n        /* \"#utility.yul\":21014:21023   */\n      dup3\n        /* \"#utility.yul\":21010:21028   */\n      add\n        /* \"#utility.yul\":21002:21028   */\n      swap1\n      pop\n        /* \"#utility.yul\":21074:21083   */\n      dup2\n        /* \"#utility.yul\":21068:21072   */\n      dup2\n        /* \"#utility.yul\":21064:21084   */\n      sub\n        /* \"#utility.yul\":21060:21061   */\n      0x00\n        /* \"#utility.yul\":21049:21058   */\n      dup4\n        /* \"#utility.yul\":21045:21062   */\n      add\n        /* \"#utility.yul\":21038:21085   */\n      mstore\n        /* \"#utility.yul\":21102:21233   */\n      tag_717\n        /* \"#utility.yul\":21228:21232   */\n      dup2\n        /* \"#utility.yul\":21102:21233   */\n      tag_462\n      jump\t// in\n    tag_717:\n        /* \"#utility.yul\":21094:21233   */\n      swap1\n      pop\n        /* \"#utility.yul\":20821:21240   */\n      swap2\n      swap1\n      pop\n      jump\t// out\n        /* \"#utility.yul\":21246:21417   */\n    tag_463:\n        /* \"#utility.yul\":21386:21409   */\n      0x457363726f77206e6f7420726566756e6461626c650000000000000000000000\n        /* \"#utility.yul\":21382:21383   */\n      0x00\n        /* \"#utility.yul\":21374:21380   */\n      dup3\n        /* \"#utility.yul\":21370:21384   */\n      add\n        /* \"#utility.yul\":21363:21410   */\n      mstore\n        /* \"#utility.yul\":21246:21417   */\n      pop\n      jump\t// out\n        /* \"#utility.yul\":21423:21789   */\n    tag_464:\n        /* \"#utility.yul\":21565:21568   */\n      0x00\n        /* \"#utility.yul\":21586:21653   */\n      tag_720\n        /* \"#utility.yul\":21650:21652   */\n      0x15\n        /* \"#utility.yul\":21645:21648   */\n      dup4\n        /* \"#utility.yul\":21586:21653   */\n      tag_432\n      jump\t// in\n    tag_720:\n        /* \"#utility.yul\":21579:21653   */\n      swap2\n      pop\n        /* \"#utility.yul\":21662:21755   */\n      tag_721\n        /* \"#utility.yul\":21751:21754   */\n      dup3\n        /* \"#utility.yul\":21662:21755   */\n      tag_463\n      jump\t// in\n    tag_721:\n        /* \"#utility.yul\":21780:21782   */\n      0x20\n        /* \"#utility.yul\":21775:21778   */\n      dup3\n        /* \"#utility.yul\":21771:21783   */\n      add\n        /* \"#utility.yul\":21764:21783   */\n      swap1\n      pop\n        /* \"#utility.yul\":21423:21789   */\n      swap2\n      swap1\n      pop\n      jump\t// out\n        /* \"#utility.yul\":21795:22214   */\n    tag_148:\n        /* \"#utility.yul\":21961:21965   */\n      0x00\n        /* \"#utility.yul\":21999:22001   */\n      0x20\n        /* \"#utility.yul\":21988:21997   */\n      dup3\n        /* \"#utility.yul\":21984:22002   */\n      add\n        /* \"#utility.yul\":21976:22002   */\n      swap1\n      pop\n        /* \"#utility.yul\":22048:22057   */\n      dup2\n        /* \"#utility.yul\":22042:22046   */\n      dup2\n        /* \"#utility.yul\":22038:22058   */\n      sub\n        /* \"#utility.yul\":22034:22035   */\n      0x00\n        /* \"#utility.yul\":22023:22032   */\n      dup4\n        /* \"#utility.yul\":22019:22036   */\n      add\n        /* \"#utility.yul\":22012:22059   */\n      mstore\n        /* \"#utility.yul\":22076:22207   */\n      tag_723\n        /* \"#utility.yul\":22202:22206   */\n      dup2\n        /* \"#utility.yul\":22076:22207   */\n      tag_464\n      jump\t// in\n    tag_723:\n        /* \"#utility.yul\":22068:22207   */\n      swap1\n      pop\n        /* \"#utility.yul\":21795:22214   */\n      swap2\n      swap1\n      pop\n      jump\t// out\n        /* \"#utility.yul\":22220:22383   */\n    tag_465:\n        /* \"#utility.yul\":22360:22375   */\n      0x496e76616c696420746f6b656e00000000000000000000000000000000000000\n        /* \"#utility.yul\":22356:22357   */\n      0x00\n        /* \"#utility.yul\":22348:22354   */\n      dup3\n        /* \"#utility.yul\":22344:22358   */\n      add\n        /* \"#utility.yul\":22337:22376   */\n      mstore\n        /* \"#utility.yul\":22220:22383   */\n      pop\n      jump\t// out\n        /* \"#utility.yul\":22389:22755   */\n    tag_466:\n        /* \"#utility.yul\":22531:22534   */\n      0x00\n        /* \"#utility.yul\":22552:22619   */\n      tag_726\n        /* \"#utility.yul\":22616:22618   */\n      0x0d\n        /* \"#utility.yul\":22611:22614   */\n      dup4\n        /* \"#utility.yul\":22552:22619   */\n      tag_432\n      jump\t// in\n    tag_726:\n        /* \"#utility.yul\":22545:22619   */\n      swap2\n      pop\n        /* \"#utility.yul\":22628:22721   */\n      tag_727\n        /* \"#utility.yul\":22717:22720   */\n      dup3\n        /* \"#utility.yul\":22628:22721   */\n      tag_465\n      jump\t// in\n    tag_727:\n        /* \"#utility.yul\":22746:22748   */\n      0x20\n        /* \"#utility.yul\":22741:22744   */\n      dup3\n        /* \"#utility.yul\":22737:22749   */\n      add\n        /* \"#utility.yul\":22730:22749   */\n      swap1\n      pop\n        /* \"#utility.yul\":22389:22755   */\n      swap2\n      swap1\n      pop\n      jump\t// out\n        /* \"#utility.yul\":22761:23180   */\n    tag_178:\n        /* \"#utility.yul\":22927:22931   */\n      0x00\n        /* \"#utility.yul\":22965:22967   */\n      0x20\n        /* \"#utility.yul\":22954:22963   */\n      dup3\n        /* \"#utility.yul\":22950:22968   */\n      add\n        /* \"#utility.yul\":22942:22968   */\n      swap1\n      pop\n        /* \"#utility.yul\":23014:23023   */\n      dup2\n        /* \"#utility.yul\":23008:23012   */\n      dup2\n        /* \"#utility.yul\":23004:23024   */\n      sub\n        /* \"#utility.yul\":23000:23001   */\n      0x00\n        /* \"#utility.yul\":22989:22998   */\n      dup4\n        /* \"#utility.yul\":22985:23002   */\n      add\n        /* \"#utility.yul\":22978:23025   */\n      mstore\n        /* \"#utility.yul\":23042:23173   */\n      tag_729\n        /* \"#utility.yul\":23168:23172   */\n      dup2\n        /* \"#utility.yul\":23042:23173   */\n      tag_466\n      jump\t// in\n    tag_729:\n        /* \"#utility.yul\":23034:23173   */\n      swap1\n      pop\n        /* \"#utility.yul\":22761:23180   */\n      swap2\n      swap1\n      pop\n      jump\t// out\n        /* \"#utility.yul\":23186:23354   */\n    tag_467:\n        /* \"#utility.yul\":23326:23346   */\n      0x576f726b206e6f74207375626d69747465640000000000000000000000000000\n        /* \"#utility.yul\":23322:23323   */\n      0x00\n        /* \"#utility.yul\":23314:23320   */\n      dup3\n        /* \"#utility.yul\":23310:23324   */\n      add\n        /* \"#utility.yul\":23303:23347   */\n      mstore\n        /* \"#utility.yul\":23186:23354   */\n      pop\n      jump\t// out\n        /* \"#utility.yul\":23360:23726   */\n    tag_468:\n        /* \"#utility.yul\":23502:23505   */\n      0x00\n        /* \"#utility.yul\":23523:23590   */\n      tag_732\n        /* \"#utility.yul\":23587:23589   */\n      0x12\n        /* \"#utility.yul\":23582:23585   */\n      dup4\n        /* \"#utility.yul\":23523:23590   */\n      tag_432\n      jump\t// in\n    tag_732:\n        /* \"#utility.yul\":23516:23590   */\n      swap2\n      pop\n        /* \"#utility.yul\":23599:23692   */\n      tag_733\n        /* \"#utility.yul\":23688:23691   */\n      dup3\n        /* \"#utility.yul\":23599:23692   */\n      tag_467\n      jump\t// in\n    tag_733:\n        /* \"#utility.yul\":23717:23719   */\n      0x20\n        /* \"#utility.yul\":23712:23715   */\n      dup3\n        /* \"#utility.yul\":23708:23720   */\n      add\n        /* \"#utility.yul\":23701:23720   */\n      swap1\n      pop\n        /* \"#utility.yul\":23360:23726   */\n      swap2\n      swap1\n      pop\n      jump\t// out\n        /* \"#utility.yul\":23732:24151   */\n    tag_201:\n        /* \"#utility.yul\":23898:23902   */\n      0x00\n        /* \"#utility.yul\":23936:23938   */\n      0x20\n        /* \"#utility.yul\":23925:23934   */\n      dup3\n        /* \"#utility.yul\":23921:23939   */\n      add\n        /* \"#utility.yul\":23913:23939   */\n      swap1\n      pop\n        /* \"#utility.yul\":23985:23994   */\n      dup2\n        /* \"#utility.yul\":23979:23983   */\n      dup2\n        /* \"#utility.yul\":23975:23995   */\n      sub\n        /* \"#utility.yul\":23971:23972   */\n      0x00\n        /* \"#utility.yul\":23960:23969   */\n      dup4\n        /* \"#utility.yul\":23956:23973   */\n      add\n        /* \"#utility.yul\":23949:23996   */\n      mstore\n        /* \"#utility.yul\":24013:24144   */\n      tag_735\n        /* \"#utility.yul\":24139:24143   */\n      dup2\n        /* \"#utility.yul\":24013:24144   */\n      tag_468\n      jump\t// in\n    tag_735:\n        /* \"#utility.yul\":24005:24144   */\n      swap1\n      pop\n        /* \"#utility.yul\":23732:24151   */\n      swap2\n      swap1\n      pop\n      jump\t// out\n        /* \"#utility.yul\":24157:24339   */\n    tag_469:\n        /* \"#utility.yul\":24297:24331   */\n      0x4275796572206d75737420636f6e6669726d206974656d2064656c6976657279\n        /* \"#utility.yul\":24293:24294   */\n      0x00\n        /* \"#utility.yul\":24285:24291   */\n      dup3\n        /* \"#utility.yul\":24281:24295   */\n      add\n        /* \"#utility.yul\":24274:24332   */\n      mstore\n        /* \"#utility.yul\":24157:24339   */\n      pop\n      jump\t// out\n        /* \"#utility.yul\":24345:24711   */\n    tag_470:\n        /* \"#utility.yul\":24487:24490   */\n      0x00\n        /* \"#utility.yul\":24508:24575   */\n      tag_738\n        /* \"#utility.yul\":24572:24574   */\n      0x20\n        /* \"#utility.yul\":24567:24570   */\n      dup4\n        /* \"#utility.yul\":24508:24575   */\n      tag_432\n      jump\t// in\n    tag_738:\n        /* \"#utility.yul\":24501:24575   */\n      swap2\n      pop\n        /* \"#utility.yul\":24584:24677   */\n      tag_739\n        /* \"#utility.yul\":24673:24676   */\n      dup3\n        /* \"#utility.yul\":24584:24677   */\n      tag_469\n      jump\t// in\n    tag_739:\n        /* \"#utility.yul\":24702:24704   */\n      0x20\n        /* \"#utility.yul\":24697:24700   */\n      dup3\n        /* \"#utility.yul\":24693:24705   */\n      add\n        /* \"#utility.yul\":24686:24705   */\n      swap1\n      pop\n        /* \"#utility.yul\":24345:24711   */\n      swap2\n      swap1\n      pop\n      jump\t// out\n        /* \"#utility.yul\":24717:25136   */\n    tag_209:\n        /* \"#utility.yul\":24883:24887   */\n      0x00\n        /* \"#utility.yul\":24921:24923   */\n      0x20\n        /* \"#utility.yul\":24910:24919   */\n      dup3\n        /* \"#utility.yul\":24906:24924   */\n      add\n        /* \"#utility.yul\":24898:24924   */\n      swap1\n      pop\n        /* \"#utility.yul\":24970:24979   */\n      dup2\n        /* \"#utility.yul\":24964:24968   */\n      dup2\n        /* \"#utility.yul\":24960:24980   */\n      sub\n        /* \"#utility.yul\":24956:24957   */\n      0x00\n        /* \"#utility.yul\":24945:24954   */\n      dup4\n        /* \"#utility.yul\":24941:24958   */\n      add\n        /* \"#utility.yul\":24934:24981   */\n      mstore\n        /* \"#utility.yul\":24998:25129   */\n      tag_741\n        /* \"#utility.yul\":25124:25128   */\n      dup2\n        /* \"#utility.yul\":24998:25129   */\n      tag_470\n      jump\t// in\n    tag_741:\n        /* \"#utility.yul\":24990:25129   */\n      swap1\n      pop\n        /* \"#utility.yul\":24717:25136   */\n      swap2\n      swap1\n      pop\n      jump\t// out\n        /* \"#utility.yul\":25142:25367   */\n    tag_471:\n        /* \"#utility.yul\":25282:25316   */\n      0x426f756e74792063726561746f72206d75737420636f6e6669726d20636f6d70\n        /* \"#utility.yul\":25278:25279   */\n      0x00\n        /* \"#utility.yul\":25270:25276   */\n      dup3\n        /* \"#utility.yul\":25266:25280   */\n      add\n        /* \"#utility.yul\":25259:25317   */\n      mstore\n        /* \"#utility.yul\":25351:25359   */\n      0x6c6574696f6e0000000000000000000000000000000000000000000000000000\n        /* \"#utility.yul\":25346:25348   */\n      0x20\n        /* \"#utility.yul\":25338:25344   */\n      dup3\n        /* \"#utility.yul\":25334:25349   */\n      add\n        /* \"#utility.yul\":25327:25360   */\n      mstore\n        /* \"#utility.yul\":25142:25367   */\n      pop\n      jump\t// out\n        /* \"#utility.yul\":25373:25739   */\n    tag_472:\n        /* \"#utility.yul\":25515:25518   */\n      0x00\n        /* \"#utility.yul\":25536:25603   */\n      tag_744\n        /* \"#utility.yul\":25600:25602   */\n      0x26\n        /* \"#utility.yul\":25595:25598   */\n      dup4\n        /* \"#utility.yul\":25536:25603   */\n      tag_432\n      jump\t// in\n    tag_744:\n        /* \"#utility.yul\":25529:25603   */\n      swap2\n      pop\n        /* \"#utility.yul\":25612:25705   */\n      tag_745\n        /* \"#utility.yul\":25701:25704   */\n      dup3\n        /* \"#utility.yul\":25612:25705   */\n      tag_471\n      jump\t// in\n    tag_745:\n        /* \"#utility.yul\":25730:25732   */\n      0x40\n        /* \"#utility.yul\":25725:25728   */\n      dup3\n        /* \"#utility.yul\":25721:25733   */\n      add\n        /* \"#utility.yul\":25714:25733   */\n      swap1\n      pop\n        /* \"#utility.yul\":25373:25739   */\n      swap2\n      swap1\n      pop\n      jump\t// out\n        /* \"#utility.yul\":25745:26164   */\n    tag_213:\n        /* \"#utility.yul\":25911:25915   */\n      0x00\n        /* \"#utility.yul\":25949:25951   */\n      0x20\n        /* \"#utility.yul\":25938:25947   */\n      dup3\n        /* \"#utility.yul\":25934:25952   */\n      add\n        /* \"#utility.yul\":25926:25952   */\n      swap1\n      pop\n        /* \"#utility.yul\":25998:26007   */\n      dup2\n        /* \"#utility.yul\":25992:25996   */\n      dup2\n        /* \"#utility.yul\":25988:26008   */\n      sub\n        /* \"#utility.yul\":25984:25985   */\n      0x00\n        /* \"#utility.yul\":25973:25982   */\n      dup4\n        /* \"#utility.yul\":25969:25986   */\n      add\n        /* \"#utility.yul\":25962:26009   */\n      mstore\n        /* \"#utility.yul\":26026:26157   */\n      tag_747\n        /* \"#utility.yul\":26152:26156   */\n      dup2\n        /* \"#utility.yul\":26026:26157   */\n      tag_472\n      jump\t// in\n    tag_747:\n        /* \"#utility.yul\":26018:26157   */\n      swap1\n      pop\n        /* \"#utility.yul\":25745:26164   */\n      swap2\n      swap1\n      pop\n      jump\t// out\n        /* \"#utility.yul\":26170:26350   */\n    tag_473:\n        /* \"#utility.yul\":26218:26295   */\n      0x4e487b7100000000000000000000000000000000000000000000000000000000\n        /* \"#utility.yul\":26215:26216   */\n      0x00\n        /* \"#utility.yul\":26208:26296   */\n      mstore\n        /* \"#utility.yul\":26315:26319   */\n      0x11\n        /* \"#utility.yul\":26312:26313   */\n      0x04\n        /* \"#utility.yul\":26305:26320   */\n      mstore\n        /* \"#utility.yul\":26339:26343   */\n      0x24\n        /* \"#utility.yul\":26336:26337   */\n      0x00\n        /* \"#utility.yul\":26329:26344   */\n      revert\n        /* \"#utility.yul\":26356:26766   */\n    tag_215:\n        /* \"#utility.yul\":26396:26403   */\n      0x00\n        /* \"#utility.yul\":26419:26439   */\n      tag_750\n        /* \"#utility.yul\":26437:26438   */\n      dup3\n        /* \"#utility.yul\":26419:26439   */\n      tag_403\n      jump\t// in\n    tag_750:\n        /* \"#utility.yul\":26414:26439   */\n      swap2\n      pop\n        /* \"#utility.yul\":26453:26473   */\n      tag_751\n        /* \"#utility.yul\":26471:26472   */\n      dup4\n        /* \"#utility.yul\":26453:26473   */\n      tag_403\n      jump\t// in\n    tag_751:\n        /* \"#utility.yul\":26448:26473   */\n      swap3\n      pop\n        /* \"#utility.yul\":26508:26509   */\n      dup3\n        /* \"#utility.yul\":26505:26506   */\n      dup3\n        /* \"#utility.yul\":26501:26510   */\n      mul\n        /* \"#utility.yul\":26530:26560   */\n      tag_752\n        /* \"#utility.yul\":26548:26559   */\n      dup2\n        /* \"#utility.yul\":26530:26560   */\n      tag_403\n      jump\t// in\n    tag_752:\n        /* \"#utility.yul\":26519:26560   */\n      swap2\n      pop\n        /* \"#utility.yul\":26709:26710   */\n      dup3\n        /* \"#utility.yul\":26700:26707   */\n      dup3\n        /* \"#utility.yul\":26696:26711   */\n      div\n        /* \"#utility.yul\":26693:26694   */\n      dup5\n        /* \"#utility.yul\":26690:26712   */\n      eq\n        /* \"#utility.yul\":26670:26671   */\n      dup4\n        /* \"#utility.yul\":26663:26672   */\n      iszero\n        /* \"#utility.yul\":26643:26726   */\n      or\n        /* \"#utility.yul\":26620:26759   */\n      tag_753\n      jumpi\n        /* \"#utility.yul\":26739:26757   */\n      tag_754\n      tag_473\n      jump\t// in\n    tag_754:\n        /* \"#utility.yul\":26620:26759   */\n    tag_753:\n        /* \"#utility.yul\":26404:26766   */\n      pop\n        /* \"#utility.yul\":26356:26766   */\n      swap3\n      swap2\n      pop\n      pop\n      jump\t// out\n        /* \"#utility.yul\":26772:26952   */\n    tag_474:\n        /* \"#utility.yul\":26820:26897   */\n      0x4e487b7100000000000000000000000000000000000000000000000000000000\n        /* \"#utility.yul\":26817:26818   */\n      0x00\n        /* \"#utility.yul\":26810:26898   */\n      mstore\n        /* \"#utility.yul\":26917:26921   */\n      0x12\n        /* \"#utility.yul\":26914:26915   */\n      0x04\n        /* \"#utility.yul\":26907:26922   */\n      mstore\n        /* \"#utility.yul\":26941:26945   */\n      0x24\n        /* \"#utility.yul\":26938:26939   */\n      0x00\n        /* \"#utility.yul\":26931:26946   */\n      revert\n        /* \"#utility.yul\":26958:27143   */\n    tag_217:\n        /* \"#utility.yul\":26998:26999   */\n      0x00\n        /* \"#utility.yul\":27015:27035   */\n      tag_757\n        /* \"#utility.yul\":27033:27034   */\n      dup3\n        /* \"#utility.yul\":27015:27035   */\n      tag_403\n      jump\t// in\n    tag_757:\n        /* \"#utility.yul\":27010:27035   */\n      swap2\n      pop\n        /* \"#utility.yul\":27049:27069   */\n      tag_758\n        /* \"#utility.yul\":27067:27068   */\n      dup4\n        /* \"#utility.yul\":27049:27069   */\n      tag_403\n      jump\t// in\n    tag_758:\n        /* \"#utility.yul\":27044:27069   */\n      swap3\n      pop\n        /* \"#utility.yul\":27088:27089   */\n      dup3\n        /* \"#utility.yul\":27078:27113   */\n      tag_759\n      jumpi\n        /* \"#utility.yul\":27093:27111   */\n      tag_760\n      tag_474\n      jump\t// in\n    tag_760:\n        /* \"#utility.yul\":27078:27113   */\n    tag_759:\n        /* \"#utility.yul\":27135:27136   */\n      dup3\n        /* \"#utility.yul\":27132:27133   */\n      dup3\n        /* \"#utility.yul\":27128:27137   */\n      div\n        /* \"#utility.yul\":27123:27137   */\n      swap1\n      pop\n        /* \"#utility.yul\":26958:27143   */\n      swap3\n      swap2\n      pop\n      pop\n      jump\t// out\n        /* \"#utility.yul\":27149:27343   */\n    tag_219:\n        /* \"#utility.yul\":27189:27193   */\n      0x00\n        /* \"#utility.yul\":27209:27229   */\n      tag_762\n        /* \"#utility.yul\":27227:27228   */\n      dup3\n        /* \"#utility.yul\":27209:27229   */\n      tag_403\n      jump\t// in\n    tag_762:\n        /* \"#utility.yul\":27204:27229   */\n      swap2\n      pop\n        /* \"#utility.yul\":27243:27263   */\n      tag_763\n        /* \"#utility.yul\":27261:27262   */\n      dup4\n        /* \"#utility.yul\":27243:27263   */\n      tag_403\n      jump\t// in\n    tag_763:\n        /* \"#utility.yul\":27238:27263   */\n      swap3\n      pop\n        /* \"#utility.yul\":27287:27288   */\n      dup3\n        /* \"#utility.yul\":27284:27285   */\n      dup3\n        /* \"#utility.yul\":27280:27289   */\n      sub\n        /* \"#utility.yul\":27272:27289   */\n      swap1\n      pop\n        /* \"#utility.yul\":27311:27312   */\n      dup2\n        /* \"#utility.yul\":27305:27309   */\n      dup2\n        /* \"#utility.yul\":27302:27313   */\n      gt\n        /* \"#utility.yul\":27299:27336   */\n      iszero\n      tag_764\n      jumpi\n        /* \"#utility.yul\":27316:27334   */\n      tag_765\n      tag_473\n      jump\t// in\n    tag_765:\n        /* \"#utility.yul\":27299:27336   */\n    tag_764:\n        /* \"#utility.yul\":27149:27343   */\n      swap3\n      swap2\n      pop\n      pop\n      jump\t// out\n        /* \"#utility.yul\":27349:27520   */\n    tag_475:\n        /* \"#utility.yul\":27489:27512   */\n      0x53656c6c6572207061796d656e74206661696c65640000000000000000000000\n        /* \"#utility.yul\":27485:27486   */\n      0x00\n        /* \"#utility.yul\":27477:27483   */\n      dup3\n        /* \"#utility.yul\":27473:27487   */\n      add\n        /* \"#utility.yul\":27466:27513   */\n      mstore\n        /* \"#utility.yul\":27349:27520   */\n      pop\n      jump\t// out\n        /* \"#utility.yul\":27526:27892   */\n    tag_476:\n        /* \"#utility.yul\":27668:27671   */\n      0x00\n        /* \"#utility.yul\":27689:27756   */\n      tag_768\n        /* \"#utility.yul\":27753:27755   */\n      0x15\n        /* \"#utility.yul\":27748:27751   */\n      dup4\n        /* \"#utility.yul\":27689:27756   */\n      tag_432\n      jump\t// in\n    tag_768:\n        /* \"#utility.yul\":27682:27756   */\n      swap2\n      pop\n        /* \"#utility.yul\":27765:27858   */\n      tag_769\n        /* \"#utility.yul\":27854:27857   */\n      dup3\n        /* \"#utility.yul\":27765:27858   */\n      tag_475\n      jump\t// in\n    tag_769:\n        /* \"#utility.yul\":27883:27885   */\n      0x20\n        /* \"#utility.yul\":27878:27881   */\n      dup3\n        /* \"#utility.yul\":27874:27886   */\n      add\n        /* \"#utility.yul\":27867:27886   */\n      swap1\n      pop\n        /* \"#utility.yul\":27526:27892   */\n      swap2\n      swap1\n      pop\n      jump\t// out\n        /* \"#utility.yul\":27898:28317   */\n    tag_233:\n        /* \"#utility.yul\":28064:28068   */\n      0x00\n        /* \"#utility.yul\":28102:28104   */\n      0x20\n        /* \"#utility.yul\":28091:28100   */\n      dup3\n        /* \"#utility.yul\":28087:28105   */\n      add\n        /* \"#utility.yul\":28079:28105   */\n      swap1\n      pop\n        /* \"#utility.yul\":28151:28160   */\n      dup2\n        /* \"#utility.yul\":28145:28149   */\n      dup2\n        /* \"#utility.yul\":28141:28161   */\n      sub\n        /* \"#utility.yul\":28137:28138   */\n      0x00\n        /* \"#utility.yul\":28126:28135   */\n      dup4\n        /* \"#utility.yul\":28122:28139   */\n      add\n        /* \"#utility.yul\":28115:28162   */\n      mstore\n        /* \"#utility.yul\":28179:28310   */\n      tag_771\n        /* \"#utility.yul\":28305:28309   */\n      dup2\n        /* \"#utility.yul\":28179:28310   */\n      tag_476\n      jump\t// in\n    tag_771:\n        /* \"#utility.yul\":28171:28310   */\n      swap1\n      pop\n        /* \"#utility.yul\":27898:28317   */\n      swap2\n      swap1\n      pop\n      jump\t// out\n        /* \"#utility.yul\":28323:28494   */\n    tag_477:\n        /* \"#utility.yul\":28463:28486   */\n      0x576f726b6572207061796d656e74206661696c65640000000000000000000000\n        /* \"#utility.yul\":28459:28460   */\n      0x00\n        /* \"#utility.yul\":28451:28457   */\n      dup3\n        /* \"#utility.yul\":28447:28461   */\n      add\n        /* \"#utility.yul\":28440:28487   */\n      mstore\n        /* \"#utility.yul\":28323:28494   */\n      pop\n      jump\t// out\n        /* \"#utility.yul\":28500:28866   */\n    tag_478:\n        /* \"#utility.yul\":28642:28645   */\n      0x00\n        /* \"#utility.yul\":28663:28730   */\n      tag_774\n        /* \"#utility.yul\":28727:28729   */\n      0x15\n        /* \"#utility.yul\":28722:28725   */\n      dup4\n        /* \"#utility.yul\":28663:28730   */\n      tag_432\n      jump\t// in\n    tag_774:\n        /* \"#utility.yul\":28656:28730   */\n      swap2\n      pop\n        /* \"#utility.yul\":28739:28832   */\n      tag_775\n        /* \"#utility.yul\":28828:28831   */\n      dup3\n        /* \"#utility.yul\":28739:28832   */\n      tag_477\n      jump\t// in\n    tag_775:\n        /* \"#utility.yul\":28857:28859   */\n      0x20\n        /* \"#utility.yul\":28852:28855   */\n      dup3\n        /* \"#utility.yul\":28848:28860   */\n      add\n        /* \"#utility.yul\":28841:28860   */\n      swap1\n      pop\n        /* \"#utility.yul\":28500:28866   */\n      swap2\n      swap1\n      pop\n      jump\t// out\n        /* \"#utility.yul\":28872:29291   */\n    tag_241:\n        /* \"#utility.yul\":29038:29042   */\n      0x00\n        /* \"#utility.yul\":29076:29078   */\n      0x20\n        /* \"#utility.yul\":29065:29074   */\n      dup3\n        /* \"#utility.yul\":29061:29079   */\n      add\n        /* \"#utility.yul\":29053:29079   */\n      swap1\n      pop\n        /* \"#utility.yul\":29125:29134   */\n      dup2\n        /* \"#utility.yul\":29119:29123   */\n      dup2\n        /* \"#utility.yul\":29115:29135   */\n      sub\n        /* \"#utility.yul\":29111:29112   */\n      0x00\n        /* \"#utility.yul\":29100:29109   */\n      dup4\n        /* \"#utility.yul\":29096:29113   */\n      add\n        /* \"#utility.yul\":29089:29136   */\n      mstore\n        /* \"#utility.yul\":29153:29284   */\n      tag_777\n        /* \"#utility.yul\":29279:29283   */\n      dup2\n        /* \"#utility.yul\":29153:29284   */\n      tag_478\n      jump\t// in\n    tag_777:\n        /* \"#utility.yul\":29145:29284   */\n      swap1\n      pop\n        /* \"#utility.yul\":28872:29291   */\n      swap2\n      swap1\n      pop\n      jump\t// out\n        /* \"#utility.yul\":29297:29465   */\n    tag_479:\n        /* \"#utility.yul\":29437:29457   */\n      0x466565207061796d656e74206661696c65640000000000000000000000000000\n        /* \"#utility.yul\":29433:29434   */\n      0x00\n        /* \"#utility.yul\":29425:29431   */\n      dup3\n        /* \"#utility.yul\":29421:29435   */\n      add\n        /* \"#utility.yul\":29414:29458   */\n      mstore\n        /* \"#utility.yul\":29297:29465   */\n      pop\n      jump\t// out\n        /* \"#utility.yul\":29471:29837   */\n    tag_480:\n        /* \"#utility.yul\":29613:29616   */\n      0x00\n        /* \"#utility.yul\":29634:29701   */\n      tag_780\n        /* \"#utility.yul\":29698:29700   */\n      0x12\n        /* \"#utility.yul\":29693:29696   */\n      dup4\n        /* \"#utility.yul\":29634:29701   */\n      tag_432\n      jump\t// in\n    tag_780:\n        /* \"#utility.yul\":29627:29701   */\n      swap2\n      pop\n        /* \"#utility.yul\":29710:29803   */\n      tag_781\n        /* \"#utility.yul\":29799:29802   */\n      dup3\n        /* \"#utility.yul\":29710:29803   */\n      tag_479\n      jump\t// in\n    tag_781:\n        /* \"#utility.yul\":29828:29830   */\n      0x20\n        /* \"#utility.yul\":29823:29826   */\n      dup3\n        /* \"#utility.yul\":29819:29831   */\n      add\n        /* \"#utility.yul\":29812:29831   */\n      swap1\n      pop\n        /* \"#utility.yul\":29471:29837   */\n      swap2\n      swap1\n      pop\n      jump\t// out\n        /* \"#utility.yul\":29843:30262   */\n    tag_248:\n        /* \"#utility.yul\":30009:30013   */\n      0x00\n        /* \"#utility.yul\":30047:30049   */\n      0x20\n        /* \"#utility.yul\":30036:30045   */\n      dup3\n        /* \"#utility.yul\":30032:30050   */\n      add\n        /* \"#utility.yul\":30024:30050   */\n      swap1\n      pop\n        /* \"#utility.yul\":30096:30105   */\n      dup2\n        /* \"#utility.yul\":30090:30094   */\n      dup2\n        /* \"#utility.yul\":30086:30106   */\n      sub\n        /* \"#utility.yul\":30082:30083   */\n      0x00\n        /* \"#utility.yul\":30071:30080   */\n      dup4\n        /* \"#utility.yul\":30067:30084   */\n      add\n        /* \"#utility.yul\":30060:30107   */\n      mstore\n        /* \"#utility.yul\":30124:30255   */\n      tag_783\n        /* \"#utility.yul\":30250:30254   */\n      dup2\n        /* \"#utility.yul\":30124:30255   */\n      tag_480\n      jump\t// in\n    tag_783:\n        /* \"#utility.yul\":30116:30255   */\n      swap1\n      pop\n        /* \"#utility.yul\":29843:30262   */\n      swap2\n      swap1\n      pop\n      jump\t// out\n        /* \"#utility.yul\":30268:30600   */\n    tag_254:\n        /* \"#utility.yul\":30389:30393   */\n      0x00\n        /* \"#utility.yul\":30427:30429   */\n      0x40\n        /* \"#utility.yul\":30416:30425   */\n      dup3\n        /* \"#utility.yul\":30412:30430   */\n      add\n        /* \"#utility.yul\":30404:30430   */\n      swap1\n      pop\n        /* \"#utility.yul\":30440:30511   */\n      tag_785\n        /* \"#utility.yul\":30508:30509   */\n      0x00\n        /* \"#utility.yul\":30497:30506   */\n      dup4\n        /* \"#utility.yul\":30493:30510   */\n      add\n        /* \"#utility.yul\":30484:30490   */\n      dup6\n        /* \"#utility.yul\":30440:30511   */\n      tag_406\n      jump\t// in\n    tag_785:\n        /* \"#utility.yul\":30521:30593   */\n      tag_786\n        /* \"#utility.yul\":30589:30591   */\n      0x20\n        /* \"#utility.yul\":30578:30587   */\n      dup4\n        /* \"#utility.yul\":30574:30592   */\n      add\n        /* \"#utility.yul\":30565:30571   */\n      dup5\n        /* \"#utility.yul\":30521:30593   */\n      tag_406\n      jump\t// in\n    tag_786:\n        /* \"#utility.yul\":30268:30600   */\n      swap4\n      swap3\n      pop\n      pop\n      pop\n      jump\t// out\n        /* \"#utility.yul\":30606:30773   */\n    tag_481:\n        /* \"#utility.yul\":30746:30765   */\n      0x457363726f77206e6f742066756e646564000000000000000000000000000000\n        /* \"#utility.yul\":30742:30743   */\n      0x00\n        /* \"#utility.yul\":30734:30740   */\n      dup3\n        /* \"#utility.yul\":30730:30744   */\n      add\n        /* \"#utility.yul\":30723:30766   */\n      mstore\n        /* \"#utility.yul\":30606:30773   */\n      pop\n      jump\t// out\n        /* \"#utility.yul\":30779:31145   */\n    tag_482:\n        /* \"#utility.yul\":30921:30924   */\n      0x00\n        /* \"#utility.yul\":30942:31009   */\n      tag_789\n        /* \"#utility.yul\":31006:31008   */\n      0x11\n        /* \"#utility.yul\":31001:31004   */\n      dup4\n        /* \"#utility.yul\":30942:31009   */\n      tag_432\n      jump\t// in\n    tag_789:\n        /* \"#utility.yul\":30935:31009   */\n      swap2\n      pop\n        /* \"#utility.yul\":31018:31111   */\n      tag_790\n        /* \"#utility.yul\":31107:31110   */\n      dup3\n        /* \"#utility.yul\":31018:31111   */\n      tag_481\n      jump\t// in\n    tag_790:\n        /* \"#utility.yul\":31136:31138   */\n      0x20\n        /* \"#utility.yul\":31131:31134   */\n      dup3\n        /* \"#utility.yul\":31127:31139   */\n      add\n        /* \"#utility.yul\":31120:31139   */\n      swap1\n      pop\n        /* \"#utility.yul\":30779:31145   */\n      swap2\n      swap1\n      pop\n      jump\t// out\n        /* \"#utility.yul\":31151:31570   */\n    tag_269:\n        /* \"#utility.yul\":31317:31321   */\n      0x00\n        /* \"#utility.yul\":31355:31357   */\n      0x20\n        /* \"#utility.yul\":31344:31353   */\n      dup3\n        /* \"#utility.yul\":31340:31358   */\n      add\n        /* \"#utility.yul\":31332:31358   */\n      swap1\n      pop\n        /* \"#utility.yul\":31404:31413   */\n      dup2\n        /* \"#utility.yul\":31398:31402   */\n      dup2\n        /* \"#utility.yul\":31394:31414   */\n      sub\n        /* \"#utility.yul\":31390:31391   */\n      0x00\n        /* \"#utility.yul\":31379:31388   */\n      dup4\n        /* \"#utility.yul\":31375:31392   */\n      add\n        /* \"#utility.yul\":31368:31415   */\n      mstore\n        /* \"#utility.yul\":31432:31563   */\n      tag_792\n        /* \"#utility.yul\":31558:31562   */\n      dup2\n        /* \"#utility.yul\":31432:31563   */\n      tag_482\n      jump\t// in\n    tag_792:\n        /* \"#utility.yul\":31424:31563   */\n      swap1\n      pop\n        /* \"#utility.yul\":31151:31570   */\n      swap2\n      swap1\n      pop\n      jump\t// out\n        /* \"#utility.yul\":31576:31757   */\n    tag_483:\n        /* \"#utility.yul\":31716:31749   */\n      0x4f6e6c792073656c6c65722063616e207375626d69742064656c697665727900\n        /* \"#utility.yul\":31712:31713   */\n      0x00\n        /* \"#utility.yul\":31704:31710   */\n      dup3\n        /* \"#utility.yul\":31700:31714   */\n      add\n        /* \"#utility.yul\":31693:31750   */\n      mstore\n        /* \"#utility.yul\":31576:31757   */\n      pop\n      jump\t// out\n        /* \"#utility.yul\":31763:32129   */\n    tag_484:\n        /* \"#utility.yul\":31905:31908   */\n      0x00\n        /* \"#utility.yul\":31926:31993   */\n      tag_795\n        /* \"#utility.yul\":31990:31992   */\n      0x1f\n        /* \"#utility.yul\":31985:31988   */\n      dup4\n        /* \"#utility.yul\":31926:31993   */\n      tag_432\n      jump\t// in\n    tag_795:\n        /* \"#utility.yul\":31919:31993   */\n      swap2\n      pop\n        /* \"#utility.yul\":32002:32095   */\n      tag_796\n        /* \"#utility.yul\":32091:32094   */\n      dup3\n        /* \"#utility.yul\":32002:32095   */\n      tag_483\n      jump\t// in\n    tag_796:\n        /* \"#utility.yul\":32120:32122   */\n      0x20\n        /* \"#utility.yul\":32115:32118   */\n      dup3\n        /* \"#utility.yul\":32111:32123   */\n      add\n        /* \"#utility.yul\":32104:32123   */\n      swap1\n      pop\n        /* \"#utility.yul\":31763:32129   */\n      swap2\n      swap1\n      pop\n      jump\t// out\n        /* \"#utility.yul\":32135:32554   */\n    tag_277:\n        /* \"#utility.yul\":32301:32305   */\n      0x00\n        /* \"#utility.yul\":32339:32341   */\n      0x20\n        /* \"#utility.yul\":32328:32337   */\n      dup3\n        /* \"#utility.yul\":32324:32342   */\n      add\n        /* \"#utility.yul\":32316:32342   */\n      swap1\n      pop\n        /* \"#utility.yul\":32388:32397   */\n      dup2\n        /* \"#utility.yul\":32382:32386   */\n      dup2\n        /* \"#utility.yul\":32378:32398   */\n      sub\n        /* \"#utility.yul\":32374:32375   */\n      0x00\n        /* \"#utility.yul\":32363:32372   */\n      dup4\n        /* \"#utility.yul\":32359:32376   */\n      add\n        /* \"#utility.yul\":32352:32399   */\n      mstore\n        /* \"#utility.yul\":32416:32547   */\n      tag_798\n        /* \"#utility.yul\":32542:32546   */\n      dup2\n        /* \"#utility.yul\":32416:32547   */\n      tag_484\n      jump\t// in\n    tag_798:\n        /* \"#utility.yul\":32408:32547   */\n      swap1\n      pop\n        /* \"#utility.yul\":32135:32554   */\n      swap2\n      swap1\n      pop\n      jump\t// out\n        /* \"#utility.yul\":32560:32739   */\n    tag_485:\n        /* \"#utility.yul\":32700:32731   */\n      0x4f6e6c7920776f726b65722063616e207375626d697420626f756e7479000000\n        /* \"#utility.yul\":32696:32697   */\n      0x00\n        /* \"#utility.yul\":32688:32694   */\n      dup3\n        /* \"#utility.yul\":32684:32698   */\n      add\n        /* \"#utility.yul\":32677:32732   */\n      mstore\n        /* \"#utility.yul\":32560:32739   */\n      pop\n      jump\t// out\n        /* \"#utility.yul\":32745:33111   */\n    tag_486:\n        /* \"#utility.yul\":32887:32890   */\n      0x00\n        /* \"#utility.yul\":32908:32975   */\n      tag_801\n        /* \"#utility.yul\":32972:32974   */\n      0x1d\n        /* \"#utility.yul\":32967:32970   */\n      dup4\n        /* \"#utility.yul\":32908:32975   */\n      tag_432\n      jump\t// in\n    tag_801:\n        /* \"#utility.yul\":32901:32975   */\n      swap2\n      pop\n        /* \"#utility.yul\":32984:33077   */\n      tag_802\n        /* \"#utility.yul\":33073:33076   */\n      dup3\n        /* \"#utility.yul\":32984:33077   */\n      tag_485\n      jump\t// in\n    tag_802:\n        /* \"#utility.yul\":33102:33104   */\n      0x20\n        /* \"#utility.yul\":33097:33100   */\n      dup3\n        /* \"#utility.yul\":33093:33105   */\n      add\n        /* \"#utility.yul\":33086:33105   */\n      swap1\n      pop\n        /* \"#utility.yul\":32745:33111   */\n      swap2\n      swap1\n      pop\n      jump\t// out\n        /* \"#utility.yul\":33117:33536   */\n    tag_281:\n        /* \"#utility.yul\":33283:33287   */\n      0x00\n        /* \"#utility.yul\":33321:33323   */\n      0x20\n        /* \"#utility.yul\":33310:33319   */\n      dup3\n        /* \"#utility.yul\":33306:33324   */\n      add\n        /* \"#utility.yul\":33298:33324   */\n      swap1\n      pop\n        /* \"#utility.yul\":33370:33379   */\n      dup2\n        /* \"#utility.yul\":33364:33368   */\n      dup2\n        /* \"#utility.yul\":33360:33380   */\n      sub\n        /* \"#utility.yul\":33356:33357   */\n      0x00\n        /* \"#utility.yul\":33345:33354   */\n      dup4\n        /* \"#utility.yul\":33341:33358   */\n      add\n        /* \"#utility.yul\":33334:33381   */\n      mstore\n        /* \"#utility.yul\":33398:33529   */\n      tag_804\n        /* \"#utility.yul\":33524:33528   */\n      dup2\n        /* \"#utility.yul\":33398:33529   */\n      tag_486\n      jump\t// in\n    tag_804:\n        /* \"#utility.yul\":33390:33529   */\n      swap1\n      pop\n        /* \"#utility.yul\":33117:33536   */\n      swap2\n      swap1\n      pop\n      jump\t// out\n        /* \"#utility.yul\":33542:33704   */\n    tag_487:\n        /* \"#utility.yul\":33682:33696   */\n      0x46656520746f6f20686967680000000000000000000000000000000000000000\n        /* \"#utility.yul\":33678:33679   */\n      0x00\n        /* \"#utility.yul\":33670:33676   */\n      dup3\n        /* \"#utility.yul\":33666:33680   */\n      add\n        /* \"#utility.yul\":33659:33697   */\n      mstore\n        /* \"#utility.yul\":33542:33704   */\n      pop\n      jump\t// out\n        /* \"#utility.yul\":33710:34076   */\n    tag_488:\n        /* \"#utility.yul\":33852:33855   */\n      0x00\n        /* \"#utility.yul\":33873:33940   */\n      tag_807\n        /* \"#utility.yul\":33937:33939   */\n      0x0c\n        /* \"#utility.yul\":33932:33935   */\n      dup4\n        /* \"#utility.yul\":33873:33940   */\n      tag_432\n      jump\t// in\n    tag_807:\n        /* \"#utility.yul\":33866:33940   */\n      swap2\n      pop\n        /* \"#utility.yul\":33949:34042   */\n      tag_808\n        /* \"#utility.yul\":34038:34041   */\n      dup3\n        /* \"#utility.yul\":33949:34042   */\n      tag_487\n      jump\t// in\n    tag_808:\n        /* \"#utility.yul\":34067:34069   */\n      0x20\n        /* \"#utility.yul\":34062:34065   */\n      dup3\n        /* \"#utility.yul\":34058:34070   */\n      add\n        /* \"#utility.yul\":34051:34070   */\n      swap1\n      pop\n        /* \"#utility.yul\":33710:34076   */\n      swap2\n      swap1\n      pop\n      jump\t// out\n        /* \"#utility.yul\":34082:34501   */\n    tag_294:\n        /* \"#utility.yul\":34248:34252   */\n      0x00\n        /* \"#utility.yul\":34286:34288   */\n      0x20\n        /* \"#utility.yul\":34275:34284   */\n      dup3\n        /* \"#utility.yul\":34271:34289   */\n      add\n        /* \"#utility.yul\":34263:34289   */\n      swap1\n      pop\n        /* \"#utility.yul\":34335:34344   */\n      dup2\n        /* \"#utility.yul\":34329:34333   */\n      dup2\n        /* \"#utility.yul\":34325:34345   */\n      sub\n        /* \"#utility.yul\":34321:34322   */\n      0x00\n        /* \"#utility.yul\":34310:34319   */\n      dup4\n        /* \"#utility.yul\":34306:34323   */\n      add\n        /* \"#utility.yul\":34299:34346   */\n      mstore\n        /* \"#utility.yul\":34363:34494   */\n      tag_810\n        /* \"#utility.yul\":34489:34493   */\n      dup2\n        /* \"#utility.yul\":34363:34494   */\n      tag_488\n      jump\t// in\n    tag_810:\n        /* \"#utility.yul\":34355:34494   */\n      swap1\n      pop\n        /* \"#utility.yul\":34082:34501   */\n      swap2\n      swap1\n      pop\n      jump\t// out\n        /* \"#utility.yul\":34507:34679   */\n    tag_489:\n        /* \"#utility.yul\":34647:34671   */\n      0x4c697374696e6720646f6573206e6f7420657869737400000000000000000000\n        /* \"#utility.yul\":34643:34644   */\n      0x00\n        /* \"#utility.yul\":34635:34641   */\n      dup3\n        /* \"#utility.yul\":34631:34645   */\n      add\n        /* \"#utility.yul\":34624:34672   */\n      mstore\n        /* \"#utility.yul\":34507:34679   */\n      pop\n      jump\t// out\n        /* \"#utility.yul\":34685:35051   */\n    tag_490:\n        /* \"#utility.yul\":34827:34830   */\n      0x00\n        /* \"#utility.yul\":34848:34915   */\n      tag_813\n        /* \"#utility.yul\":34912:34914   */\n      0x16\n        /* \"#utility.yul\":34907:34910   */\n      dup4\n        /* \"#utility.yul\":34848:34915   */\n      tag_432\n      jump\t// in\n    tag_813:\n        /* \"#utility.yul\":34841:34915   */\n      swap2\n      pop\n        /* \"#utility.yul\":34924:35017   */\n      tag_814\n        /* \"#utility.yul\":35013:35016   */\n      dup3\n        /* \"#utility.yul\":34924:35017   */\n      tag_489\n      jump\t// in\n    tag_814:\n        /* \"#utility.yul\":35042:35044   */\n      0x20\n        /* \"#utility.yul\":35037:35040   */\n      dup3\n        /* \"#utility.yul\":35033:35045   */\n      add\n        /* \"#utility.yul\":35026:35045   */\n      swap1\n      pop\n        /* \"#utility.yul\":34685:35051   */\n      swap2\n      swap1\n      pop\n      jump\t// out\n        /* \"#utility.yul\":35057:35476   */\n    tag_303:\n        /* \"#utility.yul\":35223:35227   */\n      0x00\n        /* \"#utility.yul\":35261:35263   */\n      0x20\n        /* \"#utility.yul\":35250:35259   */\n      dup3\n        /* \"#utility.yul\":35246:35264   */\n      add\n        /* \"#utility.yul\":35238:35264   */\n      swap1\n      pop\n        /* \"#utility.yul\":35310:35319   */\n      dup2\n        /* \"#utility.yul\":35304:35308   */\n      dup2\n        /* \"#utility.yul\":35300:35320   */\n      sub\n        /* \"#utility.yul\":35296:35297   */\n      0x00\n        /* \"#utility.yul\":35285:35294   */\n      dup4\n        /* \"#utility.yul\":35281:35298   */\n      add\n        /* \"#utility.yul\":35274:35321   */\n      mstore\n        /* \"#utility.yul\":35338:35469   */\n      tag_816\n        /* \"#utility.yul\":35464:35468   */\n      dup2\n        /* \"#utility.yul\":35338:35469   */\n      tag_490\n      jump\t// in\n    tag_816:\n        /* \"#utility.yul\":35330:35469   */\n      swap1\n      pop\n        /* \"#utility.yul\":35057:35476   */\n      swap2\n      swap1\n      pop\n      jump\t// out\n        /* \"#utility.yul\":35482:35650   */\n    tag_491:\n        /* \"#utility.yul\":35622:35642   */\n      0x4c697374696e67206e6f74206163746976650000000000000000000000000000\n        /* \"#utility.yul\":35618:35619   */\n      0x00\n        /* \"#utility.yul\":35610:35616   */\n      dup3\n        /* \"#utility.yul\":35606:35620   */\n      add\n        /* \"#utility.yul\":35599:35643   */\n      mstore\n        /* \"#utility.yul\":35482:35650   */\n      pop\n      jump\t// out\n        /* \"#utility.yul\":35656:36022   */\n    tag_492:\n        /* \"#utility.yul\":35798:35801   */\n      0x00\n        /* \"#utility.yul\":35819:35886   */\n      tag_819\n        /* \"#utility.yul\":35883:35885   */\n      0x12\n        /* \"#utility.yul\":35878:35881   */\n      dup4\n        /* \"#utility.yul\":35819:35886   */\n      tag_432\n      jump\t// in\n    tag_819:\n        /* \"#utility.yul\":35812:35886   */\n      swap2\n      pop\n        /* \"#utility.yul\":35895:35988   */\n      tag_820\n        /* \"#utility.yul\":35984:35987   */\n      dup3\n        /* \"#utility.yul\":35895:35988   */\n      tag_491\n      jump\t// in\n    tag_820:\n        /* \"#utility.yul\":36013:36015   */\n      0x20\n        /* \"#utility.yul\":36008:36011   */\n      dup3\n        /* \"#utility.yul\":36004:36016   */\n      add\n        /* \"#utility.yul\":35997:36016   */\n      swap1\n      pop\n        /* \"#utility.yul\":35656:36022   */\n      swap2\n      swap1\n      pop\n      jump\t// out\n        /* \"#utility.yul\":36028:36447   */\n    tag_310:\n        /* \"#utility.yul\":36194:36198   */\n      0x00\n        /* \"#utility.yul\":36232:36234   */\n      0x20\n        /* \"#utility.yul\":36221:36230   */\n      dup3\n        /* \"#utility.yul\":36217:36235   */\n      add\n        /* \"#utility.yul\":36209:36235   */\n      swap1\n      pop\n        /* \"#utility.yul\":36281:36290   */\n      dup2\n        /* \"#utility.yul\":36275:36279   */\n      dup2\n        /* \"#utility.yul\":36271:36291   */\n      sub\n        /* \"#utility.yul\":36267:36268   */\n      0x00\n        /* \"#utility.yul\":36256:36265   */\n      dup4\n        /* \"#utility.yul\":36252:36269   */\n      add\n        /* \"#utility.yul\":36245:36292   */\n      mstore\n        /* \"#utility.yul\":36309:36440   */\n      tag_822\n        /* \"#utility.yul\":36435:36439   */\n      dup2\n        /* \"#utility.yul\":36309:36440   */\n      tag_492\n      jump\t// in\n    tag_822:\n        /* \"#utility.yul\":36301:36440   */\n      swap1\n      pop\n        /* \"#utility.yul\":36028:36447   */\n      swap2\n      swap1\n      pop\n      jump\t// out\n        /* \"#utility.yul\":36453:36673   */\n    tag_493:\n        /* \"#utility.yul\":36593:36627   */\n      0x43726561746f722063616e6e6f7420616363657074206f776e206c697374696e\n        /* \"#utility.yul\":36589:36590   */\n      0x00\n        /* \"#utility.yul\":36581:36587   */\n      dup3\n        /* \"#utility.yul\":36577:36591   */\n      add\n        /* \"#utility.yul\":36570:36628   */\n      mstore\n        /* \"#utility.yul\":36662:36665   */\n      0x6700000000000000000000000000000000000000000000000000000000000000\n        /* \"#utility.yul\":36657:36659   */\n      0x20\n        /* \"#utility.yul\":36649:36655   */\n      dup3\n        /* \"#utility.yul\":36645:36660   */\n      add\n        /* \"#utility.yul\":36638:36666   */\n      mstore\n        /* \"#utility.yul\":36453:36673   */\n      pop\n      jump\t// out\n        /* \"#utility.yul\":36679:37045   */\n    tag_494:\n        /* \"#utility.yul\":36821:36824   */\n      0x00\n        /* \"#utility.yul\":36842:36909   */\n      tag_825\n        /* \"#utility.yul\":36906:36908   */\n      0x21\n        /* \"#utility.yul\":36901:36904   */\n      dup4\n        /* \"#utility.yul\":36842:36909   */\n      tag_432\n      jump\t// in\n    tag_825:\n        /* \"#utility.yul\":36835:36909   */\n      swap2\n      pop\n        /* \"#utility.yul\":36918:37011   */\n      tag_826\n        /* \"#utility.yul\":37007:37010   */\n      dup3\n        /* \"#utility.yul\":36918:37011   */\n      tag_493\n      jump\t// in\n    tag_826:\n        /* \"#utility.yul\":37036:37038   */\n      0x40\n        /* \"#utility.yul\":37031:37034   */\n      dup3\n        /* \"#utility.yul\":37027:37039   */\n      add\n        /* \"#utility.yul\":37020:37039   */\n      swap1\n      pop\n        /* \"#utility.yul\":36679:37045   */\n      swap2\n      swap1\n      pop\n      jump\t// out\n        /* \"#utility.yul\":37051:37470   */\n    tag_313:\n        /* \"#utility.yul\":37217:37221   */\n      0x00\n        /* \"#utility.yul\":37255:37257   */\n      0x20\n        /* \"#utility.yul\":37244:37253   */\n      dup3\n        /* \"#utility.yul\":37240:37258   */\n      add\n        /* \"#utility.yul\":37232:37258   */\n      swap1\n      pop\n        /* \"#utility.yul\":37304:37313   */\n      dup2\n        /* \"#utility.yul\":37298:37302   */\n      dup2\n        /* \"#utility.yul\":37294:37314   */\n      sub\n        /* \"#utility.yul\":37290:37291   */\n      0x00\n        /* \"#utility.yul\":37279:37288   */\n      dup4\n        /* \"#utility.yul\":37275:37292   */\n      add\n        /* \"#utility.yul\":37268:37315   */\n      mstore\n        /* \"#utility.yul\":37332:37463   */\n      tag_828\n        /* \"#utility.yul\":37458:37462   */\n      dup2\n        /* \"#utility.yul\":37332:37463   */\n      tag_494\n      jump\t// in\n    tag_828:\n        /* \"#utility.yul\":37324:37463   */\n      swap1\n      pop\n        /* \"#utility.yul\":37051:37470   */\n      swap2\n      swap1\n      pop\n      jump\t// out\n        /* \"#utility.yul\":37476:37647   */\n    tag_495:\n        /* \"#utility.yul\":37616:37639   */\n      0x457363726f7720616c7265616479206578697374730000000000000000000000\n        /* \"#utility.yul\":37612:37613   */\n      0x00\n        /* \"#utility.yul\":37604:37610   */\n      dup3\n        /* \"#utility.yul\":37600:37614   */\n      add\n        /* \"#utility.yul\":37593:37640   */\n      mstore\n        /* \"#utility.yul\":37476:37647   */\n      pop\n      jump\t// out\n        /* \"#utility.yul\":37653:38019   */\n    tag_496:\n        /* \"#utility.yul\":37795:37798   */\n      0x00\n        /* \"#utility.yul\":37816:37883   */\n      tag_831\n        /* \"#utility.yul\":37880:37882   */\n      0x15\n        /* \"#utility.yul\":37875:37878   */\n      dup4\n        /* \"#utility.yul\":37816:37883   */\n      tag_432\n      jump\t// in\n    tag_831:\n        /* \"#utility.yul\":37809:37883   */\n      swap2\n      pop\n        /* \"#utility.yul\":37892:37985   */\n      tag_832\n        /* \"#utility.yul\":37981:37984   */\n      dup3\n        /* \"#utility.yul\":37892:37985   */\n      tag_495\n      jump\t// in\n    tag_832:\n        /* \"#utility.yul\":38010:38012   */\n      0x20\n        /* \"#utility.yul\":38005:38008   */\n      dup3\n        /* \"#utility.yul\":38001:38013   */\n      add\n        /* \"#utility.yul\":37994:38013   */\n      swap1\n      pop\n        /* \"#utility.yul\":37653:38019   */\n      swap2\n      swap1\n      pop\n      jump\t// out\n        /* \"#utility.yul\":38025:38444   */\n    tag_316:\n        /* \"#utility.yul\":38191:38195   */\n      0x00\n        /* \"#utility.yul\":38229:38231   */\n      0x20\n        /* \"#utility.yul\":38218:38227   */\n      dup3\n        /* \"#utility.yul\":38214:38232   */\n      add\n        /* \"#utility.yul\":38206:38232   */\n      swap1\n      pop\n        /* \"#utility.yul\":38278:38287   */\n      dup2\n        /* \"#utility.yul\":38272:38276   */\n      dup2\n        /* \"#utility.yul\":38268:38288   */\n      sub\n        /* \"#utility.yul\":38264:38265   */\n      0x00\n        /* \"#utility.yul\":38253:38262   */\n      dup4\n        /* \"#utility.yul\":38249:38266   */\n      add\n        /* \"#utility.yul\":38242:38289   */\n      mstore\n        /* \"#utility.yul\":38306:38437   */\n      tag_834\n        /* \"#utility.yul\":38432:38436   */\n      dup2\n        /* \"#utility.yul\":38306:38437   */\n      tag_496\n      jump\t// in\n    tag_834:\n        /* \"#utility.yul\":38298:38437   */\n      swap1\n      pop\n        /* \"#utility.yul\":38025:38444   */\n      swap2\n      swap1\n      pop\n      jump\t// out\n        /* \"#utility.yul\":38450:38801   */\n    tag_321:\n        /* \"#utility.yul\":38520:38526   */\n      0x00\n        /* \"#utility.yul\":38569:38571   */\n      0x20\n        /* \"#utility.yul\":38557:38566   */\n      dup3\n        /* \"#utility.yul\":38548:38555   */\n      dup5\n        /* \"#utility.yul\":38544:38567   */\n      sub\n        /* \"#utility.yul\":38540:38572   */\n      slt\n        /* \"#utility.yul\":38537:38656   */\n      iszero\n      tag_836\n      jumpi\n        /* \"#utility.yul\":38575:38654   */\n      tag_837\n      tag_401\n      jump\t// in\n    tag_837:\n        /* \"#utility.yul\":38537:38656   */\n    tag_836:\n        /* \"#utility.yul\":38695:38696   */\n      0x00\n        /* \"#utility.yul\":38720:38784   */\n      tag_838\n        /* \"#utility.yul\":38776:38783   */\n      dup5\n        /* \"#utility.yul\":38767:38773   */\n      dup3\n        /* \"#utility.yul\":38756:38765   */\n      dup6\n        /* \"#utility.yul\":38752:38774   */\n      add\n        /* \"#utility.yul\":38720:38784   */\n      tag_446\n      jump\t// in\n    tag_838:\n        /* \"#utility.yul\":38710:38784   */\n      swap2\n      pop\n        /* \"#utility.yul\":38666:38794   */\n      pop\n        /* \"#utility.yul\":38450:38801   */\n      swap3\n      swap2\n      pop\n      pop\n      jump\t// out\n        /* \"#utility.yul\":38807:38981   */\n    tag_497:\n        /* \"#utility.yul\":38947:38973   */\n      0x4e6f7420617070726f76656420666f72206c697374696e670000000000000000\n        /* \"#utility.yul\":38943:38944   */\n      0x00\n        /* \"#utility.yul\":38935:38941   */\n      dup3\n        /* \"#utility.yul\":38931:38945   */\n      add\n        /* \"#utility.yul\":38924:38974   */\n      mstore\n        /* \"#utility.yul\":38807:38981   */\n      pop\n      jump\t// out\n        /* \"#utility.yul\":38987:39353   */\n    tag_498:\n        /* \"#utility.yul\":39129:39132   */\n      0x00\n        /* \"#utility.yul\":39150:39217   */\n      tag_841\n        /* \"#utility.yul\":39214:39216   */\n      0x18\n        /* \"#utility.yul\":39209:39212   */\n      dup4\n        /* \"#utility.yul\":39150:39217   */\n      tag_432\n      jump\t// in\n    tag_841:\n        /* \"#utility.yul\":39143:39217   */\n      swap2\n      pop\n        /* \"#utility.yul\":39226:39319   */\n      tag_842\n        /* \"#utility.yul\":39315:39318   */\n      dup3\n        /* \"#utility.yul\":39226:39319   */\n      tag_497\n      jump\t// in\n    tag_842:\n        /* \"#utility.yul\":39344:39346   */\n      0x20\n        /* \"#utility.yul\":39339:39342   */\n      dup3\n        /* \"#utility.yul\":39335:39347   */\n      add\n        /* \"#utility.yul\":39328:39347   */\n      swap1\n      pop\n        /* \"#utility.yul\":38987:39353   */\n      swap2\n      swap1\n      pop\n      jump\t// out\n        /* \"#utility.yul\":39359:39778   */\n    tag_324:\n        /* \"#utility.yul\":39525:39529   */\n      0x00\n        /* \"#utility.yul\":39563:39565   */\n      0x20\n        /* \"#utility.yul\":39552:39561   */\n      dup3\n        /* \"#utility.yul\":39548:39566   */\n      add\n        /* \"#utility.yul\":39540:39566   */\n      swap1\n      pop\n        /* \"#utility.yul\":39612:39621   */\n      dup2\n        /* \"#utility.yul\":39606:39610   */\n      dup2\n        /* \"#utility.yul\":39602:39622   */\n      sub\n        /* \"#utility.yul\":39598:39599   */\n      0x00\n        /* \"#utility.yul\":39587:39596   */\n      dup4\n        /* \"#utility.yul\":39583:39600   */\n      add\n        /* \"#utility.yul\":39576:39623   */\n      mstore\n        /* \"#utility.yul\":39640:39771   */\n      tag_844\n        /* \"#utility.yul\":39766:39770   */\n      dup2\n        /* \"#utility.yul\":39640:39771   */\n      tag_498\n      jump\t// in\n    tag_844:\n        /* \"#utility.yul\":39632:39771   */\n      swap1\n      pop\n        /* \"#utility.yul\":39359:39778   */\n      swap2\n      swap1\n      pop\n      jump\t// out\n        /* \"#utility.yul\":39784:40226   */\n    tag_331:\n        /* \"#utility.yul\":39933:39937   */\n      0x00\n        /* \"#utility.yul\":39971:39973   */\n      0x60\n        /* \"#utility.yul\":39960:39969   */\n      dup3\n        /* \"#utility.yul\":39956:39974   */\n      add\n        /* \"#utility.yul\":39948:39974   */\n      swap1\n      pop\n        /* \"#utility.yul\":39984:40055   */\n      tag_846\n        /* \"#utility.yul\":40052:40053   */\n      0x00\n        /* \"#utility.yul\":40041:40050   */\n      dup4\n        /* \"#utility.yul\":40037:40054   */\n      add\n        /* \"#utility.yul\":40028:40034   */\n      dup7\n        /* \"#utility.yul\":39984:40055   */\n      tag_409\n      jump\t// in\n    tag_846:\n        /* \"#utility.yul\":40065:40137   */\n      tag_847\n        /* \"#utility.yul\":40133:40135   */\n      0x20\n        /* \"#utility.yul\":40122:40131   */\n      dup4\n        /* \"#utility.yul\":40118:40136   */\n      add\n        /* \"#utility.yul\":40109:40115   */\n      dup6\n        /* \"#utility.yul\":40065:40137   */\n      tag_409\n      jump\t// in\n    tag_847:\n        /* \"#utility.yul\":40147:40219   */\n      tag_848\n        /* \"#utility.yul\":40215:40217   */\n      0x40\n        /* \"#utility.yul\":40204:40213   */\n      dup4\n        /* \"#utility.yul\":40200:40218   */\n      add\n        /* \"#utility.yul\":40191:40197   */\n      dup5\n        /* \"#utility.yul\":40147:40219   */\n      tag_406\n      jump\t// in\n    tag_848:\n        /* \"#utility.yul\":39784:40226   */\n      swap5\n      swap4\n      pop\n      pop\n      pop\n      pop\n      jump\t// out\n        /* \"#utility.yul\":40232:40403   */\n    tag_499:\n        /* \"#utility.yul\":40372:40395   */\n      0x546f6b656e207472616e73666572206661696c65640000000000000000000000\n        /* \"#utility.yul\":40368:40369   */\n      0x00\n        /* \"#utility.yul\":40360:40366   */\n      dup3\n        /* \"#utility.yul\":40356:40370   */\n      add\n        /* \"#utility.yul\":40349:40396   */\n      mstore\n        /* \"#utility.yul\":40232:40403   */\n      pop\n      jump\t// out\n        /* \"#utility.yul\":40409:40775   */\n    tag_500:\n        /* \"#utility.yul\":40551:40554   */\n      0x00\n        /* \"#utility.yul\":40572:40639   */\n      tag_851\n        /* \"#utility.yul\":40636:40638   */\n      0x15\n        /* \"#utility.yul\":40631:40634   */\n      dup4\n        /* \"#utility.yul\":40572:40639   */\n      tag_432\n      jump\t// in\n    tag_851:\n        /* \"#utility.yul\":40565:40639   */\n      swap2\n      pop\n        /* \"#utility.yul\":40648:40741   */\n      tag_852\n        /* \"#utility.yul\":40737:40740   */\n      dup3\n        /* \"#utility.yul\":40648:40741   */\n      tag_499\n      jump\t// in\n    tag_852:\n        /* \"#utility.yul\":40766:40768   */\n      0x20\n        /* \"#utility.yul\":40761:40764   */\n      dup3\n        /* \"#utility.yul\":40757:40769   */\n      add\n        /* \"#utility.yul\":40750:40769   */\n      swap1\n      pop\n        /* \"#utility.yul\":40409:40775   */\n      swap2\n      swap1\n      pop\n      jump\t// out\n        /* \"#utility.yul\":40781:41200   */\n    tag_342:\n        /* \"#utility.yul\":40947:40951   */\n      0x00\n        /* \"#utility.yul\":40985:40987   */\n      0x20\n        /* \"#utility.yul\":40974:40983   */\n      dup3\n        /* \"#utility.yul\":40970:40988   */\n      add\n        /* \"#utility.yul\":40962:40988   */\n      swap1\n      pop\n        /* \"#utility.yul\":41034:41043   */\n      dup2\n        /* \"#utility.yul\":41028:41032   */\n      dup2\n        /* \"#utility.yul\":41024:41044   */\n      sub\n        /* \"#utility.yul\":41020:41021   */\n      0x00\n        /* \"#utility.yul\":41009:41018   */\n      dup4\n        /* \"#utility.yul\":41005:41022   */\n      add\n        /* \"#utility.yul\":40998:41045   */\n      mstore\n        /* \"#utility.yul\":41062:41193   */\n      tag_854\n        /* \"#utility.yul\":41188:41192   */\n      dup2\n        /* \"#utility.yul\":41062:41193   */\n      tag_500\n      jump\t// in\n    tag_854:\n        /* \"#utility.yul\":41054:41193   */\n      swap1\n      pop\n        /* \"#utility.yul\":40781:41200   */\n      swap2\n      swap1\n      pop\n      jump\t// out\n        /* \"#utility.yul\":41206:41538   */\n    tag_348:\n        /* \"#utility.yul\":41327:41331   */\n      0x00\n        /* \"#utility.yul\":41365:41367   */\n      0x40\n        /* \"#utility.yul\":41354:41363   */\n      dup3\n        /* \"#utility.yul\":41350:41368   */\n      add\n        /* \"#utility.yul\":41342:41368   */\n      swap1\n      pop\n        /* \"#utility.yul\":41378:41449   */\n      tag_856\n        /* \"#utility.yul\":41446:41447   */\n      0x00\n        /* \"#utility.yul\":41435:41444   */\n      dup4\n        /* \"#utility.yul\":41431:41448   */\n      add\n        /* \"#utility.yul\":41422:41428   */\n      dup6\n        /* \"#utility.yul\":41378:41449   */\n      tag_406\n      jump\t// in\n    tag_856:\n        /* \"#utility.yul\":41459:41531   */\n      tag_857\n        /* \"#utility.yul\":41527:41529   */\n      0x20\n        /* \"#utility.yul\":41516:41525   */\n      dup4\n        /* \"#utility.yul\":41512:41530   */\n      add\n        /* \"#utility.yul\":41503:41509   */\n      dup5\n        /* \"#utility.yul\":41459:41531   */\n      tag_409\n      jump\t// in\n    tag_857:\n        /* \"#utility.yul\":41206:41538   */\n      swap4\n      swap3\n      pop\n      pop\n      pop\n      jump\t// out\n        /* \"#utility.yul\":41544:41715   */\n    tag_501:\n        /* \"#utility.yul\":41684:41707   */\n      0x416c72656164792072656a6563746564206f6e63650000000000000000000000\n        /* \"#utility.yul\":41680:41681   */\n      0x00\n        /* \"#utility.yul\":41672:41678   */\n      dup3\n        /* \"#utility.yul\":41668:41682   */\n      add\n        /* \"#utility.yul\":41661:41708   */\n      mstore\n        /* \"#utility.yul\":41544:41715   */\n      pop\n      jump\t// out\n        /* \"#utility.yul\":41721:42087   */\n    tag_502:\n        /* \"#utility.yul\":41863:41866   */\n      0x00\n        /* \"#utility.yul\":41884:41951   */\n      tag_860\n        /* \"#utility.yul\":41948:41950   */\n      0x15\n        /* \"#utility.yul\":41943:41946   */\n      dup4\n        /* \"#utility.yul\":41884:41951   */\n      tag_432\n      jump\t// in\n    tag_860:\n        /* \"#utility.yul\":41877:41951   */\n      swap2\n      pop\n        /* \"#utility.yul\":41960:42053   */\n      tag_861\n        /* \"#utility.yul\":42049:42052   */\n      dup3\n        /* \"#utility.yul\":41960:42053   */\n      tag_501\n      jump\t// in\n    tag_861:\n        /* \"#utility.yul\":42078:42080   */\n      0x20\n        /* \"#utility.yul\":42073:42076   */\n      dup3\n        /* \"#utility.yul\":42069:42081   */\n      add\n        /* \"#utility.yul\":42062:42081   */\n      swap1\n      pop\n        /* \"#utility.yul\":41721:42087   */\n      swap2\n      swap1\n      pop\n      jump\t// out\n        /* \"#utility.yul\":42093:42512   */\n    tag_369:\n        /* \"#utility.yul\":42259:42263   */\n      0x00\n        /* \"#utility.yul\":42297:42299   */\n      0x20\n        /* \"#utility.yul\":42286:42295   */\n      dup3\n        /* \"#utility.yul\":42282:42300   */\n      add\n        /* \"#utility.yul\":42274:42300   */\n      swap1\n      pop\n        /* \"#utility.yul\":42346:42355   */\n      dup2\n        /* \"#utility.yul\":42340:42344   */\n      dup2\n        /* \"#utility.yul\":42336:42356   */\n      sub\n        /* \"#utility.yul\":42332:42333   */\n      0x00\n        /* \"#utility.yul\":42321:42330   */\n      dup4\n        /* \"#utility.yul\":42317:42334   */\n      add\n        /* \"#utility.yul\":42310:42357   */\n      mstore\n        /* \"#utility.yul\":42374:42505   */\n      tag_863\n        /* \"#utility.yul\":42500:42504   */\n      dup2\n        /* \"#utility.yul\":42374:42505   */\n      tag_502\n      jump\t// in\n    tag_863:\n        /* \"#utility.yul\":42366:42505   */\n      swap1\n      pop\n        /* \"#utility.yul\":42093:42512   */\n      swap2\n      swap1\n      pop\n      jump\t// out\n        /* \"#utility.yul\":42518:42699   */\n    tag_503:\n        /* \"#utility.yul\":42658:42691   */\n      0x4275796572206d7573742072656a656374206974656d2064656c697665727900\n        /* \"#utility.yul\":42654:42655   */\n      0x00\n        /* \"#utility.yul\":42646:42652   */\n      dup3\n        /* \"#utility.yul\":42642:42656   */\n      add\n        /* \"#utility.yul\":42635:42692   */\n      mstore\n        /* \"#utility.yul\":42518:42699   */\n      pop\n      jump\t// out\n        /* \"#utility.yul\":42705:43071   */\n    tag_504:\n        /* \"#utility.yul\":42847:42850   */\n      0x00\n        /* \"#utility.yul\":42868:42935   */\n      tag_866\n        /* \"#utility.yul\":42932:42934   */\n      0x1f\n        /* \"#utility.yul\":42927:42930   */\n      dup4\n        /* \"#utility.yul\":42868:42935   */\n      tag_432\n      jump\t// in\n    tag_866:\n        /* \"#utility.yul\":42861:42935   */\n      swap2\n      pop\n        /* \"#utility.yul\":42944:43037   */\n      tag_867\n        /* \"#utility.yul\":43033:43036   */\n      dup3\n        /* \"#utility.yul\":42944:43037   */\n      tag_503\n      jump\t// in\n    tag_867:\n        /* \"#utility.yul\":43062:43064   */\n      0x20\n        /* \"#utility.yul\":43057:43060   */\n      dup3\n        /* \"#utility.yul\":43053:43065   */\n      add\n        /* \"#utility.yul\":43046:43065   */\n      swap1\n      pop\n        /* \"#utility.yul\":42705:43071   */\n      swap2\n      swap1\n      pop\n      jump\t// out\n        /* \"#utility.yul\":43077:43496   */\n    tag_377:\n        /* \"#utility.yul\":43243:43247   */\n      0x00\n        /* \"#utility.yul\":43281:43283   */\n      0x20\n        /* \"#utility.yul\":43270:43279   */\n      dup3\n        /* \"#utility.yul\":43266:43284   */\n      add\n        /* \"#utility.yul\":43258:43284   */\n      swap1\n      pop\n        /* \"#utility.yul\":43330:43339   */\n      dup2\n        /* \"#utility.yul\":43324:43328   */\n      dup2\n        /* \"#utility.yul\":43320:43340   */\n      sub\n        /* \"#utility.yul\":43316:43317   */\n      0x00\n        /* \"#utility.yul\":43305:43314   */\n      dup4\n        /* \"#utility.yul\":43301:43318   */\n      add\n        /* \"#utility.yul\":43294:43341   */\n      mstore\n        /* \"#utility.yul\":43358:43489   */\n      tag_869\n        /* \"#utility.yul\":43484:43488   */\n      dup2\n        /* \"#utility.yul\":43358:43489   */\n      tag_504\n      jump\t// in\n    tag_869:\n        /* \"#utility.yul\":43350:43489   */\n      swap1\n      pop\n        /* \"#utility.yul\":43077:43496   */\n      swap2\n      swap1\n      pop\n      jump\t// out\n        /* \"#utility.yul\":43502:43683   */\n    tag_505:\n        /* \"#utility.yul\":43642:43675   */\n      0x426f756e74792063726561746f72206d7573742072656a65637420776f726b00\n        /* \"#utility.yul\":43638:43639   */\n      0x00\n        /* \"#utility.yul\":43630:43636   */\n      dup3\n        /* \"#utility.yul\":43626:43640   */\n      add\n        /* \"#utility.yul\":43619:43676   */\n      mstore\n        /* \"#utility.yul\":43502:43683   */\n      pop\n      jump\t// out\n        /* \"#utility.yul\":43689:44055   */\n    tag_506:\n        /* \"#utility.yul\":43831:43834   */\n      0x00\n        /* \"#utility.yul\":43852:43919   */\n      tag_872\n        /* \"#utility.yul\":43916:43918   */\n      0x1f\n        /* \"#utility.yul\":43911:43914   */\n      dup4\n        /* \"#utility.yul\":43852:43919   */\n      tag_432\n      jump\t// in\n    tag_872:\n        /* \"#utility.yul\":43845:43919   */\n      swap2\n      pop\n        /* \"#utility.yul\":43928:44021   */\n      tag_873\n        /* \"#utility.yul\":44017:44020   */\n      dup3\n        /* \"#utility.yul\":43928:44021   */\n      tag_505\n      jump\t// in\n    tag_873:\n        /* \"#utility.yul\":44046:44048   */\n      0x20\n        /* \"#utility.yul\":44041:44044   */\n      dup3\n        /* \"#utility.yul\":44037:44049   */\n      add\n        /* \"#utility.yul\":44030:44049   */\n      swap1\n      pop\n        /* \"#utility.yul\":43689:44055   */\n      swap2\n      swap1\n      pop\n      jump\t// out\n        /* \"#utility.yul\":44061:44480   */\n    tag_381:\n        /* \"#utility.yul\":44227:44231   */\n      0x00\n        /* \"#utility.yul\":44265:44267   */\n      0x20\n        /* \"#utility.yul\":44254:44263   */\n      dup3\n        /* \"#utility.yul\":44250:44268   */\n      add\n        /* \"#utility.yul\":44242:44268   */\n      swap1\n      pop\n        /* \"#utility.yul\":44314:44323   */\n      dup2\n        /* \"#utility.yul\":44308:44312   */\n      dup2\n        /* \"#utility.yul\":44304:44324   */\n      sub\n        /* \"#utility.yul\":44300:44301   */\n      0x00\n        /* \"#utility.yul\":44289:44298   */\n      dup4\n        /* \"#utility.yul\":44285:44302   */\n      add\n        /* \"#utility.yul\":44278:44325   */\n      mstore\n        /* \"#utility.yul\":44342:44473   */\n      tag_875\n        /* \"#utility.yul\":44468:44472   */\n      dup2\n        /* \"#utility.yul\":44342:44473   */\n      tag_506\n      jump\t// in\n    tag_875:\n        /* \"#utility.yul\":44334:44473   */\n      swap1\n      pop\n        /* \"#utility.yul\":44061:44480   */\n      swap2\n      swap1\n      pop\n      jump\t// out\n        /* \"#utility.yul\":44486:44634   */\n    tag_507:\n        /* \"#utility.yul\":44584:44590   */\n      dup3\n        /* \"#utility.yul\":44579:44582   */\n      dup2\n        /* \"#utility.yul\":44574:44577   */\n      dup4\n        /* \"#utility.yul\":44561:44591   */\n      calldatacopy\n        /* \"#utility.yul\":44625:44626   */\n      0x00\n        /* \"#utility.yul\":44616:44622   */\n      dup4\n        /* \"#utility.yul\":44611:44614   */\n      dup4\n        /* \"#utility.yul\":44607:44623   */\n      add\n        /* \"#utility.yul\":44600:44627   */\n      mstore\n        /* \"#utility.yul\":44486:44634   */\n      pop\n      pop\n      pop\n      jump\t// out\n        /* \"#utility.yul\":44664:44981   */\n    tag_508:\n        /* \"#utility.yul\":44762:44765   */\n      0x00\n        /* \"#utility.yul\":44783:44854   */\n      tag_878\n        /* \"#utility.yul\":44847:44853   */\n      dup4\n        /* \"#utility.yul\":44842:44845   */\n      dup6\n        /* \"#utility.yul\":44783:44854   */\n      tag_432\n      jump\t// in\n    tag_878:\n        /* \"#utility.yul\":44776:44854   */\n      swap4\n      pop\n        /* \"#utility.yul\":44864:44920   */\n      tag_879\n        /* \"#utility.yul\":44913:44919   */\n      dup4\n        /* \"#utility.yul\":44908:44911   */\n      dup6\n        /* \"#utility.yul\":44901:44906   */\n      dup5\n        /* \"#utility.yul\":44864:44920   */\n      tag_507\n      jump\t// in\n    tag_879:\n        /* \"#utility.yul\":44945:44974   */\n      tag_880\n        /* \"#utility.yul\":44967:44973   */\n      dup4\n        /* \"#utility.yul\":44945:44974   */\n      tag_440\n      jump\t// in\n    tag_880:\n        /* \"#utility.yul\":44940:44943   */\n      dup5\n        /* \"#utility.yul\":44936:44975   */\n      add\n        /* \"#utility.yul\":44929:44975   */\n      swap1\n      pop\n        /* \"#utility.yul\":44664:44981   */\n      swap4\n      swap3\n      pop\n      pop\n      pop\n      jump\t// out\n        /* \"#utility.yul\":44987:45320   */\n    tag_389:\n        /* \"#utility.yul\":45110:45114   */\n      0x00\n        /* \"#utility.yul\":45148:45150   */\n      0x20\n        /* \"#utility.yul\":45137:45146   */\n      dup3\n        /* \"#utility.yul\":45133:45151   */\n      add\n        /* \"#utility.yul\":45125:45151   */\n      swap1\n      pop\n        /* \"#utility.yul\":45197:45206   */\n      dup2\n        /* \"#utility.yul\":45191:45195   */\n      dup2\n        /* \"#utility.yul\":45187:45207   */\n      sub\n        /* \"#utility.yul\":45183:45184   */\n      0x00\n        /* \"#utility.yul\":45172:45181   */\n      dup4\n        /* \"#utility.yul\":45168:45185   */\n      add\n        /* \"#utility.yul\":45161:45208   */\n      mstore\n        /* \"#utility.yul\":45225:45313   */\n      tag_882\n        /* \"#utility.yul\":45308:45312   */\n      dup2\n        /* \"#utility.yul\":45299:45305   */\n      dup5\n        /* \"#utility.yul\":45291:45297   */\n      dup7\n        /* \"#utility.yul\":45225:45313   */\n      tag_508\n      jump\t// in\n    tag_882:\n        /* \"#utility.yul\":45217:45313   */\n      swap1\n      pop\n        /* \"#utility.yul\":44987:45320   */\n      swap4\n      swap3\n      pop\n      pop\n      pop\n      jump\t// out\n        /* \"#utility.yul\":45326:45497   */\n    tag_509:\n        /* \"#utility.yul\":45466:45489   */\n      0x496e76616c69642066656520726563697069656e740000000000000000000000\n        /* \"#utility.yul\":45462:45463   */\n      0x00\n        /* \"#utility.yul\":45454:45460   */\n      dup3\n        /* \"#utility.yul\":45450:45464   */\n      add\n        /* \"#utility.yul\":45443:45490   */\n      mstore\n        /* \"#utility.yul\":45326:45497   */\n      pop\n      jump\t// out\n        /* \"#utility.yul\":45503:45869   */\n    tag_510:\n        /* \"#utility.yul\":45645:45648   */\n      0x00\n        /* \"#utility.yul\":45666:45733   */\n      tag_885\n        /* \"#utility.yul\":45730:45732   */\n      0x15\n        /* \"#utility.yul\":45725:45728   */\n      dup4\n        /* \"#utility.yul\":45666:45733   */\n      tag_432\n      jump\t// in\n    tag_885:\n        /* \"#utility.yul\":45659:45733   */\n      swap2\n      pop\n        /* \"#utility.yul\":45742:45835   */\n      tag_886\n        /* \"#utility.yul\":45831:45834   */\n      dup3\n        /* \"#utility.yul\":45742:45835   */\n      tag_509\n      jump\t// in\n    tag_886:\n        /* \"#utility.yul\":45860:45862   */\n      0x20\n        /* \"#utility.yul\":45855:45858   */\n      dup3\n        /* \"#utility.yul\":45851:45863   */\n      add\n        /* \"#utility.yul\":45844:45863   */\n      swap1\n      pop\n        /* \"#utility.yul\":45503:45869   */\n      swap2\n      swap1\n      pop\n      jump\t// out\n        /* \"#utility.yul\":45875:46294   */\n    tag_396:\n        /* \"#utility.yul\":46041:46045   */\n      0x00\n        /* \"#utility.yul\":46079:46081   */\n      0x20\n        /* \"#utility.yul\":46068:46077   */\n      dup3\n        /* \"#utility.yul\":46064:46082   */\n      add\n        /* \"#utility.yul\":46056:46082   */\n      swap1\n      pop\n        /* \"#utility.yul\":46128:46137   */\n      dup2\n        /* \"#utility.yul\":46122:46126   */\n      dup2\n        /* \"#utility.yul\":46118:46138   */\n      sub\n        /* \"#utility.yul\":46114:46115   */\n      0x00\n        /* \"#utility.yul\":46103:46112   */\n      dup4\n        /* \"#utility.yul\":46099:46116   */\n      add\n        /* \"#utility.yul\":46092:46139   */\n      mstore\n        /* \"#utility.yul\":46156:46287   */\n      tag_888\n        /* \"#utility.yul\":46282:46286   */\n      dup2\n        /* \"#utility.yul\":46156:46287   */\n      tag_510\n      jump\t// in\n    tag_888:\n        /* \"#utility.yul\":46148:46287   */\n      swap1\n      pop\n        /* \"#utility.yul\":45875:46294   */\n      swap2\n      swap1\n      pop\n      jump\t// out\n\n    auxdata: 0xa26469706673582212208783bad3638aeac39e7015fdbf1bc43e25c887c151610e0c4ca2de1e6099b39f64736f6c634300081e0033\n}\n",
				"bytecode": {
					"linkReferences": {},
					"object": "608060405260fa600355348015610014575f5ffd5b5060405161454d38038061454d833981810160405281019061003691906102e5565b5f73ffffffffffffffffffffffffffffffffffffffff168373ffffffffffffffffffffffffffffffffffffffff16036100a4576040517f08c379a000000000000000000000000000000000000000000000000000000000815260040161009b9061038f565b60405180910390fd5b5f73ffffffffffffffffffffffffffffffffffffffff168273ffffffffffffffffffffffffffffffffffffffff1603610112576040517f08c379a0000000000000000000000000000000000000000000000000000000008152600401610109906103f7565b60405180910390fd5b5f73ffffffffffffffffffffffffffffffffffffffff168173ffffffffffffffffffffffffffffffffffffffff1603610180576040517f08c379a00000000000000000000000000000000000000000000000000000000081526004016101779061045f565b60405180910390fd5b335f5f6101000a81548173ffffffffffffffffffffffffffffffffffffffff021916908373ffffffffffffffffffffffffffffffffffffffff1602179055508260015f6101000a81548173ffffffffffffffffffffffffffffffffffffffff021916908373ffffffffffffffffffffffffffffffffffffffff1602179055508160025f6101000a81548173ffffffffffffffffffffffffffffffffffffffff021916908373ffffffffffffffffffffffffffffffffffffffff1602179055508060045f6101000a81548173ffffffffffffffffffffffffffffffffffffffff021916908373ffffffffffffffffffffffffffffffffffffffff16021790555050505061047d565b5f5ffd5b5f73ffffffffffffffffffffffffffffffffffffffff82169050919050565b5f6102b48261028b565b9050919050565b6102c4816102aa565b81146102ce575f5ffd5b50565b5f815190506102df816102bb565b92915050565b5f5f5f606084860312156102fc576102fb610287565b5b5f610309868287016102d1565b935050602061031a868287016102d1565b925050604061032b868287016102d1565b9150509250925092565b5f82825260208201905092915050565b7f496e76616c6964206d61726b6574706c616365000000000000000000000000005f82015250565b5f610379601383610335565b915061038482610345565b602082019050919050565b5f6020820190508181035f8301526103a68161036d565b9050919050565b7f496e76616c696420746f6b656e000000000000000000000000000000000000005f82015250565b5f6103e1600d83610335565b91506103ec826103ad565b602082019050919050565b5f6020820190508181035f83015261040e816103d5565b9050919050565b7f496e76616c69642066656520726563697069656e7400000000000000000000005f82015250565b5f610449601583610335565b915061045482610415565b602082019050919050565b5f6020820190508181035f8301526104768161043d565b9050919050565b6140c38061048a5f395ff3fe608060405234801561000f575f5ffd5b50600436106100fe575f3560e01c80638da5cb5b11610095578063c580c94211610064578063c580c9421461028b578063c9c31af5146102a7578063d7ec40ee146102c3578063e74b981b146102df576100fe565b80638da5cb5b1461021757806394aeb61314610235578063abc8c7af14610251578063c4c115231461026f576100fe565b806346904840116100d157806346904840146101915780634c48ede7146101af5780636a326ab1146101cb5780637d19e596146101e7576100fe565b8063012f52ee1461010257806322dcd13e146101395780633013ce2914610157578063301e8a0514610175575b5f5ffd5b61011c60048036038101906101179190612bac565b6102fb565b604051610130989796959493929190612cb2565b60405180910390f35b6101416103a2565b60405161014e9190612d2e565b60405180910390f35b61015f6103a8565b60405161016c9190612da2565b60405180910390f35b61018f600480360381019061018a9190612bac565b6103cd565b005b6101996108d5565b6040516101a69190612dbb565b60405180910390f35b6101c960048036038101906101c49190612bac565b6108fa565b005b6101e560048036038101906101e09190612dfe565b610dc0565b005b61020160048036038101906101fc9190612bac565b610f36565b60405161020e9190612f05565b60405180910390f35b61021f611098565b60405161022c9190612dbb565b60405180910390f35b61024f600480360381019061024a9190612bac565b6110bc565b005b610259611869565b6040516102669190612dbb565b60405180910390f35b61028960048036038101906102849190612bac565b61188e565b005b6102a560048036038101906102a09190612bac565b611c6d565b005b6102c160048036038101906102bc9190612bac565b611d81565b005b6102dd60048036038101906102d89190612f80565b612516565b005b6102f960048036038101906102f49190612dfe565b612973565b005b6005602052805f5260405f205f91509050805f015490806001015f9054906101000a900473ffffffffffffffffffffffffffffffffffffffff1690806002015f9054906101000a900473ffffffffffffffffffffffffffffffffffffffff1690806003015490806004015f9054906101000a900460ff1690806005015490806006015f9054906101000a900460ff16908060060160019054906101000a900460ff16905088565b60035481565b60025f9054906101000a900473ffffffffffffffffffffffffffffffffffffffff1681565b8060055f8281526020019081526020015f206006015f9054906101000a900460ff1661042e576040517f08c379a000000000000000000000000000000000000000000000000000000000815260040161042590613037565b60405180910390fd5b813373ffffffffffffffffffffffffffffffffffffffff1660055f8381526020019081526020015f206002015f9054906101000a900473ffffffffffffffffffffffffffffffffffffffff1673ffffffffffffffffffffffffffffffffffffffff16146104d0576040517f08c379a00000000000000000000000000000000000000000000000000000000081526004016104c79061309f565b60405180910390fd5b5f60055f8581526020019081526020015f209050600160058111156104f8576104f7612c25565b5b816004015f9054906101000a900460ff16600581111561051b5761051a612c25565b5b148061055b57506002600581111561053657610535612c25565b5b816004015f9054906101000a900460ff16600581111561055957610558612c25565b5b145b61059a576040517f08c379a000000000000000000000000000000000000000000000000000000000815260040161059190613107565b60405180910390fd5b5f60015f9054906101000a900473ffffffffffffffffffffffffffffffffffffffff1673ffffffffffffffffffffffffffffffffffffffff1663107a274a866040518263ffffffff1660e01b81526004016105f59190612d2e565b5f60405180830381865afa15801561060f573d5f5f3e3d5ffd5b505050506040513d5f823e3d601f19601f8201168201806040525081019061063791906133e0565b90505f5f600181111561064d5761064c612c25565b5b8260a00151600181111561066457610663612c25565b5b0361069457826001015f9054906101000a900473ffffffffffffffffffffffffffffffffffffffff1690506106bb565b826002015f9054906101000a900473ffffffffffffffffffffffffffffffffffffffff1690505b6005836004015f6101000a81548160ff021916908360058111156106e2576106e1612c25565b5b021790555060025f9054906101000a900473ffffffffffffffffffffffffffffffffffffffff1673ffffffffffffffffffffffffffffffffffffffff1663a9059cbb8285600301546040518363ffffffff1660e01b8152600401610747929190613427565b6020604051808303815f875af1158015610763573d5f5f3e3d5ffd5b505050506040513d601f19601f82011682018060405250810190610787919061344e565b6107c6576040517f08c379a00000000000000000000000000000000000000000000000000000000081526004016107bd906134c3565b60405180910390fd5b60015f9054906101000a900473ffffffffffffffffffffffffffffffffffffffff1673ffffffffffffffffffffffffffffffffffffffff16636b675cb4876040518263ffffffff1660e01b81526004016108209190612d2e565b5f604051808303815f87803b158015610837575f5ffd5b505af1158015610849573d5f5f3e3d5ffd5b50505050857f0d977c6b1a383ac5ce532b4a668d0ef9ad38478e1a5ff28abb221f4b682b264360405160405180910390a28073ffffffffffffffffffffffffffffffffffffffff16867feac97bc1917fcedc984e3d0671d4e83b359890323d5d1c2de32b28d17c356ced85600301546040516108c59190612d2e565b60405180910390a3505050505050565b60045f9054906101000a900473ffffffffffffffffffffffffffffffffffffffff1681565b8060055f8281526020019081526020015f206006015f9054906101000a900460ff1661095b576040517f08c379a000000000000000000000000000000000000000000000000000000000815260040161095290613037565b60405180910390fd5b5f5f9054906101000a900473ffffffffffffffffffffffffffffffffffffffff1673ffffffffffffffffffffffffffffffffffffffff163373ffffffffffffffffffffffffffffffffffffffff16146109e9576040517f08c379a00000000000000000000000000000000000000000000000000000000081526004016109e09061352b565b60405180910390fd5b5f60055f8481526020019081526020015f20905060016005811115610a1157610a10612c25565b5b816004015f9054906101000a900460ff166005811115610a3457610a33612c25565b5b1480610a74575060026005811115610a4f57610a4e612c25565b5b816004015f9054906101000a900460ff166005811115610a7257610a71612c25565b5b145b610ab3576040517f08c379a0000000000000000000000000000000000000000000000000000000008152600401610aaa90613593565b60405180910390fd5b5f60015f9054906101000a900473ffffffffffffffffffffffffffffffffffffffff1673ffffffffffffffffffffffffffffffffffffffff1663107a274a856040518263ffffffff1660e01b8152600401610b0e9190612d2e565b5f60405180830381865afa158015610b28573d5f5f3e3d5ffd5b505050506040513d5f823e3d601f19601f82011682018060405250810190610b5091906133e0565b90505f5f6001811115610b6657610b65612c25565b5b8260a001516001811115610b7d57610b7c612c25565b5b03610bad57826001015f9054906101000a900473ffffffffffffffffffffffffffffffffffffffff169050610bd4565b826002015f9054906101000a900473ffffffffffffffffffffffffffffffffffffffff1690505b6004836004015f6101000a81548160ff02191690836005811115610bfb57610bfa612c25565b5b021790555060025f9054906101000a900473ffffffffffffffffffffffffffffffffffffffff1673ffffffffffffffffffffffffffffffffffffffff1663a9059cbb8285600301546040518363ffffffff1660e01b8152600401610c60929190613427565b6020604051808303815f875af1158015610c7c573d5f5f3e3d5ffd5b505050506040513d601f19601f82011682018060405250810190610ca0919061344e565b610cdf576040517f08c379a0000000000000000000000000000000000000000000000000000000008152600401610cd6906134c3565b60405180910390fd5b60015f9054906101000a900473ffffffffffffffffffffffffffffffffffffffff1673ffffffffffffffffffffffffffffffffffffffff16636b675cb4866040518263ffffffff1660e01b8152600401610d399190612d2e565b5f604051808303815f87803b158015610d50575f5ffd5b505af1158015610d62573d5f5f3e3d5ffd5b505050508073ffffffffffffffffffffffffffffffffffffffff16857feac97bc1917fcedc984e3d0671d4e83b359890323d5d1c2de32b28d17c356ced8560030154604051610db19190612d2e565b60405180910390a35050505050565b5f5f9054906101000a900473ffffffffffffffffffffffffffffffffffffffff1673ffffffffffffffffffffffffffffffffffffffff163373ffffffffffffffffffffffffffffffffffffffff1614610e4e576040517f08c379a0000000000000000000000000000000000000000000000000000000008152600401610e459061352b565b60405180910390fd5b5f73ffffffffffffffffffffffffffffffffffffffff168173ffffffffffffffffffffffffffffffffffffffff1603610ebc576040517f08c379a0000000000000000000000000000000000000000000000000000000008152600401610eb3906135fb565b60405180910390fd5b8060025f6101000a81548173ffffffffffffffffffffffffffffffffffffffff021916908373ffffffffffffffffffffffffffffffffffffffff1602179055507fbd4032c1c91da2791730ea1bbc82c6b6f857da7c0a8318143d19ef74e62cd91381604051610f2b9190612dbb565b60405180910390a150565b610f3e612ae9565b60055f8381526020019081526020015f20604051806101000160405290815f8201548152602001600182015f9054906101000a900473ffffffffffffffffffffffffffffffffffffffff1673ffffffffffffffffffffffffffffffffffffffff1673ffffffffffffffffffffffffffffffffffffffff168152602001600282015f9054906101000a900473ffffffffffffffffffffffffffffffffffffffff1673ffffffffffffffffffffffffffffffffffffffff1673ffffffffffffffffffffffffffffffffffffffff16815260200160038201548152602001600482015f9054906101000a900460ff16600581111561103c5761103b612c25565b5b600581111561104e5761104d612c25565b5b815260200160058201548152602001600682015f9054906101000a900460ff161515151581526020016006820160019054906101000a900460ff1615151515815250509050919050565b5f5f9054906101000a900473ffffffffffffffffffffffffffffffffffffffff1681565b8060055f8281526020019081526020015f206006015f9054906101000a900460ff1661111d576040517f08c379a000000000000000000000000000000000000000000000000000000000815260040161111490613037565b60405180910390fd5b5f60055f8481526020019081526020015f2090505f60015f9054906101000a900473ffffffffffffffffffffffffffffffffffffffff1673ffffffffffffffffffffffffffffffffffffffff1663107a274a856040518263ffffffff1660e01b815260040161118c9190612d2e565b5f60405180830381865afa1580156111a6573d5f5f3e3d5ffd5b505050506040513d5f823e3d601f19601f820116820180604052508101906111ce91906133e0565b9050600260058111156111e4576111e3612c25565b5b826004015f9054906101000a900460ff16600581111561120757611206612c25565b5b14611247576040517f08c379a000000000000000000000000000000000000000000000000000000000815260040161123e90613663565b60405180910390fd5b5f600181111561125a57611259612c25565b5b8160a00151600181111561127157611270612c25565b5b0361130c57816001015f9054906101000a900473ffffffffffffffffffffffffffffffffffffffff1673ffffffffffffffffffffffffffffffffffffffff163373ffffffffffffffffffffffffffffffffffffffff1614611307576040517f08c379a00000000000000000000000000000000000000000000000000000000081526004016112fe906136cb565b60405180910390fd5b61139e565b816002015f9054906101000a900473ffffffffffffffffffffffffffffffffffffffff1673ffffffffffffffffffffffffffffffffffffffff163373ffffffffffffffffffffffffffffffffffffffff161461139d576040517f08c379a000000000000000000000000000000000000000000000000000000000815260040161139490613759565b60405180910390fd5b5b5f61271060035484600301546113b491906137a4565b6113be9190613812565b90505f8184600301546113d19190613842565b90506003846004015f6101000a81548160ff021916908360058111156113fa576113f9612c25565b5b02179055505f600181111561141257611411612c25565b5b8360a00151600181111561142957611428612c25565b5b036115315760025f9054906101000a900473ffffffffffffffffffffffffffffffffffffffff1673ffffffffffffffffffffffffffffffffffffffff1663a9059cbb856002015f9054906101000a900473ffffffffffffffffffffffffffffffffffffffff16836040518363ffffffff1660e01b81526004016114ad929190613427565b6020604051808303815f875af11580156114c9573d5f5f3e3d5ffd5b505050506040513d601f19601f820116820180604052508101906114ed919061344e565b61152c576040517f08c379a0000000000000000000000000000000000000000000000000000000008152600401611523906138bf565b60405180910390fd5b611630565b60025f9054906101000a900473ffffffffffffffffffffffffffffffffffffffff1673ffffffffffffffffffffffffffffffffffffffff1663a9059cbb856001015f9054906101000a900473ffffffffffffffffffffffffffffffffffffffff16836040518363ffffffff1660e01b81526004016115b0929190613427565b6020604051808303815f875af11580156115cc573d5f5f3e3d5ffd5b505050506040513d601f19601f820116820180604052508101906115f0919061344e565b61162f576040517f08c379a000000000000000000000000000000000000000000000000000000000815260040161162690613927565b60405180910390fd5b5b60025f9054906101000a900473ffffffffffffffffffffffffffffffffffffffff1673ffffffffffffffffffffffffffffffffffffffff1663a9059cbb60045f9054906101000a900473ffffffffffffffffffffffffffffffffffffffff16846040518363ffffffff1660e01b81526004016116ad929190613427565b6020604051808303815f875af11580156116c9573d5f5f3e3d5ffd5b505050506040513d601f19601f820116820180604052508101906116ed919061344e565b61172c576040517f08c379a00000000000000000000000000000000000000000000000000000000081526004016117239061398f565b60405180910390fd5b60015f9054906101000a900473ffffffffffffffffffffffffffffffffffffffff1673ffffffffffffffffffffffffffffffffffffffff16634904ff8e876040518263ffffffff1660e01b81526004016117869190612d2e565b5f604051808303815f87803b15801561179d575f5ffd5b505af11580156117af573d5f5f3e3d5ffd5b50505050836002015f9054906101000a900473ffffffffffffffffffffffffffffffffffffffff1673ffffffffffffffffffffffffffffffffffffffff16846001015f9054906101000a900473ffffffffffffffffffffffffffffffffffffffff1673ffffffffffffffffffffffffffffffffffffffff16877f48269de621c6d0c7deba303f09a0f908001eeecf281f1e3ffc5c31249298da3c84866040516118599291906139ad565b60405180910390a4505050505050565b60015f9054906101000a900473ffffffffffffffffffffffffffffffffffffffff1681565b8060055f8281526020019081526020015f206006015f9054906101000a900460ff166118ef576040517f08c379a00000000000000000000000000000000000000000000000000000000081526004016118e690613037565b60405180910390fd5b5f60055f8481526020019081526020015f2090505f60015f9054906101000a900473ffffffffffffffffffffffffffffffffffffffff1673ffffffffffffffffffffffffffffffffffffffff1663107a274a856040518263ffffffff1660e01b815260040161195e9190612d2e565b5f60405180830381865afa158015611978573d5f5f3e3d5ffd5b505050506040513d5f823e3d601f19601f820116820180604052508101906119a091906133e0565b9050600160058111156119b6576119b5612c25565b5b826004015f9054906101000a900460ff1660058111156119d9576119d8612c25565b5b14611a19576040517f08c379a0000000000000000000000000000000000000000000000000000000008152600401611a1090613a1e565b60405180910390fd5b5f6001811115611a2c57611a2b612c25565b5b8160a001516001811115611a4357611a42612c25565b5b03611ade57816002015f9054906101000a900473ffffffffffffffffffffffffffffffffffffffff1673ffffffffffffffffffffffffffffffffffffffff163373ffffffffffffffffffffffffffffffffffffffff1614611ad9576040517f08c379a0000000000000000000000000000000000000000000000000000000008152600401611ad090613a86565b60405180910390fd5b611b70565b816001015f9054906101000a900473ffffffffffffffffffffffffffffffffffffffff1673ffffffffffffffffffffffffffffffffffffffff163373ffffffffffffffffffffffffffffffffffffffff1614611b6f576040517f08c379a0000000000000000000000000000000000000000000000000000000008152600401611b6690613aee565b60405180910390fd5b5b6002826004015f6101000a81548160ff02191690836005811115611b9757611b96612c25565b5b021790555060015f9054906101000a900473ffffffffffffffffffffffffffffffffffffffff1673ffffffffffffffffffffffffffffffffffffffff1663cdda6c65856040518263ffffffff1660e01b8152600401611bf69190612d2e565b5f604051808303815f87803b158015611c0d575f5ffd5b505af1158015611c1f573d5f5f3e3d5ffd5b505050503373ffffffffffffffffffffffffffffffffffffffff16847f2e1034180f85502b3a04560be6ed4c24fe9b9c9e0bd7f4e09720494ac48859fa60405160405180910390a350505050565b5f5f9054906101000a900473ffffffffffffffffffffffffffffffffffffffff1673ffffffffffffffffffffffffffffffffffffffff163373ffffffffffffffffffffffffffffffffffffffff1614611cfb576040517f08c379a0000000000000000000000000000000000000000000000000000000008152600401611cf29061352b565b60405180910390fd5b6103e8811115611d40576040517f08c379a0000000000000000000000000000000000000000000000000000000008152600401611d3790613b56565b60405180910390fd5b806003819055507f45610d581145924dd7090a5017e5f2b1d6f42213bb2e95707ff86846bbfcb1ca81604051611d769190612d2e565b60405180910390a150565b5f60015f9054906101000a900473ffffffffffffffffffffffffffffffffffffffff1673ffffffffffffffffffffffffffffffffffffffff1663107a274a836040518263ffffffff1660e01b8152600401611ddc9190612d2e565b5f60405180830381865afa158015611df6573d5f5f3e3d5ffd5b505050506040513d5f823e3d601f19601f82011682018060405250810190611e1e91906133e0565b90508060e00151611e64576040517f08c379a0000000000000000000000000000000000000000000000000000000008152600401611e5b90613bbe565b60405180910390fd5b60016005811115611e7857611e77612c25565b5b8160c001516005811115611e8f57611e8e612c25565b5b14611ecf576040517f08c379a0000000000000000000000000000000000000000000000000000000008152600401611ec690613c26565b60405180910390fd5b806020015173ffffffffffffffffffffffffffffffffffffffff163373ffffffffffffffffffffffffffffffffffffffff1603611f41576040517f08c379a0000000000000000000000000000000000000000000000000000000008152600401611f3890613cb4565b60405180910390fd5b60055f8381526020019081526020015f206006015f9054906101000a900460ff1615611fa2576040517f08c379a0000000000000000000000000000000000000000000000000000000008152600401611f9990613d1c565b60405180910390fd5b3373ffffffffffffffffffffffffffffffffffffffff1660015f9054906101000a900473ffffffffffffffffffffffffffffffffffffffff1673ffffffffffffffffffffffffffffffffffffffff16634a0f2887846040518263ffffffff1660e01b81526004016120139190612d2e565b602060405180830381865afa15801561202e573d5f5f3e3d5ffd5b505050506040513d601f19601f820116820180604052508101906120529190613d3a565b73ffffffffffffffffffffffffffffffffffffffff16146120a8576040517f08c379a000000000000000000000000000000000000000000000000000000000815260040161209f90613daf565b60405180910390fd5b5f5f60018111156120bc576120bb612c25565b5b8260a0015160018111156120d3576120d2612c25565b5b036121815760025f9054906101000a900473ffffffffffffffffffffffffffffffffffffffff1673ffffffffffffffffffffffffffffffffffffffff166323b872dd333085606001516040518463ffffffff1660e01b815260040161213a93929190613dcd565b6020604051808303815f875af1158015612156573d5f5f3e3d5ffd5b505050506040513d601f19601f8201168201806040525081019061217a919061344e565b905061222a565b60025f9054906101000a900473ffffffffffffffffffffffffffffffffffffffff1673ffffffffffffffffffffffffffffffffffffffff166323b872dd83602001513085606001516040518463ffffffff1660e01b81526004016121e793929190613dcd565b6020604051808303815f875af1158015612203573d5f5f3e3d5ffd5b505050506040513d601f19601f82011682018060405250810190612227919061344e565b90505b8061226a576040517f08c379a000000000000000000000000000000000000000000000000000000000815260040161226190613e4c565b60405180910390fd5b6040518061010001604052808481526020013373ffffffffffffffffffffffffffffffffffffffff168152602001836020015173ffffffffffffffffffffffffffffffffffffffff16815260200183606001518152602001600160058111156122d6576122d5612c25565b5b81526020014281526020016001151581526020015f151581525060055f8581526020019081526020015f205f820151815f01556020820151816001015f6101000a81548173ffffffffffffffffffffffffffffffffffffffff021916908373ffffffffffffffffffffffffffffffffffffffff1602179055506040820151816002015f6101000a81548173ffffffffffffffffffffffffffffffffffffffff021916908373ffffffffffffffffffffffffffffffffffffffff160217905550606082015181600301556080820151816004015f6101000a81548160ff021916908360058111156123c9576123c8612c25565b5b021790555060a0820151816005015560c0820151816006015f6101000a81548160ff02191690831515021790555060e08201518160060160016101000a81548160ff02191690831515021790555090505060015f9054906101000a900473ffffffffffffffffffffffffffffffffffffffff1673ffffffffffffffffffffffffffffffffffffffff16638a9bc5da84336040518363ffffffff1660e01b8152600401612476929190613e6a565b5f604051808303815f87803b15801561248d575f5ffd5b505af115801561249f573d5f5f3e3d5ffd5b50505050816020015173ffffffffffffffffffffffffffffffffffffffff163373ffffffffffffffffffffffffffffffffffffffff16847f1736617f8b9029b421ccc471ca8a99395f5d8a1cb348be9fcbfd64cceee7252f85606001516040516125099190612d2e565b60405180910390a4505050565b8260055f8281526020019081526020015f206006015f9054906101000a900460ff16612577576040517f08c379a000000000000000000000000000000000000000000000000000000000815260040161256e90613037565b60405180910390fd5b5f60055f8681526020019081526020015f2090505f60015f9054906101000a900473ffffffffffffffffffffffffffffffffffffffff1673ffffffffffffffffffffffffffffffffffffffff1663107a274a876040518263ffffffff1660e01b81526004016125e69190612d2e565b5f60405180830381865afa158015612600573d5f5f3e3d5ffd5b505050506040513d5f823e3d601f19601f8201168201806040525081019061262891906133e0565b90506002600581111561263e5761263d612c25565b5b826004015f9054906101000a900460ff16600581111561266157612660612c25565b5b146126a1576040517f08c379a000000000000000000000000000000000000000000000000000000000815260040161269890613663565b60405180910390fd5b8160060160019054906101000a900460ff16156126f3576040517f08c379a00000000000000000000000000000000000000000000000000000000081526004016126ea90613edb565b60405180910390fd5b5f600181111561270657612705612c25565b5b8160a00151600181111561271d5761271c612c25565b5b036127b857816001015f9054906101000a900473ffffffffffffffffffffffffffffffffffffffff1673ffffffffffffffffffffffffffffffffffffffff163373ffffffffffffffffffffffffffffffffffffffff16146127b3576040517f08c379a00000000000000000000000000000000000000000000000000000000081526004016127aa90613f43565b60405180910390fd5b61284a565b816002015f9054906101000a900473ffffffffffffffffffffffffffffffffffffffff1673ffffffffffffffffffffffffffffffffffffffff163373ffffffffffffffffffffffffffffffffffffffff1614612849576040517f08c379a000000000000000000000000000000000000000000000000000000000815260040161284090613fab565b60405180910390fd5b5b60018260060160016101000a81548160ff0219169083151502179055506001826004015f6101000a81548160ff0219169083600581111561288e5761288d612c25565b5b021790555060015f9054906101000a900473ffffffffffffffffffffffffffffffffffffffff1673ffffffffffffffffffffffffffffffffffffffff1663c8319685876040518263ffffffff1660e01b81526004016128ed9190612d2e565b5f604051808303815f87803b158015612904575f5ffd5b505af1158015612916573d5f5f3e3d5ffd5b505050503373ffffffffffffffffffffffffffffffffffffffff16867ffb1f2b2d59e15c4d9793571c3df2fc8aa0fed8c4308b8f71ff5a77678e571e728787604051612963929190614003565b60405180910390a3505050505050565b5f5f9054906101000a900473ffffffffffffffffffffffffffffffffffffffff1673ffffffffffffffffffffffffffffffffffffffff163373ffffffffffffffffffffffffffffffffffffffff1614612a01576040517f08c379a00000000000000000000000000000000000000000000000000000000081526004016129f89061352b565b60405180910390fd5b5f73ffffffffffffffffffffffffffffffffffffffff168173ffffffffffffffffffffffffffffffffffffffff1603612a6f576040517f08c379a0000000000000000000000000000000000000000000000000000000008152600401612a669061406f565b60405180910390fd5b8060045f6101000a81548173ffffffffffffffffffffffffffffffffffffffff021916908373ffffffffffffffffffffffffffffffffffffffff1602179055507f7a7b5a0a132f9e0581eb8527f66eae9ee89c2a3e79d4ac7e41a1f1f4d48a7fc281604051612ade9190612dbb565b60405180910390a150565b6040518061010001604052805f81526020015f73ffffffffffffffffffffffffffffffffffffffff1681526020015f73ffffffffffffffffffffffffffffffffffffffff1681526020015f81526020015f6005811115612b4c57612b4b612c25565b5b81526020015f81526020015f151581526020015f151581525090565b5f604051905090565b5f5ffd5b5f5ffd5b5f819050919050565b612b8b81612b79565b8114612b95575f5ffd5b50565b5f81359050612ba681612b82565b92915050565b5f60208284031215612bc157612bc0612b71565b5b5f612bce84828501612b98565b91505092915050565b612be081612b79565b82525050565b5f73ffffffffffffffffffffffffffffffffffffffff82169050919050565b5f612c0f82612be6565b9050919050565b612c1f81612c05565b82525050565b7f4e487b71000000000000000000000000000000000000000000000000000000005f52602160045260245ffd5b60068110612c6357612c62612c25565b5b50565b5f819050612c7382612c52565b919050565b5f612c8282612c66565b9050919050565b612c9281612c78565b82525050565b5f8115159050919050565b612cac81612c98565b82525050565b5f61010082019050612cc65f83018b612bd7565b612cd3602083018a612c16565b612ce06040830189612c16565b612ced6060830188612bd7565b612cfa6080830187612c89565b612d0760a0830186612bd7565b612d1460c0830185612ca3565b612d2160e0830184612ca3565b9998505050505050505050565b5f602082019050612d415f830184612bd7565b92915050565b5f819050919050565b5f612d6a612d65612d6084612be6565b612d47565b612be6565b9050919050565b5f612d7b82612d50565b9050919050565b5f612d8c82612d71565b9050919050565b612d9c81612d82565b82525050565b5f602082019050612db55f830184612d93565b92915050565b5f602082019050612dce5f830184612c16565b92915050565b612ddd81612c05565b8114612de7575f5ffd5b50565b5f81359050612df881612dd4565b92915050565b5f60208284031215612e1357612e12612b71565b5b5f612e2084828501612dea565b91505092915050565b612e3281612b79565b82525050565b612e4181612c05565b82525050565b612e5081612c78565b82525050565b612e5f81612c98565b82525050565b61010082015f820151612e7a5f850182612e29565b506020820151612e8d6020850182612e38565b506040820151612ea06040850182612e38565b506060820151612eb36060850182612e29565b506080820151612ec66080850182612e47565b5060a0820151612ed960a0850182612e29565b5060c0820151612eec60c0850182612e56565b5060e0820151612eff60e0850182612e56565b50505050565b5f61010082019050612f195f830184612e65565b92915050565b5f5ffd5b5f5ffd5b5f5ffd5b5f5f83601f840112612f4057612f3f612f1f565b5b8235905067ffffffffffffffff811115612f5d57612f5c612f23565b5b602083019150836001820283011115612f7957612f78612f27565b5b9250929050565b5f5f5f60408486031215612f9757612f96612b71565b5b5f612fa486828701612b98565b935050602084013567ffffffffffffffff811115612fc557612fc4612b75565b5b612fd186828701612f2b565b92509250509250925092565b5f82825260208201905092915050565b7f457363726f7720646f6573206e6f7420657869737400000000000000000000005f82015250565b5f613021601583612fdd565b915061302c82612fed565b602082019050919050565b5f6020820190508181035f83015261304e81613015565b9050919050565b7f4e6f742073656c6c6572000000000000000000000000000000000000000000005f82015250565b5f613089600a83612fdd565b915061309482613055565b602082019050919050565b5f6020820190508181035f8301526130b68161307d565b9050919050565b7f457363726f77206e6f742063616e63656c6c61626c65000000000000000000005f82015250565b5f6130f1601683612fdd565b91506130fc826130bd565b602082019050919050565b5f6020820190508181035f83015261311e816130e5565b9050919050565b5f5ffd5b5f601f19601f8301169050919050565b7f4e487b71000000000000000000000000000000000000000000000000000000005f52604160045260245ffd5b61316f82613129565b810181811067ffffffffffffffff8211171561318e5761318d613139565b5b80604052505050565b5f6131a0612b68565b90506131ac8282613166565b919050565b5f5ffd5b5f815190506131c381612b82565b92915050565b5f815190506131d781612dd4565b92915050565b5f5ffd5b5f67ffffffffffffffff8211156131fb576131fa613139565b5b61320482613129565b9050602081019050919050565b8281835e5f83830152505050565b5f61323161322c846131e1565b613197565b90508281526020810184848401111561324d5761324c6131dd565b5b613258848285613211565b509392505050565b5f82601f83011261327457613273612f1f565b5b815161328484826020860161321f565b91505092915050565b60028110613299575f5ffd5b50565b5f815190506132aa8161328d565b92915050565b600681106132bc575f5ffd5b50565b5f815190506132cd816132b0565b92915050565b6132dc81612c98565b81146132e6575f5ffd5b50565b5f815190506132f7816132d3565b92915050565b5f610100828403121561331357613312613125565b5b61331e610100613197565b90505f61332d848285016131b5565b5f830152506020613340848285016131c9565b6020830152506040613354848285016131c9565b6040830152506060613368848285016131b5565b606083015250608082015167ffffffffffffffff81111561338c5761338b6131b1565b5b61339884828501613260565b60808301525060a06133ac8482850161329c565b60a08301525060c06133c0848285016132bf565b60c08301525060e06133d4848285016132e9565b60e08301525092915050565b5f602082840312156133f5576133f4612b71565b5b5f82015167ffffffffffffffff81111561341257613411612b75565b5b61341e848285016132fd565b91505092915050565b5f60408201905061343a5f830185612c16565b6134476020830184612bd7565b9392505050565b5f6020828403121561346357613462612b71565b5b5f613470848285016132e9565b91505092915050565b7f526566756e64206661696c6564000000000000000000000000000000000000005f82015250565b5f6134ad600d83612fdd565b91506134b882613479565b602082019050919050565b5f6020820190508181035f8301526134da816134a1565b9050919050565b7f4e6f74206f776e657200000000000000000000000000000000000000000000005f82015250565b5f613515600983612fdd565b9150613520826134e1565b602082019050919050565b5f6020820190508181035f83015261354281613509565b9050919050565b7f457363726f77206e6f7420726566756e6461626c6500000000000000000000005f82015250565b5f61357d601583612fdd565b915061358882613549565b602082019050919050565b5f6020820190508181035f8301526135aa81613571565b9050919050565b7f496e76616c696420746f6b656e000000000000000000000000000000000000005f82015250565b5f6135e5600d83612fdd565b91506135f0826135b1565b602082019050919050565b5f6020820190508181035f830152613612816135d9565b9050919050565b7f576f726b206e6f74207375626d697474656400000000000000000000000000005f82015250565b5f61364d601283612fdd565b915061365882613619565b602082019050919050565b5f6020820190508181035f83015261367a81613641565b9050919050565b7f4275796572206d75737420636f6e6669726d206974656d2064656c69766572795f82015250565b5f6136b5602083612fdd565b91506136c082613681565b602082019050919050565b5f6020820190508181035f8301526136e2816136a9565b9050919050565b7f426f756e74792063726561746f72206d75737420636f6e6669726d20636f6d705f8201527f6c6574696f6e0000000000000000000000000000000000000000000000000000602082015250565b5f613743602683612fdd565b915061374e826136e9565b604082019050919050565b5f6020820190508181035f83015261377081613737565b9050919050565b7f4e487b71000000000000000000000000000000000000000000000000000000005f52601160045260245ffd5b5f6137ae82612b79565b91506137b983612b79565b92508282026137c781612b79565b915082820484148315176137de576137dd613777565b5b5092915050565b7f4e487b71000000000000000000000000000000000000000000000000000000005f52601260045260245ffd5b5f61381c82612b79565b915061382783612b79565b925082613837576138366137e5565b5b828204905092915050565b5f61384c82612b79565b915061385783612b79565b925082820390508181111561386f5761386e613777565b5b92915050565b7f53656c6c6572207061796d656e74206661696c656400000000000000000000005f82015250565b5f6138a9601583612fdd565b91506138b482613875565b602082019050919050565b5f6020820190508181035f8301526138d68161389d565b9050919050565b7f576f726b6572207061796d656e74206661696c656400000000000000000000005f82015250565b5f613911601583612fdd565b915061391c826138dd565b602082019050919050565b5f6020820190508181035f83015261393e81613905565b9050919050565b7f466565207061796d656e74206661696c656400000000000000000000000000005f82015250565b5f613979601283612fdd565b915061398482613945565b602082019050919050565b5f6020820190508181035f8301526139a68161396d565b9050919050565b5f6040820190506139c05f830185612bd7565b6139cd6020830184612bd7565b9392505050565b7f457363726f77206e6f742066756e6465640000000000000000000000000000005f82015250565b5f613a08601183612fdd565b9150613a13826139d4565b602082019050919050565b5f6020820190508181035f830152613a35816139fc565b9050919050565b7f4f6e6c792073656c6c65722063616e207375626d69742064656c6976657279005f82015250565b5f613a70601f83612fdd565b9150613a7b82613a3c565b602082019050919050565b5f6020820190508181035f830152613a9d81613a64565b9050919050565b7f4f6e6c7920776f726b65722063616e207375626d697420626f756e74790000005f82015250565b5f613ad8601d83612fdd565b9150613ae382613aa4565b602082019050919050565b5f6020820190508181035f830152613b0581613acc565b9050919050565b7f46656520746f6f206869676800000000000000000000000000000000000000005f82015250565b5f613b40600c83612fdd565b9150613b4b82613b0c565b602082019050919050565b5f6020820190508181035f830152613b6d81613b34565b9050919050565b7f4c697374696e6720646f6573206e6f74206578697374000000000000000000005f82015250565b5f613ba8601683612fdd565b9150613bb382613b74565b602082019050919050565b5f6020820190508181035f830152613bd581613b9c565b9050919050565b7f4c697374696e67206e6f742061637469766500000000000000000000000000005f82015250565b5f613c10601283612fdd565b9150613c1b82613bdc565b602082019050919050565b5f6020820190508181035f830152613c3d81613c04565b9050919050565b7f43726561746f722063616e6e6f7420616363657074206f776e206c697374696e5f8201527f6700000000000000000000000000000000000000000000000000000000000000602082015250565b5f613c9e602183612fdd565b9150613ca982613c44565b604082019050919050565b5f6020820190508181035f830152613ccb81613c92565b9050919050565b7f457363726f7720616c72656164792065786973747300000000000000000000005f82015250565b5f613d06601583612fdd565b9150613d1182613cd2565b602082019050919050565b5f6020820190508181035f830152613d3381613cfa565b9050919050565b5f60208284031215613d4f57613d4e612b71565b5b5f613d5c848285016131c9565b91505092915050565b7f4e6f7420617070726f76656420666f72206c697374696e6700000000000000005f82015250565b5f613d99601883612fdd565b9150613da482613d65565b602082019050919050565b5f6020820190508181035f830152613dc681613d8d565b9050919050565b5f606082019050613de05f830186612c16565b613ded6020830185612c16565b613dfa6040830184612bd7565b949350505050565b7f546f6b656e207472616e73666572206661696c656400000000000000000000005f82015250565b5f613e36601583612fdd565b9150613e4182613e02565b602082019050919050565b5f6020820190508181035f830152613e6381613e2a565b9050919050565b5f604082019050613e7d5f830185612bd7565b613e8a6020830184612c16565b9392505050565b7f416c72656164792072656a6563746564206f6e636500000000000000000000005f82015250565b5f613ec5601583612fdd565b9150613ed082613e91565b602082019050919050565b5f6020820190508181035f830152613ef281613eb9565b9050919050565b7f4275796572206d7573742072656a656374206974656d2064656c6976657279005f82015250565b5f613f2d601f83612fdd565b9150613f3882613ef9565b602082019050919050565b5f6020820190508181035f830152613f5a81613f21565b9050919050565b7f426f756e74792063726561746f72206d7573742072656a65637420776f726b005f82015250565b5f613f95601f83612fdd565b9150613fa082613f61565b602082019050919050565b5f6020820190508181035f830152613fc281613f89565b9050919050565b828183375f83830152505050565b5f613fe28385612fdd565b9350613fef838584613fc9565b613ff883613129565b840190509392505050565b5f6020820190508181035f83015261401c818486613fd7565b90509392505050565b7f496e76616c69642066656520726563697069656e7400000000000000000000005f82015250565b5f614059601583612fdd565b915061406482614025565b602082019050919050565b5f6020820190508181035f8301526140868161404d565b905091905056fea26469706673582212208783bad3638aeac39e7015fdbf1bc43e25c887c151610e0c4ca2de1e6099b39f64736f6c634300081e0033",
					"opcodes": "PUSH1 0x80 PUSH1 0x40 MSTORE PUSH1 0xFA PUSH1 0x3 SSTORE CALLVALUE DUP1 ISZERO PUSH2 0x14 JUMPI PUSH0 PUSH0 REVERT JUMPDEST POP PUSH1 0x40 MLOAD PUSH2 0x454D CODESIZE SUB DUP1 PUSH2 0x454D DUP4 CODECOPY DUP2 DUP2 ADD PUSH1 0x40 MSTORE DUP2 ADD SWAP1 PUSH2 0x36 SWAP2 SWAP1 PUSH2 0x2E5 JUMP JUMPDEST PUSH0 PUSH20 0xFFFFFFFFFFFFFFFFFFFFFFFFFFFFFFFFFFFFFFFF AND DUP4 PUSH20 0xFFFFFFFFFFFFFFFFFFFFFFFFFFFFFFFFFFFFFFFF AND SUB PUSH2 0xA4 JUMPI PUSH1 0x40 MLOAD PUSH32 0x8C379A000000000000000000000000000000000000000000000000000000000 DUP2 MSTORE PUSH1 0x4 ADD PUSH2 0x9B SWAP1 PUSH2 0x38F JUMP JUMPDEST PUSH1 0x40 MLOAD DUP1 SWAP2 SUB SWAP1 REVERT JUMPDEST PUSH0 PUSH20 0xFFFFFFFFFFFFFFFFFFFFFFFFFFFFFFFFFFFFFFFF AND DUP3 PUSH20 0xFFFFFFFFFFFFFFFFFFFFFFFFFFFFFFFFFFFFFFFF AND SUB PUSH2 0x112 JUMPI PUSH1 0x40 MLOAD PUSH32 0x8C379A000000000000000000000000000000000000000000000000000000000 DUP2 MSTORE PUSH1 0x4 ADD PUSH2 0x109 SWAP1 PUSH2 0x3F7 JUMP JUMPDEST PUSH1 0x40 MLOAD DUP1 SWAP2 SUB SWAP1 REVERT JUMPDEST PUSH0 PUSH20 0xFFFFFFFFFFFFFFFFFFFFFFFFFFFFFFFFFFFFFFFF AND DUP2 PUSH20 0xFFFFFFFFFFFFFFFFFFFFFFFFFFFFFFFFFFFFFFFF AND SUB PUSH2 0x180 JUMPI PUSH1 0x40 MLOAD PUSH32 0x8C379A000000000000000000000000000000000000000000000000000000000 DUP2 MSTORE PUSH1 0x4 ADD PUSH2 0x177 SWAP1 PUSH2 0x45F JUMP JUMPDEST PUSH1 0x40 MLOAD DUP1 SWAP2 SUB SWAP1 REVERT JUMPDEST CALLER PUSH0 PUSH0 PUSH2 0x100 EXP DUP2 SLOAD DUP2 PUSH20 0xFFFFFFFFFFFFFFFFFFFFFFFFFFFFFFFFFFFFFFFF MUL NOT AND SWAP1 DUP4 PUSH20 0xFFFFFFFFFFFFFFFFFFFFFFFFFFFFFFFFFFFFFFFF AND MUL OR SWAP1 SSTORE POP DUP3 PUSH1 0x1 PUSH0 PUSH2 0x100 EXP DUP2 SLOAD DUP2 PUSH20 0xFFFFFFFFFFFFFFFFFFFFFFFFFFFFFFFFFFFFFFFF MUL NOT AND SWAP1 DUP4 PUSH20 0xFFFFFFFFFFFFFFFFFFFFFFFFFFFFFFFFFFFFFFFF AND MUL OR SWAP1 SSTORE POP DUP2 PUSH1 0x2 PUSH0 PUSH2 0x100 EXP DUP2 SLOAD DUP2 PUSH20 0xFFFFFFFFFFFFFFFFFFFFFFFFFFFFFFFFFFFFFFFF MUL NOT AND SWAP1 DUP4 PUSH20 0xFFFFFFFFFFFFFFFFFFFFFFFFFFFFFFFFFFFFFFFF AND MUL OR SWAP1 SSTORE POP DUP1 PUSH1 0x4 PUSH0 PUSH2 0x100 EXP DUP2 SLOAD DUP2 PUSH20 0xFFFFFFFFFFFFFFFFFFFFFFFFFFFFFFFFFFFFFFFF MUL NOT AND SWAP1 DUP4 PUSH20 0xFFFFFFFFFFFFFFFFFFFFFFFFFFFFFFFFFFFFFFFF AND MUL OR SWAP1 SSTORE POP POP POP POP PUSH2 0x47D JUMP JUMPDEST PUSH0 PUSH0 REVERT JUMPDEST PUSH0 PUSH20 0xFFFFFFFFFFFFFFFFFFFFFFFFFFFFFFFFFFFFFFFF DUP3 AND SWAP1 POP SWAP2 SWAP1 POP JUMP JUMPDEST PUSH0 PUSH2 0x2B4 DUP3 PUSH2 0x28B JUMP JUMPDEST SWAP1 POP SWAP2 SWAP1 POP JUMP JUMPDEST PUSH2 0x2C4 DUP2 PUSH2 0x2AA JUMP JUMPDEST DUP2 EQ PUSH2 0x2CE JUMPI PUSH0 PUSH0 REVERT JUMPDEST POP JUMP JUMPDEST PUSH0 DUP2 MLOAD SWAP1 POP PUSH2 0x2DF DUP2 PUSH2 0x2BB JUMP JUMPDEST SWAP3 SWAP2 POP POP JUMP JUMPDEST PUSH0 PUSH0 PUSH0 PUSH1 0x60 DUP5 DUP7 SUB SLT ISZERO PUSH2 0x2FC JUMPI PUSH2 0x2FB PUSH2 0x287 JUMP JUMPDEST JUMPDEST PUSH0 PUSH2 0x309 DUP7 DUP3 DUP8 ADD PUSH2 0x2D1 JUMP JUMPDEST SWAP4 POP POP PUSH1 0x20 PUSH2 0x31A DUP7 DUP3 DUP8 ADD PUSH2 0x2D1 JUMP JUMPDEST SWAP3 POP POP PUSH1 0x40 PUSH2 0x32B DUP7 DUP3 DUP8 ADD PUSH2 0x2D1 JUMP JUMPDEST SWAP2 POP POP SWAP3 POP SWAP3 POP SWAP3 JUMP JUMPDEST PUSH0 DUP3 DUP3 MSTORE PUSH1 0x20 DUP3 ADD SWAP1 POP SWAP3 SWAP2 POP POP JUMP JUMPDEST PUSH32 0x496E76616C6964206D61726B6574706C61636500000000000000000000000000 PUSH0 DUP3 ADD MSTORE POP JUMP JUMPDEST PUSH0 PUSH2 0x379 PUSH1 0x13 DUP4 PUSH2 0x335 JUMP JUMPDEST SWAP2 POP PUSH2 0x384 DUP3 PUSH2 0x345 JUMP JUMPDEST PUSH1 0x20 DUP3 ADD SWAP1 POP SWAP2 SWAP1 POP JUMP JUMPDEST PUSH0 PUSH1 0x20 DUP3 ADD SWAP1 POP DUP2 DUP2 SUB PUSH0 DUP4 ADD MSTORE PUSH2 0x3A6 DUP2 PUSH2 0x36D JUMP JUMPDEST SWAP1 POP SWAP2 SWAP1 POP JUMP JUMPDEST PUSH32 0x496E76616C696420746F6B656E00000000000000000000000000000000000000 PUSH0 DUP3 ADD MSTORE POP JUMP JUMPDEST PUSH0 PUSH2 0x3E1 PUSH1 0xD DUP4 PUSH2 0x335 JUMP JUMPDEST SWAP2 POP PUSH2 0x3EC DUP3 PUSH2 0x3AD JUMP JUMPDEST PUSH1 0x20 DUP3 ADD SWAP1 POP SWAP2 SWAP1 POP JUMP JUMPDEST PUSH0 PUSH1 0x20 DUP3 ADD SWAP1 POP DUP2 DUP2 SUB PUSH0 DUP4 ADD MSTORE PUSH2 0x40E DUP2 PUSH2 0x3D5 JUMP JUMPDEST SWAP1 POP SWAP2 SWAP1 POP JUMP JUMPDEST PUSH32 0x496E76616C69642066656520726563697069656E740000000000000000000000 PUSH0 DUP3 ADD MSTORE POP JUMP JUMPDEST PUSH0 PUSH2 0x449 PUSH1 0x15 DUP4 PUSH2 0x335 JUMP JUMPDEST SWAP2 POP PUSH2 0x454 DUP3 PUSH2 0x415 JUMP JUMPDEST PUSH1 0x20 DUP3 ADD SWAP1 POP SWAP2 SWAP1 POP JUMP JUMPDEST PUSH0 PUSH1 0x20 DUP3 ADD SWAP1 POP DUP2 DUP2 SUB PUSH0 DUP4 ADD MSTORE PUSH2 0x476 DUP2 PUSH2 0x43D JUMP JUMPDEST SWAP1 POP SWAP2 SWAP1 POP JUMP JUMPDEST PUSH2 0x40C3 DUP1 PUSH2 0x48A PUSH0 CODECOPY PUSH0 RETURN INVALID PUSH1 0x80 PUSH1 0x40 MSTORE CALLVALUE DUP1 ISZERO PUSH2 0xF JUMPI PUSH0 PUSH0 REVERT JUMPDEST POP PUSH1 0x4 CALLDATASIZE LT PUSH2 0xFE JUMPI PUSH0 CALLDATALOAD PUSH1 0xE0 SHR DUP1 PUSH4 0x8DA5CB5B GT PUSH2 0x95 JUMPI DUP1 PUSH4 0xC580C942 GT PUSH2 0x64 JUMPI DUP1 PUSH4 0xC580C942 EQ PUSH2 0x28B JUMPI DUP1 PUSH4 0xC9C31AF5 EQ PUSH2 0x2A7 JUMPI DUP1 PUSH4 0xD7EC40EE EQ PUSH2 0x2C3 JUMPI DUP1 PUSH4 0xE74B981B EQ PUSH2 0x2DF JUMPI PUSH2 0xFE JUMP JUMPDEST DUP1 PUSH4 0x8DA5CB5B EQ PUSH2 0x217 JUMPI DUP1 PUSH4 0x94AEB613 EQ PUSH2 0x235 JUMPI DUP1 PUSH4 0xABC8C7AF EQ PUSH2 0x251 JUMPI DUP1 PUSH4 0xC4C11523 EQ PUSH2 0x26F JUMPI PUSH2 0xFE JUMP JUMPDEST DUP1 PUSH4 0x46904840 GT PUSH2 0xD1 JUMPI DUP1 PUSH4 0x46904840 EQ PUSH2 0x191 JUMPI DUP1 PUSH4 0x4C48EDE7 EQ PUSH2 0x1AF JUMPI DUP1 PUSH4 0x6A326AB1 EQ PUSH2 0x1CB JUMPI DUP1 PUSH4 0x7D19E596 EQ PUSH2 0x1E7 JUMPI PUSH2 0xFE JUMP JUMPDEST DUP1 PUSH4 0x12F52EE EQ PUSH2 0x102 JUMPI DUP1 PUSH4 0x22DCD13E EQ PUSH2 0x139 JUMPI DUP1 PUSH4 0x3013CE29 EQ PUSH2 0x157 JUMPI DUP1 PUSH4 0x301E8A05 EQ PUSH2 0x175 JUMPI JUMPDEST PUSH0 PUSH0 REVERT JUMPDEST PUSH2 0x11C PUSH1 0x4 DUP1 CALLDATASIZE SUB DUP2 ADD SWAP1 PUSH2 0x117 SWAP2 SWAP1 PUSH2 0x2BAC JUMP JUMPDEST PUSH2 0x2FB JUMP JUMPDEST PUSH1 0x40 MLOAD PUSH2 0x130 SWAP9 SWAP8 SWAP7 SWAP6 SWAP5 SWAP4 SWAP3 SWAP2 SWAP1 PUSH2 0x2CB2 JUMP JUMPDEST PUSH1 0x40 MLOAD DUP1 SWAP2 SUB SWAP1 RETURN JUMPDEST PUSH2 0x141 PUSH2 0x3A2 JUMP JUMPDEST PUSH1 0x40 MLOAD PUSH2 0x14E SWAP2 SWAP1 PUSH2 0x2D2E JUMP JUMPDEST PUSH1 0x40 MLOAD DUP1 SWAP2 SUB SWAP1 RETURN JUMPDEST PUSH2 0x15F PUSH2 0x3A8 JUMP JUMPDEST PUSH1 0x40 MLOAD PUSH2 0x16C SWAP2 SWAP1 PUSH2 0x2DA2 JUMP JUMPDEST PUSH1 0x40 MLOAD DUP1 SWAP2 SUB SWAP1 RETURN JUMPDEST PUSH2 0x18F PUSH1 0x4 DUP1 CALLDATASIZE SUB DUP2 ADD SWAP1 PUSH2 0x18A SWAP2 SWAP1 PUSH2 0x2BAC JUMP JUMPDEST PUSH2 0x3CD JUMP JUMPDEST STOP JUMPDEST PUSH2 0x199 PUSH2 0x8D5 JUMP JUMPDEST PUSH1 0x40 MLOAD PUSH2 0x1A6 SWAP2 SWAP1 PUSH2 0x2DBB JUMP JUMPDEST PUSH1 0x40 MLOAD DUP1 SWAP2 SUB SWAP1 RETURN JUMPDEST PUSH2 0x1C9 PUSH1 0x4 DUP1 CALLDATASIZE SUB DUP2 ADD SWAP1 PUSH2 0x1C4 SWAP2 SWAP1 PUSH2 0x2BAC JUMP JUMPDEST PUSH2 0x8FA JUMP JUMPDEST STOP JUMPDEST PUSH2 0x1E5 PUSH1 0x4 DUP1 CALLDATASIZE SUB DUP2 ADD SWAP1 PUSH2 0x1E0 SWAP2 SWAP1 PUSH2 0x2DFE JUMP JUMPDEST PUSH2 0xDC0 JUMP JUMPDEST STOP JUMPDEST PUSH2 0x201 PUSH1 0x4 DUP1 CALLDATASIZE SUB DUP2 ADD SWAP1 PUSH2 0x1FC SWAP2 SWAP1 PUSH2 0x2BAC JUMP JUMPDEST PUSH2 0xF36 JUMP JUMPDEST PUSH1 0x40 MLOAD PUSH2 0x20E SWAP2 SWAP1 PUSH2 0x2F05 JUMP JUMPDEST PUSH1 0x40 MLOAD DUP1 SWAP2 SUB SWAP1 RETURN JUMPDEST PUSH2 0x21F PUSH2 0x1098 JUMP JUMPDEST PUSH1 0x40 MLOAD PUSH2 0x22C SWAP2 SWAP1 PUSH2 0x2DBB JUMP JUMPDEST PUSH1 0x40 MLOAD DUP1 SWAP2 SUB SWAP1 RETURN JUMPDEST PUSH2 0x24F PUSH1 0x4 DUP1 CALLDATASIZE SUB DUP2 ADD SWAP1 PUSH2 0x24A SWAP2 SWAP1 PUSH2 0x2BAC JUMP JUMPDEST PUSH2 0x10BC JUMP JUMPDEST STOP JUMPDEST PUSH2 0x259 PUSH2 0x1869 JUMP JUMPDEST PUSH1 0x40 MLOAD PUSH2 0x266 SWAP2 SWAP1 PUSH2 0x2DBB JUMP JUMPDEST PUSH1 0x40 MLOAD DUP1 SWAP2 SUB SWAP1 RETURN JUMPDEST PUSH2 0x289 PUSH1 0x4 DUP1 CALLDATASIZE SUB DUP2 ADD SWAP1 PUSH2 0x284 SWAP2 SWAP1 PUSH2 0x2BAC JUMP JUMPDEST PUSH2 0x188E JUMP JUMPDEST STOP JUMPDEST PUSH2 0x2A5 PUSH1 0x4 DUP1 CALLDATASIZE SUB DUP2 ADD SWAP1 PUSH2 0x2A0 SWAP2 SWAP1 PUSH2 0x2BAC JUMP JUMPDEST PUSH2 0x1C6D JUMP JUMPDEST STOP JUMPDEST PUSH2 0x2C1 PUSH1 0x4 DUP1 CALLDATASIZE SUB DUP2 ADD SWAP1 PUSH2 0x2BC SWAP2 SWAP1 PUSH2 0x2BAC JUMP JUMPDEST PUSH2 0x1D81 JUMP JUMPDEST STOP JUMPDEST PUSH2 0x2DD PUSH1 0x4 DUP1 CALLDATASIZE SUB DUP2 ADD SWAP1 PUSH2 0x2D8 SWAP2 SWAP1 PUSH2 0x2F80 JUMP JUMPDEST PUSH2 0x2516 JUMP JUMPDEST STOP JUMPDEST PUSH2 0x2F9 PUSH1 0x4 DUP1 CALLDATASIZE SUB DUP2 ADD SWAP1 PUSH2 0x2F4 SWAP2 SWAP1 PUSH2 0x2DFE JUMP JUMPDEST PUSH2 0x2973 JUMP JUMPDEST STOP JUMPDEST PUSH1 0x5 PUSH1 0x20 MSTORE DUP1 PUSH0 MSTORE PUSH1 0x40 PUSH0 KECCAK256 PUSH0 SWAP2 POP SWAP1 POP DUP1 PUSH0 ADD SLOAD SWAP1 DUP1 PUSH1 0x1 ADD PUSH0 SWAP1 SLOAD SWAP1 PUSH2 0x100 EXP SWAP1 DIV PUSH20 0xFFFFFFFFFFFFFFFFFFFFFFFFFFFFFFFFFFFFFFFF AND SWAP1 DUP1 PUSH1 0x2 ADD PUSH0 SWAP1 SLOAD SWAP1 PUSH2 0x100 EXP SWAP1 DIV PUSH20 0xFFFFFFFFFFFFFFFFFFFFFFFFFFFFFFFFFFFFFFFF AND SWAP1 DUP1 PUSH1 0x3 ADD SLOAD SWAP1 DUP1 PUSH1 0x4 ADD PUSH0 SWAP1 SLOAD SWAP1 PUSH2 0x100 EXP SWAP1 DIV PUSH1 0xFF AND SWAP1 DUP1 PUSH1 0x5 ADD SLOAD SWAP1 DUP1 PUSH1 0x6 ADD PUSH0 SWAP1 SLOAD SWAP1 PUSH2 0x100 EXP SWAP1 DIV PUSH1 0xFF AND SWAP1 DUP1 PUSH1 0x6 ADD PUSH1 0x1 SWAP1 SLOAD SWAP1 PUSH2 0x100 EXP SWAP1 DIV PUSH1 0xFF AND SWAP1 POP DUP9 JUMP JUMPDEST PUSH1 0x3 SLOAD DUP2 JUMP JUMPDEST PUSH1 0x2 PUSH0 SWAP1 SLOAD SWAP1 PUSH2 0x100 EXP SWAP1 DIV PUSH20 0xFFFFFFFFFFFFFFFFFFFFFFFFFFFFFFFFFFFFFFFF AND DUP2 JUMP JUMPDEST DUP1 PUSH1 0x5 PUSH0 DUP3 DUP2 MSTORE PUSH1 0x20 ADD SWAP1 DUP2 MSTORE PUSH1 0x20 ADD PUSH0 KECCAK256 PUSH1 0x6 ADD PUSH0 SWAP1 SLOAD SWAP1 PUSH2 0x100 EXP SWAP1 DIV PUSH1 0xFF AND PUSH2 0x42E JUMPI PUSH1 0x40 MLOAD PUSH32 0x8C379A000000000000000000000000000000000000000000000000000000000 DUP2 MSTORE PUSH1 0x4 ADD PUSH2 0x425 SWAP1 PUSH2 0x3037 JUMP JUMPDEST PUSH1 0x40 MLOAD DUP1 SWAP2 SUB SWAP1 REVERT JUMPDEST DUP2 CALLER PUSH20 0xFFFFFFFFFFFFFFFFFFFFFFFFFFFFFFFFFFFFFFFF AND PUSH1 0x5 PUSH0 DUP4 DUP2 MSTORE PUSH1 0x20 ADD SWAP1 DUP2 MSTORE PUSH1 0x20 ADD PUSH0 KECCAK256 PUSH1 0x2 ADD PUSH0 SWAP1 SLOAD SWAP1 PUSH2 0x100 EXP SWAP1 DIV PUSH20 0xFFFFFFFFFFFFFFFFFFFFFFFFFFFFFFFFFFFFFFFF AND PUSH20 0xFFFFFFFFFFFFFFFFFFFFFFFFFFFFFFFFFFFFFFFF AND EQ PUSH2 0x4D0 JUMPI PUSH1 0x40 MLOAD PUSH32 0x8C379A000000000000000000000000000000000000000000000000000000000 DUP2 MSTORE PUSH1 0x4 ADD PUSH2 0x4C7 SWAP1 PUSH2 0x309F JUMP JUMPDEST PUSH1 0x40 MLOAD DUP1 SWAP2 SUB SWAP1 REVERT JUMPDEST PUSH0 PUSH1 0x5 PUSH0 DUP6 DUP2 MSTORE PUSH1 0x20 ADD SWAP1 DUP2 MSTORE PUSH1 0x20 ADD PUSH0 KECCAK256 SWAP1 POP PUSH1 0x1 PUSH1 0x5 DUP2 GT ISZERO PUSH2 0x4F8 JUMPI PUSH2 0x4F7 PUSH2 0x2C25 JUMP JUMPDEST JUMPDEST DUP2 PUSH1 0x4 ADD PUSH0 SWAP1 SLOAD SWAP1 PUSH2 0x100 EXP SWAP1 DIV PUSH1 0xFF AND PUSH1 0x5 DUP2 GT ISZERO PUSH2 0x51B JUMPI PUSH2 0x51A PUSH2 0x2C25 JUMP JUMPDEST JUMPDEST EQ DUP1 PUSH2 0x55B JUMPI POP PUSH1 0x2 PUSH1 0x5 DUP2 GT ISZERO PUSH2 0x536 JUMPI PUSH2 0x535 PUSH2 0x2C25 JUMP JUMPDEST JUMPDEST DUP2 PUSH1 0x4 ADD PUSH0 SWAP1 SLOAD SWAP1 PUSH2 0x100 EXP SWAP1 DIV PUSH1 0xFF AND PUSH1 0x5 DUP2 GT ISZERO PUSH2 0x559 JUMPI PUSH2 0x558 PUSH2 0x2C25 JUMP JUMPDEST JUMPDEST EQ JUMPDEST PUSH2 0x59A JUMPI PUSH1 0x40 MLOAD PUSH32 0x8C379A000000000000000000000000000000000000000000000000000000000 DUP2 MSTORE PUSH1 0x4 ADD PUSH2 0x591 SWAP1 PUSH2 0x3107 JUMP JUMPDEST PUSH1 0x40 MLOAD DUP1 SWAP2 SUB SWAP1 REVERT JUMPDEST PUSH0 PUSH1 0x1 PUSH0 SWAP1 SLOAD SWAP1 PUSH2 0x100 EXP SWAP1 DIV PUSH20 0xFFFFFFFFFFFFFFFFFFFFFFFFFFFFFFFFFFFFFFFF AND PUSH20 0xFFFFFFFFFFFFFFFFFFFFFFFFFFFFFFFFFFFFFFFF AND PUSH4 0x107A274A DUP7 PUSH1 0x40 MLOAD DUP3 PUSH4 0xFFFFFFFF AND PUSH1 0xE0 SHL DUP2 MSTORE PUSH1 0x4 ADD PUSH2 0x5F5 SWAP2 SWAP1 PUSH2 0x2D2E JUMP JUMPDEST PUSH0 PUSH1 0x40 MLOAD DUP1 DUP4 SUB DUP2 DUP7 GAS STATICCALL ISZERO DUP1 ISZERO PUSH2 0x60F JUMPI RETURNDATASIZE PUSH0 PUSH0 RETURNDATACOPY RETURNDATASIZE PUSH0 REVERT JUMPDEST POP POP POP POP PUSH1 0x40 MLOAD RETURNDATASIZE PUSH0 DUP3 RETURNDATACOPY RETURNDATASIZE PUSH1 0x1F NOT PUSH1 0x1F DUP3 ADD AND DUP3 ADD DUP1 PUSH1 0x40 MSTORE POP DUP2 ADD SWAP1 PUSH2 0x637 SWAP2 SWAP1 PUSH2 0x33E0 JUMP JUMPDEST SWAP1 POP PUSH0 PUSH0 PUSH1 0x1 DUP2 GT ISZERO PUSH2 0x64D JUMPI PUSH2 0x64C PUSH2 0x2C25 JUMP JUMPDEST JUMPDEST DUP3 PUSH1 0xA0 ADD MLOAD PUSH1 0x1 DUP2 GT ISZERO PUSH2 0x664 JUMPI PUSH2 0x663 PUSH2 0x2C25 JUMP JUMPDEST JUMPDEST SUB PUSH2 0x694 JUMPI DUP3 PUSH1 0x1 ADD PUSH0 SWAP1 SLOAD SWAP1 PUSH2 0x100 EXP SWAP1 DIV PUSH20 0xFFFFFFFFFFFFFFFFFFFFFFFFFFFFFFFFFFFFFFFF AND SWAP1 POP PUSH2 0x6BB JUMP JUMPDEST DUP3 PUSH1 0x2 ADD PUSH0 SWAP1 SLOAD SWAP1 PUSH2 0x100 EXP SWAP1 DIV PUSH20 0xFFFFFFFFFFFFFFFFFFFFFFFFFFFFFFFFFFFFFFFF AND SWAP1 POP JUMPDEST PUSH1 0x5 DUP4 PUSH1 0x4 ADD PUSH0 PUSH2 0x100 EXP DUP2 SLOAD DUP2 PUSH1 0xFF MUL NOT AND SWAP1 DUP4 PUSH1 0x5 DUP2 GT ISZERO PUSH2 0x6E2 JUMPI PUSH2 0x6E1 PUSH2 0x2C25 JUMP JUMPDEST JUMPDEST MUL OR SWAP1 SSTORE POP PUSH1 0x2 PUSH0 SWAP1 SLOAD SWAP1 PUSH2 0x100 EXP SWAP1 DIV PUSH20 0xFFFFFFFFFFFFFFFFFFFFFFFFFFFFFFFFFFFFFFFF AND PUSH20 0xFFFFFFFFFFFFFFFFFFFFFFFFFFFFFFFFFFFFFFFF AND PUSH4 0xA9059CBB DUP3 DUP6 PUSH1 0x3 ADD SLOAD PUSH1 0x40 MLOAD DUP4 PUSH4 0xFFFFFFFF AND PUSH1 0xE0 SHL DUP2 MSTORE PUSH1 0x4 ADD PUSH2 0x747 SWAP3 SWAP2 SWAP1 PUSH2 0x3427 JUMP JUMPDEST PUSH1 0x20 PUSH1 0x40 MLOAD DUP1 DUP4 SUB DUP2 PUSH0 DUP8 GAS CALL ISZERO DUP1 ISZERO PUSH2 0x763 JUMPI RETURNDATASIZE PUSH0 PUSH0 RETURNDATACOPY RETURNDATASIZE PUSH0 REVERT JUMPDEST POP POP POP POP PUSH1 0x40 MLOAD RETURNDATASIZE PUSH1 0x1F NOT PUSH1 0x1F DUP3 ADD AND DUP3 ADD DUP1 PUSH1 0x40 MSTORE POP DUP2 ADD SWAP1 PUSH2 0x787 SWAP2 SWAP1 PUSH2 0x344E JUMP JUMPDEST PUSH2 0x7C6 JUMPI PUSH1 0x40 MLOAD PUSH32 0x8C379A000000000000000000000000000000000000000000000000000000000 DUP2 MSTORE PUSH1 0x4 ADD PUSH2 0x7BD SWAP1 PUSH2 0x34C3 JUMP JUMPDEST PUSH1 0x40 MLOAD DUP1 SWAP2 SUB SWAP1 REVERT JUMPDEST PUSH1 0x1 PUSH0 SWAP1 SLOAD SWAP1 PUSH2 0x100 EXP SWAP1 DIV PUSH20 0xFFFFFFFFFFFFFFFFFFFFFFFFFFFFFFFFFFFFFFFF AND PUSH20 0xFFFFFFFFFFFFFFFFFFFFFFFFFFFFFFFFFFFFFFFF AND PUSH4 0x6B675CB4 DUP8 PUSH1 0x40 MLOAD DUP3 PUSH4 0xFFFFFFFF AND PUSH1 0xE0 SHL DUP2 MSTORE PUSH1 0x4 ADD PUSH2 0x820 SWAP2 SWAP1 PUSH2 0x2D2E JUMP JUMPDEST PUSH0 PUSH1 0x40 MLOAD DUP1 DUP4 SUB DUP2 PUSH0 DUP8 DUP1 EXTCODESIZE ISZERO DUP1 ISZERO PUSH2 0x837 JUMPI PUSH0 PUSH0 REVERT JUMPDEST POP GAS CALL ISZERO DUP1 ISZERO PUSH2 0x849 JUMPI RETURNDATASIZE PUSH0 PUSH0 RETURNDATACOPY RETURNDATASIZE PUSH0 REVERT JUMPDEST POP POP POP POP DUP6 PUSH32 0xD977C6B1A383AC5CE532B4A668D0EF9AD38478E1A5FF28ABB221F4B682B2643 PUSH1 0x40 MLOAD PUSH1 0x40 MLOAD DUP1 SWAP2 SUB SWAP1 LOG2 DUP1 PUSH20 0xFFFFFFFFFFFFFFFFFFFFFFFFFFFFFFFFFFFFFFFF AND DUP7 PUSH32 0xEAC97BC1917FCEDC984E3D0671D4E83B359890323D5D1C2DE32B28D17C356CED DUP6 PUSH1 0x3 ADD SLOAD PUSH1 0x40 MLOAD PUSH2 0x8C5 SWAP2 SWAP1 PUSH2 0x2D2E JUMP JUMPDEST PUSH1 0x40 MLOAD DUP1 SWAP2 SUB SWAP1 LOG3 POP POP POP POP POP POP JUMP JUMPDEST PUSH1 0x4 PUSH0 SWAP1 SLOAD SWAP1 PUSH2 0x100 EXP SWAP1 DIV PUSH20 0xFFFFFFFFFFFFFFFFFFFFFFFFFFFFFFFFFFFFFFFF AND DUP2 JUMP JUMPDEST DUP1 PUSH1 0x5 PUSH0 DUP3 DUP2 MSTORE PUSH1 0x20 ADD SWAP1 DUP2 MSTORE PUSH1 0x20 ADD PUSH0 KECCAK256 PUSH1 0x6 ADD PUSH0 SWAP1 SLOAD SWAP1 PUSH2 0x100 EXP SWAP1 DIV PUSH1 0xFF AND PUSH2 0x95B JUMPI PUSH1 0x40 MLOAD PUSH32 0x8C379A000000000000000000000000000000000000000000000000000000000 DUP2 MSTORE PUSH1 0x4 ADD PUSH2 0x952 SWAP1 PUSH2 0x3037 JUMP JUMPDEST PUSH1 0x40 MLOAD DUP1 SWAP2 SUB SWAP1 REVERT JUMPDEST PUSH0 PUSH0 SWAP1 SLOAD SWAP1 PUSH2 0x100 EXP SWAP1 DIV PUSH20 0xFFFFFFFFFFFFFFFFFFFFFFFFFFFFFFFFFFFFFFFF AND PUSH20 0xFFFFFFFFFFFFFFFFFFFFFFFFFFFFFFFFFFFFFFFF AND CALLER PUSH20 0xFFFFFFFFFFFFFFFFFFFFFFFFFFFFFFFFFFFFFFFF AND EQ PUSH2 0x9E9 JUMPI PUSH1 0x40 MLOAD PUSH32 0x8C379A000000000000000000000000000000000000000000000000000000000 DUP2 MSTORE PUSH1 0x4 ADD PUSH2 0x9E0 SWAP1 PUSH2 0x352B JUMP JUMPDEST PUSH1 0x40 MLOAD DUP1 SWAP2 SUB SWAP1 REVERT JUMPDEST PUSH0 PUSH1 0x5 PUSH0 DUP5 DUP2 MSTORE PUSH1 0x20 ADD SWAP1 DUP2 MSTORE PUSH1 0x20 ADD PUSH0 KECCAK256 SWAP1 POP PUSH1 0x1 PUSH1 0x5 DUP2 GT ISZERO PUSH2 0xA11 JUMPI PUSH2 0xA10 PUSH2 0x2C25 JUMP JUMPDEST JUMPDEST DUP2 PUSH1 0x4 ADD PUSH0 SWAP1 SLOAD SWAP1 PUSH2 0x100 EXP SWAP1 DIV PUSH1 0xFF AND PUSH1 0x5 DUP2 GT ISZERO PUSH2 0xA34 JUMPI PUSH2 0xA33 PUSH2 0x2C25 JUMP JUMPDEST JUMPDEST EQ DUP1 PUSH2 0xA74 JUMPI POP PUSH1 0x2 PUSH1 0x5 DUP2 GT ISZERO PUSH2 0xA4F JUMPI PUSH2 0xA4E PUSH2 0x2C25 JUMP JUMPDEST JUMPDEST DUP2 PUSH1 0x4 ADD PUSH0 SWAP1 SLOAD SWAP1 PUSH2 0x100 EXP SWAP1 DIV PUSH1 0xFF AND PUSH1 0x5 DUP2 GT ISZERO PUSH2 0xA72 JUMPI PUSH2 0xA71 PUSH2 0x2C25 JUMP JUMPDEST JUMPDEST EQ JUMPDEST PUSH2 0xAB3 JUMPI PUSH1 0x40 MLOAD PUSH32 0x8C379A000000000000000000000000000000000000000000000000000000000 DUP2 MSTORE PUSH1 0x4 ADD PUSH2 0xAAA SWAP1 PUSH2 0x3593 JUMP JUMPDEST PUSH1 0x40 MLOAD DUP1 SWAP2 SUB SWAP1 REVERT JUMPDEST PUSH0 PUSH1 0x1 PUSH0 SWAP1 SLOAD SWAP1 PUSH2 0x100 EXP SWAP1 DIV PUSH20 0xFFFFFFFFFFFFFFFFFFFFFFFFFFFFFFFFFFFFFFFF AND PUSH20 0xFFFFFFFFFFFFFFFFFFFFFFFFFFFFFFFFFFFFFFFF AND PUSH4 0x107A274A DUP6 PUSH1 0x40 MLOAD DUP3 PUSH4 0xFFFFFFFF AND PUSH1 0xE0 SHL DUP2 MSTORE PUSH1 0x4 ADD PUSH2 0xB0E SWAP2 SWAP1 PUSH2 0x2D2E JUMP JUMPDEST PUSH0 PUSH1 0x40 MLOAD DUP1 DUP4 SUB DUP2 DUP7 GAS STATICCALL ISZERO DUP1 ISZERO PUSH2 0xB28 JUMPI RETURNDATASIZE PUSH0 PUSH0 RETURNDATACOPY RETURNDATASIZE PUSH0 REVERT JUMPDEST POP POP POP POP PUSH1 0x40 MLOAD RETURNDATASIZE PUSH0 DUP3 RETURNDATACOPY RETURNDATASIZE PUSH1 0x1F NOT PUSH1 0x1F DUP3 ADD AND DUP3 ADD DUP1 PUSH1 0x40 MSTORE POP DUP2 ADD SWAP1 PUSH2 0xB50 SWAP2 SWAP1 PUSH2 0x33E0 JUMP JUMPDEST SWAP1 POP PUSH0 PUSH0 PUSH1 0x1 DUP2 GT ISZERO PUSH2 0xB66 JUMPI PUSH2 0xB65 PUSH2 0x2C25 JUMP JUMPDEST JUMPDEST DUP3 PUSH1 0xA0 ADD MLOAD PUSH1 0x1 DUP2 GT ISZERO PUSH2 0xB7D JUMPI PUSH2 0xB7C PUSH2 0x2C25 JUMP JUMPDEST JUMPDEST SUB PUSH2 0xBAD JUMPI DUP3 PUSH1 0x1 ADD PUSH0 SWAP1 SLOAD SWAP1 PUSH2 0x100 EXP SWAP1 DIV PUSH20 0xFFFFFFFFFFFFFFFFFFFFFFFFFFFFFFFFFFFFFFFF AND SWAP1 POP PUSH2 0xBD4 JUMP JUMPDEST DUP3 PUSH1 0x2 ADD PUSH0 SWAP1 SLOAD SWAP1 PUSH2 0x100 EXP SWAP1 DIV PUSH20 0xFFFFFFFFFFFFFFFFFFFFFFFFFFFFFFFFFFFFFFFF AND SWAP1 POP JUMPDEST PUSH1 0x4 DUP4 PUSH1 0x4 ADD PUSH0 PUSH2 0x100 EXP DUP2 SLOAD DUP2 PUSH1 0xFF MUL NOT AND SWAP1 DUP4 PUSH1 0x5 DUP2 GT ISZERO PUSH2 0xBFB JUMPI PUSH2 0xBFA PUSH2 0x2C25 JUMP JUMPDEST JUMPDEST MUL OR SWAP1 SSTORE POP PUSH1 0x2 PUSH0 SWAP1 SLOAD SWAP1 PUSH2 0x100 EXP SWAP1 DIV PUSH20 0xFFFFFFFFFFFFFFFFFFFFFFFFFFFFFFFFFFFFFFFF AND PUSH20 0xFFFFFFFFFFFFFFFFFFFFFFFFFFFFFFFFFFFFFFFF AND PUSH4 0xA9059CBB DUP3 DUP6 PUSH1 0x3 ADD SLOAD PUSH1 0x40 MLOAD DUP4 PUSH4 0xFFFFFFFF AND PUSH1 0xE0 SHL DUP2 MSTORE PUSH1 0x4 ADD PUSH2 0xC60 SWAP3 SWAP2 SWAP1 PUSH2 0x3427 JUMP JUMPDEST PUSH1 0x20 PUSH1 0x40 MLOAD DUP1 DUP4 SUB DUP2 PUSH0 DUP8 GAS CALL ISZERO DUP1 ISZERO PUSH2 0xC7C JUMPI RETURNDATASIZE PUSH0 PUSH0 RETURNDATACOPY RETURNDATASIZE PUSH0 REVERT JUMPDEST POP POP POP POP PUSH1 0x40 MLOAD RETURNDATASIZE PUSH1 0x1F NOT PUSH1 0x1F DUP3 ADD AND DUP3 ADD DUP1 PUSH1 0x40 MSTORE POP DUP2 ADD SWAP1 PUSH2 0xCA0 SWAP2 SWAP1 PUSH2 0x344E JUMP JUMPDEST PUSH2 0xCDF JUMPI PUSH1 0x40 MLOAD PUSH32 0x8C379A000000000000000000000000000000000000000000000000000000000 DUP2 MSTORE PUSH1 0x4 ADD PUSH2 0xCD6 SWAP1 PUSH2 0x34C3 JUMP JUMPDEST PUSH1 0x40 MLOAD DUP1 SWAP2 SUB SWAP1 REVERT JUMPDEST PUSH1 0x1 PUSH0 SWAP1 SLOAD SWAP1 PUSH2 0x100 EXP SWAP1 DIV PUSH20 0xFFFFFFFFFFFFFFFFFFFFFFFFFFFFFFFFFFFFFFFF AND PUSH20 0xFFFFFFFFFFFFFFFFFFFFFFFFFFFFFFFFFFFFFFFF AND PUSH4 0x6B675CB4 DUP7 PUSH1 0x40 MLOAD DUP3 PUSH4 0xFFFFFFFF AND PUSH1 0xE0 SHL DUP2 MSTORE PUSH1 0x4 ADD PUSH2 0xD39 SWAP2 SWAP1 PUSH2 0x2D2E JUMP JUMPDEST PUSH0 PUSH1 0x40 MLOAD DUP1 DUP4 SUB DUP2 PUSH0 DUP8 DUP1 EXTCODESIZE ISZERO DUP1 ISZERO PUSH2 0xD50 JUMPI PUSH0 PUSH0 REVERT JUMPDEST POP GAS CALL ISZERO DUP1 ISZERO PUSH2 0xD62 JUMPI RETURNDATASIZE PUSH0 PUSH0 RETURNDATACOPY RETURNDATASIZE PUSH0 REVERT JUMPDEST POP POP POP POP DUP1 PUSH20 0xFFFFFFFFFFFFFFFFFFFFFFFFFFFFFFFFFFFFFFFF AND DUP6 PUSH32 0xEAC97BC1917FCEDC984E3D0671D4E83B359890323D5D1C2DE32B28D17C356CED DUP6 PUSH1 0x3 ADD SLOAD PUSH1 0x40 MLOAD PUSH2 0xDB1 SWAP2 SWAP1 PUSH2 0x2D2E JUMP JUMPDEST PUSH1 0x40 MLOAD DUP1 SWAP2 SUB SWAP1 LOG3 POP POP POP POP POP JUMP JUMPDEST PUSH0 PUSH0 SWAP1 SLOAD SWAP1 PUSH2 0x100 EXP SWAP1 DIV PUSH20 0xFFFFFFFFFFFFFFFFFFFFFFFFFFFFFFFFFFFFFFFF AND PUSH20 0xFFFFFFFFFFFFFFFFFFFFFFFFFFFFFFFFFFFFFFFF AND CALLER PUSH20 0xFFFFFFFFFFFFFFFFFFFFFFFFFFFFFFFFFFFFFFFF AND EQ PUSH2 0xE4E JUMPI PUSH1 0x40 MLOAD PUSH32 0x8C379A000000000000000000000000000000000000000000000000000000000 DUP2 MSTORE PUSH1 0x4 ADD PUSH2 0xE45 SWAP1 PUSH2 0x352B JUMP JUMPDEST PUSH1 0x40 MLOAD DUP1 SWAP2 SUB SWAP1 REVERT JUMPDEST PUSH0 PUSH20 0xFFFFFFFFFFFFFFFFFFFFFFFFFFFFFFFFFFFFFFFF AND DUP2 PUSH20 0xFFFFFFFFFFFFFFFFFFFFFFFFFFFFFFFFFFFFFFFF AND SUB PUSH2 0xEBC JUMPI PUSH1 0x40 MLOAD PUSH32 0x8C379A000000000000000000000000000000000000000000000000000000000 DUP2 MSTORE PUSH1 0x4 ADD PUSH2 0xEB3 SWAP1 PUSH2 0x35FB JUMP JUMPDEST PUSH1 0x40 MLOAD DUP1 SWAP2 SUB SWAP1 REVERT JUMPDEST DUP1 PUSH1 0x2 PUSH0 PUSH2 0x100 EXP DUP2 SLOAD DUP2 PUSH20 0xFFFFFFFFFFFFFFFFFFFFFFFFFFFFFFFFFFFFFFFF MUL NOT AND SWAP1 DUP4 PUSH20 0xFFFFFFFFFFFFFFFFFFFFFFFFFFFFFFFFFFFFFFFF AND MUL OR SWAP1 SSTORE POP PUSH32 0xBD4032C1C91DA2791730EA1BBC82C6B6F857DA7C0A8318143D19EF74E62CD913 DUP2 PUSH1 0x40 MLOAD PUSH2 0xF2B SWAP2 SWAP1 PUSH2 0x2DBB JUMP JUMPDEST PUSH1 0x40 MLOAD DUP1 SWAP2 SUB SWAP1 LOG1 POP JUMP JUMPDEST PUSH2 0xF3E PUSH2 0x2AE9 JUMP JUMPDEST PUSH1 0x5 PUSH0 DUP4 DUP2 MSTORE PUSH1 0x20 ADD SWAP1 DUP2 MSTORE PUSH1 0x20 ADD PUSH0 KECCAK256 PUSH1 0x40 MLOAD DUP1 PUSH2 0x100 ADD PUSH1 0x40 MSTORE SWAP1 DUP2 PUSH0 DUP3 ADD SLOAD DUP2 MSTORE PUSH1 0x20 ADD PUSH1 0x1 DUP3 ADD PUSH0 SWAP1 SLOAD SWAP1 PUSH2 0x100 EXP SWAP1 DIV PUSH20 0xFFFFFFFFFFFFFFFFFFFFFFFFFFFFFFFFFFFFFFFF AND PUSH20 0xFFFFFFFFFFFFFFFFFFFFFFFFFFFFFFFFFFFFFFFF AND PUSH20 0xFFFFFFFFFFFFFFFFFFFFFFFFFFFFFFFFFFFFFFFF AND DUP2 MSTORE PUSH1 0x20 ADD PUSH1 0x2 DUP3 ADD PUSH0 SWAP1 SLOAD SWAP1 PUSH2 0x100 EXP SWAP1 DIV PUSH20 0xFFFFFFFFFFFFFFFFFFFFFFFFFFFFFFFFFFFFFFFF AND PUSH20 0xFFFFFFFFFFFFFFFFFFFFFFFFFFFFFFFFFFFFFFFF AND PUSH20 0xFFFFFFFFFFFFFFFFFFFFFFFFFFFFFFFFFFFFFFFF AND DUP2 MSTORE PUSH1 0x20 ADD PUSH1 0x3 DUP3 ADD SLOAD DUP2 MSTORE PUSH1 0x20 ADD PUSH1 0x4 DUP3 ADD PUSH0 SWAP1 SLOAD SWAP1 PUSH2 0x100 EXP SWAP1 DIV PUSH1 0xFF AND PUSH1 0x5 DUP2 GT ISZERO PUSH2 0x103C JUMPI PUSH2 0x103B PUSH2 0x2C25 JUMP JUMPDEST JUMPDEST PUSH1 0x5 DUP2 GT ISZERO PUSH2 0x104E JUMPI PUSH2 0x104D PUSH2 0x2C25 JUMP JUMPDEST JUMPDEST DUP2 MSTORE PUSH1 0x20 ADD PUSH1 0x5 DUP3 ADD SLOAD DUP2 MSTORE PUSH1 0x20 ADD PUSH1 0x6 DUP3 ADD PUSH0 SWAP1 SLOAD SWAP1 PUSH2 0x100 EXP SWAP1 DIV PUSH1 0xFF AND ISZERO ISZERO ISZERO ISZERO DUP2 MSTORE PUSH1 0x20 ADD PUSH1 0x6 DUP3 ADD PUSH1 0x1 SWAP1 SLOAD SWAP1 PUSH2 0x100 EXP SWAP1 DIV PUSH1 0xFF AND ISZERO ISZERO ISZERO ISZERO DUP2 MSTORE POP POP SWAP1 POP SWAP2 SWAP1 POP JUMP JUMPDEST PUSH0 PUSH0 SWAP1 SLOAD SWAP1 PUSH2 0x100 EXP SWAP1 DIV PUSH20 0xFFFFFFFFFFFFFFFFFFFFFFFFFFFFFFFFFFFFFFFF AND DUP2 JUMP JUMPDEST DUP1 PUSH1 0x5 PUSH0 DUP3 DUP2 MSTORE PUSH1 0x20 ADD SWAP1 DUP2 MSTORE PUSH1 0x20 ADD PUSH0 KECCAK256 PUSH1 0x6 ADD PUSH0 SWAP1 SLOAD SWAP1 PUSH2 0x100 EXP SWAP1 DIV PUSH1 0xFF AND PUSH2 0x111D JUMPI PUSH1 0x40 MLOAD PUSH32 0x8C379A000000000000000000000000000000000000000000000000000000000 DUP2 MSTORE PUSH1 0x4 ADD PUSH2 0x1114 SWAP1 PUSH2 0x3037 JUMP JUMPDEST PUSH1 0x40 MLOAD DUP1 SWAP2 SUB SWAP1 REVERT JUMPDEST PUSH0 PUSH1 0x5 PUSH0 DUP5 DUP2 MSTORE PUSH1 0x20 ADD SWAP1 DUP2 MSTORE PUSH1 0x20 ADD PUSH0 KECCAK256 SWAP1 POP PUSH0 PUSH1 0x1 PUSH0 SWAP1 SLOAD SWAP1 PUSH2 0x100 EXP SWAP1 DIV PUSH20 0xFFFFFFFFFFFFFFFFFFFFFFFFFFFFFFFFFFFFFFFF AND PUSH20 0xFFFFFFFFFFFFFFFFFFFFFFFFFFFFFFFFFFFFFFFF AND PUSH4 0x107A274A DUP6 PUSH1 0x40 MLOAD DUP3 PUSH4 0xFFFFFFFF AND PUSH1 0xE0 SHL DUP2 MSTORE PUSH1 0x4 ADD PUSH2 0x118C SWAP2 SWAP1 PUSH2 0x2D2E JUMP JUMPDEST PUSH0 PUSH1 0x40 MLOAD DUP1 DUP4 SUB DUP2 DUP7 GAS STATICCALL ISZERO DUP1 ISZERO PUSH2 0x11A6 JUMPI RETURNDATASIZE PUSH0 PUSH0 RETURNDATACOPY RETURNDATASIZE PUSH0 REVERT JUMPDEST POP POP POP POP PUSH1 0x40 MLOAD RETURNDATASIZE PUSH0 DUP3 RETURNDATACOPY RETURNDATASIZE PUSH1 0x1F NOT PUSH1 0x1F DUP3 ADD AND DUP3 ADD DUP1 PUSH1 0x40 MSTORE POP DUP2 ADD SWAP1 PUSH2 0x11CE SWAP2 SWAP1 PUSH2 0x33E0 JUMP JUMPDEST SWAP1 POP PUSH1 0x2 PUSH1 0x5 DUP2 GT ISZERO PUSH2 0x11E4 JUMPI PUSH2 0x11E3 PUSH2 0x2C25 JUMP JUMPDEST JUMPDEST DUP3 PUSH1 0x4 ADD PUSH0 SWAP1 SLOAD SWAP1 PUSH2 0x100 EXP SWAP1 DIV PUSH1 0xFF AND PUSH1 0x5 DUP2 GT ISZERO PUSH2 0x1207 JUMPI PUSH2 0x1206 PUSH2 0x2C25 JUMP JUMPDEST JUMPDEST EQ PUSH2 0x1247 JUMPI PUSH1 0x40 MLOAD PUSH32 0x8C379A000000000000000000000000000000000000000000000000000000000 DUP2 MSTORE PUSH1 0x4 ADD PUSH2 0x123E SWAP1 PUSH2 0x3663 JUMP JUMPDEST PUSH1 0x40 MLOAD DUP1 SWAP2 SUB SWAP1 REVERT JUMPDEST PUSH0 PUSH1 0x1 DUP2 GT ISZERO PUSH2 0x125A JUMPI PUSH2 0x1259 PUSH2 0x2C25 JUMP JUMPDEST JUMPDEST DUP2 PUSH1 0xA0 ADD MLOAD PUSH1 0x1 DUP2 GT ISZERO PUSH2 0x1271 JUMPI PUSH2 0x1270 PUSH2 0x2C25 JUMP JUMPDEST JUMPDEST SUB PUSH2 0x130C JUMPI DUP2 PUSH1 0x1 ADD PUSH0 SWAP1 SLOAD SWAP1 PUSH2 0x100 EXP SWAP1 DIV PUSH20 0xFFFFFFFFFFFFFFFFFFFFFFFFFFFFFFFFFFFFFFFF AND PUSH20 0xFFFFFFFFFFFFFFFFFFFFFFFFFFFFFFFFFFFFFFFF AND CALLER PUSH20 0xFFFFFFFFFFFFFFFFFFFFFFFFFFFFFFFFFFFFFFFF AND EQ PUSH2 0x1307 JUMPI PUSH1 0x40 MLOAD PUSH32 0x8C379A000000000000000000000000000000000000000000000000000000000 DUP2 MSTORE PUSH1 0x4 ADD PUSH2 0x12FE SWAP1 PUSH2 0x36CB JUMP JUMPDEST PUSH1 0x40 MLOAD DUP1 SWAP2 SUB SWAP1 REVERT JUMPDEST PUSH2 0x139E JUMP JUMPDEST DUP2 PUSH1 0x2 ADD PUSH0 SWAP1 SLOAD SWAP1 PUSH2 0x100 EXP SWAP1 DIV PUSH20 0xFFFFFFFFFFFFFFFFFFFFFFFFFFFFFFFFFFFFFFFF AND PUSH20 0xFFFFFFFFFFFFFFFFFFFFFFFFFFFFFFFFFFFFFFFF AND CALLER PUSH20 0xFFFFFFFFFFFFFFFFFFFFFFFFFFFFFFFFFFFFFFFF AND EQ PUSH2 0x139D JUMPI PUSH1 0x40 MLOAD PUSH32 0x8C379A000000000000000000000000000000000000000000000000000000000 DUP2 MSTORE PUSH1 0x4 ADD PUSH2 0x1394 SWAP1 PUSH2 0x3759 JUMP JUMPDEST PUSH1 0x40 MLOAD DUP1 SWAP2 SUB SWAP1 REVERT JUMPDEST JUMPDEST PUSH0 PUSH2 0x2710 PUSH1 0x3 SLOAD DUP5 PUSH1 0x3 ADD SLOAD PUSH2 0x13B4 SWAP2 SWAP1 PUSH2 0x37A4 JUMP JUMPDEST PUSH2 0x13BE SWAP2 SWAP1 PUSH2 0x3812 JUMP JUMPDEST SWAP1 POP PUSH0 DUP2 DUP5 PUSH1 0x3 ADD SLOAD PUSH2 0x13D1 SWAP2 SWAP1 PUSH2 0x3842 JUMP JUMPDEST SWAP1 POP PUSH1 0x3 DUP5 PUSH1 0x4 ADD PUSH0 PUSH2 0x100 EXP DUP2 SLOAD DUP2 PUSH1 0xFF MUL NOT AND SWAP1 DUP4 PUSH1 0x5 DUP2 GT ISZERO PUSH2 0x13FA JUMPI PUSH2 0x13F9 PUSH2 0x2C25 JUMP JUMPDEST JUMPDEST MUL OR SWAP1 SSTORE POP PUSH0 PUSH1 0x1 DUP2 GT ISZERO PUSH2 0x1412 JUMPI PUSH2 0x1411 PUSH2 0x2C25 JUMP JUMPDEST JUMPDEST DUP4 PUSH1 0xA0 ADD MLOAD PUSH1 0x1 DUP2 GT ISZERO PUSH2 0x1429 JUMPI PUSH2 0x1428 PUSH2 0x2C25 JUMP JUMPDEST JUMPDEST SUB PUSH2 0x1531 JUMPI PUSH1 0x2 PUSH0 SWAP1 SLOAD SWAP1 PUSH2 0x100 EXP SWAP1 DIV PUSH20 0xFFFFFFFFFFFFFFFFFFFFFFFFFFFFFFFFFFFFFFFF AND PUSH20 0xFFFFFFFFFFFFFFFFFFFFFFFFFFFFFFFFFFFFFFFF AND PUSH4 0xA9059CBB DUP6 PUSH1 0x2 ADD PUSH0 SWAP1 SLOAD SWAP1 PUSH2 0x100 EXP SWAP1 DIV PUSH20 0xFFFFFFFFFFFFFFFFFFFFFFFFFFFFFFFFFFFFFFFF AND DUP4 PUSH1 0x40 MLOAD DUP4 PUSH4 0xFFFFFFFF AND PUSH1 0xE0 SHL DUP2 MSTORE PUSH1 0x4 ADD PUSH2 0x14AD SWAP3 SWAP2 SWAP1 PUSH2 0x3427 JUMP JUMPDEST PUSH1 0x20 PUSH1 0x40 MLOAD DUP1 DUP4 SUB DUP2 PUSH0 DUP8 GAS CALL ISZERO DUP1 ISZERO PUSH2 0x14C9 JUMPI RETURNDATASIZE PUSH0 PUSH0 RETURNDATACOPY RETURNDATASIZE PUSH0 REVERT JUMPDEST POP POP POP POP PUSH1 0x40 MLOAD RETURNDATASIZE PUSH1 0x1F NOT PUSH1 0x1F DUP3 ADD AND DUP3 ADD DUP1 PUSH1 0x40 MSTORE POP DUP2 ADD SWAP1 PUSH2 0x14ED SWAP2 SWAP1 PUSH2 0x344E JUMP JUMPDEST PUSH2 0x152C JUMPI PUSH1 0x40 MLOAD PUSH32 0x8C379A000000000000000000000000000000000000000000000000000000000 DUP2 MSTORE PUSH1 0x4 ADD PUSH2 0x1523 SWAP1 PUSH2 0x38BF JUMP JUMPDEST PUSH1 0x40 MLOAD DUP1 SWAP2 SUB SWAP1 REVERT JUMPDEST PUSH2 0x1630 JUMP JUMPDEST PUSH1 0x2 PUSH0 SWAP1 SLOAD SWAP1 PUSH2 0x100 EXP SWAP1 DIV PUSH20 0xFFFFFFFFFFFFFFFFFFFFFFFFFFFFFFFFFFFFFFFF AND PUSH20 0xFFFFFFFFFFFFFFFFFFFFFFFFFFFFFFFFFFFFFFFF AND PUSH4 0xA9059CBB DUP6 PUSH1 0x1 ADD PUSH0 SWAP1 SLOAD SWAP1 PUSH2 0x100 EXP SWAP1 DIV PUSH20 0xFFFFFFFFFFFFFFFFFFFFFFFFFFFFFFFFFFFFFFFF AND DUP4 PUSH1 0x40 MLOAD DUP4 PUSH4 0xFFFFFFFF AND PUSH1 0xE0 SHL DUP2 MSTORE PUSH1 0x4 ADD PUSH2 0x15B0 SWAP3 SWAP2 SWAP1 PUSH2 0x3427 JUMP JUMPDEST PUSH1 0x20 PUSH1 0x40 MLOAD DUP1 DUP4 SUB DUP2 PUSH0 DUP8 GAS CALL ISZERO DUP1 ISZERO PUSH2 0x15CC JUMPI RETURNDATASIZE PUSH0 PUSH0 RETURNDATACOPY RETURNDATASIZE PUSH0 REVERT JUMPDEST POP POP POP POP PUSH1 0x40 MLOAD RETURNDATASIZE PUSH1 0x1F NOT PUSH1 0x1F DUP3 ADD AND DUP3 ADD DUP1 PUSH1 0x40 MSTORE POP DUP2 ADD SWAP1 PUSH2 0x15F0 SWAP2 SWAP1 PUSH2 0x344E JUMP JUMPDEST PUSH2 0x162F JUMPI PUSH1 0x40 MLOAD PUSH32 0x8C379A000000000000000000000000000000000000000000000000000000000 DUP2 MSTORE PUSH1 0x4 ADD PUSH2 0x1626 SWAP1 PUSH2 0x3927 JUMP JUMPDEST PUSH1 0x40 MLOAD DUP1 SWAP2 SUB SWAP1 REVERT JUMPDEST JUMPDEST PUSH1 0x2 PUSH0 SWAP1 SLOAD SWAP1 PUSH2 0x100 EXP SWAP1 DIV PUSH20 0xFFFFFFFFFFFFFFFFFFFFFFFFFFFFFFFFFFFFFFFF AND PUSH20 0xFFFFFFFFFFFFFFFFFFFFFFFFFFFFFFFFFFFFFFFF AND PUSH4 0xA9059CBB PUSH1 0x4 PUSH0 SWAP1 SLOAD SWAP1 PUSH2 0x100 EXP SWAP1 DIV PUSH20 0xFFFFFFFFFFFFFFFFFFFFFFFFFFFFFFFFFFFFFFFF AND DUP5 PUSH1 0x40 MLOAD DUP4 PUSH4 0xFFFFFFFF AND PUSH1 0xE0 SHL DUP2 MSTORE PUSH1 0x4 ADD PUSH2 0x16AD SWAP3 SWAP2 SWAP1 PUSH2 0x3427 JUMP JUMPDEST PUSH1 0x20 PUSH1 0x40 MLOAD DUP1 DUP4 SUB DUP2 PUSH0 DUP8 GAS CALL ISZERO DUP1 ISZERO PUSH2 0x16C9 JUMPI RETURNDATASIZE PUSH0 PUSH0 RETURNDATACOPY RETURNDATASIZE PUSH0 REVERT JUMPDEST POP POP POP POP PUSH1 0x40 MLOAD RETURNDATASIZE PUSH1 0x1F NOT PUSH1 0x1F DUP3 ADD AND DUP3 ADD DUP1 PUSH1 0x40 MSTORE POP DUP2 ADD SWAP1 PUSH2 0x16ED SWAP2 SWAP1 PUSH2 0x344E JUMP JUMPDEST PUSH2 0x172C JUMPI PUSH1 0x40 MLOAD PUSH32 0x8C379A000000000000000000000000000000000000000000000000000000000 DUP2 MSTORE PUSH1 0x4 ADD PUSH2 0x1723 SWAP1 PUSH2 0x398F JUMP JUMPDEST PUSH1 0x40 MLOAD DUP1 SWAP2 SUB SWAP1 REVERT JUMPDEST PUSH1 0x1 PUSH0 SWAP1 SLOAD SWAP1 PUSH2 0x100 EXP SWAP1 DIV PUSH20 0xFFFFFFFFFFFFFFFFFFFFFFFFFFFFFFFFFFFFFFFF AND PUSH20 0xFFFFFFFFFFFFFFFFFFFFFFFFFFFFFFFFFFFFFFFF AND PUSH4 0x4904FF8E DUP8 PUSH1 0x40 MLOAD DUP3 PUSH4 0xFFFFFFFF AND PUSH1 0xE0 SHL DUP2 MSTORE PUSH1 0x4 ADD PUSH2 0x1786 SWAP2 SWAP1 PUSH2 0x2D2E JUMP JUMPDEST PUSH0 PUSH1 0x40 MLOAD DUP1 DUP4 SUB DUP2 PUSH0 DUP8 DUP1 EXTCODESIZE ISZERO DUP1 ISZERO PUSH2 0x179D JUMPI PUSH0 PUSH0 REVERT JUMPDEST POP GAS CALL ISZERO DUP1 ISZERO PUSH2 0x17AF JUMPI RETURNDATASIZE PUSH0 PUSH0 RETURNDATACOPY RETURNDATASIZE PUSH0 REVERT JUMPDEST POP POP POP POP DUP4 PUSH1 0x2 ADD PUSH0 SWAP1 SLOAD SWAP1 PUSH2 0x100 EXP SWAP1 DIV PUSH20 0xFFFFFFFFFFFFFFFFFFFFFFFFFFFFFFFFFFFFFFFF AND PUSH20 0xFFFFFFFFFFFFFFFFFFFFFFFFFFFFFFFFFFFFFFFF AND DUP5 PUSH1 0x1 ADD PUSH0 SWAP1 SLOAD SWAP1 PUSH2 0x100 EXP SWAP1 DIV PUSH20 0xFFFFFFFFFFFFFFFFFFFFFFFFFFFFFFFFFFFFFFFF AND PUSH20 0xFFFFFFFFFFFFFFFFFFFFFFFFFFFFFFFFFFFFFFFF AND DUP8 PUSH32 0x48269DE621C6D0C7DEBA303F09A0F908001EEECF281F1E3FFC5C31249298DA3C DUP5 DUP7 PUSH1 0x40 MLOAD PUSH2 0x1859 SWAP3 SWAP2 SWAP1 PUSH2 0x39AD JUMP JUMPDEST PUSH1 0x40 MLOAD DUP1 SWAP2 SUB SWAP1 LOG4 POP POP POP POP POP POP JUMP JUMPDEST PUSH1 0x1 PUSH0 SWAP1 SLOAD SWAP1 PUSH2 0x100 EXP SWAP1 DIV PUSH20 0xFFFFFFFFFFFFFFFFFFFFFFFFFFFFFFFFFFFFFFFF AND DUP2 JUMP JUMPDEST DUP1 PUSH1 0x5 PUSH0 DUP3 DUP2 MSTORE PUSH1 0x20 ADD SWAP1 DUP2 MSTORE PUSH1 0x20 ADD PUSH0 KECCAK256 PUSH1 0x6 ADD PUSH0 SWAP1 SLOAD SWAP1 PUSH2 0x100 EXP SWAP1 DIV PUSH1 0xFF AND PUSH2 0x18EF JUMPI PUSH1 0x40 MLOAD PUSH32 0x8C379A000000000000000000000000000000000000000000000000000000000 DUP2 MSTORE PUSH1 0x4 ADD PUSH2 0x18E6 SWAP1 PUSH2 0x3037 JUMP JUMPDEST PUSH1 0x40 MLOAD DUP1 SWAP2 SUB SWAP1 REVERT JUMPDEST PUSH0 PUSH1 0x5 PUSH0 DUP5 DUP2 MSTORE PUSH1 0x20 ADD SWAP1 DUP2 MSTORE PUSH1 0x20 ADD PUSH0 KECCAK256 SWAP1 POP PUSH0 PUSH1 0x1 PUSH0 SWAP1 SLOAD SWAP1 PUSH2 0x100 EXP SWAP1 DIV PUSH20 0xFFFFFFFFFFFFFFFFFFFFFFFFFFFFFFFFFFFFFFFF AND PUSH20 0xFFFFFFFFFFFFFFFFFFFFFFFFFFFFFFFFFFFFFFFF AND PUSH4 0x107A274A DUP6 PUSH1 0x40 MLOAD DUP3 PUSH4 0xFFFFFFFF AND PUSH1 0xE0 SHL DUP2 MSTORE PUSH1 0x4 ADD PUSH2 0x195E SWAP2 SWAP1 PUSH2 0x2D2E JUMP JUMPDEST PUSH0 PUSH1 0x40 MLOAD DUP1 DUP4 SUB DUP2 DUP7 GAS STATICCALL ISZERO DUP1 ISZERO PUSH2 0x1978 JUMPI RETURNDATASIZE PUSH0 PUSH0 RETURNDATACOPY RETURNDATASIZE PUSH0 REVERT JUMPDEST POP POP POP POP PUSH1 0x40 MLOAD RETURNDATASIZE PUSH0 DUP3 RETURNDATACOPY RETURNDATASIZE PUSH1 0x1F NOT PUSH1 0x1F DUP3 ADD AND DUP3 ADD DUP1 PUSH1 0x40 MSTORE POP DUP2 ADD SWAP1 PUSH2 0x19A0 SWAP2 SWAP1 PUSH2 0x33E0 JUMP JUMPDEST SWAP1 POP PUSH1 0x1 PUSH1 0x5 DUP2 GT ISZERO PUSH2 0x19B6 JUMPI PUSH2 0x19B5 PUSH2 0x2C25 JUMP JUMPDEST JUMPDEST DUP3 PUSH1 0x4 ADD PUSH0 SWAP1 SLOAD SWAP1 PUSH2 0x100 EXP SWAP1 DIV PUSH1 0xFF AND PUSH1 0x5 DUP2 GT ISZERO PUSH2 0x19D9 JUMPI PUSH2 0x19D8 PUSH2 0x2C25 JUMP JUMPDEST JUMPDEST EQ PUSH2 0x1A19 JUMPI PUSH1 0x40 MLOAD PUSH32 0x8C379A000000000000000000000000000000000000000000000000000000000 DUP2 MSTORE PUSH1 0x4 ADD PUSH2 0x1A10 SWAP1 PUSH2 0x3A1E JUMP JUMPDEST PUSH1 0x40 MLOAD DUP1 SWAP2 SUB SWAP1 REVERT JUMPDEST PUSH0 PUSH1 0x1 DUP2 GT ISZERO PUSH2 0x1A2C JUMPI PUSH2 0x1A2B PUSH2 0x2C25 JUMP JUMPDEST JUMPDEST DUP2 PUSH1 0xA0 ADD MLOAD PUSH1 0x1 DUP2 GT ISZERO PUSH2 0x1A43 JUMPI PUSH2 0x1A42 PUSH2 0x2C25 JUMP JUMPDEST JUMPDEST SUB PUSH2 0x1ADE JUMPI DUP2 PUSH1 0x2 ADD PUSH0 SWAP1 SLOAD SWAP1 PUSH2 0x100 EXP SWAP1 DIV PUSH20 0xFFFFFFFFFFFFFFFFFFFFFFFFFFFFFFFFFFFFFFFF AND PUSH20 0xFFFFFFFFFFFFFFFFFFFFFFFFFFFFFFFFFFFFFFFF AND CALLER PUSH20 0xFFFFFFFFFFFFFFFFFFFFFFFFFFFFFFFFFFFFFFFF AND EQ PUSH2 0x1AD9 JUMPI PUSH1 0x40 MLOAD PUSH32 0x8C379A000000000000000000000000000000000000000000000000000000000 DUP2 MSTORE PUSH1 0x4 ADD PUSH2 0x1AD0 SWAP1 PUSH2 0x3A86 JUMP JUMPDEST PUSH1 0x40 MLOAD DUP1 SWAP2 SUB SWAP1 REVERT JUMPDEST PUSH2 0x1B70 JUMP JUMPDEST DUP2 PUSH1 0x1 ADD PUSH0 SWAP1 SLOAD SWAP1 PUSH2 0x100 EXP SWAP1 DIV PUSH20 0xFFFFFFFFFFFFFFFFFFFFFFFFFFFFFFFFFFFFFFFF AND PUSH20 0xFFFFFFFFFFFFFFFFFFFFFFFFFFFFFFFFFFFFFFFF AND CALLER PUSH20 0xFFFFFFFFFFFFFFFFFFFFFFFFFFFFFFFFFFFFFFFF AND EQ PUSH2 0x1B6F JUMPI PUSH1 0x40 MLOAD PUSH32 0x8C379A000000000000000000000000000000000000000000000000000000000 DUP2 MSTORE PUSH1 0x4 ADD PUSH2 0x1B66 SWAP1 PUSH2 0x3AEE JUMP JUMPDEST PUSH1 0x40 MLOAD DUP1 SWAP2 SUB SWAP1 REVERT JUMPDEST JUMPDEST PUSH1 0x2 DUP3 PUSH1 0x4 ADD PUSH0 PUSH2 0x100 EXP DUP2 SLOAD DUP2 PUSH1 0xFF MUL NOT AND SWAP1 DUP4 PUSH1 0x5 DUP2 GT ISZERO PUSH2 0x1B97 JUMPI PUSH2 0x1B96 PUSH2 0x2C25 JUMP JUMPDEST JUMPDEST MUL OR SWAP1 SSTORE POP PUSH1 0x1 PUSH0 SWAP1 SLOAD SWAP1 PUSH2 0x100 EXP SWAP1 DIV PUSH20 0xFFFFFFFFFFFFFFFFFFFFFFFFFFFFFFFFFFFFFFFF AND PUSH20 0xFFFFFFFFFFFFFFFFFFFFFFFFFFFFFFFFFFFFFFFF AND PUSH4 0xCDDA6C65 DUP6 PUSH1 0x40 MLOAD DUP3 PUSH4 0xFFFFFFFF AND PUSH1 0xE0 SHL DUP2 MSTORE PUSH1 0x4 ADD PUSH2 0x1BF6 SWAP2 SWAP1 PUSH2 0x2D2E JUMP JUMPDEST PUSH0 PUSH1 0x40 MLOAD DUP1 DUP4 SUB DUP2 PUSH0 DUP8 DUP1 EXTCODESIZE ISZERO DUP1 ISZERO PUSH2 0x1C0D JUMPI PUSH0 PUSH0 REVERT JUMPDEST POP GAS CALL ISZERO DUP1 ISZERO PUSH2 0x1C1F JUMPI RETURNDATASIZE PUSH0 PUSH0 RETURNDATACOPY RETURNDATASIZE PUSH0 REVERT JUMPDEST POP POP POP POP CALLER PUSH20 0xFFFFFFFFFFFFFFFFFFFFFFFFFFFFFFFFFFFFFFFF AND DUP5 PUSH32 0x2E1034180F85502B3A04560BE6ED4C24FE9B9C9E0BD7F4E09720494AC48859FA PUSH1 0x40 MLOAD PUSH1 0x40 MLOAD DUP1 SWAP2 SUB SWAP1 LOG3 POP POP POP POP JUMP JUMPDEST PUSH0 PUSH0 SWAP1 SLOAD SWAP1 PUSH2 0x100 EXP SWAP1 DIV PUSH20 0xFFFFFFFFFFFFFFFFFFFFFFFFFFFFFFFFFFFFFFFF AND PUSH20 0xFFFFFFFFFFFFFFFFFFFFFFFFFFFFFFFFFFFFFFFF AND CALLER PUSH20 0xFFFFFFFFFFFFFFFFFFFFFFFFFFFFFFFFFFFFFFFF AND EQ PUSH2 0x1CFB JUMPI PUSH1 0x40 MLOAD PUSH32 0x8C379A000000000000000000000000000000000000000000000000000000000 DUP2 MSTORE PUSH1 0x4 ADD PUSH2 0x1CF2 SWAP1 PUSH2 0x352B JUMP JUMPDEST PUSH1 0x40 MLOAD DUP1 SWAP2 SUB SWAP1 REVERT JUMPDEST PUSH2 0x3E8 DUP2 GT ISZERO PUSH2 0x1D40 JUMPI PUSH1 0x40 MLOAD PUSH32 0x8C379A000000000000000000000000000000000000000000000000000000000 DUP2 MSTORE PUSH1 0x4 ADD PUSH2 0x1D37 SWAP1 PUSH2 0x3B56 JUMP JUMPDEST PUSH1 0x40 MLOAD DUP1 SWAP2 SUB SWAP1 REVERT JUMPDEST DUP1 PUSH1 0x3 DUP2 SWAP1 SSTORE POP PUSH32 0x45610D581145924DD7090A5017E5F2B1D6F42213BB2E95707FF86846BBFCB1CA DUP2 PUSH1 0x40 MLOAD PUSH2 0x1D76 SWAP2 SWAP1 PUSH2 0x2D2E JUMP JUMPDEST PUSH1 0x40 MLOAD DUP1 SWAP2 SUB SWAP1 LOG1 POP JUMP JUMPDEST PUSH0 PUSH1 0x1 PUSH0 SWAP1 SLOAD SWAP1 PUSH2 0x100 EXP SWAP1 DIV PUSH20 0xFFFFFFFFFFFFFFFFFFFFFFFFFFFFFFFFFFFFFFFF AND PUSH20 0xFFFFFFFFFFFFFFFFFFFFFFFFFFFFFFFFFFFFFFFF AND PUSH4 0x107A274A DUP4 PUSH1 0x40 MLOAD DUP3 PUSH4 0xFFFFFFFF AND PUSH1 0xE0 SHL DUP2 MSTORE PUSH1 0x4 ADD PUSH2 0x1DDC SWAP2 SWAP1 PUSH2 0x2D2E JUMP JUMPDEST PUSH0 PUSH1 0x40 MLOAD DUP1 DUP4 SUB DUP2 DUP7 GAS STATICCALL ISZERO DUP1 ISZERO PUSH2 0x1DF6 JUMPI RETURNDATASIZE PUSH0 PUSH0 RETURNDATACOPY RETURNDATASIZE PUSH0 REVERT JUMPDEST POP POP POP POP PUSH1 0x40 MLOAD RETURNDATASIZE PUSH0 DUP3 RETURNDATACOPY RETURNDATASIZE PUSH1 0x1F NOT PUSH1 0x1F DUP3 ADD AND DUP3 ADD DUP1 PUSH1 0x40 MSTORE POP DUP2 ADD SWAP1 PUSH2 0x1E1E SWAP2 SWAP1 PUSH2 0x33E0 JUMP JUMPDEST SWAP1 POP DUP1 PUSH1 0xE0 ADD MLOAD PUSH2 0x1E64 JUMPI PUSH1 0x40 MLOAD PUSH32 0x8C379A000000000000000000000000000000000000000000000000000000000 DUP2 MSTORE PUSH1 0x4 ADD PUSH2 0x1E5B SWAP1 PUSH2 0x3BBE JUMP JUMPDEST PUSH1 0x40 MLOAD DUP1 SWAP2 SUB SWAP1 REVERT JUMPDEST PUSH1 0x1 PUSH1 0x5 DUP2 GT ISZERO PUSH2 0x1E78 JUMPI PUSH2 0x1E77 PUSH2 0x2C25 JUMP JUMPDEST JUMPDEST DUP2 PUSH1 0xC0 ADD MLOAD PUSH1 0x5 DUP2 GT ISZERO PUSH2 0x1E8F JUMPI PUSH2 0x1E8E PUSH2 0x2C25 JUMP JUMPDEST JUMPDEST EQ PUSH2 0x1ECF JUMPI PUSH1 0x40 MLOAD PUSH32 0x8C379A000000000000000000000000000000000000000000000000000000000 DUP2 MSTORE PUSH1 0x4 ADD PUSH2 0x1EC6 SWAP1 PUSH2 0x3C26 JUMP JUMPDEST PUSH1 0x40 MLOAD DUP1 SWAP2 SUB SWAP1 REVERT JUMPDEST DUP1 PUSH1 0x20 ADD MLOAD PUSH20 0xFFFFFFFFFFFFFFFFFFFFFFFFFFFFFFFFFFFFFFFF AND CALLER PUSH20 0xFFFFFFFFFFFFFFFFFFFFFFFFFFFFFFFFFFFFFFFF AND SUB PUSH2 0x1F41 JUMPI PUSH1 0x40 MLOAD PUSH32 0x8C379A000000000000000000000000000000000000000000000000000000000 DUP2 MSTORE PUSH1 0x4 ADD PUSH2 0x1F38 SWAP1 PUSH2 0x3CB4 JUMP JUMPDEST PUSH1 0x40 MLOAD DUP1 SWAP2 SUB SWAP1 REVERT JUMPDEST PUSH1 0x5 PUSH0 DUP4 DUP2 MSTORE PUSH1 0x20 ADD SWAP1 DUP2 MSTORE PUSH1 0x20 ADD PUSH0 KECCAK256 PUSH1 0x6 ADD PUSH0 SWAP1 SLOAD SWAP1 PUSH2 0x100 EXP SWAP1 DIV PUSH1 0xFF AND ISZERO PUSH2 0x1FA2 JUMPI PUSH1 0x40 MLOAD PUSH32 0x8C379A000000000000000000000000000000000000000000000000000000000 DUP2 MSTORE PUSH1 0x4 ADD PUSH2 0x1F99 SWAP1 PUSH2 0x3D1C JUMP JUMPDEST PUSH1 0x40 MLOAD DUP1 SWAP2 SUB SWAP1 REVERT JUMPDEST CALLER PUSH20 0xFFFFFFFFFFFFFFFFFFFFFFFFFFFFFFFFFFFFFFFF AND PUSH1 0x1 PUSH0 SWAP1 SLOAD SWAP1 PUSH2 0x100 EXP SWAP1 DIV PUSH20 0xFFFFFFFFFFFFFFFFFFFFFFFFFFFFFFFFFFFFFFFF AND PUSH20 0xFFFFFFFFFFFFFFFFFFFFFFFFFFFFFFFFFFFFFFFF AND PUSH4 0x4A0F2887 DUP5 PUSH1 0x40 MLOAD DUP3 PUSH4 0xFFFFFFFF AND PUSH1 0xE0 SHL DUP2 MSTORE PUSH1 0x4 ADD PUSH2 0x2013 SWAP2 SWAP1 PUSH2 0x2D2E JUMP JUMPDEST PUSH1 0x20 PUSH1 0x40 MLOAD DUP1 DUP4 SUB DUP2 DUP7 GAS STATICCALL ISZERO DUP1 ISZERO PUSH2 0x202E JUMPI RETURNDATASIZE PUSH0 PUSH0 RETURNDATACOPY RETURNDATASIZE PUSH0 REVERT JUMPDEST POP POP POP POP PUSH1 0x40 MLOAD RETURNDATASIZE PUSH1 0x1F NOT PUSH1 0x1F DUP3 ADD AND DUP3 ADD DUP1 PUSH1 0x40 MSTORE POP DUP2 ADD SWAP1 PUSH2 0x2052 SWAP2 SWAP1 PUSH2 0x3D3A JUMP JUMPDEST PUSH20 0xFFFFFFFFFFFFFFFFFFFFFFFFFFFFFFFFFFFFFFFF AND EQ PUSH2 0x20A8 JUMPI PUSH1 0x40 MLOAD PUSH32 0x8C379A000000000000000000000000000000000000000000000000000000000 DUP2 MSTORE PUSH1 0x4 ADD PUSH2 0x209F SWAP1 PUSH2 0x3DAF JUMP JUMPDEST PUSH1 0x40 MLOAD DUP1 SWAP2 SUB SWAP1 REVERT JUMPDEST PUSH0 PUSH0 PUSH1 0x1 DUP2 GT ISZERO PUSH2 0x20BC JUMPI PUSH2 0x20BB PUSH2 0x2C25 JUMP JUMPDEST JUMPDEST DUP3 PUSH1 0xA0 ADD MLOAD PUSH1 0x1 DUP2 GT ISZERO PUSH2 0x20D3 JUMPI PUSH2 0x20D2 PUSH2 0x2C25 JUMP JUMPDEST JUMPDEST SUB PUSH2 0x2181 JUMPI PUSH1 0x2 PUSH0 SWAP1 SLOAD SWAP1 PUSH2 0x100 EXP SWAP1 DIV PUSH20 0xFFFFFFFFFFFFFFFFFFFFFFFFFFFFFFFFFFFFFFFF AND PUSH20 0xFFFFFFFFFFFFFFFFFFFFFFFFFFFFFFFFFFFFFFFF AND PUSH4 0x23B872DD CALLER ADDRESS DUP6 PUSH1 0x60 ADD MLOAD PUSH1 0x40 MLOAD DUP5 PUSH4 0xFFFFFFFF AND PUSH1 0xE0 SHL DUP2 MSTORE PUSH1 0x4 ADD PUSH2 0x213A SWAP4 SWAP3 SWAP2 SWAP1 PUSH2 0x3DCD JUMP JUMPDEST PUSH1 0x20 PUSH1 0x40 MLOAD DUP1 DUP4 SUB DUP2 PUSH0 DUP8 GAS CALL ISZERO DUP1 ISZERO PUSH2 0x2156 JUMPI RETURNDATASIZE PUSH0 PUSH0 RETURNDATACOPY RETURNDATASIZE PUSH0 REVERT JUMPDEST POP POP POP POP PUSH1 0x40 MLOAD RETURNDATASIZE PUSH1 0x1F NOT PUSH1 0x1F DUP3 ADD AND DUP3 ADD DUP1 PUSH1 0x40 MSTORE POP DUP2 ADD SWAP1 PUSH2 0x217A SWAP2 SWAP1 PUSH2 0x344E JUMP JUMPDEST SWAP1 POP PUSH2 0x222A JUMP JUMPDEST PUSH1 0x2 PUSH0 SWAP1 SLOAD SWAP1 PUSH2 0x100 EXP SWAP1 DIV PUSH20 0xFFFFFFFFFFFFFFFFFFFFFFFFFFFFFFFFFFFFFFFF AND PUSH20 0xFFFFFFFFFFFFFFFFFFFFFFFFFFFFFFFFFFFFFFFF AND PUSH4 0x23B872DD DUP4 PUSH1 0x20 ADD MLOAD ADDRESS DUP6 PUSH1 0x60 ADD MLOAD PUSH1 0x40 MLOAD DUP5 PUSH4 0xFFFFFFFF AND PUSH1 0xE0 SHL DUP2 MSTORE PUSH1 0x4 ADD PUSH2 0x21E7 SWAP4 SWAP3 SWAP2 SWAP1 PUSH2 0x3DCD JUMP JUMPDEST PUSH1 0x20 PUSH1 0x40 MLOAD DUP1 DUP4 SUB DUP2 PUSH0 DUP8 GAS CALL ISZERO DUP1 ISZERO PUSH2 0x2203 JUMPI RETURNDATASIZE PUSH0 PUSH0 RETURNDATACOPY RETURNDATASIZE PUSH0 REVERT JUMPDEST POP POP POP POP PUSH1 0x40 MLOAD RETURNDATASIZE PUSH1 0x1F NOT PUSH1 0x1F DUP3 ADD AND DUP3 ADD DUP1 PUSH1 0x40 MSTORE POP DUP2 ADD SWAP1 PUSH2 0x2227 SWAP2 SWAP1 PUSH2 0x344E JUMP JUMPDEST SWAP1 POP JUMPDEST DUP1 PUSH2 0x226A JUMPI PUSH1 0x40 MLOAD PUSH32 0x8C379A000000000000000000000000000000000000000000000000000000000 DUP2 MSTORE PUSH1 0x4 ADD PUSH2 0x2261 SWAP1 PUSH2 0x3E4C JUMP JUMPDEST PUSH1 0x40 MLOAD DUP1 SWAP2 SUB SWAP1 REVERT JUMPDEST PUSH1 0x40 MLOAD DUP1 PUSH2 0x100 ADD PUSH1 0x40 MSTORE DUP1 DUP5 DUP2 MSTORE PUSH1 0x20 ADD CALLER PUSH20 0xFFFFFFFFFFFFFFFFFFFFFFFFFFFFFFFFFFFFFFFF AND DUP2 MSTORE PUSH1 0x20 ADD DUP4 PUSH1 0x20 ADD MLOAD PUSH20 0xFFFFFFFFFFFFFFFFFFFFFFFFFFFFFFFFFFFFFFFF AND DUP2 MSTORE PUSH1 0x20 ADD DUP4 PUSH1 0x60 ADD MLOAD DUP2 MSTORE PUSH1 0x20 ADD PUSH1 0x1 PUSH1 0x5 DUP2 GT ISZERO PUSH2 0x22D6 JUMPI PUSH2 0x22D5 PUSH2 0x2C25 JUMP JUMPDEST JUMPDEST DUP2 MSTORE PUSH1 0x20 ADD TIMESTAMP DUP2 MSTORE PUSH1 0x20 ADD PUSH1 0x1 ISZERO ISZERO DUP2 MSTORE PUSH1 0x20 ADD PUSH0 ISZERO ISZERO DUP2 MSTORE POP PUSH1 0x5 PUSH0 DUP6 DUP2 MSTORE PUSH1 0x20 ADD SWAP1 DUP2 MSTORE PUSH1 0x20 ADD PUSH0 KECCAK256 PUSH0 DUP3 ADD MLOAD DUP2 PUSH0 ADD SSTORE PUSH1 0x20 DUP3 ADD MLOAD DUP2 PUSH1 0x1 ADD PUSH0 PUSH2 0x100 EXP DUP2 SLOAD DUP2 PUSH20 0xFFFFFFFFFFFFFFFFFFFFFFFFFFFFFFFFFFFFFFFF MUL NOT AND SWAP1 DUP4 PUSH20 0xFFFFFFFFFFFFFFFFFFFFFFFFFFFFFFFFFFFFFFFF AND MUL OR SWAP1 SSTORE POP PUSH1 0x40 DUP3 ADD MLOAD DUP2 PUSH1 0x2 ADD PUSH0 PUSH2 0x100 EXP DUP2 SLOAD DUP2 PUSH20 0xFFFFFFFFFFFFFFFFFFFFFFFFFFFFFFFFFFFFFFFF MUL NOT AND SWAP1 DUP4 PUSH20 0xFFFFFFFFFFFFFFFFFFFFFFFFFFFFFFFFFFFFFFFF AND MUL OR SWAP1 SSTORE POP PUSH1 0x60 DUP3 ADD MLOAD DUP2 PUSH1 0x3 ADD SSTORE PUSH1 0x80 DUP3 ADD MLOAD DUP2 PUSH1 0x4 ADD PUSH0 PUSH2 0x100 EXP DUP2 SLOAD DUP2 PUSH1 0xFF MUL NOT AND SWAP1 DUP4 PUSH1 0x5 DUP2 GT ISZERO PUSH2 0x23C9 JUMPI PUSH2 0x23C8 PUSH2 0x2C25 JUMP JUMPDEST JUMPDEST MUL OR SWAP1 SSTORE POP PUSH1 0xA0 DUP3 ADD MLOAD DUP2 PUSH1 0x5 ADD SSTORE PUSH1 0xC0 DUP3 ADD MLOAD DUP2 PUSH1 0x6 ADD PUSH0 PUSH2 0x100 EXP DUP2 SLOAD DUP2 PUSH1 0xFF MUL NOT AND SWAP1 DUP4 ISZERO ISZERO MUL OR SWAP1 SSTORE POP PUSH1 0xE0 DUP3 ADD MLOAD DUP2 PUSH1 0x6 ADD PUSH1 0x1 PUSH2 0x100 EXP DUP2 SLOAD DUP2 PUSH1 0xFF MUL NOT AND SWAP1 DUP4 ISZERO ISZERO MUL OR SWAP1 SSTORE POP SWAP1 POP POP PUSH1 0x1 PUSH0 SWAP1 SLOAD SWAP1 PUSH2 0x100 EXP SWAP1 DIV PUSH20 0xFFFFFFFFFFFFFFFFFFFFFFFFFFFFFFFFFFFFFFFF AND PUSH20 0xFFFFFFFFFFFFFFFFFFFFFFFFFFFFFFFFFFFFFFFF AND PUSH4 0x8A9BC5DA DUP5 CALLER PUSH1 0x40 MLOAD DUP4 PUSH4 0xFFFFFFFF AND PUSH1 0xE0 SHL DUP2 MSTORE PUSH1 0x4 ADD PUSH2 0x2476 SWAP3 SWAP2 SWAP1 PUSH2 0x3E6A JUMP JUMPDEST PUSH0 PUSH1 0x40 MLOAD DUP1 DUP4 SUB DUP2 PUSH0 DUP8 DUP1 EXTCODESIZE ISZERO DUP1 ISZERO PUSH2 0x248D JUMPI PUSH0 PUSH0 REVERT JUMPDEST POP GAS CALL ISZERO DUP1 ISZERO PUSH2 0x249F JUMPI RETURNDATASIZE PUSH0 PUSH0 RETURNDATACOPY RETURNDATASIZE PUSH0 REVERT JUMPDEST POP POP POP POP DUP2 PUSH1 0x20 ADD MLOAD PUSH20 0xFFFFFFFFFFFFFFFFFFFFFFFFFFFFFFFFFFFFFFFF AND CALLER PUSH20 0xFFFFFFFFFFFFFFFFFFFFFFFFFFFFFFFFFFFFFFFF AND DUP5 PUSH32 0x1736617F8B9029B421CCC471CA8A99395F5D8A1CB348BE9FCBFD64CCEEE7252F DUP6 PUSH1 0x60 ADD MLOAD PUSH1 0x40 MLOAD PUSH2 0x2509 SWAP2 SWAP1 PUSH2 0x2D2E JUMP JUMPDEST PUSH1 0x40 MLOAD DUP1 SWAP2 SUB SWAP1 LOG4 POP POP POP JUMP JUMPDEST DUP3 PUSH1 0x5 PUSH0 DUP3 DUP2 MSTORE PUSH1 0x20 ADD SWAP1 DUP2 MSTORE PUSH1 0x20 ADD PUSH0 KECCAK256 PUSH1 0x6 ADD PUSH0 SWAP1 SLOAD SWAP1 PUSH2 0x100 EXP SWAP1 DIV PUSH1 0xFF AND PUSH2 0x2577 JUMPI PUSH1 0x40 MLOAD PUSH32 0x8C379A000000000000000000000000000000000000000000000000000000000 DUP2 MSTORE PUSH1 0x4 ADD PUSH2 0x256E SWAP1 PUSH2 0x3037 JUMP JUMPDEST PUSH1 0x40 MLOAD DUP1 SWAP2 SUB SWAP1 REVERT JUMPDEST PUSH0 PUSH1 0x5 PUSH0 DUP7 DUP2 MSTORE PUSH1 0x20 ADD SWAP1 DUP2 MSTORE PUSH1 0x20 ADD PUSH0 KECCAK256 SWAP1 POP PUSH0 PUSH1 0x1 PUSH0 SWAP1 SLOAD SWAP1 PUSH2 0x100 EXP SWAP1 DIV PUSH20 0xFFFFFFFFFFFFFFFFFFFFFFFFFFFFFFFFFFFFFFFF AND PUSH20 0xFFFFFFFFFFFFFFFFFFFFFFFFFFFFFFFFFFFFFFFF AND PUSH4 0x107A274A DUP8 PUSH1 0x40 MLOAD DUP3 PUSH4 0xFFFFFFFF AND PUSH1 0xE0 SHL DUP2 MSTORE PUSH1 0x4 ADD PUSH2 0x25E6 SWAP2 SWAP1 PUSH2 0x2D2E JUMP JUMPDEST PUSH0 PUSH1 0x40 MLOAD DUP1 DUP4 SUB DUP2 DUP7 GAS STATICCALL ISZERO DUP1 ISZERO PUSH2 0x2600 JUMPI RETURNDATASIZE PUSH0 PUSH0 RETURNDATACOPY RETURNDATASIZE PUSH0 REVERT JUMPDEST POP POP POP POP PUSH1 0x40 MLOAD RETURNDATASIZE PUSH0 DUP3 RETURNDATACOPY RETURNDATASIZE PUSH1 0x1F NOT PUSH1 0x1F DUP3 ADD AND DUP3 ADD DUP1 PUSH1 0x40 MSTORE POP DUP2 ADD SWAP1 PUSH2 0x2628 SWAP2 SWAP1 PUSH2 0x33E0 JUMP JUMPDEST SWAP1 POP PUSH1 0x2 PUSH1 0x5 DUP2 GT ISZERO PUSH2 0x263E JUMPI PUSH2 0x263D PUSH2 0x2C25 JUMP JUMPDEST JUMPDEST DUP3 PUSH1 0x4 ADD PUSH0 SWAP1 SLOAD SWAP1 PUSH2 0x100 EXP SWAP1 DIV PUSH1 0xFF AND PUSH1 0x5 DUP2 GT ISZERO PUSH2 0x2661 JUMPI PUSH2 0x2660 PUSH2 0x2C25 JUMP JUMPDEST JUMPDEST EQ PUSH2 0x26A1 JUMPI PUSH1 0x40 MLOAD PUSH32 0x8C379A000000000000000000000000000000000000000000000000000000000 DUP2 MSTORE PUSH1 0x4 ADD PUSH2 0x2698 SWAP1 PUSH2 0x3663 JUMP JUMPDEST PUSH1 0x40 MLOAD DUP1 SWAP2 SUB SWAP1 REVERT JUMPDEST DUP2 PUSH1 0x6 ADD PUSH1 0x1 SWAP1 SLOAD SWAP1 PUSH2 0x100 EXP SWAP1 DIV PUSH1 0xFF AND ISZERO PUSH2 0x26F3 JUMPI PUSH1 0x40 MLOAD PUSH32 0x8C379A000000000000000000000000000000000000000000000000000000000 DUP2 MSTORE PUSH1 0x4 ADD PUSH2 0x26EA SWAP1 PUSH2 0x3EDB JUMP JUMPDEST PUSH1 0x40 MLOAD DUP1 SWAP2 SUB SWAP1 REVERT JUMPDEST PUSH0 PUSH1 0x1 DUP2 GT ISZERO PUSH2 0x2706 JUMPI PUSH2 0x2705 PUSH2 0x2C25 JUMP JUMPDEST JUMPDEST DUP2 PUSH1 0xA0 ADD MLOAD PUSH1 0x1 DUP2 GT ISZERO PUSH2 0x271D JUMPI PUSH2 0x271C PUSH2 0x2C25 JUMP JUMPDEST JUMPDEST SUB PUSH2 0x27B8 JUMPI DUP2 PUSH1 0x1 ADD PUSH0 SWAP1 SLOAD SWAP1 PUSH2 0x100 EXP SWAP1 DIV PUSH20 0xFFFFFFFFFFFFFFFFFFFFFFFFFFFFFFFFFFFFFFFF AND PUSH20 0xFFFFFFFFFFFFFFFFFFFFFFFFFFFFFFFFFFFFFFFF AND CALLER PUSH20 0xFFFFFFFFFFFFFFFFFFFFFFFFFFFFFFFFFFFFFFFF AND EQ PUSH2 0x27B3 JUMPI PUSH1 0x40 MLOAD PUSH32 0x8C379A000000000000000000000000000000000000000000000000000000000 DUP2 MSTORE PUSH1 0x4 ADD PUSH2 0x27AA SWAP1 PUSH2 0x3F43 JUMP JUMPDEST PUSH1 0x40 MLOAD DUP1 SWAP2 SUB SWAP1 REVERT JUMPDEST PUSH2 0x284A JUMP JUMPDEST DUP2 PUSH1 0x2 ADD PUSH0 SWAP1 SLOAD SWAP1 PUSH2 0x100 EXP SWAP1 DIV PUSH20 0xFFFFFFFFFFFFFFFFFFFFFFFFFFFFFFFFFFFFFFFF AND PUSH20 0xFFFFFFFFFFFFFFFFFFFFFFFFFFFFFFFFFFFFFFFF AND CALLER PUSH20 0xFFFFFFFFFFFFFFFFFFFFFFFFFFFFFFFFFFFFFFFF AND EQ PUSH2 0x2849 JUMPI PUSH1 0x40 MLOAD PUSH32 0x8C379A000000000000000000000000000000000000000000000000000000000 DUP2 MSTORE PUSH1 0x4 ADD PUSH2 0x2840 SWAP1 PUSH2 0x3FAB JUMP JUMPDEST PUSH1 0x40 MLOAD DUP1 SWAP2 SUB SWAP1 REVERT JUMPDEST JUMPDEST PUSH1 0x1 DUP3 PUSH1 0x6 ADD PUSH1 0x1 PUSH2 0x100 EXP DUP2 SLOAD DUP2 PUSH1 0xFF MUL NOT AND SWAP1 DUP4 ISZERO ISZERO MUL OR SWAP1 SSTORE POP PUSH1 0x1 DUP3 PUSH1 0x4 ADD PUSH0 PUSH2 0x100 EXP DUP2 SLOAD DUP2 PUSH1 0xFF MUL NOT AND SWAP1 DUP4 PUSH1 0x5 DUP2 GT ISZERO PUSH2 0x288E JUMPI PUSH2 0x288D PUSH2 0x2C25 JUMP JUMPDEST JUMPDEST MUL OR SWAP1 SSTORE POP PUSH1 0x1 PUSH0 SWAP1 SLOAD SWAP1 PUSH2 0x100 EXP SWAP1 DIV PUSH20 0xFFFFFFFFFFFFFFFFFFFFFFFFFFFFFFFFFFFFFFFF AND PUSH20 0xFFFFFFFFFFFFFFFFFFFFFFFFFFFFFFFFFFFFFFFF AND PUSH4 0xC8319685 DUP8 PUSH1 0x40 MLOAD DUP3 PUSH4 0xFFFFFFFF AND PUSH1 0xE0 SHL DUP2 MSTORE PUSH1 0x4 ADD PUSH2 0x28ED SWAP2 SWAP1 PUSH2 0x2D2E JUMP JUMPDEST PUSH0 PUSH1 0x40 MLOAD DUP1 DUP4 SUB DUP2 PUSH0 DUP8 DUP1 EXTCODESIZE ISZERO DUP1 ISZERO PUSH2 0x2904 JUMPI PUSH0 PUSH0 REVERT JUMPDEST POP GAS CALL ISZERO DUP1 ISZERO PUSH2 0x2916 JUMPI RETURNDATASIZE PUSH0 PUSH0 RETURNDATACOPY RETURNDATASIZE PUSH0 REVERT JUMPDEST POP POP POP POP CALLER PUSH20 0xFFFFFFFFFFFFFFFFFFFFFFFFFFFFFFFFFFFFFFFF AND DUP7 PUSH32 0xFB1F2B2D59E15C4D9793571C3DF2FC8AA0FED8C4308B8F71FF5A77678E571E72 DUP8 DUP8 PUSH1 0x40 MLOAD PUSH2 0x2963 SWAP3 SWAP2 SWAP1 PUSH2 0x4003 JUMP JUMPDEST PUSH1 0x40 MLOAD DUP1 SWAP2 SUB SWAP1 LOG3 POP POP POP POP POP POP JUMP JUMPDEST PUSH0 PUSH0 SWAP1 SLOAD SWAP1 PUSH2 0x100 EXP SWAP1 DIV PUSH20 0xFFFFFFFFFFFFFFFFFFFFFFFFFFFFFFFFFFFFFFFF AND PUSH20 0xFFFFFFFFFFFFFFFFFFFFFFFFFFFFFFFFFFFFFFFF AND CALLER PUSH20 0xFFFFFFFFFFFFFFFFFFFFFFFFFFFFFFFFFFFFFFFF AND EQ PUSH2 0x2A01 JUMPI PUSH1 0x40 MLOAD PUSH32 0x8C379A000000000000000000000000000000000000000000000000000000000 DUP2 MSTORE PUSH1 0x4 ADD PUSH2 0x29F8 SWAP1 PUSH2 0x352B JUMP JUMPDEST PUSH1 0x40 MLOAD DUP1 SWAP2 SUB SWAP1 REVERT JUMPDEST PUSH0 PUSH20 0xFFFFFFFFFFFFFFFFFFFFFFFFFFFFFFFFFFFFFFFF AND DUP2 PUSH20 0xFFFFFFFFFFFFFFFFFFFFFFFFFFFFFFFFFFFFFFFF AND SUB PUSH2 0x2A6F JUMPI PUSH1 0x40 MLOAD PUSH32 0x8C379A000000000000000000000000000000000000000000000000000000000 DUP2 MSTORE PUSH1 0x4 ADD PUSH2 0x2A66 SWAP1 PUSH2 0x406F JUMP JUMPDEST PUSH1 0x40 MLOAD DUP1 SWAP2 SUB SWAP1 REVERT JUMPDEST DUP1 PUSH1 0x4 PUSH0 PUSH2 0x100 EXP DUP2 SLOAD DUP2 PUSH20 0xFFFFFFFFFFFFFFFFFFFFFFFFFFFFFFFFFFFFFFFF MUL NOT AND SWAP1 DUP4 PUSH20 0xFFFFFFFFFFFFFFFFFFFFFFFFFFFFFFFFFFFFFFFF AND MUL OR SWAP1 SSTORE POP PUSH32 0x7A7B5A0A132F9E0581EB8527F66EAE9EE89C2A3E79D4AC7E41A1F1F4D48A7FC2 DUP2 PUSH1 0x40 MLOAD PUSH2 0x2ADE SWAP2 SWAP1 PUSH2 0x2DBB JUMP JUMPDEST PUSH1 0x40 MLOAD DUP1 SWAP2 SUB SWAP1 LOG1 POP JUMP JUMPDEST PUSH1 0x40 MLOAD DUP1 PUSH2 0x100 ADD PUSH1 0x40 MSTORE DUP1 PUSH0 DUP2 MSTORE PUSH1 0x20 ADD PUSH0 PUSH20 0xFFFFFFFFFFFFFFFFFFFFFFFFFFFFFFFFFFFFFFFF AND DUP2 MSTORE PUSH1 0x20 ADD PUSH0 PUSH20 0xFFFFFFFFFFFFFFFFFFFFFFFFFFFFFFFFFFFFFFFF AND DUP2 MSTORE PUSH1 0x20 ADD PUSH0 DUP2 MSTORE PUSH1 0x20 ADD PUSH0 PUSH1 0x5 DUP2 GT ISZERO PUSH2 0x2B4C JUMPI PUSH2 0x2B4B PUSH2 0x2C25 JUMP JUMPDEST JUMPDEST DUP2 MSTORE PUSH1 0x20 ADD PUSH0 DUP2 MSTORE PUSH1 0x20 ADD PUSH0 ISZERO ISZERO DUP2 MSTORE PUSH1 0x20 ADD PUSH0 ISZERO ISZERO DUP2 MSTORE POP SWAP1 JUMP JUMPDEST PUSH0 PUSH1 0x40 MLOAD SWAP1 POP SWAP1 JUMP JUMPDEST PUSH0 PUSH0 REVERT JUMPDEST PUSH0 PUSH0 REVERT JUMPDEST PUSH0 DUP2 SWAP1 POP SWAP2 SWAP1 POP JUMP JUMPDEST PUSH2 0x2B8B DUP2 PUSH2 0x2B79 JUMP JUMPDEST DUP2 EQ PUSH2 0x2B95 JUMPI PUSH0 PUSH0 REVERT JUMPDEST POP JUMP JUMPDEST PUSH0 DUP2 CALLDATALOAD SWAP1 POP PUSH2 0x2BA6 DUP2 PUSH2 0x2B82 JUMP JUMPDEST SWAP3 SWAP2 POP POP JUMP JUMPDEST PUSH0 PUSH1 0x20 DUP3 DUP5 SUB SLT ISZERO PUSH2 0x2BC1 JUMPI PUSH2 0x2BC0 PUSH2 0x2B71 JUMP JUMPDEST JUMPDEST PUSH0 PUSH2 0x2BCE DUP5 DUP3 DUP6 ADD PUSH2 0x2B98 JUMP JUMPDEST SWAP2 POP POP SWAP3 SWAP2 POP POP JUMP JUMPDEST PUSH2 0x2BE0 DUP2 PUSH2 0x2B79 JUMP JUMPDEST DUP3 MSTORE POP POP JUMP JUMPDEST PUSH0 PUSH20 0xFFFFFFFFFFFFFFFFFFFFFFFFFFFFFFFFFFFFFFFF DUP3 AND SWAP1 POP SWAP2 SWAP1 POP JUMP JUMPDEST PUSH0 PUSH2 0x2C0F DUP3 PUSH2 0x2BE6 JUMP JUMPDEST SWAP1 POP SWAP2 SWAP1 POP JUMP JUMPDEST PUSH2 0x2C1F DUP2 PUSH2 0x2C05 JUMP JUMPDEST DUP3 MSTORE POP POP JUMP JUMPDEST PUSH32 0x4E487B7100000000000000000000000000000000000000000000000000000000 PUSH0 MSTORE PUSH1 0x21 PUSH1 0x4 MSTORE PUSH1 0x24 PUSH0 REVERT JUMPDEST PUSH1 0x6 DUP2 LT PUSH2 0x2C63 JUMPI PUSH2 0x2C62 PUSH2 0x2C25 JUMP JUMPDEST JUMPDEST POP JUMP JUMPDEST PUSH0 DUP2 SWAP1 POP PUSH2 0x2C73 DUP3 PUSH2 0x2C52 JUMP JUMPDEST SWAP2 SWAP1 POP JUMP JUMPDEST PUSH0 PUSH2 0x2C82 DUP3 PUSH2 0x2C66 JUMP JUMPDEST SWAP1 POP SWAP2 SWAP1 POP JUMP JUMPDEST PUSH2 0x2C92 DUP2 PUSH2 0x2C78 JUMP JUMPDEST DUP3 MSTORE POP POP JUMP JUMPDEST PUSH0 DUP2 ISZERO ISZERO SWAP1 POP SWAP2 SWAP1 POP JUMP JUMPDEST PUSH2 0x2CAC DUP2 PUSH2 0x2C98 JUMP JUMPDEST DUP3 MSTORE POP POP JUMP JUMPDEST PUSH0 PUSH2 0x100 DUP3 ADD SWAP1 POP PUSH2 0x2CC6 PUSH0 DUP4 ADD DUP12 PUSH2 0x2BD7 JUMP JUMPDEST PUSH2 0x2CD3 PUSH1 0x20 DUP4 ADD DUP11 PUSH2 0x2C16 JUMP JUMPDEST PUSH2 0x2CE0 PUSH1 0x40 DUP4 ADD DUP10 PUSH2 0x2C16 JUMP JUMPDEST PUSH2 0x2CED PUSH1 0x60 DUP4 ADD DUP9 PUSH2 0x2BD7 JUMP JUMPDEST PUSH2 0x2CFA PUSH1 0x80 DUP4 ADD DUP8 PUSH2 0x2C89 JUMP JUMPDEST PUSH2 0x2D07 PUSH1 0xA0 DUP4 ADD DUP7 PUSH2 0x2BD7 JUMP JUMPDEST PUSH2 0x2D14 PUSH1 0xC0 DUP4 ADD DUP6 PUSH2 0x2CA3 JUMP JUMPDEST PUSH2 0x2D21 PUSH1 0xE0 DUP4 ADD DUP5 PUSH2 0x2CA3 JUMP JUMPDEST SWAP10 SWAP9 POP POP POP POP POP POP POP POP POP JUMP JUMPDEST PUSH0 PUSH1 0x20 DUP3 ADD SWAP1 POP PUSH2 0x2D41 PUSH0 DUP4 ADD DUP5 PUSH2 0x2BD7 JUMP JUMPDEST SWAP3 SWAP2 POP POP JUMP JUMPDEST PUSH0 DUP2 SWAP1 POP SWAP2 SWAP1 POP JUMP JUMPDEST PUSH0 PUSH2 0x2D6A PUSH2 0x2D65 PUSH2 0x2D60 DUP5 PUSH2 0x2BE6 JUMP JUMPDEST PUSH2 0x2D47 JUMP JUMPDEST PUSH2 0x2BE6 JUMP JUMPDEST SWAP1 POP SWAP2 SWAP1 POP JUMP JUMPDEST PUSH0 PUSH2 0x2D7B DUP3 PUSH2 0x2D50 JUMP JUMPDEST SWAP1 POP SWAP2 SWAP1 POP JUMP JUMPDEST PUSH0 PUSH2 0x2D8C DUP3 PUSH2 0x2D71 JUMP JUMPDEST SWAP1 POP SWAP2 SWAP1 POP JUMP JUMPDEST PUSH2 0x2D9C DUP2 PUSH2 0x2D82 JUMP JUMPDEST DUP3 MSTORE POP POP JUMP JUMPDEST PUSH0 PUSH1 0x20 DUP3 ADD SWAP1 POP PUSH2 0x2DB5 PUSH0 DUP4 ADD DUP5 PUSH2 0x2D93 JUMP JUMPDEST SWAP3 SWAP2 POP POP JUMP JUMPDEST PUSH0 PUSH1 0x20 DUP3 ADD SWAP1 POP PUSH2 0x2DCE PUSH0 DUP4 ADD DUP5 PUSH2 0x2C16 JUMP JUMPDEST SWAP3 SWAP2 POP POP JUMP JUMPDEST PUSH2 0x2DDD DUP2 PUSH2 0x2C05 JUMP JUMPDEST DUP2 EQ PUSH2 0x2DE7 JUMPI PUSH0 PUSH0 REVERT JUMPDEST POP JUMP JUMPDEST PUSH0 DUP2 CALLDATALOAD SWAP1 POP PUSH2 0x2DF8 DUP2 PUSH2 0x2DD4 JUMP JUMPDEST SWAP3 SWAP2 POP POP JUMP JUMPDEST PUSH0 PUSH1 0x20 DUP3 DUP5 SUB SLT ISZERO PUSH2 0x2E13 JUMPI PUSH2 0x2E12 PUSH2 0x2B71 JUMP JUMPDEST JUMPDEST PUSH0 PUSH2 0x2E20 DUP5 DUP3 DUP6 ADD PUSH2 0x2DEA JUMP JUMPDEST SWAP2 POP POP SWAP3 SWAP2 POP POP JUMP JUMPDEST PUSH2 0x2E32 DUP2 PUSH2 0x2B79 JUMP JUMPDEST DUP3 MSTORE POP POP JUMP JUMPDEST PUSH2 0x2E41 DUP2 PUSH2 0x2C05 JUMP JUMPDEST DUP3 MSTORE POP POP JUMP JUMPDEST PUSH2 0x2E50 DUP2 PUSH2 0x2C78 JUMP JUMPDEST DUP3 MSTORE POP POP JUMP JUMPDEST PUSH2 0x2E5F DUP2 PUSH2 0x2C98 JUMP JUMPDEST DUP3 MSTORE POP POP JUMP JUMPDEST PUSH2 0x100 DUP3 ADD PUSH0 DUP3 ADD MLOAD PUSH2 0x2E7A PUSH0 DUP6 ADD DUP3 PUSH2 0x2E29 JUMP JUMPDEST POP PUSH1 0x20 DUP3 ADD MLOAD PUSH2 0x2E8D PUSH1 0x20 DUP6 ADD DUP3 PUSH2 0x2E38 JUMP JUMPDEST POP PUSH1 0x40 DUP3 ADD MLOAD PUSH2 0x2EA0 PUSH1 0x40 DUP6 ADD DUP3 PUSH2 0x2E38 JUMP JUMPDEST POP PUSH1 0x60 DUP3 ADD MLOAD PUSH2 0x2EB3 PUSH1 0x60 DUP6 ADD DUP3 PUSH2 0x2E29 JUMP JUMPDEST POP PUSH1 0x80 DUP3 ADD MLOAD PUSH2 0x2EC6 PUSH1 0x80 DUP6 ADD DUP3 PUSH2 0x2E47 JUMP JUMPDEST POP PUSH1 0xA0 DUP3 ADD MLOAD PUSH2 0x2ED9 PUSH1 0xA0 DUP6 ADD DUP3 PUSH2 0x2E29 JUMP JUMPDEST POP PUSH1 0xC0 DUP3 ADD MLOAD PUSH2 0x2EEC PUSH1 0xC0 DUP6 ADD DUP3 PUSH2 0x2E56 JUMP JUMPDEST POP PUSH1 0xE0 DUP3 ADD MLOAD PUSH2 0x2EFF PUSH1 0xE0 DUP6 ADD DUP3 PUSH2 0x2E56 JUMP JUMPDEST POP POP POP POP JUMP JUMPDEST PUSH0 PUSH2 0x100 DUP3 ADD SWAP1 POP PUSH2 0x2F19 PUSH0 DUP4 ADD DUP5 PUSH2 0x2E65 JUMP JUMPDEST SWAP3 SWAP2 POP POP JUMP JUMPDEST PUSH0 PUSH0 REVERT JUMPDEST PUSH0 PUSH0 REVERT JUMPDEST PUSH0 PUSH0 REVERT JUMPDEST PUSH0 PUSH0 DUP4 PUSH1 0x1F DUP5 ADD SLT PUSH2 0x2F40 JUMPI PUSH2 0x2F3F PUSH2 0x2F1F JUMP JUMPDEST JUMPDEST DUP3 CALLDATALOAD SWAP1 POP PUSH8 0xFFFFFFFFFFFFFFFF DUP2 GT ISZERO PUSH2 0x2F5D JUMPI PUSH2 0x2F5C PUSH2 0x2F23 JUMP JUMPDEST JUMPDEST PUSH1 0x20 DUP4 ADD SWAP2 POP DUP4 PUSH1 0x1 DUP3 MUL DUP4 ADD GT ISZERO PUSH2 0x2F79 JUMPI PUSH2 0x2F78 PUSH2 0x2F27 JUMP JUMPDEST JUMPDEST SWAP3 POP SWAP3 SWAP1 POP JUMP JUMPDEST PUSH0 PUSH0 PUSH0 PUSH1 0x40 DUP5 DUP7 SUB SLT ISZERO PUSH2 0x2F97 JUMPI PUSH2 0x2F96 PUSH2 0x2B71 JUMP JUMPDEST JUMPDEST PUSH0 PUSH2 0x2FA4 DUP7 DUP3 DUP8 ADD PUSH2 0x2B98 JUMP JUMPDEST SWAP4 POP POP PUSH1 0x20 DUP5 ADD CALLDATALOAD PUSH8 0xFFFFFFFFFFFFFFFF DUP2 GT ISZERO PUSH2 0x2FC5 JUMPI PUSH2 0x2FC4 PUSH2 0x2B75 JUMP JUMPDEST JUMPDEST PUSH2 0x2FD1 DUP7 DUP3 DUP8 ADD PUSH2 0x2F2B JUMP JUMPDEST SWAP3 POP SWAP3 POP POP SWAP3 POP SWAP3 POP SWAP3 JUMP JUMPDEST PUSH0 DUP3 DUP3 MSTORE PUSH1 0x20 DUP3 ADD SWAP1 POP SWAP3 SWAP2 POP POP JUMP JUMPDEST PUSH32 0x457363726F7720646F6573206E6F742065786973740000000000000000000000 PUSH0 DUP3 ADD MSTORE POP JUMP JUMPDEST PUSH0 PUSH2 0x3021 PUSH1 0x15 DUP4 PUSH2 0x2FDD JUMP JUMPDEST SWAP2 POP PUSH2 0x302C DUP3 PUSH2 0x2FED JUMP JUMPDEST PUSH1 0x20 DUP3 ADD SWAP1 POP SWAP2 SWAP1 POP JUMP JUMPDEST PUSH0 PUSH1 0x20 DUP3 ADD SWAP1 POP DUP2 DUP2 SUB PUSH0 DUP4 ADD MSTORE PUSH2 0x304E DUP2 PUSH2 0x3015 JUMP JUMPDEST SWAP1 POP SWAP2 SWAP1 POP JUMP JUMPDEST PUSH32 0x4E6F742073656C6C657200000000000000000000000000000000000000000000 PUSH0 DUP3 ADD MSTORE POP JUMP JUMPDEST PUSH0 PUSH2 0x3089 PUSH1 0xA DUP4 PUSH2 0x2FDD JUMP JUMPDEST SWAP2 POP PUSH2 0x3094 DUP3 PUSH2 0x3055 JUMP JUMPDEST PUSH1 0x20 DUP3 ADD SWAP1 POP SWAP2 SWAP1 POP JUMP JUMPDEST PUSH0 PUSH1 0x20 DUP3 ADD SWAP1 POP DUP2 DUP2 SUB PUSH0 DUP4 ADD MSTORE PUSH2 0x30B6 DUP2 PUSH2 0x307D JUMP JUMPDEST SWAP1 POP SWAP2 SWAP1 POP JUMP JUMPDEST PUSH32 0x457363726F77206E6F742063616E63656C6C61626C6500000000000000000000 PUSH0 DUP3 ADD MSTORE POP JUMP JUMPDEST PUSH0 PUSH2 0x30F1 PUSH1 0x16 DUP4 PUSH2 0x2FDD JUMP JUMPDEST SWAP2 POP PUSH2 0x30FC DUP3 PUSH2 0x30BD JUMP JUMPDEST PUSH1 0x20 DUP3 ADD SWAP1 POP SWAP2 SWAP1 POP JUMP JUMPDEST PUSH0 PUSH1 0x20 DUP3 ADD SWAP1 POP DUP2 DUP2 SUB PUSH0 DUP4 ADD MSTORE PUSH2 0x311E DUP2 PUSH2 0x30E5 JUMP JUMPDEST SWAP1 POP SWAP2 SWAP1 POP JUMP JUMPDEST PUSH0 PUSH0 REVERT JUMPDEST PUSH0 PUSH1 0x1F NOT PUSH1 0x1F DUP4 ADD AND SWAP1 POP SWAP2 SWAP1 POP JUMP JUMPDEST PUSH32 0x4E487B7100000000000000000000000000000000000000000000000000000000 PUSH0 MSTORE PUSH1 0x41 PUSH1 0x4 MSTORE PUSH1 0x24 PUSH0 REVERT JUMPDEST PUSH2 0x316F DUP3 PUSH2 0x3129 JUMP JUMPDEST DUP2 ADD DUP2 DUP2 LT PUSH8 0xFFFFFFFFFFFFFFFF DUP3 GT OR ISZERO PUSH2 0x318E JUMPI PUSH2 0x318D PUSH2 0x3139 JUMP JUMPDEST JUMPDEST DUP1 PUSH1 0x40 MSTORE POP POP POP JUMP JUMPDEST PUSH0 PUSH2 0x31A0 PUSH2 0x2B68 JUMP JUMPDEST SWAP1 POP PUSH2 0x31AC DUP3 DUP3 PUSH2 0x3166 JUMP JUMPDEST SWAP2 SWAP1 POP JUMP JUMPDEST PUSH0 PUSH0 REVERT JUMPDEST PUSH0 DUP2 MLOAD SWAP1 POP PUSH2 0x31C3 DUP2 PUSH2 0x2B82 JUMP JUMPDEST SWAP3 SWAP2 POP POP JUMP JUMPDEST PUSH0 DUP2 MLOAD SWAP1 POP PUSH2 0x31D7 DUP2 PUSH2 0x2DD4 JUMP JUMPDEST SWAP3 SWAP2 POP POP JUMP JUMPDEST PUSH0 PUSH0 REVERT JUMPDEST PUSH0 PUSH8 0xFFFFFFFFFFFFFFFF DUP3 GT ISZERO PUSH2 0x31FB JUMPI PUSH2 0x31FA PUSH2 0x3139 JUMP JUMPDEST JUMPDEST PUSH2 0x3204 DUP3 PUSH2 0x3129 JUMP JUMPDEST SWAP1 POP PUSH1 0x20 DUP2 ADD SWAP1 POP SWAP2 SWAP1 POP JUMP JUMPDEST DUP3 DUP2 DUP4 MCOPY PUSH0 DUP4 DUP4 ADD MSTORE POP POP POP JUMP JUMPDEST PUSH0 PUSH2 0x3231 PUSH2 0x322C DUP5 PUSH2 0x31E1 JUMP JUMPDEST PUSH2 0x3197 JUMP JUMPDEST SWAP1 POP DUP3 DUP2 MSTORE PUSH1 0x20 DUP2 ADD DUP5 DUP5 DUP5 ADD GT ISZERO PUSH2 0x324D JUMPI PUSH2 0x324C PUSH2 0x31DD JUMP JUMPDEST JUMPDEST PUSH2 0x3258 DUP5 DUP3 DUP6 PUSH2 0x3211 JUMP JUMPDEST POP SWAP4 SWAP3 POP POP POP JUMP JUMPDEST PUSH0 DUP3 PUSH1 0x1F DUP4 ADD SLT PUSH2 0x3274 JUMPI PUSH2 0x3273 PUSH2 0x2F1F JUMP JUMPDEST JUMPDEST DUP2 MLOAD PUSH2 0x3284 DUP5 DUP3 PUSH1 0x20 DUP7 ADD PUSH2 0x321F JUMP JUMPDEST SWAP2 POP POP SWAP3 SWAP2 POP POP JUMP JUMPDEST PUSH1 0x2 DUP2 LT PUSH2 0x3299 JUMPI PUSH0 PUSH0 REVERT JUMPDEST POP JUMP JUMPDEST PUSH0 DUP2 MLOAD SWAP1 POP PUSH2 0x32AA DUP2 PUSH2 0x328D JUMP JUMPDEST SWAP3 SWAP2 POP POP JUMP JUMPDEST PUSH1 0x6 DUP2 LT PUSH2 0x32BC JUMPI PUSH0 PUSH0 REVERT JUMPDEST POP JUMP JUMPDEST PUSH0 DUP2 MLOAD SWAP1 POP PUSH2 0x32CD DUP2 PUSH2 0x32B0 JUMP JUMPDEST SWAP3 SWAP2 POP POP JUMP JUMPDEST PUSH2 0x32DC DUP2 PUSH2 0x2C98 JUMP JUMPDEST DUP2 EQ PUSH2 0x32E6 JUMPI PUSH0 PUSH0 REVERT JUMPDEST POP JUMP JUMPDEST PUSH0 DUP2 MLOAD SWAP1 POP PUSH2 0x32F7 DUP2 PUSH2 0x32D3 JUMP JUMPDEST SWAP3 SWAP2 POP POP JUMP JUMPDEST PUSH0 PUSH2 0x100 DUP3 DUP5 SUB SLT ISZERO PUSH2 0x3313 JUMPI PUSH2 0x3312 PUSH2 0x3125 JUMP JUMPDEST JUMPDEST PUSH2 0x331E PUSH2 0x100 PUSH2 0x3197 JUMP JUMPDEST SWAP1 POP PUSH0 PUSH2 0x332D DUP5 DUP3 DUP6 ADD PUSH2 0x31B5 JUMP JUMPDEST PUSH0 DUP4 ADD MSTORE POP PUSH1 0x20 PUSH2 0x3340 DUP5 DUP3 DUP6 ADD PUSH2 0x31C9 JUMP JUMPDEST PUSH1 0x20 DUP4 ADD MSTORE POP PUSH1 0x40 PUSH2 0x3354 DUP5 DUP3 DUP6 ADD PUSH2 0x31C9 JUMP JUMPDEST PUSH1 0x40 DUP4 ADD MSTORE POP PUSH1 0x60 PUSH2 0x3368 DUP5 DUP3 DUP6 ADD PUSH2 0x31B5 JUMP JUMPDEST PUSH1 0x60 DUP4 ADD MSTORE POP PUSH1 0x80 DUP3 ADD MLOAD PUSH8 0xFFFFFFFFFFFFFFFF DUP2 GT ISZERO PUSH2 0x338C JUMPI PUSH2 0x338B PUSH2 0x31B1 JUMP JUMPDEST JUMPDEST PUSH2 0x3398 DUP5 DUP3 DUP6 ADD PUSH2 0x3260 JUMP JUMPDEST PUSH1 0x80 DUP4 ADD MSTORE POP PUSH1 0xA0 PUSH2 0x33AC DUP5 DUP3 DUP6 ADD PUSH2 0x329C JUMP JUMPDEST PUSH1 0xA0 DUP4 ADD MSTORE POP PUSH1 0xC0 PUSH2 0x33C0 DUP5 DUP3 DUP6 ADD PUSH2 0x32BF JUMP JUMPDEST PUSH1 0xC0 DUP4 ADD MSTORE POP PUSH1 0xE0 PUSH2 0x33D4 DUP5 DUP3 DUP6 ADD PUSH2 0x32E9 JUMP JUMPDEST PUSH1 0xE0 DUP4 ADD MSTORE POP SWAP3 SWAP2 POP POP JUMP JUMPDEST PUSH0 PUSH1 0x20 DUP3 DUP5 SUB SLT ISZERO PUSH2 0x33F5 JUMPI PUSH2 0x33F4 PUSH2 0x2B71 JUMP JUMPDEST JUMPDEST PUSH0 DUP3 ADD MLOAD PUSH8 0xFFFFFFFFFFFFFFFF DUP2 GT ISZERO PUSH2 0x3412 JUMPI PUSH2 0x3411 PUSH2 0x2B75 JUMP JUMPDEST JUMPDEST PUSH2 0x341E DUP5 DUP3 DUP6 ADD PUSH2 0x32FD JUMP JUMPDEST SWAP2 POP POP SWAP3 SWAP2 POP POP JUMP JUMPDEST PUSH0 PUSH1 0x40 DUP3 ADD SWAP1 POP PUSH2 0x343A PUSH0 DUP4 ADD DUP6 PUSH2 0x2C16 JUMP JUMPDEST PUSH2 0x3447 PUSH1 0x20 DUP4 ADD DUP5 PUSH2 0x2BD7 JUMP JUMPDEST SWAP4 SWAP3 POP POP POP JUMP JUMPDEST PUSH0 PUSH1 0x20 DUP3 DUP5 SUB SLT ISZERO PUSH2 0x3463 JUMPI PUSH2 0x3462 PUSH2 0x2B71 JUMP JUMPDEST JUMPDEST PUSH0 PUSH2 0x3470 DUP5 DUP3 DUP6 ADD PUSH2 0x32E9 JUMP JUMPDEST SWAP2 POP POP SWAP3 SWAP2 POP POP JUMP JUMPDEST PUSH32 0x526566756E64206661696C656400000000000000000000000000000000000000 PUSH0 DUP3 ADD MSTORE POP JUMP JUMPDEST PUSH0 PUSH2 0x34AD PUSH1 0xD DUP4 PUSH2 0x2FDD JUMP JUMPDEST SWAP2 POP PUSH2 0x34B8 DUP3 PUSH2 0x3479 JUMP JUMPDEST PUSH1 0x20 DUP3 ADD SWAP1 POP SWAP2 SWAP1 POP JUMP JUMPDEST PUSH0 PUSH1 0x20 DUP3 ADD SWAP1 POP DUP2 DUP2 SUB PUSH0 DUP4 ADD MSTORE PUSH2 0x34DA DUP2 PUSH2 0x34A1 JUMP JUMPDEST SWAP1 POP SWAP2 SWAP1 POP JUMP JUMPDEST PUSH32 0x4E6F74206F776E65720000000000000000000000000000000000000000000000 PUSH0 DUP3 ADD MSTORE POP JUMP JUMPDEST PUSH0 PUSH2 0x3515 PUSH1 0x9 DUP4 PUSH2 0x2FDD JUMP JUMPDEST SWAP2 POP PUSH2 0x3520 DUP3 PUSH2 0x34E1 JUMP JUMPDEST PUSH1 0x20 DUP3 ADD SWAP1 POP SWAP2 SWAP1 POP JUMP JUMPDEST PUSH0 PUSH1 0x20 DUP3 ADD SWAP1 POP DUP2 DUP2 SUB PUSH0 DUP4 ADD MSTORE PUSH2 0x3542 DUP2 PUSH2 0x3509 JUMP JUMPDEST SWAP1 POP SWAP2 SWAP1 POP JUMP JUMPDEST PUSH32 0x457363726F77206E6F7420726566756E6461626C650000000000000000000000 PUSH0 DUP3 ADD MSTORE POP JUMP JUMPDEST PUSH0 PUSH2 0x357D PUSH1 0x15 DUP4 PUSH2 0x2FDD JUMP JUMPDEST SWAP2 POP PUSH2 0x3588 DUP3 PUSH2 0x3549 JUMP JUMPDEST PUSH1 0x20 DUP3 ADD SWAP1 POP SWAP2 SWAP1 POP JUMP JUMPDEST PUSH0 PUSH1 0x20 DUP3 ADD SWAP1 POP DUP2 DUP2 SUB PUSH0 DUP4 ADD MSTORE PUSH2 0x35AA DUP2 PUSH2 0x3571 JUMP JUMPDEST SWAP1 POP SWAP2 SWAP1 POP JUMP JUMPDEST PUSH32 0x496E76616C696420746F6B656E00000000000000000000000000000000000000 PUSH0 DUP3 ADD MSTORE POP JUMP JUMPDEST PUSH0 PUSH2 0x35E5 PUSH1 0xD DUP4 PUSH2 0x2FDD JUMP JUMPDEST SWAP2 POP PUSH2 0x35F0 DUP3 PUSH2 0x35B1 JUMP JUMPDEST PUSH1 0x20 DUP3 ADD SWAP1 POP SWAP2 SWAP1 POP JUMP JUMPDEST PUSH0 PUSH1 0x20 DUP3 ADD SWAP1 POP DUP2 DUP2 SUB PUSH0 DUP4 ADD MSTORE PUSH2 0x3612 DUP2 PUSH2 0x35D9 JUMP JUMPDEST SWAP1 POP SWAP2 SWAP1 POP JUMP JUMPDEST PUSH32 0x576F726B206E6F74207375626D69747465640000000000000000000000000000 PUSH0 DUP3 ADD MSTORE POP JUMP JUMPDEST PUSH0 PUSH2 0x364D PUSH1 0x12 DUP4 PUSH2 0x2FDD JUMP JUMPDEST SWAP2 POP PUSH2 0x3658 DUP3 PUSH2 0x3619 JUMP JUMPDEST PUSH1 0x20 DUP3 ADD SWAP1 POP SWAP2 SWAP1 POP JUMP JUMPDEST PUSH0 PUSH1 0x20 DUP3 ADD SWAP1 POP DUP2 DUP2 SUB PUSH0 DUP4 ADD MSTORE PUSH2 0x367A DUP2 PUSH2 0x3641 JUMP JUMPDEST SWAP1 POP SWAP2 SWAP1 POP JUMP JUMPDEST PUSH32 0x4275796572206D75737420636F6E6669726D206974656D2064656C6976657279 PUSH0 DUP3 ADD MSTORE POP JUMP JUMPDEST PUSH0 PUSH2 0x36B5 PUSH1 0x20 DUP4 PUSH2 0x2FDD JUMP JUMPDEST SWAP2 POP PUSH2 0x36C0 DUP3 PUSH2 0x3681 JUMP JUMPDEST PUSH1 0x20 DUP3 ADD SWAP1 POP SWAP2 SWAP1 POP JUMP JUMPDEST PUSH0 PUSH1 0x20 DUP3 ADD SWAP1 POP DUP2 DUP2 SUB PUSH0 DUP4 ADD MSTORE PUSH2 0x36E2 DUP2 PUSH2 0x36A9 JUMP JUMPDEST SWAP1 POP SWAP2 SWAP1 POP JUMP JUMPDEST PUSH32 0x426F756E74792063726561746F72206D75737420636F6E6669726D20636F6D70 PUSH0 DUP3 ADD MSTORE PUSH32 0x6C6574696F6E0000000000000000000000000000000000000000000000000000 PUSH1 0x20 DUP3 ADD MSTORE POP JUMP JUMPDEST PUSH0 PUSH2 0x3743 PUSH1 0x26 DUP4 PUSH2 0x2FDD JUMP JUMPDEST SWAP2 POP PUSH2 0x374E DUP3 PUSH2 0x36E9 JUMP JUMPDEST PUSH1 0x40 DUP3 ADD SWAP1 POP SWAP2 SWAP1 POP JUMP JUMPDEST PUSH0 PUSH1 0x20 DUP3 ADD SWAP1 POP DUP2 DUP2 SUB PUSH0 DUP4 ADD MSTORE PUSH2 0x3770 DUP2 PUSH2 0x3737 JUMP JUMPDEST SWAP1 POP SWAP2 SWAP1 POP JUMP JUMPDEST PUSH32 0x4E487B7100000000000000000000000000000000000000000000000000000000 PUSH0 MSTORE PUSH1 0x11 PUSH1 0x4 MSTORE PUSH1 0x24 PUSH0 REVERT JUMPDEST PUSH0 PUSH2 0x37AE DUP3 PUSH2 0x2B79 JUMP JUMPDEST SWAP2 POP PUSH2 0x37B9 DUP4 PUSH2 0x2B79 JUMP JUMPDEST SWAP3 POP DUP3 DUP3 MUL PUSH2 0x37C7 DUP2 PUSH2 0x2B79 JUMP JUMPDEST SWAP2 POP DUP3 DUP3 DIV DUP5 EQ DUP4 ISZERO OR PUSH2 0x37DE JUMPI PUSH2 0x37DD PUSH2 0x3777 JUMP JUMPDEST JUMPDEST POP SWAP3 SWAP2 POP POP JUMP JUMPDEST PUSH32 0x4E487B7100000000000000000000000000000000000000000000000000000000 PUSH0 MSTORE PUSH1 0x12 PUSH1 0x4 MSTORE PUSH1 0x24 PUSH0 REVERT JUMPDEST PUSH0 PUSH2 0x381C DUP3 PUSH2 0x2B79 JUMP JUMPDEST SWAP2 POP PUSH2 0x3827 DUP4 PUSH2 0x2B79 JUMP JUMPDEST SWAP3 POP DUP3 PUSH2 0x3837 JUMPI PUSH2 0x3836 PUSH2 0x37E5 JUMP JUMPDEST JUMPDEST DUP3 DUP3 DIV SWAP1 POP SWAP3 SWAP2 POP POP JUMP JUMPDEST PUSH0 PUSH2 0x384C DUP3 PUSH2 0x2B79 JUMP JUMPDEST SWAP2 POP PUSH2 0x3857 DUP4 PUSH2 0x2B79 JUMP JUMPDEST SWAP3 POP DUP3 DUP3 SUB SWAP1 POP DUP2 DUP2 GT ISZERO PUSH2 0x386F JUMPI PUSH2 0x386E PUSH2 0x3777 JUMP JUMPDEST JUMPDEST SWAP3 SWAP2 POP POP JUMP JUMPDEST PUSH32 0x53656C6C6572207061796D656E74206661696C65640000000000000000000000 PUSH0 DUP3 ADD MSTORE POP JUMP JUMPDEST PUSH0 PUSH2 0x38A9 PUSH1 0x15 DUP4 PUSH2 0x2FDD JUMP JUMPDEST SWAP2 POP PUSH2 0x38B4 DUP3 PUSH2 0x3875 JUMP JUMPDEST PUSH1 0x20 DUP3 ADD SWAP1 POP SWAP2 SWAP1 POP JUMP JUMPDEST PUSH0 PUSH1 0x20 DUP3 ADD SWAP1 POP DUP2 DUP2 SUB PUSH0 DUP4 ADD MSTORE PUSH2 0x38D6 DUP2 PUSH2 0x389D JUMP JUMPDEST SWAP1 POP SWAP2 SWAP1 POP JUMP JUMPDEST PUSH32 0x576F726B6572207061796D656E74206661696C65640000000000000000000000 PUSH0 DUP3 ADD MSTORE POP JUMP JUMPDEST PUSH0 PUSH2 0x3911 PUSH1 0x15 DUP4 PUSH2 0x2FDD JUMP JUMPDEST SWAP2 POP PUSH2 0x391C DUP3 PUSH2 0x38DD JUMP JUMPDEST PUSH1 0x20 DUP3 ADD SWAP1 POP SWAP2 SWAP1 POP JUMP JUMPDEST PUSH0 PUSH1 0x20 DUP3 ADD SWAP1 POP DUP2 DUP2 SUB PUSH0 DUP4 ADD MSTORE PUSH2 0x393E DUP2 PUSH2 0x3905 JUMP JUMPDEST SWAP1 POP SWAP2 SWAP1 POP JUMP JUMPDEST PUSH32 0x466565207061796D656E74206661696C65640000000000000000000000000000 PUSH0 DUP3 ADD MSTORE POP JUMP JUMPDEST PUSH0 PUSH2 0x3979 PUSH1 0x12 DUP4 PUSH2 0x2FDD JUMP JUMPDEST SWAP2 POP PUSH2 0x3984 DUP3 PUSH2 0x3945 JUMP JUMPDEST PUSH1 0x20 DUP3 ADD SWAP1 POP SWAP2 SWAP1 POP JUMP JUMPDEST PUSH0 PUSH1 0x20 DUP3 ADD SWAP1 POP DUP2 DUP2 SUB PUSH0 DUP4 ADD MSTORE PUSH2 0x39A6 DUP2 PUSH2 0x396D JUMP JUMPDEST SWAP1 POP SWAP2 SWAP1 POP JUMP JUMPDEST PUSH0 PUSH1 0x40 DUP3 ADD SWAP1 POP PUSH2 0x39C0 PUSH0 DUP4 ADD DUP6 PUSH2 0x2BD7 JUMP JUMPDEST PUSH2 0x39CD PUSH1 0x20 DUP4 ADD DUP5 PUSH2 0x2BD7 JUMP JUMPDEST SWAP4 SWAP3 POP POP POP JUMP JUMPDEST PUSH32 0x457363726F77206E6F742066756E646564000000000000000000000000000000 PUSH0 DUP3 ADD MSTORE POP JUMP JUMPDEST PUSH0 PUSH2 0x3A08 PUSH1 0x11 DUP4 PUSH2 0x2FDD JUMP JUMPDEST SWAP2 POP PUSH2 0x3A13 DUP3 PUSH2 0x39D4 JUMP JUMPDEST PUSH1 0x20 DUP3 ADD SWAP1 POP SWAP2 SWAP1 POP JUMP JUMPDEST PUSH0 PUSH1 0x20 DUP3 ADD SWAP1 POP DUP2 DUP2 SUB PUSH0 DUP4 ADD MSTORE PUSH2 0x3A35 DUP2 PUSH2 0x39FC JUMP JUMPDEST SWAP1 POP SWAP2 SWAP1 POP JUMP JUMPDEST PUSH32 0x4F6E6C792073656C6C65722063616E207375626D69742064656C697665727900 PUSH0 DUP3 ADD MSTORE POP JUMP JUMPDEST PUSH0 PUSH2 0x3A70 PUSH1 0x1F DUP4 PUSH2 0x2FDD JUMP JUMPDEST SWAP2 POP PUSH2 0x3A7B DUP3 PUSH2 0x3A3C JUMP JUMPDEST PUSH1 0x20 DUP3 ADD SWAP1 POP SWAP2 SWAP1 POP JUMP JUMPDEST PUSH0 PUSH1 0x20 DUP3 ADD SWAP1 POP DUP2 DUP2 SUB PUSH0 DUP4 ADD MSTORE PUSH2 0x3A9D DUP2 PUSH2 0x3A64 JUMP JUMPDEST SWAP1 POP SWAP2 SWAP1 POP JUMP JUMPDEST PUSH32 0x4F6E6C7920776F726B65722063616E207375626D697420626F756E7479000000 PUSH0 DUP3 ADD MSTORE POP JUMP JUMPDEST PUSH0 PUSH2 0x3AD8 PUSH1 0x1D DUP4 PUSH2 0x2FDD JUMP JUMPDEST SWAP2 POP PUSH2 0x3AE3 DUP3 PUSH2 0x3AA4 JUMP JUMPDEST PUSH1 0x20 DUP3 ADD SWAP1 POP SWAP2 SWAP1 POP JUMP JUMPDEST PUSH0 PUSH1 0x20 DUP3 ADD SWAP1 POP DUP2 DUP2 SUB PUSH0 DUP4 ADD MSTORE PUSH2 0x3B05 DUP2 PUSH2 0x3ACC JUMP JUMPDEST SWAP1 POP SWAP2 SWAP1 POP JUMP JUMPDEST PUSH32 0x46656520746F6F20686967680000000000000000000000000000000000000000 PUSH0 DUP3 ADD MSTORE POP JUMP JUMPDEST PUSH0 PUSH2 0x3B40 PUSH1 0xC DUP4 PUSH2 0x2FDD JUMP JUMPDEST SWAP2 POP PUSH2 0x3B4B DUP3 PUSH2 0x3B0C JUMP JUMPDEST PUSH1 0x20 DUP3 ADD SWAP1 POP SWAP2 SWAP1 POP JUMP JUMPDEST PUSH0 PUSH1 0x20 DUP3 ADD SWAP1 POP DUP2 DUP2 SUB PUSH0 DUP4 ADD MSTORE PUSH2 0x3B6D DUP2 PUSH2 0x3B34 JUMP JUMPDEST SWAP1 POP SWAP2 SWAP1 POP JUMP JUMPDEST PUSH32 0x4C697374696E6720646F6573206E6F7420657869737400000000000000000000 PUSH0 DUP3 ADD MSTORE POP JUMP JUMPDEST PUSH0 PUSH2 0x3BA8 PUSH1 0x16 DUP4 PUSH2 0x2FDD JUMP JUMPDEST SWAP2 POP PUSH2 0x3BB3 DUP3 PUSH2 0x3B74 JUMP JUMPDEST PUSH1 0x20 DUP3 ADD SWAP1 POP SWAP2 SWAP1 POP JUMP JUMPDEST PUSH0 PUSH1 0x20 DUP3 ADD SWAP1 POP DUP2 DUP2 SUB PUSH0 DUP4 ADD MSTORE PUSH2 0x3BD5 DUP2 PUSH2 0x3B9C JUMP JUMPDEST SWAP1 POP SWAP2 SWAP1 POP JUMP JUMPDEST PUSH32 0x4C697374696E67206E6F74206163746976650000000000000000000000000000 PUSH0 DUP3 ADD MSTORE POP JUMP JUMPDEST PUSH0 PUSH2 0x3C10 PUSH1 0x12 DUP4 PUSH2 0x2FDD JUMP JUMPDEST SWAP2 POP PUSH2 0x3C1B DUP3 PUSH2 0x3BDC JUMP JUMPDEST PUSH1 0x20 DUP3 ADD SWAP1 POP SWAP2 SWAP1 POP JUMP JUMPDEST PUSH0 PUSH1 0x20 DUP3 ADD SWAP1 POP DUP2 DUP2 SUB PUSH0 DUP4 ADD MSTORE PUSH2 0x3C3D DUP2 PUSH2 0x3C04 JUMP JUMPDEST SWAP1 POP SWAP2 SWAP1 POP JUMP JUMPDEST PUSH32 0x43726561746F722063616E6E6F7420616363657074206F776E206C697374696E PUSH0 DUP3 ADD MSTORE PUSH32 0x6700000000000000000000000000000000000000000000000000000000000000 PUSH1 0x20 DUP3 ADD MSTORE POP JUMP JUMPDEST PUSH0 PUSH2 0x3C9E PUSH1 0x21 DUP4 PUSH2 0x2FDD JUMP JUMPDEST SWAP2 POP PUSH2 0x3CA9 DUP3 PUSH2 0x3C44 JUMP JUMPDEST PUSH1 0x40 DUP3 ADD SWAP1 POP SWAP2 SWAP1 POP JUMP JUMPDEST PUSH0 PUSH1 0x20 DUP3 ADD SWAP1 POP DUP2 DUP2 SUB PUSH0 DUP4 ADD MSTORE PUSH2 0x3CCB DUP2 PUSH2 0x3C92 JUMP JUMPDEST SWAP1 POP SWAP2 SWAP1 POP JUMP JUMPDEST PUSH32 0x457363726F7720616C7265616479206578697374730000000000000000000000 PUSH0 DUP3 ADD MSTORE POP JUMP JUMPDEST PUSH0 PUSH2 0x3D06 PUSH1 0x15 DUP4 PUSH2 0x2FDD JUMP JUMPDEST SWAP2 POP PUSH2 0x3D11 DUP3 PUSH2 0x3CD2 JUMP JUMPDEST PUSH1 0x20 DUP3 ADD SWAP1 POP SWAP2 SWAP1 POP JUMP JUMPDEST PUSH0 PUSH1 0x20 DUP3 ADD SWAP1 POP DUP2 DUP2 SUB PUSH0 DUP4 ADD MSTORE PUSH2 0x3D33 DUP2 PUSH2 0x3CFA JUMP JUMPDEST SWAP1 POP SWAP2 SWAP1 POP JUMP JUMPDEST PUSH0 PUSH1 0x20 DUP3 DUP5 SUB SLT ISZERO PUSH2 0x3D4F JUMPI PUSH2 0x3D4E PUSH2 0x2B71 JUMP JUMPDEST JUMPDEST PUSH0 PUSH2 0x3D5C DUP5 DUP3 DUP6 ADD PUSH2 0x31C9 JUMP JUMPDEST SWAP2 POP POP SWAP3 SWAP2 POP POP JUMP JUMPDEST PUSH32 0x4E6F7420617070726F76656420666F72206C697374696E670000000000000000 PUSH0 DUP3 ADD MSTORE POP JUMP JUMPDEST PUSH0 PUSH2 0x3D99 PUSH1 0x18 DUP4 PUSH2 0x2FDD JUMP JUMPDEST SWAP2 POP PUSH2 0x3DA4 DUP3 PUSH2 0x3D65 JUMP JUMPDEST PUSH1 0x20 DUP3 ADD SWAP1 POP SWAP2 SWAP1 POP JUMP JUMPDEST PUSH0 PUSH1 0x20 DUP3 ADD SWAP1 POP DUP2 DUP2 SUB PUSH0 DUP4 ADD MSTORE PUSH2 0x3DC6 DUP2 PUSH2 0x3D8D JUMP JUMPDEST SWAP1 POP SWAP2 SWAP1 POP JUMP JUMPDEST PUSH0 PUSH1 0x60 DUP3 ADD SWAP1 POP PUSH2 0x3DE0 PUSH0 DUP4 ADD DUP7 PUSH2 0x2C16 JUMP JUMPDEST PUSH2 0x3DED PUSH1 0x20 DUP4 ADD DUP6 PUSH2 0x2C16 JUMP JUMPDEST PUSH2 0x3DFA PUSH1 0x40 DUP4 ADD DUP5 PUSH2 0x2BD7 JUMP JUMPDEST SWAP5 SWAP4 POP POP POP POP JUMP JUMPDEST PUSH32 0x546F6B656E207472616E73666572206661696C65640000000000000000000000 PUSH0 DUP3 ADD MSTORE POP JUMP JUMPDEST PUSH0 PUSH2 0x3E36 PUSH1 0x15 DUP4 PUSH2 0x2FDD JUMP JUMPDEST SWAP2 POP PUSH2 0x3E41 DUP3 PUSH2 0x3E02 JUMP JUMPDEST PUSH1 0x20 DUP3 ADD SWAP1 POP SWAP2 SWAP1 POP JUMP JUMPDEST PUSH0 PUSH1 0x20 DUP3 ADD SWAP1 POP DUP2 DUP2 SUB PUSH0 DUP4 ADD MSTORE PUSH2 0x3E63 DUP2 PUSH2 0x3E2A JUMP JUMPDEST SWAP1 POP SWAP2 SWAP1 POP JUMP JUMPDEST PUSH0 PUSH1 0x40 DUP3 ADD SWAP1 POP PUSH2 0x3E7D PUSH0 DUP4 ADD DUP6 PUSH2 0x2BD7 JUMP JUMPDEST PUSH2 0x3E8A PUSH1 0x20 DUP4 ADD DUP5 PUSH2 0x2C16 JUMP JUMPDEST SWAP4 SWAP3 POP POP POP JUMP JUMPDEST PUSH32 0x416C72656164792072656A6563746564206F6E63650000000000000000000000 PUSH0 DUP3 ADD MSTORE POP JUMP JUMPDEST PUSH0 PUSH2 0x3EC5 PUSH1 0x15 DUP4 PUSH2 0x2FDD JUMP JUMPDEST SWAP2 POP PUSH2 0x3ED0 DUP3 PUSH2 0x3E91 JUMP JUMPDEST PUSH1 0x20 DUP3 ADD SWAP1 POP SWAP2 SWAP1 POP JUMP JUMPDEST PUSH0 PUSH1 0x20 DUP3 ADD SWAP1 POP DUP2 DUP2 SUB PUSH0 DUP4 ADD MSTORE PUSH2 0x3EF2 DUP2 PUSH2 0x3EB9 JUMP JUMPDEST SWAP1 POP SWAP2 SWAP1 POP JUMP JUMPDEST PUSH32 0x4275796572206D7573742072656A656374206974656D2064656C697665727900 PUSH0 DUP3 ADD MSTORE POP JUMP JUMPDEST PUSH0 PUSH2 0x3F2D PUSH1 0x1F DUP4 PUSH2 0x2FDD JUMP JUMPDEST SWAP2 POP PUSH2 0x3F38 DUP3 PUSH2 0x3EF9 JUMP JUMPDEST PUSH1 0x20 DUP3 ADD SWAP1 POP SWAP2 SWAP1 POP JUMP JUMPDEST PUSH0 PUSH1 0x20 DUP3 ADD SWAP1 POP DUP2 DUP2 SUB PUSH0 DUP4 ADD MSTORE PUSH2 0x3F5A DUP2 PUSH2 0x3F21 JUMP JUMPDEST SWAP1 POP SWAP2 SWAP1 POP JUMP JUMPDEST PUSH32 0x426F756E74792063726561746F72206D7573742072656A65637420776F726B00 PUSH0 DUP3 ADD MSTORE POP JUMP JUMPDEST PUSH0 PUSH2 0x3F95 PUSH1 0x1F DUP4 PUSH2 0x2FDD JUMP JUMPDEST SWAP2 POP PUSH2 0x3FA0 DUP3 PUSH2 0x3F61 JUMP JUMPDEST PUSH1 0x20 DUP3 ADD SWAP1 POP SWAP2 SWAP1 POP JUMP JUMPDEST PUSH0 PUSH1 0x20 DUP3 ADD SWAP1 POP DUP2 DUP2 SUB PUSH0 DUP4 ADD MSTORE PUSH2 0x3FC2 DUP2 PUSH2 0x3F89 JUMP JUMPDEST SWAP1 POP SWAP2 SWAP1 POP JUMP JUMPDEST DUP3 DUP2 DUP4 CALLDATACOPY PUSH0 DUP4 DUP4 ADD MSTORE POP POP POP JUMP JUMPDEST PUSH0 PUSH2 0x3FE2 DUP4 DUP6 PUSH2 0x2FDD JUMP JUMPDEST SWAP4 POP PUSH2 0x3FEF DUP4 DUP6 DUP5 PUSH2 0x3FC9 JUMP JUMPDEST PUSH2 0x3FF8 DUP4 PUSH2 0x3129 JUMP JUMPDEST DUP5 ADD SWAP1 POP SWAP4 SWAP3 POP POP POP JUMP JUMPDEST PUSH0 PUSH1 0x20 DUP3 ADD SWAP1 POP DUP2 DUP2 SUB PUSH0 DUP4 ADD MSTORE PUSH2 0x401C DUP2 DUP5 DUP7 PUSH2 0x3FD7 JUMP JUMPDEST SWAP1 POP SWAP4 SWAP3 POP POP POP JUMP JUMPDEST PUSH32 0x496E76616C69642066656520726563697069656E740000000000000000000000 PUSH0 DUP3 ADD MSTORE POP JUMP JUMPDEST PUSH0 PUSH2 0x4059 PUSH1 0x15 DUP4 PUSH2 0x2FDD JUMP JUMPDEST SWAP2 POP PUSH2 0x4064 DUP3 PUSH2 0x4025 JUMP JUMPDEST PUSH1 0x20 DUP3 ADD SWAP1 POP SWAP2 SWAP1 POP JUMP JUMPDEST PUSH0 PUSH1 0x20 DUP3 ADD SWAP1 POP DUP2 DUP2 SUB PUSH0 DUP4 ADD MSTORE PUSH2 0x4086 DUP2 PUSH2 0x404D JUMP JUMPDEST SWAP1 POP SWAP2 SWAP1 POP JUMP INVALID LOG2 PUSH5 0x6970667358 0x22 SLT KECCAK256 DUP8 DUP4 0xBA 0xD3 PUSH4 0x8AEAC39E PUSH17 0x15FDBF1BC43E25C887C151610E0C4CA2DE 0x1E PUSH1 0x99 0xB3 SWAP16 PUSH5 0x736F6C6343 STOP ADDMOD 0x1E STOP CALLER "
				},
				"gasEstimates": {
					"creation": {
						"codeDepositCost": "3315800",
						"executionCost": "infinite",
						"totalCost": "infinite"
					},
					"external": {
						"adminRefund(uint256)": "infinite",
						"confirmCompletion(uint256)": "infinite",
						"escrows(uint256)": "infinite",
						"feeRecipient()": "2531",
						"fundEscrow(uint256)": "infinite",
						"getEscrow(uint256)": "infinite",
						"marketplace()": "2575",
						"owner()": "2530",
						"paymentToken()": "infinite",
						"platformFeeBps()": "2471",
						"rejectWork(uint256,string)": "infinite",
						"sellerCancel(uint256)": "infinite",
						"setFeeRecipient(address)": "infinite",
						"setPaymentToken(address)": "infinite",
						"setPlatformFeeBps(uint256)": "infinite",
						"submitWork(uint256)": "infinite"
					}
				},
				"methodIdentifiers": {
					"adminRefund(uint256)": "4c48ede7",
					"confirmCompletion(uint256)": "94aeb613",
					"escrows(uint256)": "012f52ee",
					"feeRecipient()": "46904840",
					"fundEscrow(uint256)": "c9c31af5",
					"getEscrow(uint256)": "7d19e596",
					"marketplace()": "abc8c7af",
					"owner()": "8da5cb5b",
					"paymentToken()": "3013ce29",
					"platformFeeBps()": "22dcd13e",
					"rejectWork(uint256,string)": "d7ec40ee",
					"sellerCancel(uint256)": "301e8a05",
					"setFeeRecipient(address)": "e74b981b",
					"setPaymentToken(address)": "6a326ab1",
					"setPlatformFeeBps(uint256)": "c580c942",
					"submitWork(uint256)": "c4c11523"
				}
			},
			"storageLayout": {
				"storage": [
					{
						"astId": 121,
						"contract": "Escrow.sol:Escrow",
						"label": "owner",
						"offset": 0,
						"slot": "0",
						"type": "t_address"
					},
					{
						"astId": 123,
						"contract": "Escrow.sol:Escrow",
						"label": "marketplace",
						"offset": 0,
						"slot": "1",
						"type": "t_address"
					},
					{
						"astId": 126,
						"contract": "Escrow.sol:Escrow",
						"label": "paymentToken",
						"offset": 0,
						"slot": "2",
						"type": "t_contract(IERC20)22"
					},
					{
						"astId": 129,
						"contract": "Escrow.sol:Escrow",
						"label": "platformFeeBps",
						"offset": 0,
						"slot": "3",
						"type": "t_uint256"
					},
					{
						"astId": 131,
						"contract": "Escrow.sol:Escrow",
						"label": "feeRecipient",
						"offset": 0,
						"slot": "4",
						"type": "t_address"
					},
					{
						"astId": 136,
						"contract": "Escrow.sol:Escrow",
						"label": "escrows",
						"offset": 0,
						"slot": "5",
						"type": "t_mapping(t_uint256,t_struct(EscrowDeal)119_storage)"
					}
				],
				"types": {
					"t_address": {
						"encoding": "inplace",
						"label": "address",
						"numberOfBytes": "20"
					},
					"t_bool": {
						"encoding": "inplace",
						"label": "bool",
						"numberOfBytes": "1"
					},
					"t_contract(IERC20)22": {
						"encoding": "inplace",
						"label": "contract IERC20",
						"numberOfBytes": "20"
					},
					"t_enum(EscrowStatus)101": {
						"encoding": "inplace",
						"label": "enum Escrow.EscrowStatus",
						"numberOfBytes": "1"
					},
					"t_mapping(t_uint256,t_struct(EscrowDeal)119_storage)": {
						"encoding": "mapping",
						"key": "t_uint256",
						"label": "mapping(uint256 => struct Escrow.EscrowDeal)",
						"numberOfBytes": "32",
						"value": "t_struct(EscrowDeal)119_storage"
					},
					"t_struct(EscrowDeal)119_storage": {
						"encoding": "inplace",
						"label": "struct Escrow.EscrowDeal",
						"members": [
							{
								"astId": 103,
								"contract": "Escrow.sol:Escrow",
								"label": "listingId",
								"offset": 0,
								"slot": "0",
								"type": "t_uint256"
							},
							{
								"astId": 105,
								"contract": "Escrow.sol:Escrow",
								"label": "buyer",
								"offset": 0,
								"slot": "1",
								"type": "t_address"
							},
							{
								"astId": 107,
								"contract": "Escrow.sol:Escrow",
								"label": "seller",
								"offset": 0,
								"slot": "2",
								"type": "t_address"
							},
							{
								"astId": 109,
								"contract": "Escrow.sol:Escrow",
								"label": "amount",
								"offset": 0,
								"slot": "3",
								"type": "t_uint256"
							},
							{
								"astId": 112,
								"contract": "Escrow.sol:Escrow",
								"label": "status",
								"offset": 0,
								"slot": "4",
								"type": "t_enum(EscrowStatus)101"
							},
							{
								"astId": 114,
								"contract": "Escrow.sol:Escrow",
								"label": "fundedAt",
								"offset": 0,
								"slot": "5",
								"type": "t_uint256"
							},
							{
								"astId": 116,
								"contract": "Escrow.sol:Escrow",
								"label": "exists",
								"offset": 0,
								"slot": "6",
								"type": "t_bool"
							},
							{
								"astId": 118,
								"contract": "Escrow.sol:Escrow",
								"label": "rejectedOnce",
								"offset": 1,
								"slot": "6",
								"type": "t_bool"
							}
						],
						"numberOfBytes": "224"
					},
					"t_uint256": {
						"encoding": "inplace",
						"label": "uint256",
						"numberOfBytes": "32"
					}
				}
			},
			"userdoc": {
				"kind": "user",
				"methods": {},
				"version": 1
			}
		}
	}
}